{
	"contracts/MultiTokenPaymentIntegrated.sol": {
		"MultiTokenPaymentIntegrated": {
			"abi": [
				{
					"inputs": [],
					"stateMutability": "nonpayable",
					"type": "constructor"
				},
				{
					"anonymous": false,
					"inputs": [
						{
							"indexed": true,
							"internalType": "address",
							"name": "from",
							"type": "address"
						},
						{
							"indexed": false,
							"internalType": "address[]",
							"name": "recipients",
							"type": "address[]"
						},
						{
							"indexed": false,
							"internalType": "address[]",
							"name": "tokens",
							"type": "address[]"
						},
						{
							"indexed": false,
							"internalType": "uint256[]",
							"name": "amounts",
							"type": "uint256[]"
						},
						{
							"indexed": false,
							"internalType": "uint256",
							"name": "timestamp",
							"type": "uint256"
						}
					],
					"name": "MultiTokenPaymentProcessed",
					"type": "event"
				},
				{
					"anonymous": false,
					"inputs": [
						{
							"indexed": true,
							"internalType": "address",
							"name": "previousOwner",
							"type": "address"
						},
						{
							"indexed": true,
							"internalType": "address",
							"name": "newOwner",
							"type": "address"
						}
					],
					"name": "OwnershipTransferred",
					"type": "event"
				},
				{
					"anonymous": false,
					"inputs": [
						{
							"indexed": true,
							"internalType": "address",
							"name": "from",
							"type": "address"
						},
						{
							"indexed": true,
							"internalType": "address",
							"name": "to",
							"type": "address"
						},
						{
							"indexed": true,
							"internalType": "address",
							"name": "token",
							"type": "address"
						},
						{
							"indexed": false,
							"internalType": "uint256",
							"name": "amount",
							"type": "uint256"
						},
						{
							"indexed": false,
							"internalType": "uint256",
							"name": "timestamp",
							"type": "uint256"
						},
						{
							"indexed": false,
							"internalType": "bool",
							"name": "isNonStandardToken",
							"type": "bool"
						}
					],
					"name": "PaymentProcessed",
					"type": "event"
				},
				{
					"anonymous": false,
					"inputs": [
						{
							"indexed": true,
							"internalType": "address",
							"name": "token",
							"type": "address"
						},
						{
							"indexed": false,
							"internalType": "string",
							"name": "symbol",
							"type": "string"
						},
						{
							"indexed": false,
							"internalType": "string",
							"name": "name",
							"type": "string"
						},
						{
							"indexed": false,
							"internalType": "bool",
							"name": "isNonStandard",
							"type": "bool"
						}
					],
					"name": "TokenAdded",
					"type": "event"
				},
				{
					"anonymous": false,
					"inputs": [
						{
							"indexed": true,
							"internalType": "address",
							"name": "token",
							"type": "address"
						}
					],
					"name": "TokenRemoved",
					"type": "event"
				},
				{
					"inputs": [
						{
							"internalType": "address",
							"name": "token",
							"type": "address"
						}
					],
					"name": "addKnownNonStandardToken",
					"outputs": [],
					"stateMutability": "nonpayable",
					"type": "function"
				},
				{
					"inputs": [
						{
							"internalType": "address",
							"name": "token",
							"type": "address"
						},
						{
							"internalType": "string",
							"name": "symbol",
							"type": "string"
						},
						{
							"internalType": "string",
							"name": "name",
							"type": "string"
						},
						{
							"internalType": "uint8",
							"name": "decimals",
							"type": "uint8"
						},
						{
							"internalType": "bool",
							"name": "isNonStandard",
							"type": "bool"
						}
					],
					"name": "addSupportedToken",
					"outputs": [],
					"stateMutability": "nonpayable",
					"type": "function"
				},
				{
					"inputs": [
						{
							"internalType": "address",
							"name": "token",
							"type": "address"
						}
					],
					"name": "addSupportedTokenAuto",
					"outputs": [],
					"stateMutability": "nonpayable",
					"type": "function"
				},
				{
					"inputs": [
						{
							"internalType": "address",
							"name": "token",
							"type": "address"
						},
						{
							"internalType": "address[]",
							"name": "recipients",
							"type": "address[]"
						},
						{
							"internalType": "uint256[]",
							"name": "amounts",
							"type": "uint256[]"
						}
					],
					"name": "batchPayments",
					"outputs": [
						{
							"internalType": "bool",
							"name": "",
							"type": "bool"
						}
					],
					"stateMutability": "nonpayable",
					"type": "function"
				},
				{
					"inputs": [
						{
							"internalType": "address",
							"name": "user",
							"type": "address"
						}
					],
					"name": "checkAllAllowances",
					"outputs": [
						{
							"internalType": "address[]",
							"name": "",
							"type": "address[]"
						},
						{
							"internalType": "uint256[]",
							"name": "",
							"type": "uint256[]"
						}
					],
					"stateMutability": "view",
					"type": "function"
				},
				{
					"inputs": [
						{
							"internalType": "address",
							"name": "token",
							"type": "address"
						},
						{
							"internalType": "address",
							"name": "user",
							"type": "address"
						}
					],
					"name": "checkAllowance",
					"outputs": [
						{
							"internalType": "uint256",
							"name": "",
							"type": "uint256"
						}
					],
					"stateMutability": "view",
					"type": "function"
				},
				{
					"inputs": [
						{
							"internalType": "address",
							"name": "token",
							"type": "address"
						},
						{
							"internalType": "address",
							"name": "user",
							"type": "address"
						}
					],
					"name": "checkBalance",
					"outputs": [
						{
							"internalType": "uint256",
							"name": "",
							"type": "uint256"
						}
					],
					"stateMutability": "view",
					"type": "function"
				},
				{
					"inputs": [
						{
							"internalType": "address",
							"name": "token",
							"type": "address"
						}
					],
					"name": "checkTokenStandard",
					"outputs": [
						{
							"internalType": "bool",
							"name": "",
							"type": "bool"
						}
					],
					"stateMutability": "view",
					"type": "function"
				},
				{
					"inputs": [],
					"name": "getSupportedTokens",
					"outputs": [
						{
							"internalType": "address[]",
							"name": "",
							"type": "address[]"
						}
					],
					"stateMutability": "view",
					"type": "function"
				},
				{
					"inputs": [
						{
							"internalType": "address",
							"name": "token",
							"type": "address"
						}
					],
					"name": "getTokenInfo",
					"outputs": [
						{
							"internalType": "string",
							"name": "symbol",
							"type": "string"
						},
						{
							"internalType": "string",
							"name": "name",
							"type": "string"
						},
						{
							"internalType": "uint8",
							"name": "decimals",
							"type": "uint8"
						},
						{
							"internalType": "bool",
							"name": "isNonStandard",
							"type": "bool"
						}
					],
					"stateMutability": "view",
					"type": "function"
				},
				{
					"inputs": [],
					"name": "getVersion",
					"outputs": [
						{
							"internalType": "string",
							"name": "",
							"type": "string"
						}
					],
					"stateMutability": "pure",
					"type": "function"
				},
				{
					"inputs": [
						{
							"internalType": "address",
							"name": "",
							"type": "address"
						}
					],
					"name": "isNonStandardToken",
					"outputs": [
						{
							"internalType": "bool",
							"name": "",
							"type": "bool"
						}
					],
					"stateMutability": "view",
					"type": "function"
				},
				{
					"inputs": [
						{
							"internalType": "address",
							"name": "",
							"type": "address"
						}
					],
					"name": "isTokenSupported",
					"outputs": [
						{
							"internalType": "bool",
							"name": "",
							"type": "bool"
						}
					],
					"stateMutability": "view",
					"type": "function"
				},
				{
					"inputs": [
						{
							"internalType": "address",
							"name": "",
							"type": "address"
						}
					],
					"name": "knownNonStandardTokens",
					"outputs": [
						{
							"internalType": "bool",
							"name": "",
							"type": "bool"
						}
					],
					"stateMutability": "view",
					"type": "function"
				},
				{
					"inputs": [
						{
							"internalType": "address[]",
							"name": "tokens",
							"type": "address[]"
						},
						{
							"internalType": "address[]",
							"name": "recipients",
							"type": "address[]"
						},
						{
							"internalType": "uint256[]",
							"name": "amounts",
							"type": "uint256[]"
						}
					],
					"name": "makeMultiTokenPayment",
					"outputs": [
						{
							"internalType": "bool",
							"name": "",
							"type": "bool"
						}
					],
					"stateMutability": "nonpayable",
					"type": "function"
				},
				{
					"inputs": [
						{
							"internalType": "address",
							"name": "token",
							"type": "address"
						},
						{
							"internalType": "address",
							"name": "to",
							"type": "address"
						},
						{
							"internalType": "uint256",
							"name": "amount",
							"type": "uint256"
						}
					],
					"name": "makePayment",
					"outputs": [
						{
							"internalType": "bool",
							"name": "",
							"type": "bool"
						}
					],
					"stateMutability": "nonpayable",
					"type": "function"
				},
				{
					"inputs": [],
					"name": "owner",
					"outputs": [
						{
							"internalType": "address",
							"name": "",
							"type": "address"
						}
					],
					"stateMutability": "view",
					"type": "function"
				},
				{
					"inputs": [
						{
							"internalType": "address",
							"name": "token",
							"type": "address"
						}
					],
					"name": "removeSupportedToken",
					"outputs": [],
					"stateMutability": "nonpayable",
					"type": "function"
				},
				{
					"inputs": [],
					"name": "renounceOwnership",
					"outputs": [],
					"stateMutability": "nonpayable",
					"type": "function"
				},
				{
					"inputs": [
						{
							"internalType": "uint256",
							"name": "",
							"type": "uint256"
						}
					],
					"name": "supportedTokens",
					"outputs": [
						{
							"internalType": "address",
							"name": "",
							"type": "address"
						}
					],
					"stateMutability": "view",
					"type": "function"
				},
				{
					"inputs": [
						{
							"internalType": "address",
							"name": "",
							"type": "address"
						}
					],
					"name": "tokenInfo",
					"outputs": [
						{
							"internalType": "string",
							"name": "symbol",
							"type": "string"
						},
						{
							"internalType": "string",
							"name": "name",
							"type": "string"
						},
						{
							"internalType": "uint8",
							"name": "decimals",
							"type": "uint8"
						},
						{
							"internalType": "bool",
							"name": "exists",
							"type": "bool"
						},
						{
							"internalType": "bool",
							"name": "isNonStandard",
							"type": "bool"
						}
					],
					"stateMutability": "view",
					"type": "function"
				},
				{
					"inputs": [
						{
							"internalType": "address",
							"name": "newOwner",
							"type": "address"
						}
					],
					"name": "transferOwnership",
					"outputs": [],
					"stateMutability": "nonpayable",
					"type": "function"
				}
			],
			"devdoc": {
				"details": "整合版本的多代币支付合约，避免重复定义问题",
				"kind": "dev",
				"methods": {
					"checkAllAllowances(address)": {
						"details": "检查用户对所有支持代币的授权额度"
					},
					"owner()": {
						"details": "Returns the address of the current owner."
					},
					"renounceOwnership()": {
						"details": "Leaves the contract without owner. It will not be possible to call `onlyOwner` functions. Can only be called by the current owner. NOTE: Renouncing ownership will leave the contract without an owner, thereby disabling any functionality that is only available to the owner."
					},
					"transferOwnership(address)": {
						"details": "Transfers ownership of the contract to a new account (`newOwner`). Can only be called by the current owner."
					}
				},
				"title": "MultiTokenPaymentIntegrated",
				"version": 1
			},
			"evm": {
				"assembly": "    /* \"contracts/MultiTokenPaymentIntegrated.sol\":848:12738  contract MultiTokenPaymentIntegrated is Ownable, ReentrancyGuard {... */\n  mstore(0x40, 0x80)\n    /* \"contracts/MultiTokenPaymentIntegrated.sol\":2061:2421  constructor() {... */\n  callvalue\n  dup1\n  iszero\n  tag_1\n  jumpi\n  revert(0x00, 0x00)\ntag_1:\n  pop\n    /* \"@openzeppelin/contracts/access/Ownable.sol\":936:968  _transferOwnership(_msgSender()) */\n  tag_6\n    /* \"@openzeppelin/contracts/access/Ownable.sol\":955:967  _msgSender() */\n  tag_7\n    /* \"@openzeppelin/contracts/access/Ownable.sol\":955:965  _msgSender */\n  shl(0x20, tag_8)\n    /* \"@openzeppelin/contracts/access/Ownable.sol\":955:967  _msgSender() */\n  0x20\n  shr\n  jump\t// in\ntag_7:\n    /* \"@openzeppelin/contracts/access/Ownable.sol\":936:954  _transferOwnership */\n  shl(0x20, tag_9)\n    /* \"@openzeppelin/contracts/access/Ownable.sol\":936:968  _transferOwnership(_msgSender()) */\n  0x20\n  shr\n  jump\t// in\ntag_6:\n    /* \"@openzeppelin/contracts/security/ReentrancyGuard.sol\":1716:1717  1 */\n  0x01\n    /* \"@openzeppelin/contracts/security/ReentrancyGuard.sol\":1821:1828  _status */\n  dup1\n    /* \"@openzeppelin/contracts/security/ReentrancyGuard.sol\":1821:1843  _status = _NOT_ENTERED */\n  dup2\n  swap1\n  sstore\n  pop\n    /* \"contracts/MultiTokenPaymentIntegrated.sol\":848:12738  contract MultiTokenPaymentIntegrated is Ownable, ReentrancyGuard {... */\n  jump(tag_12)\n    /* \"@openzeppelin/contracts/utils/Context.sol\":655:751  function _msgSender() internal view virtual returns (address) {... */\ntag_8:\n    /* \"@openzeppelin/contracts/utils/Context.sol\":708:715  address */\n  0x00\n    /* \"@openzeppelin/contracts/utils/Context.sol\":734:744  msg.sender */\n  caller\n    /* \"@openzeppelin/contracts/utils/Context.sol\":727:744  return msg.sender */\n  swap1\n  pop\n    /* \"@openzeppelin/contracts/utils/Context.sol\":655:751  function _msgSender() internal view virtual returns (address) {... */\n  swap1\n  jump\t// out\n    /* \"@openzeppelin/contracts/access/Ownable.sol\":2426:2613  function _transferOwnership(address newOwner) internal virtual {... */\ntag_9:\n    /* \"@openzeppelin/contracts/access/Ownable.sol\":2499:2515  address oldOwner */\n  0x00\n    /* \"@openzeppelin/contracts/access/Ownable.sol\":2518:2524  _owner */\n  0x00\n  0x00\n  swap1\n  sload\n  swap1\n  0x0100\n  exp\n  swap1\n  div\n  0xffffffffffffffffffffffffffffffffffffffff\n  and\n    /* \"@openzeppelin/contracts/access/Ownable.sol\":2499:2524  address oldOwner = _owner */\n  swap1\n  pop\n    /* \"@openzeppelin/contracts/access/Ownable.sol\":2543:2551  newOwner */\n  dup2\n    /* \"@openzeppelin/contracts/access/Ownable.sol\":2534:2540  _owner */\n  0x00\n  0x00\n    /* \"@openzeppelin/contracts/access/Ownable.sol\":2534:2551  _owner = newOwner */\n  0x0100\n  exp\n  dup2\n  sload\n  dup2\n  0xffffffffffffffffffffffffffffffffffffffff\n  mul\n  not\n  and\n  swap1\n  dup4\n  0xffffffffffffffffffffffffffffffffffffffff\n  and\n  mul\n  or\n  swap1\n  sstore\n  pop\n    /* \"@openzeppelin/contracts/access/Ownable.sol\":2597:2605  newOwner */\n  dup2\n    /* \"@openzeppelin/contracts/access/Ownable.sol\":2566:2606  OwnershipTransferred(oldOwner, newOwner) */\n  0xffffffffffffffffffffffffffffffffffffffff\n  and\n    /* \"@openzeppelin/contracts/access/Ownable.sol\":2587:2595  oldOwner */\n  dup2\n    /* \"@openzeppelin/contracts/access/Ownable.sol\":2566:2606  OwnershipTransferred(oldOwner, newOwner) */\n  0xffffffffffffffffffffffffffffffffffffffff\n  and\n  0x8be0079c531659141344cd1fd0a4f28419497f9722a3daafe3b4186f6b6457e0\n  mload(0x40)\n  mload(0x40)\n  dup1\n  swap2\n  sub\n  swap1\n  log3\n    /* \"@openzeppelin/contracts/access/Ownable.sol\":2489:2613  {... */\n  pop\n    /* \"@openzeppelin/contracts/access/Ownable.sol\":2426:2613  function _transferOwnership(address newOwner) internal virtual {... */\n  pop\n  jump\t// out\n    /* \"contracts/MultiTokenPaymentIntegrated.sol\":848:12738  contract MultiTokenPaymentIntegrated is Ownable, ReentrancyGuard {... */\ntag_12:\n  dataSize(sub_0)\n  dup1\n  dataOffset(sub_0)\n  0x00\n  codecopy\n  0x00\n  return\nstop\n\nsub_0: assembly {\n        /* \"contracts/MultiTokenPaymentIntegrated.sol\":848:12738  contract MultiTokenPaymentIntegrated is Ownable, ReentrancyGuard {... */\n      mstore(0x40, 0x80)\n      callvalue\n      dup1\n      iszero\n      tag_1\n      jumpi\n      revert(0x00, 0x00)\n    tag_1:\n      pop\n      jumpi(tag_2, lt(calldatasize, 0x04))\n      shr(0xe0, calldataload(0x00))\n      dup1\n      0x87e660d3\n      gt\n      tag_25\n      jumpi\n      dup1\n      0xc4b1eb90\n      gt\n      tag_26\n      jumpi\n      dup1\n      0xc4b1eb90\n      eq\n      tag_19\n      jumpi\n      dup1\n      0xc6255626\n      eq\n      tag_20\n      jumpi\n      dup1\n      0xc86b268a\n      eq\n      tag_21\n      jumpi\n      dup1\n      0xd3c7c2c7\n      eq\n      tag_22\n      jumpi\n      dup1\n      0xf2fde38b\n      eq\n      tag_23\n      jumpi\n      dup1\n      0xf5dab711\n      eq\n      tag_24\n      jumpi\n      jump(tag_2)\n    tag_26:\n      dup1\n      0x87e660d3\n      eq\n      tag_14\n      jumpi\n      dup1\n      0x892d5f74\n      eq\n      tag_15\n      jumpi\n      dup1\n      0x8b099b23\n      eq\n      tag_16\n      jumpi\n      dup1\n      0x8b1b3303\n      eq\n      tag_17\n      jumpi\n      dup1\n      0x8da5cb5b\n      eq\n      tag_18\n      jumpi\n      jump(tag_2)\n    tag_25:\n      dup1\n      0x5848d919\n      gt\n      tag_27\n      jumpi\n      dup1\n      0x5848d919\n      eq\n      tag_8\n      jumpi\n      dup1\n      0x5a59079a\n      eq\n      tag_9\n      jumpi\n      dup1\n      0x715018a6\n      eq\n      tag_10\n      jumpi\n      dup1\n      0x75151b63\n      eq\n      tag_11\n      jumpi\n      dup1\n      0x76319190\n      eq\n      tag_12\n      jumpi\n      dup1\n      0x77b76ec3\n      eq\n      tag_13\n      jumpi\n      jump(tag_2)\n    tag_27:\n      dup1\n      0x0d8e6e2c\n      eq\n      tag_3\n      jumpi\n      dup1\n      0x159166c0\n      eq\n      tag_4\n      jumpi\n      dup1\n      0x1f69565f\n      eq\n      tag_5\n      jumpi\n      dup1\n      0x2fa21126\n      eq\n      tag_6\n      jumpi\n      dup1\n      0x3367dad3\n      eq\n      tag_7\n      jumpi\n    tag_2:\n      revert(0x00, 0x00)\n        /* \"contracts/MultiTokenPaymentIntegrated.sol\":10453:10574  function getVersion() public pure returns (string memory) {... */\n    tag_3:\n      tag_28\n      tag_29\n      jump\t// in\n    tag_28:\n      mload(0x40)\n      tag_30\n      swap2\n      swap1\n      tag_31\n      jump\t// in\n    tag_30:\n      mload(0x40)\n      dup1\n      swap2\n      sub\n      swap1\n      return\n        /* \"contracts/MultiTokenPaymentIntegrated.sol\":3843:5402  function addSupportedTokenAuto(address token) public onlyOwner {... */\n    tag_4:\n      tag_32\n      0x04\n      dup1\n      calldatasize\n      sub\n      dup2\n      add\n      swap1\n      tag_33\n      swap2\n      swap1\n      tag_34\n      jump\t// in\n    tag_33:\n      tag_35\n      jump\t// in\n    tag_32:\n      stop\n        /* \"contracts/MultiTokenPaymentIntegrated.sol\":9761:10100  function getTokenInfo(address token) public view returns (string memory symbol, string memory name, uint8 decimals, bool isNonStandard) {... */\n    tag_5:\n      tag_36\n      0x04\n      dup1\n      calldatasize\n      sub\n      dup2\n      add\n      swap1\n      tag_37\n      swap2\n      swap1\n      tag_34\n      jump\t// in\n    tag_37:\n      tag_38\n      jump\t// in\n    tag_36:\n      mload(0x40)\n      tag_39\n      swap5\n      swap4\n      swap3\n      swap2\n      swap1\n      tag_40\n      jump\t// in\n    tag_39:\n      mload(0x40)\n      dup1\n      swap2\n      sub\n      swap1\n      return\n        /* \"contracts/MultiTokenPaymentIntegrated.sol\":10660:11229  function checkAllAllowances(address user) ... */\n    tag_6:\n      tag_41\n      0x04\n      dup1\n      calldatasize\n      sub\n      dup2\n      add\n      swap1\n      tag_42\n      swap2\n      swap1\n      tag_34\n      jump\t// in\n    tag_42:\n      tag_43\n      jump\t// in\n    tag_41:\n      mload(0x40)\n      tag_44\n      swap3\n      swap2\n      swap1\n      tag_45\n      jump\t// in\n    tag_44:\n      mload(0x40)\n      dup1\n      swap2\n      sub\n      swap1\n      return\n        /* \"contracts/MultiTokenPaymentIntegrated.sol\":2875:3835  function addSupportedToken(... */\n    tag_7:\n      tag_46\n      0x04\n      dup1\n      calldatasize\n      sub\n      dup2\n      add\n      swap1\n      tag_47\n      swap2\n      swap1\n      tag_48\n      jump\t// in\n    tag_47:\n      tag_49\n      jump\t// in\n    tag_46:\n      stop\n        /* \"contracts/MultiTokenPaymentIntegrated.sol\":11235:12735  function makeMultiTokenPayment(... */\n    tag_8:\n      tag_50\n      0x04\n      dup1\n      calldatasize\n      sub\n      dup2\n      add\n      swap1\n      tag_51\n      swap2\n      swap1\n      tag_52\n      jump\t// in\n    tag_51:\n      tag_53\n      jump\t// in\n    tag_50:\n      mload(0x40)\n      tag_54\n      swap2\n      swap1\n      tag_55\n      jump\t// in\n    tag_54:\n      mload(0x40)\n      dup1\n      swap2\n      sub\n      swap1\n      return\n        /* \"contracts/MultiTokenPaymentIntegrated.sol\":8414:9614  function batchPayments(address token, address[] calldata recipients, uint256[] calldata amounts) external nonReentrant tokenSupported(token) returns (bool) {... */\n    tag_9:\n      tag_56\n      0x04\n      dup1\n      calldatasize\n      sub\n      dup2\n      add\n      swap1\n      tag_57\n      swap2\n      swap1\n      tag_58\n      jump\t// in\n    tag_57:\n      tag_59\n      jump\t// in\n    tag_56:\n      mload(0x40)\n      tag_60\n      swap2\n      swap1\n      tag_55\n      jump\t// in\n    tag_60:\n      mload(0x40)\n      dup1\n      swap2\n      sub\n      swap1\n      return\n        /* \"@openzeppelin/contracts/access/Ownable.sol\":1824:1925  function renounceOwnership() public virtual onlyOwner {... */\n    tag_10:\n      tag_61\n      tag_62\n      jump\t// in\n    tag_61:\n      stop\n        /* \"contracts/MultiTokenPaymentIntegrated.sol\":989:1037  mapping(address => bool) public isTokenSupported */\n    tag_11:\n      tag_63\n      0x04\n      dup1\n      calldatasize\n      sub\n      dup2\n      add\n      swap1\n      tag_64\n      swap2\n      swap1\n      tag_34\n      jump\t// in\n    tag_64:\n      tag_65\n      jump\t// in\n    tag_63:\n      mload(0x40)\n      tag_66\n      swap2\n      swap1\n      tag_55\n      jump\t// in\n    tag_66:\n      mload(0x40)\n      dup1\n      swap2\n      sub\n      swap1\n      return\n        /* \"contracts/MultiTokenPaymentIntegrated.sol\":5410:6016  function removeSupportedToken(address token) public onlyOwner {... */\n    tag_12:\n      tag_67\n      0x04\n      dup1\n      calldatasize\n      sub\n      dup2\n      add\n      swap1\n      tag_68\n      swap2\n      swap1\n      tag_34\n      jump\t// in\n    tag_68:\n      tag_69\n      jump\t// in\n    tag_67:\n      stop\n        /* \"contracts/MultiTokenPaymentIntegrated.sol\":10289:10445  function checkBalance(address token, address user) public view tokenSupported(token) returns (uint256) {... */\n    tag_13:\n      tag_70\n      0x04\n      dup1\n      calldatasize\n      sub\n      dup2\n      add\n      swap1\n      tag_71\n      swap2\n      swap1\n      tag_72\n      jump\t// in\n    tag_71:\n      tag_73\n      jump\t// in\n    tag_70:\n      mload(0x40)\n      tag_74\n      swap2\n      swap1\n      tag_75\n      jump\t// in\n    tag_74:\n      mload(0x40)\n      dup1\n      swap2\n      sub\n      swap1\n      return\n        /* \"contracts/MultiTokenPaymentIntegrated.sol\":7713:8406  function makePayment(address token, address to, uint256 amount) external nonReentrant tokenSupported(token) returns (bool) {... */\n    tag_14:\n      tag_76\n      0x04\n      dup1\n      calldatasize\n      sub\n      dup2\n      add\n      swap1\n      tag_77\n      swap2\n      swap1\n      tag_78\n      jump\t// in\n    tag_77:\n      tag_79\n      jump\t// in\n    tag_76:\n      mload(0x40)\n      tag_80\n      swap2\n      swap1\n      tag_55\n      jump\t// in\n    tag_80:\n      mload(0x40)\n      dup1\n      swap2\n      sub\n      swap1\n      return\n        /* \"contracts/MultiTokenPaymentIntegrated.sol\":2549:2867  function checkTokenStandard(address token) public view returns (bool) {... */\n    tag_15:\n      tag_81\n      0x04\n      dup1\n      calldatasize\n      sub\n      dup2\n      add\n      swap1\n      tag_82\n      swap2\n      swap1\n      tag_34\n      jump\t// in\n    tag_82:\n      tag_83\n      jump\t// in\n    tag_81:\n      mload(0x40)\n      tag_84\n      swap2\n      swap1\n      tag_55\n      jump\t// in\n    tag_84:\n      mload(0x40)\n      dup1\n      swap2\n      sub\n      swap1\n      return\n        /* \"contracts/MultiTokenPaymentIntegrated.sol\":10108:10281  function checkAllowance(address token, address user) public view tokenSupported(token) returns (uint256) {... */\n    tag_16:\n      tag_85\n      0x04\n      dup1\n      calldatasize\n      sub\n      dup2\n      add\n      swap1\n      tag_86\n      swap2\n      swap1\n      tag_72\n      jump\t// in\n    tag_86:\n      tag_87\n      jump\t// in\n    tag_85:\n      mload(0x40)\n      tag_88\n      swap2\n      swap1\n      tag_75\n      jump\t// in\n    tag_88:\n      mload(0x40)\n      dup1\n      swap2\n      sub\n      swap1\n      return\n        /* \"contracts/MultiTokenPaymentIntegrated.sol\":1101:1155  mapping(address => bool) public knownNonStandardTokens */\n    tag_17:\n      tag_89\n      0x04\n      dup1\n      calldatasize\n      sub\n      dup2\n      add\n      swap1\n      tag_90\n      swap2\n      swap1\n      tag_34\n      jump\t// in\n    tag_90:\n      tag_91\n      jump\t// in\n    tag_89:\n      mload(0x40)\n      tag_92\n      swap2\n      swap1\n      tag_55\n      jump\t// in\n    tag_92:\n      mload(0x40)\n      dup1\n      swap2\n      sub\n      swap1\n      return\n        /* \"@openzeppelin/contracts/access/Ownable.sol\":1201:1286  function owner() public view virtual returns (address) {... */\n    tag_18:\n      tag_93\n      tag_94\n      jump\t// in\n    tag_93:\n      mload(0x40)\n      tag_95\n      swap2\n      swap1\n      tag_96\n      jump\t// in\n    tag_95:\n      mload(0x40)\n      dup1\n      swap2\n      sub\n      swap1\n      return\n        /* \"contracts/MultiTokenPaymentIntegrated.sol\":2429:2541  function addKnownNonStandardToken(address token) public  {... */\n    tag_19:\n      tag_97\n      0x04\n      dup1\n      calldatasize\n      sub\n      dup2\n      add\n      swap1\n      tag_98\n      swap2\n      swap1\n      tag_34\n      jump\t// in\n    tag_98:\n      tag_99\n      jump\t// in\n    tag_97:\n      stop\n        /* \"contracts/MultiTokenPaymentIntegrated.sol\":950:982  address[] public supportedTokens */\n    tag_20:\n      tag_100\n      0x04\n      dup1\n      calldatasize\n      sub\n      dup2\n      add\n      swap1\n      tag_101\n      swap2\n      swap1\n      tag_102\n      jump\t// in\n    tag_101:\n      tag_103\n      jump\t// in\n    tag_100:\n      mload(0x40)\n      tag_104\n      swap2\n      swap1\n      tag_96\n      jump\t// in\n    tag_104:\n      mload(0x40)\n      dup1\n      swap2\n      sub\n      swap1\n      return\n        /* \"contracts/MultiTokenPaymentIntegrated.sol\":1044:1094  mapping(address => bool) public isNonStandardToken */\n    tag_21:\n      tag_105\n      0x04\n      dup1\n      calldatasize\n      sub\n      dup2\n      add\n      swap1\n      tag_106\n      swap2\n      swap1\n      tag_34\n      jump\t// in\n    tag_106:\n      tag_107\n      jump\t// in\n    tag_105:\n      mload(0x40)\n      tag_108\n      swap2\n      swap1\n      tag_55\n      jump\t// in\n    tag_108:\n      mload(0x40)\n      dup1\n      swap2\n      sub\n      swap1\n      return\n        /* \"contracts/MultiTokenPaymentIntegrated.sol\":9643:9753  function getSupportedTokens() public view returns (address[] memory) {... */\n    tag_22:\n      tag_109\n      tag_110\n      jump\t// in\n    tag_109:\n      mload(0x40)\n      tag_111\n      swap2\n      swap1\n      tag_112\n      jump\t// in\n    tag_111:\n      mload(0x40)\n      dup1\n      swap2\n      sub\n      swap1\n      return\n        /* \"@openzeppelin/contracts/access/Ownable.sol\":2074:2272  function transferOwnership(address newOwner) public virtual onlyOwner {... */\n    tag_23:\n      tag_113\n      0x04\n      dup1\n      calldatasize\n      sub\n      dup2\n      add\n      swap1\n      tag_114\n      swap2\n      swap1\n      tag_34\n      jump\t// in\n    tag_114:\n      tag_115\n      jump\t// in\n    tag_113:\n      stop\n        /* \"contracts/MultiTokenPaymentIntegrated.sol\":1321:1367  mapping(address => TokenInfo) public tokenInfo */\n    tag_24:\n      tag_116\n      0x04\n      dup1\n      calldatasize\n      sub\n      dup2\n      add\n      swap1\n      tag_117\n      swap2\n      swap1\n      tag_34\n      jump\t// in\n    tag_117:\n      tag_118\n      jump\t// in\n    tag_116:\n      mload(0x40)\n      tag_119\n      swap6\n      swap5\n      swap4\n      swap3\n      swap2\n      swap1\n      tag_120\n      jump\t// in\n    tag_119:\n      mload(0x40)\n      dup1\n      swap2\n      sub\n      swap1\n      return\n        /* \"contracts/MultiTokenPaymentIntegrated.sol\":10453:10574  function getVersion() public pure returns (string memory) {... */\n    tag_29:\n        /* \"contracts/MultiTokenPaymentIntegrated.sol\":10496:10509  string memory */\n      0x60\n        /* \"contracts/MultiTokenPaymentIntegrated.sol\":10522:10566  return \"MultiTokenPayment v2.1 - Integrated\" */\n      mload(0x40)\n      dup1\n      0x60\n      add\n      0x40\n      mstore\n      dup1\n      0x23\n      dup2\n      mstore\n      0x20\n      add\n      data_8fb4fb23177feac96cb42f3c602cc39f350167e355eac9f63cfb34a9df37fd0e\n      0x23\n      swap2\n      codecopy\n      swap1\n      pop\n        /* \"contracts/MultiTokenPaymentIntegrated.sol\":10453:10574  function getVersion() public pure returns (string memory) {... */\n      swap1\n      jump\t// out\n        /* \"contracts/MultiTokenPaymentIntegrated.sol\":3843:5402  function addSupportedTokenAuto(address token) public onlyOwner {... */\n    tag_35:\n        /* \"@openzeppelin/contracts/access/Ownable.sol\":1094:1107  _checkOwner() */\n      tag_123\n        /* \"@openzeppelin/contracts/access/Ownable.sol\":1094:1105  _checkOwner */\n      tag_124\n        /* \"@openzeppelin/contracts/access/Ownable.sol\":1094:1107  _checkOwner() */\n      jump\t// in\n    tag_123:\n        /* \"contracts/MultiTokenPaymentIntegrated.sol\":3942:3943  0 */\n      0x00\n        /* \"contracts/MultiTokenPaymentIntegrated.sol\":3925:3944  token != address(0) */\n      0xffffffffffffffffffffffffffffffffffffffff\n      and\n        /* \"contracts/MultiTokenPaymentIntegrated.sol\":3925:3930  token */\n      dup2\n        /* \"contracts/MultiTokenPaymentIntegrated.sol\":3925:3944  token != address(0) */\n      0xffffffffffffffffffffffffffffffffffffffff\n      and\n      sub\n        /* \"contracts/MultiTokenPaymentIntegrated.sol\":3917:3970  require(token != address(0), \"Invalid token address\") */\n      tag_126\n      jumpi\n      mload(0x40)\n      0x08c379a000000000000000000000000000000000000000000000000000000000\n      dup2\n      mstore\n      0x04\n      add\n      tag_127\n      swap1\n      tag_128\n      jump\t// in\n    tag_127:\n      mload(0x40)\n      dup1\n      swap2\n      sub\n      swap1\n      revert\n    tag_126:\n        /* \"contracts/MultiTokenPaymentIntegrated.sol\":3990:4006  isTokenSupported */\n      0x03\n        /* \"contracts/MultiTokenPaymentIntegrated.sol\":3990:4013  isTokenSupported[token] */\n      0x00\n        /* \"contracts/MultiTokenPaymentIntegrated.sol\":4007:4012  token */\n      dup3\n        /* \"contracts/MultiTokenPaymentIntegrated.sol\":3990:4013  isTokenSupported[token] */\n      0xffffffffffffffffffffffffffffffffffffffff\n      and\n      0xffffffffffffffffffffffffffffffffffffffff\n      and\n      dup2\n      mstore\n      0x20\n      add\n      swap1\n      dup2\n      mstore\n      0x20\n      add\n      0x00\n      keccak256\n      0x00\n      swap1\n      sload\n      swap1\n      0x0100\n      exp\n      swap1\n      div\n      0xff\n      and\n        /* \"contracts/MultiTokenPaymentIntegrated.sol\":3989:4013  !isTokenSupported[token] */\n      iszero\n        /* \"contracts/MultiTokenPaymentIntegrated.sol\":3981:4041  require(!isTokenSupported[token], \"Token already supported\") */\n      tag_129\n      jumpi\n      mload(0x40)\n      0x08c379a000000000000000000000000000000000000000000000000000000000\n      dup2\n      mstore\n      0x04\n      add\n      tag_130\n      swap1\n      tag_131\n      jump\t// in\n    tag_130:\n      mload(0x40)\n      dup1\n      swap2\n      sub\n      swap1\n      revert\n    tag_129:\n        /* \"contracts/MultiTokenPaymentIntegrated.sol\":4088:4092  true */\n      0x01\n        /* \"contracts/MultiTokenPaymentIntegrated.sol\":4062:4078  isTokenSupported */\n      0x03\n        /* \"contracts/MultiTokenPaymentIntegrated.sol\":4062:4085  isTokenSupported[token] */\n      0x00\n        /* \"contracts/MultiTokenPaymentIntegrated.sol\":4079:4084  token */\n      dup4\n        /* \"contracts/MultiTokenPaymentIntegrated.sol\":4062:4085  isTokenSupported[token] */\n      0xffffffffffffffffffffffffffffffffffffffff\n      and\n      0xffffffffffffffffffffffffffffffffffffffff\n      and\n      dup2\n      mstore\n      0x20\n      add\n      swap1\n      dup2\n      mstore\n      0x20\n      add\n      0x00\n      keccak256\n      0x00\n        /* \"contracts/MultiTokenPaymentIntegrated.sol\":4062:4092  isTokenSupported[token] = true */\n      0x0100\n      exp\n      dup2\n      sload\n      dup2\n      0xff\n      mul\n      not\n      and\n      swap1\n      dup4\n      iszero\n      iszero\n      mul\n      or\n      swap1\n      sstore\n      pop\n        /* \"contracts/MultiTokenPaymentIntegrated.sol\":4103:4118  supportedTokens */\n      0x02\n        /* \"contracts/MultiTokenPaymentIntegrated.sol\":4124:4129  token */\n      dup2\n        /* \"contracts/MultiTokenPaymentIntegrated.sol\":4103:4130  supportedTokens.push(token) */\n      swap1\n      dup1\n      0x01\n      dup2\n      sload\n      add\n      dup1\n      dup3\n      sstore\n      dup1\n      swap2\n      pop\n      pop\n      0x01\n      swap1\n      sub\n      swap1\n      0x00\n      mstore\n      keccak256(0x00, 0x20)\n      add\n      0x00\n      swap1\n      swap2\n      swap1\n      swap2\n      swap1\n      swap2\n      0x0100\n      exp\n      dup2\n      sload\n      dup2\n      0xffffffffffffffffffffffffffffffffffffffff\n      mul\n      not\n      and\n      swap1\n      dup4\n      0xffffffffffffffffffffffffffffffffffffffff\n      and\n      mul\n      or\n      swap1\n      sstore\n      pop\n        /* \"contracts/MultiTokenPaymentIntegrated.sol\":4151:4171  string memory symbol */\n      0x00\n        /* \"contracts/MultiTokenPaymentIntegrated.sol\":4151:4183  string memory symbol = \"UNKNOWN\" */\n      mload(0x40)\n      dup1\n      0x40\n      add\n      0x40\n      mstore\n      dup1\n      0x07\n      dup2\n      mstore\n      0x20\n      add\n      0x554e4b4e4f574e00000000000000000000000000000000000000000000000000\n      dup2\n      mstore\n      pop\n      swap1\n      pop\n        /* \"contracts/MultiTokenPaymentIntegrated.sol\":4194:4212  string memory name */\n      0x00\n        /* \"contracts/MultiTokenPaymentIntegrated.sol\":4194:4224  string memory name = \"UNKNOWN\" */\n      mload(0x40)\n      dup1\n      0x40\n      add\n      0x40\n      mstore\n      dup1\n      0x07\n      dup2\n      mstore\n      0x20\n      add\n      0x554e4b4e4f574e00000000000000000000000000000000000000000000000000\n      dup2\n      mstore\n      pop\n      swap1\n      pop\n        /* \"contracts/MultiTokenPaymentIntegrated.sol\":4235:4249  uint8 decimals */\n      0x00\n        /* \"contracts/MultiTokenPaymentIntegrated.sol\":4252:4254  18 */\n      0x12\n        /* \"contracts/MultiTokenPaymentIntegrated.sol\":4235:4254  uint8 decimals = 18 */\n      swap1\n      pop\n        /* \"contracts/MultiTokenPaymentIntegrated.sol\":4265:4283  bool isNonStandard */\n      0x00\n        /* \"contracts/MultiTokenPaymentIntegrated.sol\":4286:4308  knownNonStandardTokens */\n      0x05\n        /* \"contracts/MultiTokenPaymentIntegrated.sol\":4286:4315  knownNonStandardTokens[token] */\n      0x00\n        /* \"contracts/MultiTokenPaymentIntegrated.sol\":4309:4314  token */\n      dup7\n        /* \"contracts/MultiTokenPaymentIntegrated.sol\":4286:4315  knownNonStandardTokens[token] */\n      0xffffffffffffffffffffffffffffffffffffffff\n      and\n      0xffffffffffffffffffffffffffffffffffffffff\n      and\n      dup2\n      mstore\n      0x20\n      add\n      swap1\n      dup2\n      mstore\n      0x20\n      add\n      0x00\n      keccak256\n      0x00\n      swap1\n      sload\n      swap1\n      0x0100\n      exp\n      swap1\n      div\n      0xff\n      and\n        /* \"contracts/MultiTokenPaymentIntegrated.sol\":4265:4315  bool isNonStandard = knownNonStandardTokens[token] */\n      swap1\n      pop\n        /* \"contracts/MultiTokenPaymentIntegrated.sol\":4341:4354  isNonStandard */\n      dup1\n        /* \"contracts/MultiTokenPaymentIntegrated.sol\":4336:4934  if (!isNonStandard) {... */\n      tag_133\n      jumpi\n        /* \"contracts/MultiTokenPaymentIntegrated.sol\":4390:4395  token */\n      dup5\n        /* \"contracts/MultiTokenPaymentIntegrated.sol\":4375:4403  IERC20Metadata(token).symbol */\n      0xffffffffffffffffffffffffffffffffffffffff\n      and\n      0x95d89b41\n        /* \"contracts/MultiTokenPaymentIntegrated.sol\":4375:4405  IERC20Metadata(token).symbol() */\n      mload(0x40)\n      dup2\n      0xffffffff\n      and\n      0xe0\n      shl\n      dup2\n      mstore\n      0x04\n      add\n      0x00\n      mload(0x40)\n      dup1\n      dup4\n      sub\n      dup2\n      dup7\n      gas\n      staticcall\n      swap3\n      pop\n      pop\n      pop\n      dup1\n      iszero\n      tag_134\n      jumpi\n      pop\n      mload(0x40)\n      returndatasize\n      0x00\n      dup3\n      returndatacopy\n      returndatasize\n      not(0x1f)\n      0x1f\n      dup3\n      add\n      and\n      dup3\n      add\n      dup1\n      0x40\n      mstore\n      pop\n      dup2\n      add\n      swap1\n      tag_135\n      swap2\n      swap1\n      tag_136\n      jump\t// in\n    tag_135:\n      0x01\n    tag_134:\n        /* \"contracts/MultiTokenPaymentIntegrated.sol\":4371:4539  try IERC20Metadata(token).symbol() returns (string memory s) {... */\n      tag_137\n      jumpi\n        /* \"contracts/MultiTokenPaymentIntegrated.sol\":4519:4523  true */\n      0x01\n        /* \"contracts/MultiTokenPaymentIntegrated.sol\":4503:4523  isNonStandard = true */\n      swap1\n      pop\n        /* \"contracts/MultiTokenPaymentIntegrated.sol\":4371:4539  try IERC20Metadata(token).symbol() returns (string memory s) {... */\n      jump(tag_141)\n    tag_137:\n        /* \"contracts/MultiTokenPaymentIntegrated.sol\":4460:4461  s */\n      dup1\n        /* \"contracts/MultiTokenPaymentIntegrated.sol\":4451:4461  symbol = s */\n      swap5\n      pop\n        /* \"contracts/MultiTokenPaymentIntegrated.sol\":4406:4477  returns (string memory s) {... */\n      pop\n        /* \"contracts/MultiTokenPaymentIntegrated.sol\":4371:4539  try IERC20Metadata(token).symbol() returns (string memory s) {... */\n    tag_141:\n        /* \"contracts/MultiTokenPaymentIntegrated.sol\":4586:4591  token */\n      dup5\n        /* \"contracts/MultiTokenPaymentIntegrated.sol\":4571:4597  IERC20Metadata(token).name */\n      0xffffffffffffffffffffffffffffffffffffffff\n      and\n      0x06fdde03\n        /* \"contracts/MultiTokenPaymentIntegrated.sol\":4571:4599  IERC20Metadata(token).name() */\n      mload(0x40)\n      dup2\n      0xffffffff\n      and\n      0xe0\n      shl\n      dup2\n      mstore\n      0x04\n      add\n      0x00\n      mload(0x40)\n      dup1\n      dup4\n      sub\n      dup2\n      dup7\n      gas\n      staticcall\n      swap3\n      pop\n      pop\n      pop\n      dup1\n      iszero\n      tag_142\n      jumpi\n      pop\n      mload(0x40)\n      returndatasize\n      0x00\n      dup3\n      returndatacopy\n      returndatasize\n      not(0x1f)\n      0x1f\n      dup3\n      add\n      and\n      dup3\n      add\n      dup1\n      0x40\n      mstore\n      pop\n      dup2\n      add\n      swap1\n      tag_143\n      swap2\n      swap1\n      tag_136\n      jump\t// in\n    tag_143:\n      0x01\n    tag_142:\n        /* \"contracts/MultiTokenPaymentIntegrated.sol\":4567:4731  try IERC20Metadata(token).name() returns (string memory n) {... */\n      tag_144\n      jumpi\n        /* \"contracts/MultiTokenPaymentIntegrated.sol\":4711:4715  true */\n      0x01\n        /* \"contracts/MultiTokenPaymentIntegrated.sol\":4695:4715  isNonStandard = true */\n      swap1\n      pop\n        /* \"contracts/MultiTokenPaymentIntegrated.sol\":4567:4731  try IERC20Metadata(token).name() returns (string memory n) {... */\n      jump(tag_148)\n    tag_144:\n        /* \"contracts/MultiTokenPaymentIntegrated.sol\":4652:4653  n */\n      dup1\n        /* \"contracts/MultiTokenPaymentIntegrated.sol\":4645:4653  name = n */\n      swap4\n      pop\n        /* \"contracts/MultiTokenPaymentIntegrated.sol\":4600:4669  returns (string memory n) {... */\n      pop\n        /* \"contracts/MultiTokenPaymentIntegrated.sol\":4567:4731  try IERC20Metadata(token).name() returns (string memory n) {... */\n    tag_148:\n        /* \"contracts/MultiTokenPaymentIntegrated.sol\":4778:4783  token */\n      dup5\n        /* \"contracts/MultiTokenPaymentIntegrated.sol\":4763:4793  IERC20Metadata(token).decimals */\n      0xffffffffffffffffffffffffffffffffffffffff\n      and\n      0x313ce567\n        /* \"contracts/MultiTokenPaymentIntegrated.sol\":4763:4795  IERC20Metadata(token).decimals() */\n      mload(0x40)\n      dup2\n      0xffffffff\n      and\n      0xe0\n      shl\n      dup2\n      mstore\n      0x04\n      add\n      0x20\n      mload(0x40)\n      dup1\n      dup4\n      sub\n      dup2\n      dup7\n      gas\n      staticcall\n      swap3\n      pop\n      pop\n      pop\n      dup1\n      iszero\n      tag_149\n      jumpi\n      pop\n      mload(0x40)\n      returndatasize\n      not(0x1f)\n      0x1f\n      dup3\n      add\n      and\n      dup3\n      add\n      dup1\n      0x40\n      mstore\n      pop\n      dup2\n      add\n      swap1\n      tag_150\n      swap2\n      swap1\n      tag_151\n      jump\t// in\n    tag_150:\n      0x01\n    tag_149:\n        /* \"contracts/MultiTokenPaymentIntegrated.sol\":4759:4923  try IERC20Metadata(token).decimals() returns (uint8 d) {... */\n      tag_152\n      jumpi\n        /* \"contracts/MultiTokenPaymentIntegrated.sol\":4903:4907  true */\n      0x01\n        /* \"contracts/MultiTokenPaymentIntegrated.sol\":4887:4907  isNonStandard = true */\n      swap1\n      pop\n        /* \"contracts/MultiTokenPaymentIntegrated.sol\":4759:4923  try IERC20Metadata(token).decimals() returns (uint8 d) {... */\n      jump(tag_156)\n    tag_152:\n        /* \"contracts/MultiTokenPaymentIntegrated.sol\":4844:4845  d */\n      dup1\n        /* \"contracts/MultiTokenPaymentIntegrated.sol\":4833:4845  decimals = d */\n      swap3\n      pop\n        /* \"contracts/MultiTokenPaymentIntegrated.sol\":4796:4861  returns (uint8 d) {... */\n      pop\n        /* \"contracts/MultiTokenPaymentIntegrated.sol\":4759:4923  try IERC20Metadata(token).decimals() returns (uint8 d) {... */\n    tag_156:\n        /* \"contracts/MultiTokenPaymentIntegrated.sol\":4336:4934  if (!isNonStandard) {... */\n    tag_133:\n        /* \"contracts/MultiTokenPaymentIntegrated.sol\":4959:4972  isNonStandard */\n      dup1\n        /* \"contracts/MultiTokenPaymentIntegrated.sol\":4954:5042  if (!isNonStandard) {... */\n      tag_157\n      jumpi\n        /* \"contracts/MultiTokenPaymentIntegrated.sol\":5005:5030  checkTokenStandard(token) */\n      tag_158\n        /* \"contracts/MultiTokenPaymentIntegrated.sol\":5024:5029  token */\n      dup6\n        /* \"contracts/MultiTokenPaymentIntegrated.sol\":5005:5023  checkTokenStandard */\n      tag_83\n        /* \"contracts/MultiTokenPaymentIntegrated.sol\":5005:5030  checkTokenStandard(token) */\n      jump\t// in\n    tag_158:\n        /* \"contracts/MultiTokenPaymentIntegrated.sol\":4989:5030  isNonStandard = checkTokenStandard(token) */\n      swap1\n      pop\n        /* \"contracts/MultiTokenPaymentIntegrated.sol\":4954:5042  if (!isNonStandard) {... */\n    tag_157:\n        /* \"contracts/MultiTokenPaymentIntegrated.sol\":5081:5260  TokenInfo({... */\n      mload(0x40)\n      dup1\n      0xa0\n      add\n      0x40\n      mstore\n      dup1\n        /* \"contracts/MultiTokenPaymentIntegrated.sol\":5114:5120  symbol */\n      dup6\n        /* \"contracts/MultiTokenPaymentIntegrated.sol\":5081:5260  TokenInfo({... */\n      dup2\n      mstore\n      0x20\n      add\n        /* \"contracts/MultiTokenPaymentIntegrated.sol\":5141:5145  name */\n      dup5\n        /* \"contracts/MultiTokenPaymentIntegrated.sol\":5081:5260  TokenInfo({... */\n      dup2\n      mstore\n      0x20\n      add\n        /* \"contracts/MultiTokenPaymentIntegrated.sol\":5170:5178  decimals */\n      dup4\n        /* \"contracts/MultiTokenPaymentIntegrated.sol\":5081:5260  TokenInfo({... */\n      0xff\n      and\n      dup2\n      mstore\n      0x20\n      add\n        /* \"contracts/MultiTokenPaymentIntegrated.sol\":5201:5205  true */\n      0x01\n        /* \"contracts/MultiTokenPaymentIntegrated.sol\":5081:5260  TokenInfo({... */\n      iszero\n      iszero\n      dup2\n      mstore\n      0x20\n      add\n        /* \"contracts/MultiTokenPaymentIntegrated.sol\":5235:5248  isNonStandard */\n      dup3\n        /* \"contracts/MultiTokenPaymentIntegrated.sol\":5081:5260  TokenInfo({... */\n      iszero\n      iszero\n      dup2\n      mstore\n      pop\n        /* \"contracts/MultiTokenPaymentIntegrated.sol\":5062:5071  tokenInfo */\n      0x06\n        /* \"contracts/MultiTokenPaymentIntegrated.sol\":5062:5078  tokenInfo[token] */\n      0x00\n        /* \"contracts/MultiTokenPaymentIntegrated.sol\":5072:5077  token */\n      dup8\n        /* \"contracts/MultiTokenPaymentIntegrated.sol\":5062:5078  tokenInfo[token] */\n      0xffffffffffffffffffffffffffffffffffffffff\n      and\n      0xffffffffffffffffffffffffffffffffffffffff\n      and\n      dup2\n      mstore\n      0x20\n      add\n      swap1\n      dup2\n      mstore\n      0x20\n      add\n      0x00\n      keccak256\n        /* \"contracts/MultiTokenPaymentIntegrated.sol\":5062:5260  tokenInfo[token] = TokenInfo({... */\n      0x00\n      dup3\n      add\n      mload\n      dup2\n      0x00\n      add\n      swap1\n      dup2\n      tag_159\n      swap2\n      swap1\n      tag_160\n      jump\t// in\n    tag_159:\n      pop\n      0x20\n      dup3\n      add\n      mload\n      dup2\n      0x01\n      add\n      swap1\n      dup2\n      tag_161\n      swap2\n      swap1\n      tag_160\n      jump\t// in\n    tag_161:\n      pop\n      0x40\n      dup3\n      add\n      mload\n      dup2\n      0x02\n      add\n      exp(0x0100, 0x00)\n      dup2\n      sload\n      dup2\n      0xff\n      mul\n      not\n      and\n      swap1\n      dup4\n      0xff\n      and\n      mul\n      or\n      swap1\n      sstore\n      pop\n      0x60\n      dup3\n      add\n      mload\n      dup2\n      0x02\n      add\n      exp(0x0100, 0x01)\n      dup2\n      sload\n      dup2\n      0xff\n      mul\n      not\n      and\n      swap1\n      dup4\n      iszero\n      iszero\n      mul\n      or\n      swap1\n      sstore\n      pop\n      0x80\n      dup3\n      add\n      mload\n      dup2\n      0x02\n      add\n      exp(0x0100, 0x02)\n      dup2\n      sload\n      dup2\n      0xff\n      mul\n      not\n      and\n      swap1\n      dup4\n      iszero\n      iszero\n      mul\n      or\n      swap1\n      sstore\n      pop\n      swap1\n      pop\n      pop\n        /* \"contracts/MultiTokenPaymentIntegrated.sol\":5309:5322  isNonStandard */\n      dup1\n        /* \"contracts/MultiTokenPaymentIntegrated.sol\":5281:5299  isNonStandardToken */\n      0x04\n        /* \"contracts/MultiTokenPaymentIntegrated.sol\":5281:5306  isNonStandardToken[token] */\n      0x00\n        /* \"contracts/MultiTokenPaymentIntegrated.sol\":5300:5305  token */\n      dup8\n        /* \"contracts/MultiTokenPaymentIntegrated.sol\":5281:5306  isNonStandardToken[token] */\n      0xffffffffffffffffffffffffffffffffffffffff\n      and\n      0xffffffffffffffffffffffffffffffffffffffff\n      and\n      dup2\n      mstore\n      0x20\n      add\n      swap1\n      dup2\n      mstore\n      0x20\n      add\n      0x00\n      keccak256\n      0x00\n        /* \"contracts/MultiTokenPaymentIntegrated.sol\":5281:5322  isNonStandardToken[token] = isNonStandard */\n      0x0100\n      exp\n      dup2\n      sload\n      dup2\n      0xff\n      mul\n      not\n      and\n      swap1\n      dup4\n      iszero\n      iszero\n      mul\n      or\n      swap1\n      sstore\n      pop\n        /* \"contracts/MultiTokenPaymentIntegrated.sol\":5359:5364  token */\n      dup5\n        /* \"contracts/MultiTokenPaymentIntegrated.sol\":5348:5394  TokenAdded(token, symbol, name, isNonStandard) */\n      0xffffffffffffffffffffffffffffffffffffffff\n      and\n      0x7fc380a378a7436b00bfbfa4745a879f9095ad1fde33a412783721a59a2ad6b9\n        /* \"contracts/MultiTokenPaymentIntegrated.sol\":5366:5372  symbol */\n      dup6\n        /* \"contracts/MultiTokenPaymentIntegrated.sol\":5374:5378  name */\n      dup6\n        /* \"contracts/MultiTokenPaymentIntegrated.sol\":5380:5393  isNonStandard */\n      dup5\n        /* \"contracts/MultiTokenPaymentIntegrated.sol\":5348:5394  TokenAdded(token, symbol, name, isNonStandard) */\n      mload(0x40)\n      tag_162\n      swap4\n      swap3\n      swap2\n      swap1\n      tag_163\n      jump\t// in\n    tag_162:\n      mload(0x40)\n      dup1\n      swap2\n      sub\n      swap1\n      log2\n        /* \"contracts/MultiTokenPaymentIntegrated.sol\":3906:5402  {... */\n      pop\n      pop\n      pop\n      pop\n        /* \"contracts/MultiTokenPaymentIntegrated.sol\":3843:5402  function addSupportedTokenAuto(address token) public onlyOwner {... */\n      pop\n      jump\t// out\n        /* \"contracts/MultiTokenPaymentIntegrated.sol\":9761:10100  function getTokenInfo(address token) public view returns (string memory symbol, string memory name, uint8 decimals, bool isNonStandard) {... */\n    tag_38:\n        /* \"contracts/MultiTokenPaymentIntegrated.sol\":9819:9839  string memory symbol */\n      0x60\n        /* \"contracts/MultiTokenPaymentIntegrated.sol\":9841:9859  string memory name */\n      dup1\n        /* \"contracts/MultiTokenPaymentIntegrated.sol\":9861:9875  uint8 decimals */\n      0x00\n        /* \"contracts/MultiTokenPaymentIntegrated.sol\":9877:9895  bool isNonStandard */\n      0x00\n        /* \"contracts/MultiTokenPaymentIntegrated.sol\":9916:9925  tokenInfo */\n      0x06\n        /* \"contracts/MultiTokenPaymentIntegrated.sol\":9916:9932  tokenInfo[token] */\n      0x00\n        /* \"contracts/MultiTokenPaymentIntegrated.sol\":9926:9931  token */\n      dup7\n        /* \"contracts/MultiTokenPaymentIntegrated.sol\":9916:9932  tokenInfo[token] */\n      0xffffffffffffffffffffffffffffffffffffffff\n      and\n      0xffffffffffffffffffffffffffffffffffffffff\n      and\n      dup2\n      mstore\n      0x20\n      add\n      swap1\n      dup2\n      mstore\n      0x20\n      add\n      0x00\n      keccak256\n        /* \"contracts/MultiTokenPaymentIntegrated.sol\":9916:9939  tokenInfo[token].exists */\n      0x02\n      add\n      0x01\n      swap1\n      sload\n      swap1\n      0x0100\n      exp\n      swap1\n      div\n      0xff\n      and\n        /* \"contracts/MultiTokenPaymentIntegrated.sol\":9908:9964  require(tokenInfo[token].exists, \"Token info not found\") */\n      tag_165\n      jumpi\n      mload(0x40)\n      0x08c379a000000000000000000000000000000000000000000000000000000000\n      dup2\n      mstore\n      0x04\n      add\n      tag_166\n      swap1\n      tag_167\n      jump\t// in\n    tag_166:\n      mload(0x40)\n      dup1\n      swap2\n      sub\n      swap1\n      revert\n    tag_165:\n        /* \"contracts/MultiTokenPaymentIntegrated.sol\":9975:9996  TokenInfo memory info */\n      0x00\n        /* \"contracts/MultiTokenPaymentIntegrated.sol\":9999:10008  tokenInfo */\n      0x06\n        /* \"contracts/MultiTokenPaymentIntegrated.sol\":9999:10015  tokenInfo[token] */\n      0x00\n        /* \"contracts/MultiTokenPaymentIntegrated.sol\":10009:10014  token */\n      dup8\n        /* \"contracts/MultiTokenPaymentIntegrated.sol\":9999:10015  tokenInfo[token] */\n      0xffffffffffffffffffffffffffffffffffffffff\n      and\n      0xffffffffffffffffffffffffffffffffffffffff\n      and\n      dup2\n      mstore\n      0x20\n      add\n      swap1\n      dup2\n      mstore\n      0x20\n      add\n      0x00\n      keccak256\n        /* \"contracts/MultiTokenPaymentIntegrated.sol\":9975:10015  TokenInfo memory info = tokenInfo[token] */\n      mload(0x40)\n      dup1\n      0xa0\n      add\n      0x40\n      mstore\n      swap1\n      dup2\n      0x00\n      dup3\n      add\n      dup1\n      sload\n      tag_168\n      swap1\n      tag_169\n      jump\t// in\n    tag_168:\n      dup1\n      0x1f\n      add\n      0x20\n      dup1\n      swap2\n      div\n      mul\n      0x20\n      add\n      mload(0x40)\n      swap1\n      dup2\n      add\n      0x40\n      mstore\n      dup1\n      swap3\n      swap2\n      swap1\n      dup2\n      dup2\n      mstore\n      0x20\n      add\n      dup3\n      dup1\n      sload\n      tag_170\n      swap1\n      tag_169\n      jump\t// in\n    tag_170:\n      dup1\n      iszero\n      tag_171\n      jumpi\n      dup1\n      0x1f\n      lt\n      tag_172\n      jumpi\n      0x0100\n      dup1\n      dup4\n      sload\n      div\n      mul\n      dup4\n      mstore\n      swap2\n      0x20\n      add\n      swap2\n      jump(tag_171)\n    tag_172:\n      dup3\n      add\n      swap2\n      swap1\n      0x00\n      mstore\n      keccak256(0x00, 0x20)\n      swap1\n    tag_173:\n      dup2\n      sload\n      dup2\n      mstore\n      swap1\n      0x01\n      add\n      swap1\n      0x20\n      add\n      dup1\n      dup4\n      gt\n      tag_173\n      jumpi\n      dup3\n      swap1\n      sub\n      0x1f\n      and\n      dup3\n      add\n      swap2\n    tag_171:\n      pop\n      pop\n      pop\n      pop\n      pop\n      dup2\n      mstore\n      0x20\n      add\n      0x01\n      dup3\n      add\n      dup1\n      sload\n      tag_174\n      swap1\n      tag_169\n      jump\t// in\n    tag_174:\n      dup1\n      0x1f\n      add\n      0x20\n      dup1\n      swap2\n      div\n      mul\n      0x20\n      add\n      mload(0x40)\n      swap1\n      dup2\n      add\n      0x40\n      mstore\n      dup1\n      swap3\n      swap2\n      swap1\n      dup2\n      dup2\n      mstore\n      0x20\n      add\n      dup3\n      dup1\n      sload\n      tag_175\n      swap1\n      tag_169\n      jump\t// in\n    tag_175:\n      dup1\n      iszero\n      tag_176\n      jumpi\n      dup1\n      0x1f\n      lt\n      tag_177\n      jumpi\n      0x0100\n      dup1\n      dup4\n      sload\n      div\n      mul\n      dup4\n      mstore\n      swap2\n      0x20\n      add\n      swap2\n      jump(tag_176)\n    tag_177:\n      dup3\n      add\n      swap2\n      swap1\n      0x00\n      mstore\n      keccak256(0x00, 0x20)\n      swap1\n    tag_178:\n      dup2\n      sload\n      dup2\n      mstore\n      swap1\n      0x01\n      add\n      swap1\n      0x20\n      add\n      dup1\n      dup4\n      gt\n      tag_178\n      jumpi\n      dup3\n      swap1\n      sub\n      0x1f\n      and\n      dup3\n      add\n      swap2\n    tag_176:\n      pop\n      pop\n      pop\n      pop\n      pop\n      dup2\n      mstore\n      0x20\n      add\n      0x02\n      dup3\n      add\n      0x00\n      swap1\n      sload\n      swap1\n      0x0100\n      exp\n      swap1\n      div\n      0xff\n      and\n      0xff\n      and\n      0xff\n      and\n      dup2\n      mstore\n      0x20\n      add\n      0x02\n      dup3\n      add\n      0x01\n      swap1\n      sload\n      swap1\n      0x0100\n      exp\n      swap1\n      div\n      0xff\n      and\n      iszero\n      iszero\n      iszero\n      iszero\n      dup2\n      mstore\n      0x20\n      add\n      0x02\n      dup3\n      add\n      0x02\n      swap1\n      sload\n      swap1\n      0x0100\n      exp\n      swap1\n      div\n      0xff\n      and\n      iszero\n      iszero\n      iszero\n      iszero\n      dup2\n      mstore\n      pop\n      pop\n      swap1\n      pop\n        /* \"contracts/MultiTokenPaymentIntegrated.sol\":10034:10038  info */\n      dup1\n        /* \"contracts/MultiTokenPaymentIntegrated.sol\":10034:10045  info.symbol */\n      0x00\n      add\n      mload\n        /* \"contracts/MultiTokenPaymentIntegrated.sol\":10047:10051  info */\n      dup2\n        /* \"contracts/MultiTokenPaymentIntegrated.sol\":10047:10056  info.name */\n      0x20\n      add\n      mload\n        /* \"contracts/MultiTokenPaymentIntegrated.sol\":10058:10062  info */\n      dup3\n        /* \"contracts/MultiTokenPaymentIntegrated.sol\":10058:10071  info.decimals */\n      0x40\n      add\n      mload\n        /* \"contracts/MultiTokenPaymentIntegrated.sol\":10073:10077  info */\n      dup4\n        /* \"contracts/MultiTokenPaymentIntegrated.sol\":10073:10091  info.isNonStandard */\n      0x80\n      add\n      mload\n        /* \"contracts/MultiTokenPaymentIntegrated.sol\":10026:10092  return (info.symbol, info.name, info.decimals, info.isNonStandard) */\n      swap5\n      pop\n      swap5\n      pop\n      swap5\n      pop\n      swap5\n      pop\n      pop\n        /* \"contracts/MultiTokenPaymentIntegrated.sol\":9761:10100  function getTokenInfo(address token) public view returns (string memory symbol, string memory name, uint8 decimals, bool isNonStandard) {... */\n      swap2\n      swap4\n      pop\n      swap2\n      swap4\n      jump\t// out\n        /* \"contracts/MultiTokenPaymentIntegrated.sol\":10660:11229  function checkAllAllowances(address user) ... */\n    tag_43:\n        /* \"contracts/MultiTokenPaymentIntegrated.sol\":10753:10769  address[] memory */\n      0x60\n        /* \"contracts/MultiTokenPaymentIntegrated.sol\":10771:10787  uint256[] memory */\n      dup1\n        /* \"contracts/MultiTokenPaymentIntegrated.sol\":10806:10820  uint256 length */\n      0x00\n        /* \"contracts/MultiTokenPaymentIntegrated.sol\":10823:10838  supportedTokens */\n      0x02\n        /* \"contracts/MultiTokenPaymentIntegrated.sol\":10823:10845  supportedTokens.length */\n      dup1\n      sload\n      swap1\n      pop\n        /* \"contracts/MultiTokenPaymentIntegrated.sol\":10806:10845  uint256 length = supportedTokens.length */\n      swap1\n      pop\n        /* \"contracts/MultiTokenPaymentIntegrated.sol\":10856:10879  address[] memory tokens */\n      0x00\n        /* \"contracts/MultiTokenPaymentIntegrated.sol\":10896:10902  length */\n      dup2\n        /* \"contracts/MultiTokenPaymentIntegrated.sol\":10882:10903  new address[](length) */\n      0xffffffffffffffff\n      dup2\n      gt\n      iszero\n      tag_180\n      jumpi\n      tag_181\n      tag_182\n      jump\t// in\n    tag_181:\n    tag_180:\n      mload(0x40)\n      swap1\n      dup1\n      dup3\n      mstore\n      dup1\n      0x20\n      mul\n      0x20\n      add\n      dup3\n      add\n      0x40\n      mstore\n      dup1\n      iszero\n      tag_183\n      jumpi\n      dup2\n      0x20\n      add\n      0x20\n      dup3\n      mul\n      dup1\n      calldatasize\n      dup4\n      calldatacopy\n      dup1\n      dup3\n      add\n      swap2\n      pop\n      pop\n      swap1\n      pop\n    tag_183:\n      pop\n        /* \"contracts/MultiTokenPaymentIntegrated.sol\":10856:10903  address[] memory tokens = new address[](length) */\n      swap1\n      pop\n        /* \"contracts/MultiTokenPaymentIntegrated.sol\":10914:10941  uint256[] memory allowances */\n      0x00\n        /* \"contracts/MultiTokenPaymentIntegrated.sol\":10958:10964  length */\n      dup3\n        /* \"contracts/MultiTokenPaymentIntegrated.sol\":10944:10965  new uint256[](length) */\n      0xffffffffffffffff\n      dup2\n      gt\n      iszero\n      tag_184\n      jumpi\n      tag_185\n      tag_182\n      jump\t// in\n    tag_185:\n    tag_184:\n      mload(0x40)\n      swap1\n      dup1\n      dup3\n      mstore\n      dup1\n      0x20\n      mul\n      0x20\n      add\n      dup3\n      add\n      0x40\n      mstore\n      dup1\n      iszero\n      tag_186\n      jumpi\n      dup2\n      0x20\n      add\n      0x20\n      dup3\n      mul\n      dup1\n      calldatasize\n      dup4\n      calldatacopy\n      dup1\n      dup3\n      add\n      swap2\n      pop\n      pop\n      swap1\n      pop\n    tag_186:\n      pop\n        /* \"contracts/MultiTokenPaymentIntegrated.sol\":10914:10965  uint256[] memory allowances = new uint256[](length) */\n      swap1\n      pop\n        /* \"contracts/MultiTokenPaymentIntegrated.sol\":10991:11000  uint256 i */\n      0x00\n        /* \"contracts/MultiTokenPaymentIntegrated.sol\":11003:11004  0 */\n      0x00\n        /* \"contracts/MultiTokenPaymentIntegrated.sol\":10991:11004  uint256 i = 0 */\n      swap1\n      pop\n        /* \"contracts/MultiTokenPaymentIntegrated.sol\":10986:11174  for (uint256 i = 0; i < length; i++) {... */\n    tag_187:\n        /* \"contracts/MultiTokenPaymentIntegrated.sol\":11010:11016  length */\n      dup4\n        /* \"contracts/MultiTokenPaymentIntegrated.sol\":11006:11007  i */\n      dup2\n        /* \"contracts/MultiTokenPaymentIntegrated.sol\":11006:11016  i < length */\n      lt\n        /* \"contracts/MultiTokenPaymentIntegrated.sol\":10986:11174  for (uint256 i = 0; i < length; i++) {... */\n      iszero\n      tag_188\n      jumpi\n        /* \"contracts/MultiTokenPaymentIntegrated.sol\":11038:11051  address token */\n      0x00\n        /* \"contracts/MultiTokenPaymentIntegrated.sol\":11054:11069  supportedTokens */\n      0x02\n        /* \"contracts/MultiTokenPaymentIntegrated.sol\":11070:11071  i */\n      dup3\n        /* \"contracts/MultiTokenPaymentIntegrated.sol\":11054:11072  supportedTokens[i] */\n      dup2\n      sload\n      dup2\n      lt\n      tag_190\n      jumpi\n      tag_191\n      tag_192\n      jump\t// in\n    tag_191:\n    tag_190:\n      swap1\n      0x00\n      mstore\n      keccak256(0x00, 0x20)\n      add\n      0x00\n      swap1\n      sload\n      swap1\n      0x0100\n      exp\n      swap1\n      div\n      0xffffffffffffffffffffffffffffffffffffffff\n      and\n        /* \"contracts/MultiTokenPaymentIntegrated.sol\":11038:11072  address token = supportedTokens[i] */\n      swap1\n      pop\n        /* \"contracts/MultiTokenPaymentIntegrated.sol\":11099:11104  token */\n      dup1\n        /* \"contracts/MultiTokenPaymentIntegrated.sol\":11087:11093  tokens */\n      dup5\n        /* \"contracts/MultiTokenPaymentIntegrated.sol\":11094:11095  i */\n      dup4\n        /* \"contracts/MultiTokenPaymentIntegrated.sol\":11087:11096  tokens[i] */\n      dup2\n      mload\n      dup2\n      lt\n      tag_194\n      jumpi\n      tag_195\n      tag_192\n      jump\t// in\n    tag_195:\n    tag_194:\n      0x20\n      mul\n      0x20\n      add\n      add\n        /* \"contracts/MultiTokenPaymentIntegrated.sol\":11087:11104  tokens[i] = token */\n      swap1\n      0xffffffffffffffffffffffffffffffffffffffff\n      and\n      swap1\n      dup2\n      0xffffffffffffffffffffffffffffffffffffffff\n      and\n      dup2\n      mstore\n      pop\n      pop\n        /* \"contracts/MultiTokenPaymentIntegrated.sol\":11135:11162  checkAllowance(token, user) */\n      tag_196\n        /* \"contracts/MultiTokenPaymentIntegrated.sol\":11150:11155  token */\n      dup2\n        /* \"contracts/MultiTokenPaymentIntegrated.sol\":11157:11161  user */\n      dup10\n        /* \"contracts/MultiTokenPaymentIntegrated.sol\":11135:11149  checkAllowance */\n      tag_87\n        /* \"contracts/MultiTokenPaymentIntegrated.sol\":11135:11162  checkAllowance(token, user) */\n      jump\t// in\n    tag_196:\n        /* \"contracts/MultiTokenPaymentIntegrated.sol\":11119:11129  allowances */\n      dup4\n        /* \"contracts/MultiTokenPaymentIntegrated.sol\":11130:11131  i */\n      dup4\n        /* \"contracts/MultiTokenPaymentIntegrated.sol\":11119:11132  allowances[i] */\n      dup2\n      mload\n      dup2\n      lt\n      tag_197\n      jumpi\n      tag_198\n      tag_192\n      jump\t// in\n    tag_198:\n    tag_197:\n      0x20\n      mul\n      0x20\n      add\n      add\n        /* \"contracts/MultiTokenPaymentIntegrated.sol\":11119:11162  allowances[i] = checkAllowance(token, user) */\n      dup2\n      dup2\n      mstore\n      pop\n      pop\n        /* \"contracts/MultiTokenPaymentIntegrated.sol\":11023:11174  {... */\n      pop\n        /* \"contracts/MultiTokenPaymentIntegrated.sol\":11018:11021  i++ */\n      dup1\n      dup1\n      0x01\n      add\n      swap2\n      pop\n      pop\n        /* \"contracts/MultiTokenPaymentIntegrated.sol\":10986:11174  for (uint256 i = 0; i < length; i++) {... */\n      jump(tag_187)\n    tag_188:\n      pop\n        /* \"contracts/MultiTokenPaymentIntegrated.sol\":11202:11208  tokens */\n      dup2\n        /* \"contracts/MultiTokenPaymentIntegrated.sol\":11210:11220  allowances */\n      dup2\n        /* \"contracts/MultiTokenPaymentIntegrated.sol\":11194:11221  return (tokens, allowances) */\n      swap5\n      pop\n      swap5\n      pop\n      pop\n      pop\n      pop\n        /* \"contracts/MultiTokenPaymentIntegrated.sol\":10660:11229  function checkAllAllowances(address user) ... */\n      swap2\n      pop\n      swap2\n      jump\t// out\n        /* \"contracts/MultiTokenPaymentIntegrated.sol\":2875:3835  function addSupportedToken(... */\n    tag_49:\n        /* \"@openzeppelin/contracts/access/Ownable.sol\":1094:1107  _checkOwner() */\n      tag_200\n        /* \"@openzeppelin/contracts/access/Ownable.sol\":1094:1105  _checkOwner */\n      tag_124\n        /* \"@openzeppelin/contracts/access/Ownable.sol\":1094:1107  _checkOwner() */\n      jump\t// in\n    tag_200:\n        /* \"contracts/MultiTokenPaymentIntegrated.sol\":3103:3104  0 */\n      0x00\n        /* \"contracts/MultiTokenPaymentIntegrated.sol\":3086:3105  token != address(0) */\n      0xffffffffffffffffffffffffffffffffffffffff\n      and\n        /* \"contracts/MultiTokenPaymentIntegrated.sol\":3086:3091  token */\n      dup6\n        /* \"contracts/MultiTokenPaymentIntegrated.sol\":3086:3105  token != address(0) */\n      0xffffffffffffffffffffffffffffffffffffffff\n      and\n      sub\n        /* \"contracts/MultiTokenPaymentIntegrated.sol\":3078:3131  require(token != address(0), \"Invalid token address\") */\n      tag_202\n      jumpi\n      mload(0x40)\n      0x08c379a000000000000000000000000000000000000000000000000000000000\n      dup2\n      mstore\n      0x04\n      add\n      tag_203\n      swap1\n      tag_128\n      jump\t// in\n    tag_203:\n      mload(0x40)\n      dup1\n      swap2\n      sub\n      swap1\n      revert\n    tag_202:\n        /* \"contracts/MultiTokenPaymentIntegrated.sol\":3151:3167  isTokenSupported */\n      0x03\n        /* \"contracts/MultiTokenPaymentIntegrated.sol\":3151:3174  isTokenSupported[token] */\n      0x00\n        /* \"contracts/MultiTokenPaymentIntegrated.sol\":3168:3173  token */\n      dup7\n        /* \"contracts/MultiTokenPaymentIntegrated.sol\":3151:3174  isTokenSupported[token] */\n      0xffffffffffffffffffffffffffffffffffffffff\n      and\n      0xffffffffffffffffffffffffffffffffffffffff\n      and\n      dup2\n      mstore\n      0x20\n      add\n      swap1\n      dup2\n      mstore\n      0x20\n      add\n      0x00\n      keccak256\n      0x00\n      swap1\n      sload\n      swap1\n      0x0100\n      exp\n      swap1\n      div\n      0xff\n      and\n        /* \"contracts/MultiTokenPaymentIntegrated.sol\":3150:3174  !isTokenSupported[token] */\n      iszero\n        /* \"contracts/MultiTokenPaymentIntegrated.sol\":3142:3202  require(!isTokenSupported[token], \"Token already supported\") */\n      tag_204\n      jumpi\n      mload(0x40)\n      0x08c379a000000000000000000000000000000000000000000000000000000000\n      dup2\n      mstore\n      0x04\n      add\n      tag_205\n      swap1\n      tag_131\n      jump\t// in\n    tag_205:\n      mload(0x40)\n      dup1\n      swap2\n      sub\n      swap1\n      revert\n    tag_204:\n        /* \"contracts/MultiTokenPaymentIntegrated.sol\":3249:3253  true */\n      0x01\n        /* \"contracts/MultiTokenPaymentIntegrated.sol\":3223:3239  isTokenSupported */\n      0x03\n        /* \"contracts/MultiTokenPaymentIntegrated.sol\":3223:3246  isTokenSupported[token] */\n      0x00\n        /* \"contracts/MultiTokenPaymentIntegrated.sol\":3240:3245  token */\n      dup8\n        /* \"contracts/MultiTokenPaymentIntegrated.sol\":3223:3246  isTokenSupported[token] */\n      0xffffffffffffffffffffffffffffffffffffffff\n      and\n      0xffffffffffffffffffffffffffffffffffffffff\n      and\n      dup2\n      mstore\n      0x20\n      add\n      swap1\n      dup2\n      mstore\n      0x20\n      add\n      0x00\n      keccak256\n      0x00\n        /* \"contracts/MultiTokenPaymentIntegrated.sol\":3223:3253  isTokenSupported[token] = true */\n      0x0100\n      exp\n      dup2\n      sload\n      dup2\n      0xff\n      mul\n      not\n      and\n      swap1\n      dup4\n      iszero\n      iszero\n      mul\n      or\n      swap1\n      sstore\n      pop\n        /* \"contracts/MultiTokenPaymentIntegrated.sol\":3264:3279  supportedTokens */\n      0x02\n        /* \"contracts/MultiTokenPaymentIntegrated.sol\":3285:3290  token */\n      dup6\n        /* \"contracts/MultiTokenPaymentIntegrated.sol\":3264:3291  supportedTokens.push(token) */\n      swap1\n      dup1\n      0x01\n      dup2\n      sload\n      add\n      dup1\n      dup3\n      sstore\n      dup1\n      swap2\n      pop\n      pop\n      0x01\n      swap1\n      sub\n      swap1\n      0x00\n      mstore\n      keccak256(0x00, 0x20)\n      add\n      0x00\n      swap1\n      swap2\n      swap1\n      swap2\n      swap1\n      swap2\n      0x0100\n      exp\n      dup2\n      sload\n      dup2\n      0xffffffffffffffffffffffffffffffffffffffff\n      mul\n      not\n      and\n      swap1\n      dup4\n      0xffffffffffffffffffffffffffffffffffffffff\n      and\n      mul\n      or\n      swap1\n      sstore\n      pop\n        /* \"contracts/MultiTokenPaymentIntegrated.sol\":3312:3336  bool detectedNonStandard */\n      0x00\n        /* \"contracts/MultiTokenPaymentIntegrated.sol\":3339:3352  isNonStandard */\n      dup2\n        /* \"contracts/MultiTokenPaymentIntegrated.sol\":3312:3352  bool detectedNonStandard = isNonStandard */\n      swap1\n      pop\n        /* \"contracts/MultiTokenPaymentIntegrated.sol\":3368:3381  isNonStandard */\n      dup2\n        /* \"contracts/MultiTokenPaymentIntegrated.sol\":3363:3457  if (!isNonStandard) {... */\n      tag_207\n      jumpi\n        /* \"contracts/MultiTokenPaymentIntegrated.sol\":3420:3445  checkTokenStandard(token) */\n      tag_208\n        /* \"contracts/MultiTokenPaymentIntegrated.sol\":3439:3444  token */\n      dup7\n        /* \"contracts/MultiTokenPaymentIntegrated.sol\":3420:3438  checkTokenStandard */\n      tag_83\n        /* \"contracts/MultiTokenPaymentIntegrated.sol\":3420:3445  checkTokenStandard(token) */\n      jump\t// in\n    tag_208:\n        /* \"contracts/MultiTokenPaymentIntegrated.sol\":3398:3445  detectedNonStandard = checkTokenStandard(token) */\n      swap1\n      pop\n        /* \"contracts/MultiTokenPaymentIntegrated.sol\":3363:3457  if (!isNonStandard) {... */\n    tag_207:\n        /* \"contracts/MultiTokenPaymentIntegrated.sol\":3496:3681  TokenInfo({... */\n      mload(0x40)\n      dup1\n      0xa0\n      add\n      0x40\n      mstore\n      dup1\n        /* \"contracts/MultiTokenPaymentIntegrated.sol\":3529:3535  symbol */\n      dup7\n        /* \"contracts/MultiTokenPaymentIntegrated.sol\":3496:3681  TokenInfo({... */\n      dup2\n      mstore\n      0x20\n      add\n        /* \"contracts/MultiTokenPaymentIntegrated.sol\":3556:3560  name */\n      dup6\n        /* \"contracts/MultiTokenPaymentIntegrated.sol\":3496:3681  TokenInfo({... */\n      dup2\n      mstore\n      0x20\n      add\n        /* \"contracts/MultiTokenPaymentIntegrated.sol\":3585:3593  decimals */\n      dup5\n        /* \"contracts/MultiTokenPaymentIntegrated.sol\":3496:3681  TokenInfo({... */\n      0xff\n      and\n      dup2\n      mstore\n      0x20\n      add\n        /* \"contracts/MultiTokenPaymentIntegrated.sol\":3616:3620  true */\n      0x01\n        /* \"contracts/MultiTokenPaymentIntegrated.sol\":3496:3681  TokenInfo({... */\n      iszero\n      iszero\n      dup2\n      mstore\n      0x20\n      add\n        /* \"contracts/MultiTokenPaymentIntegrated.sol\":3650:3669  detectedNonStandard */\n      dup3\n        /* \"contracts/MultiTokenPaymentIntegrated.sol\":3496:3681  TokenInfo({... */\n      iszero\n      iszero\n      dup2\n      mstore\n      pop\n        /* \"contracts/MultiTokenPaymentIntegrated.sol\":3477:3486  tokenInfo */\n      0x06\n        /* \"contracts/MultiTokenPaymentIntegrated.sol\":3477:3493  tokenInfo[token] */\n      0x00\n        /* \"contracts/MultiTokenPaymentIntegrated.sol\":3487:3492  token */\n      dup9\n        /* \"contracts/MultiTokenPaymentIntegrated.sol\":3477:3493  tokenInfo[token] */\n      0xffffffffffffffffffffffffffffffffffffffff\n      and\n      0xffffffffffffffffffffffffffffffffffffffff\n      and\n      dup2\n      mstore\n      0x20\n      add\n      swap1\n      dup2\n      mstore\n      0x20\n      add\n      0x00\n      keccak256\n        /* \"contracts/MultiTokenPaymentIntegrated.sol\":3477:3681  tokenInfo[token] = TokenInfo({... */\n      0x00\n      dup3\n      add\n      mload\n      dup2\n      0x00\n      add\n      swap1\n      dup2\n      tag_209\n      swap2\n      swap1\n      tag_160\n      jump\t// in\n    tag_209:\n      pop\n      0x20\n      dup3\n      add\n      mload\n      dup2\n      0x01\n      add\n      swap1\n      dup2\n      tag_210\n      swap2\n      swap1\n      tag_160\n      jump\t// in\n    tag_210:\n      pop\n      0x40\n      dup3\n      add\n      mload\n      dup2\n      0x02\n      add\n      exp(0x0100, 0x00)\n      dup2\n      sload\n      dup2\n      0xff\n      mul\n      not\n      and\n      swap1\n      dup4\n      0xff\n      and\n      mul\n      or\n      swap1\n      sstore\n      pop\n      0x60\n      dup3\n      add\n      mload\n      dup2\n      0x02\n      add\n      exp(0x0100, 0x01)\n      dup2\n      sload\n      dup2\n      0xff\n      mul\n      not\n      and\n      swap1\n      dup4\n      iszero\n      iszero\n      mul\n      or\n      swap1\n      sstore\n      pop\n      0x80\n      dup3\n      add\n      mload\n      dup2\n      0x02\n      add\n      exp(0x0100, 0x02)\n      dup2\n      sload\n      dup2\n      0xff\n      mul\n      not\n      and\n      swap1\n      dup4\n      iszero\n      iszero\n      mul\n      or\n      swap1\n      sstore\n      pop\n      swap1\n      pop\n      pop\n        /* \"contracts/MultiTokenPaymentIntegrated.sol\":3730:3749  detectedNonStandard */\n      dup1\n        /* \"contracts/MultiTokenPaymentIntegrated.sol\":3702:3720  isNonStandardToken */\n      0x04\n        /* \"contracts/MultiTokenPaymentIntegrated.sol\":3702:3727  isNonStandardToken[token] */\n      0x00\n        /* \"contracts/MultiTokenPaymentIntegrated.sol\":3721:3726  token */\n      dup9\n        /* \"contracts/MultiTokenPaymentIntegrated.sol\":3702:3727  isNonStandardToken[token] */\n      0xffffffffffffffffffffffffffffffffffffffff\n      and\n      0xffffffffffffffffffffffffffffffffffffffff\n      and\n      dup2\n      mstore\n      0x20\n      add\n      swap1\n      dup2\n      mstore\n      0x20\n      add\n      0x00\n      keccak256\n      0x00\n        /* \"contracts/MultiTokenPaymentIntegrated.sol\":3702:3749  isNonStandardToken[token] = detectedNonStandard */\n      0x0100\n      exp\n      dup2\n      sload\n      dup2\n      0xff\n      mul\n      not\n      and\n      swap1\n      dup4\n      iszero\n      iszero\n      mul\n      or\n      swap1\n      sstore\n      pop\n        /* \"contracts/MultiTokenPaymentIntegrated.sol\":3786:3791  token */\n      dup6\n        /* \"contracts/MultiTokenPaymentIntegrated.sol\":3775:3827  TokenAdded(token, symbol, name, detectedNonStandard) */\n      0xffffffffffffffffffffffffffffffffffffffff\n      and\n      0x7fc380a378a7436b00bfbfa4745a879f9095ad1fde33a412783721a59a2ad6b9\n        /* \"contracts/MultiTokenPaymentIntegrated.sol\":3793:3799  symbol */\n      dup7\n        /* \"contracts/MultiTokenPaymentIntegrated.sol\":3801:3805  name */\n      dup7\n        /* \"contracts/MultiTokenPaymentIntegrated.sol\":3807:3826  detectedNonStandard */\n      dup5\n        /* \"contracts/MultiTokenPaymentIntegrated.sol\":3775:3827  TokenAdded(token, symbol, name, detectedNonStandard) */\n      mload(0x40)\n      tag_211\n      swap4\n      swap3\n      swap2\n      swap1\n      tag_163\n      jump\t// in\n    tag_211:\n      mload(0x40)\n      dup1\n      swap2\n      sub\n      swap1\n      log2\n        /* \"contracts/MultiTokenPaymentIntegrated.sol\":3067:3835  {... */\n      pop\n        /* \"contracts/MultiTokenPaymentIntegrated.sol\":2875:3835  function addSupportedToken(... */\n      pop\n      pop\n      pop\n      pop\n      pop\n      jump\t// out\n        /* \"contracts/MultiTokenPaymentIntegrated.sol\":11235:12735  function makeMultiTokenPayment(... */\n    tag_53:\n        /* \"contracts/MultiTokenPaymentIntegrated.sol\":11447:11451  bool */\n      0x00\n        /* \"@openzeppelin/contracts/security/ReentrancyGuard.sol\":2261:2282  _nonReentrantBefore() */\n      tag_213\n        /* \"@openzeppelin/contracts/security/ReentrancyGuard.sol\":2261:2280  _nonReentrantBefore */\n      tag_214\n        /* \"@openzeppelin/contracts/security/ReentrancyGuard.sol\":2261:2282  _nonReentrantBefore() */\n      jump\t// in\n    tag_213:\n        /* \"contracts/MultiTokenPaymentIntegrated.sol\":11509:11519  recipients */\n      dup5\n      dup5\n        /* \"contracts/MultiTokenPaymentIntegrated.sol\":11509:11526  recipients.length */\n      swap1\n      pop\n        /* \"contracts/MultiTokenPaymentIntegrated.sol\":11492:11498  tokens */\n      dup8\n      dup8\n        /* \"contracts/MultiTokenPaymentIntegrated.sol\":11492:11505  tokens.length */\n      swap1\n      pop\n        /* \"contracts/MultiTokenPaymentIntegrated.sol\":11492:11526  tokens.length == recipients.length */\n      eq\n        /* \"contracts/MultiTokenPaymentIntegrated.sol\":11492:11565  tokens.length == recipients.length && recipients.length == amounts.length */\n      dup1\n      iszero\n      tag_216\n      jumpi\n      pop\n        /* \"contracts/MultiTokenPaymentIntegrated.sol\":11551:11558  amounts */\n      dup3\n      dup3\n        /* \"contracts/MultiTokenPaymentIntegrated.sol\":11551:11565  amounts.length */\n      swap1\n      pop\n        /* \"contracts/MultiTokenPaymentIntegrated.sol\":11530:11540  recipients */\n      dup6\n      dup6\n        /* \"contracts/MultiTokenPaymentIntegrated.sol\":11530:11547  recipients.length */\n      swap1\n      pop\n        /* \"contracts/MultiTokenPaymentIntegrated.sol\":11530:11565  recipients.length == amounts.length */\n      eq\n        /* \"contracts/MultiTokenPaymentIntegrated.sol\":11492:11565  tokens.length == recipients.length && recipients.length == amounts.length */\n    tag_216:\n        /* \"contracts/MultiTokenPaymentIntegrated.sol\":11470:11615  require(... */\n      tag_217\n      jumpi\n      mload(0x40)\n      0x08c379a000000000000000000000000000000000000000000000000000000000\n      dup2\n      mstore\n      0x04\n      add\n      tag_218\n      swap1\n      tag_219\n      jump\t// in\n    tag_218:\n      mload(0x40)\n      dup1\n      swap2\n      sub\n      swap1\n      revert\n    tag_217:\n        /* \"contracts/MultiTokenPaymentIntegrated.sol\":11650:11651  0 */\n      0x00\n        /* \"contracts/MultiTokenPaymentIntegrated.sol\":11634:11640  tokens */\n      dup8\n      dup8\n        /* \"contracts/MultiTokenPaymentIntegrated.sol\":11634:11647  tokens.length */\n      swap1\n      pop\n        /* \"contracts/MultiTokenPaymentIntegrated.sol\":11634:11651  tokens.length > 0 */\n      gt\n        /* \"contracts/MultiTokenPaymentIntegrated.sol\":11626:11674  require(tokens.length > 0, \"No tokens provided\") */\n      tag_220\n      jumpi\n      mload(0x40)\n      0x08c379a000000000000000000000000000000000000000000000000000000000\n      dup2\n      mstore\n      0x04\n      add\n      tag_221\n      swap1\n      tag_222\n      jump\t// in\n    tag_221:\n      mload(0x40)\n      dup1\n      swap2\n      sub\n      swap1\n      revert\n    tag_220:\n        /* \"contracts/MultiTokenPaymentIntegrated.sol\":11700:11709  uint256 i */\n      0x00\n        /* \"contracts/MultiTokenPaymentIntegrated.sol\":11712:11713  0 */\n      0x00\n        /* \"contracts/MultiTokenPaymentIntegrated.sol\":11700:11713  uint256 i = 0 */\n      swap1\n      pop\n        /* \"contracts/MultiTokenPaymentIntegrated.sol\":11695:12510  for (uint256 i = 0; i < tokens.length; i++) {... */\n    tag_223:\n        /* \"contracts/MultiTokenPaymentIntegrated.sol\":11719:11725  tokens */\n      dup8\n      dup8\n        /* \"contracts/MultiTokenPaymentIntegrated.sol\":11719:11732  tokens.length */\n      swap1\n      pop\n        /* \"contracts/MultiTokenPaymentIntegrated.sol\":11715:11716  i */\n      dup2\n        /* \"contracts/MultiTokenPaymentIntegrated.sol\":11715:11732  i < tokens.length */\n      lt\n        /* \"contracts/MultiTokenPaymentIntegrated.sol\":11695:12510  for (uint256 i = 0; i < tokens.length; i++) {... */\n      iszero\n      tag_224\n      jumpi\n        /* \"contracts/MultiTokenPaymentIntegrated.sol\":11762:11778  isTokenSupported */\n      0x03\n        /* \"contracts/MultiTokenPaymentIntegrated.sol\":11762:11789  isTokenSupported[tokens[i]] */\n      0x00\n        /* \"contracts/MultiTokenPaymentIntegrated.sol\":11779:11785  tokens */\n      dup10\n      dup10\n        /* \"contracts/MultiTokenPaymentIntegrated.sol\":11786:11787  i */\n      dup5\n        /* \"contracts/MultiTokenPaymentIntegrated.sol\":11779:11788  tokens[i] */\n      dup2\n      dup2\n      lt\n      tag_226\n      jumpi\n      tag_227\n      tag_192\n      jump\t// in\n    tag_227:\n    tag_226:\n      swap1\n      pop\n      0x20\n      mul\n      add\n      0x20\n      dup2\n      add\n      swap1\n      tag_228\n      swap2\n      swap1\n      tag_34\n      jump\t// in\n    tag_228:\n        /* \"contracts/MultiTokenPaymentIntegrated.sol\":11762:11789  isTokenSupported[tokens[i]] */\n      0xffffffffffffffffffffffffffffffffffffffff\n      and\n      0xffffffffffffffffffffffffffffffffffffffff\n      and\n      dup2\n      mstore\n      0x20\n      add\n      swap1\n      dup2\n      mstore\n      0x20\n      add\n      0x00\n      keccak256\n      0x00\n      swap1\n      sload\n      swap1\n      0x0100\n      exp\n      swap1\n      div\n      0xff\n      and\n        /* \"contracts/MultiTokenPaymentIntegrated.sol\":11754:11813  require(isTokenSupported[tokens[i]], \"Token not supported\") */\n      tag_229\n      jumpi\n      mload(0x40)\n      0x08c379a000000000000000000000000000000000000000000000000000000000\n      dup2\n      mstore\n      0x04\n      add\n      tag_230\n      swap1\n      tag_231\n      jump\t// in\n    tag_230:\n      mload(0x40)\n      dup1\n      swap2\n      sub\n      swap1\n      revert\n    tag_229:\n        /* \"contracts/MultiTokenPaymentIntegrated.sol\":11861:11862  0 */\n      0x00\n        /* \"contracts/MultiTokenPaymentIntegrated.sol\":11836:11863  recipients[i] != address(0) */\n      0xffffffffffffffffffffffffffffffffffffffff\n      and\n        /* \"contracts/MultiTokenPaymentIntegrated.sol\":11836:11846  recipients */\n      dup7\n      dup7\n        /* \"contracts/MultiTokenPaymentIntegrated.sol\":11847:11848  i */\n      dup4\n        /* \"contracts/MultiTokenPaymentIntegrated.sol\":11836:11849  recipients[i] */\n      dup2\n      dup2\n      lt\n      tag_232\n      jumpi\n      tag_233\n      tag_192\n      jump\t// in\n    tag_233:\n    tag_232:\n      swap1\n      pop\n      0x20\n      mul\n      add\n      0x20\n      dup2\n      add\n      swap1\n      tag_234\n      swap2\n      swap1\n      tag_34\n      jump\t// in\n    tag_234:\n        /* \"contracts/MultiTokenPaymentIntegrated.sol\":11836:11863  recipients[i] != address(0) */\n      0xffffffffffffffffffffffffffffffffffffffff\n      and\n      sub\n        /* \"contracts/MultiTokenPaymentIntegrated.sol\":11828:11893  require(recipients[i] != address(0), \"Invalid recipient address\") */\n      tag_235\n      jumpi\n      mload(0x40)\n      0x08c379a000000000000000000000000000000000000000000000000000000000\n      dup2\n      mstore\n      0x04\n      add\n      tag_236\n      swap1\n      tag_237\n      jump\t// in\n    tag_236:\n      mload(0x40)\n      dup1\n      swap2\n      sub\n      swap1\n      revert\n    tag_235:\n        /* \"contracts/MultiTokenPaymentIntegrated.sol\":11929:11930  0 */\n      0x00\n        /* \"contracts/MultiTokenPaymentIntegrated.sol\":11916:11923  amounts */\n      dup5\n      dup5\n        /* \"contracts/MultiTokenPaymentIntegrated.sol\":11924:11925  i */\n      dup4\n        /* \"contracts/MultiTokenPaymentIntegrated.sol\":11916:11926  amounts[i] */\n      dup2\n      dup2\n      lt\n      tag_238\n      jumpi\n      tag_239\n      tag_192\n      jump\t// in\n    tag_239:\n    tag_238:\n      swap1\n      pop\n      0x20\n      mul\n      add\n      calldataload\n        /* \"contracts/MultiTokenPaymentIntegrated.sol\":11916:11930  amounts[i] > 0 */\n      gt\n        /* \"contracts/MultiTokenPaymentIntegrated.sol\":11908:11964  require(amounts[i] > 0, \"Amount must be greater than 0\") */\n      tag_240\n      jumpi\n      mload(0x40)\n      0x08c379a000000000000000000000000000000000000000000000000000000000\n      dup2\n      mstore\n      0x04\n      add\n      tag_241\n      swap1\n      tag_242\n      jump\t// in\n    tag_241:\n      mload(0x40)\n      dup1\n      swap2\n      sub\n      swap1\n      revert\n    tag_240:\n        /* \"contracts/MultiTokenPaymentIntegrated.sol\":11993:12014  uint256 allowedAmount */\n      0x00\n        /* \"contracts/MultiTokenPaymentIntegrated.sol\":12017:12069  _safeAllowance(tokens[i], msg.sender, address(this)) */\n      tag_243\n        /* \"contracts/MultiTokenPaymentIntegrated.sol\":12032:12038  tokens */\n      dup10\n      dup10\n        /* \"contracts/MultiTokenPaymentIntegrated.sol\":12039:12040  i */\n      dup5\n        /* \"contracts/MultiTokenPaymentIntegrated.sol\":12032:12041  tokens[i] */\n      dup2\n      dup2\n      lt\n      tag_244\n      jumpi\n      tag_245\n      tag_192\n      jump\t// in\n    tag_245:\n    tag_244:\n      swap1\n      pop\n      0x20\n      mul\n      add\n      0x20\n      dup2\n      add\n      swap1\n      tag_246\n      swap2\n      swap1\n      tag_34\n      jump\t// in\n    tag_246:\n        /* \"contracts/MultiTokenPaymentIntegrated.sol\":12043:12053  msg.sender */\n      caller\n        /* \"contracts/MultiTokenPaymentIntegrated.sol\":12063:12067  this */\n      address\n        /* \"contracts/MultiTokenPaymentIntegrated.sol\":12017:12031  _safeAllowance */\n      tag_247\n        /* \"contracts/MultiTokenPaymentIntegrated.sol\":12017:12069  _safeAllowance(tokens[i], msg.sender, address(this)) */\n      jump\t// in\n    tag_243:\n        /* \"contracts/MultiTokenPaymentIntegrated.sol\":11993:12069  uint256 allowedAmount = _safeAllowance(tokens[i], msg.sender, address(this)) */\n      swap1\n      pop\n        /* \"contracts/MultiTokenPaymentIntegrated.sol\":12109:12116  amounts */\n      dup5\n      dup5\n        /* \"contracts/MultiTokenPaymentIntegrated.sol\":12117:12118  i */\n      dup4\n        /* \"contracts/MultiTokenPaymentIntegrated.sol\":12109:12119  amounts[i] */\n      dup2\n      dup2\n      lt\n      tag_248\n      jumpi\n      tag_249\n      tag_192\n      jump\t// in\n    tag_249:\n    tag_248:\n      swap1\n      pop\n      0x20\n      mul\n      add\n      calldataload\n        /* \"contracts/MultiTokenPaymentIntegrated.sol\":12092:12105  allowedAmount */\n      dup2\n        /* \"contracts/MultiTokenPaymentIntegrated.sol\":12092:12119  allowedAmount >= amounts[i] */\n      lt\n      iszero\n        /* \"contracts/MultiTokenPaymentIntegrated.sol\":12084:12156  require(allowedAmount >= amounts[i], \"Insufficient allowance for token\") */\n      tag_250\n      jumpi\n      mload(0x40)\n      0x08c379a000000000000000000000000000000000000000000000000000000000\n      dup2\n      mstore\n      0x04\n      add\n      tag_251\n      swap1\n      tag_252\n      jump\t// in\n    tag_251:\n      mload(0x40)\n      dup1\n      swap2\n      sub\n      swap1\n      revert\n    tag_250:\n        /* \"contracts/MultiTokenPaymentIntegrated.sol\":12185:12204  uint256 userBalance */\n      0x00\n        /* \"contracts/MultiTokenPaymentIntegrated.sol\":12207:12244  _safeBalanceOf(tokens[i], msg.sender) */\n      tag_253\n        /* \"contracts/MultiTokenPaymentIntegrated.sol\":12222:12228  tokens */\n      dup11\n      dup11\n        /* \"contracts/MultiTokenPaymentIntegrated.sol\":12229:12230  i */\n      dup6\n        /* \"contracts/MultiTokenPaymentIntegrated.sol\":12222:12231  tokens[i] */\n      dup2\n      dup2\n      lt\n      tag_254\n      jumpi\n      tag_255\n      tag_192\n      jump\t// in\n    tag_255:\n    tag_254:\n      swap1\n      pop\n      0x20\n      mul\n      add\n      0x20\n      dup2\n      add\n      swap1\n      tag_256\n      swap2\n      swap1\n      tag_34\n      jump\t// in\n    tag_256:\n        /* \"contracts/MultiTokenPaymentIntegrated.sol\":12233:12243  msg.sender */\n      caller\n        /* \"contracts/MultiTokenPaymentIntegrated.sol\":12207:12221  _safeBalanceOf */\n      tag_257\n        /* \"contracts/MultiTokenPaymentIntegrated.sol\":12207:12244  _safeBalanceOf(tokens[i], msg.sender) */\n      jump\t// in\n    tag_253:\n        /* \"contracts/MultiTokenPaymentIntegrated.sol\":12185:12244  uint256 userBalance = _safeBalanceOf(tokens[i], msg.sender) */\n      swap1\n      pop\n        /* \"contracts/MultiTokenPaymentIntegrated.sol\":12282:12289  amounts */\n      dup6\n      dup6\n        /* \"contracts/MultiTokenPaymentIntegrated.sol\":12290:12291  i */\n      dup5\n        /* \"contracts/MultiTokenPaymentIntegrated.sol\":12282:12292  amounts[i] */\n      dup2\n      dup2\n      lt\n      tag_258\n      jumpi\n      tag_259\n      tag_192\n      jump\t// in\n    tag_259:\n    tag_258:\n      swap1\n      pop\n      0x20\n      mul\n      add\n      calldataload\n        /* \"contracts/MultiTokenPaymentIntegrated.sol\":12267:12278  userBalance */\n      dup2\n        /* \"contracts/MultiTokenPaymentIntegrated.sol\":12267:12292  userBalance >= amounts[i] */\n      lt\n      iszero\n        /* \"contracts/MultiTokenPaymentIntegrated.sol\":12259:12327  require(userBalance >= amounts[i], \"Insufficient balance for token\") */\n      tag_260\n      jumpi\n      mload(0x40)\n      0x08c379a000000000000000000000000000000000000000000000000000000000\n      dup2\n      mstore\n      0x04\n      add\n      tag_261\n      swap1\n      tag_262\n      jump\t// in\n    tag_261:\n      mload(0x40)\n      dup1\n      swap2\n      sub\n      swap1\n      revert\n    tag_260:\n        /* \"contracts/MultiTokenPaymentIntegrated.sol\":12356:12368  bool success */\n      0x00\n        /* \"contracts/MultiTokenPaymentIntegrated.sol\":12371:12438  _safeTransferFrom(tokens[i], msg.sender, recipients[i], amounts[i]) */\n      tag_263\n        /* \"contracts/MultiTokenPaymentIntegrated.sol\":12389:12395  tokens */\n      dup12\n      dup12\n        /* \"contracts/MultiTokenPaymentIntegrated.sol\":12396:12397  i */\n      dup7\n        /* \"contracts/MultiTokenPaymentIntegrated.sol\":12389:12398  tokens[i] */\n      dup2\n      dup2\n      lt\n      tag_264\n      jumpi\n      tag_265\n      tag_192\n      jump\t// in\n    tag_265:\n    tag_264:\n      swap1\n      pop\n      0x20\n      mul\n      add\n      0x20\n      dup2\n      add\n      swap1\n      tag_266\n      swap2\n      swap1\n      tag_34\n      jump\t// in\n    tag_266:\n        /* \"contracts/MultiTokenPaymentIntegrated.sol\":12400:12410  msg.sender */\n      caller\n        /* \"contracts/MultiTokenPaymentIntegrated.sol\":12412:12422  recipients */\n      dup12\n      dup12\n        /* \"contracts/MultiTokenPaymentIntegrated.sol\":12423:12424  i */\n      dup9\n        /* \"contracts/MultiTokenPaymentIntegrated.sol\":12412:12425  recipients[i] */\n      dup2\n      dup2\n      lt\n      tag_267\n      jumpi\n      tag_268\n      tag_192\n      jump\t// in\n    tag_268:\n    tag_267:\n      swap1\n      pop\n      0x20\n      mul\n      add\n      0x20\n      dup2\n      add\n      swap1\n      tag_269\n      swap2\n      swap1\n      tag_34\n      jump\t// in\n    tag_269:\n        /* \"contracts/MultiTokenPaymentIntegrated.sol\":12427:12434  amounts */\n      dup11\n      dup11\n        /* \"contracts/MultiTokenPaymentIntegrated.sol\":12435:12436  i */\n      dup10\n        /* \"contracts/MultiTokenPaymentIntegrated.sol\":12427:12437  amounts[i] */\n      dup2\n      dup2\n      lt\n      tag_270\n      jumpi\n      tag_271\n      tag_192\n      jump\t// in\n    tag_271:\n    tag_270:\n      swap1\n      pop\n      0x20\n      mul\n      add\n      calldataload\n        /* \"contracts/MultiTokenPaymentIntegrated.sol\":12371:12388  _safeTransferFrom */\n      tag_272\n        /* \"contracts/MultiTokenPaymentIntegrated.sol\":12371:12438  _safeTransferFrom(tokens[i], msg.sender, recipients[i], amounts[i]) */\n      jump\t// in\n    tag_263:\n        /* \"contracts/MultiTokenPaymentIntegrated.sol\":12356:12438  bool success = _safeTransferFrom(tokens[i], msg.sender, recipients[i], amounts[i]) */\n      swap1\n      pop\n        /* \"contracts/MultiTokenPaymentIntegrated.sol\":12461:12468  success */\n      dup1\n        /* \"contracts/MultiTokenPaymentIntegrated.sol\":12453:12498  require(success, \"Transfer failed for token\") */\n      tag_273\n      jumpi\n      mload(0x40)\n      0x08c379a000000000000000000000000000000000000000000000000000000000\n      dup2\n      mstore\n      0x04\n      add\n      tag_274\n      swap1\n      tag_275\n      jump\t// in\n    tag_274:\n      mload(0x40)\n      dup1\n      swap2\n      sub\n      swap1\n      revert\n    tag_273:\n        /* \"contracts/MultiTokenPaymentIntegrated.sol\":11739:12510  {... */\n      pop\n      pop\n      pop\n        /* \"contracts/MultiTokenPaymentIntegrated.sol\":11734:11737  i++ */\n      dup1\n      dup1\n      0x01\n      add\n      swap2\n      pop\n      pop\n        /* \"contracts/MultiTokenPaymentIntegrated.sol\":11695:12510  for (uint256 i = 0; i < tokens.length; i++) {... */\n      jump(tag_223)\n    tag_224:\n      pop\n        /* \"contracts/MultiTokenPaymentIntegrated.sol\":12576:12586  msg.sender */\n      caller\n        /* \"contracts/MultiTokenPaymentIntegrated.sol\":12535:12695  MultiTokenPaymentProcessed(... */\n      0xffffffffffffffffffffffffffffffffffffffff\n      and\n      0x2f083430e3639318f985c2267903b2c4fcf8c0cb45d237cbd54367a1274239c4\n        /* \"contracts/MultiTokenPaymentIntegrated.sol\":12601:12611  recipients */\n      dup7\n      dup7\n        /* \"contracts/MultiTokenPaymentIntegrated.sol\":12626:12632  tokens */\n      dup11\n      dup11\n        /* \"contracts/MultiTokenPaymentIntegrated.sol\":12647:12654  amounts */\n      dup9\n      dup9\n        /* \"contracts/MultiTokenPaymentIntegrated.sol\":12669:12684  block.timestamp */\n      timestamp\n        /* \"contracts/MultiTokenPaymentIntegrated.sol\":12535:12695  MultiTokenPaymentProcessed(... */\n      mload(0x40)\n      tag_276\n      swap8\n      swap7\n      swap6\n      swap5\n      swap4\n      swap3\n      swap2\n      swap1\n      tag_277\n      jump\t// in\n    tag_276:\n      mload(0x40)\n      dup1\n      swap2\n      sub\n      swap1\n      log2\n        /* \"contracts/MultiTokenPaymentIntegrated.sol\":12723:12727  true */\n      0x01\n        /* \"contracts/MultiTokenPaymentIntegrated.sol\":12716:12727  return true */\n      swap1\n      pop\n        /* \"@openzeppelin/contracts/security/ReentrancyGuard.sol\":2303:2323  _nonReentrantAfter() */\n      tag_278\n        /* \"@openzeppelin/contracts/security/ReentrancyGuard.sol\":2303:2321  _nonReentrantAfter */\n      tag_279\n        /* \"@openzeppelin/contracts/security/ReentrancyGuard.sol\":2303:2323  _nonReentrantAfter() */\n      jump\t// in\n    tag_278:\n        /* \"contracts/MultiTokenPaymentIntegrated.sol\":11235:12735  function makeMultiTokenPayment(... */\n      swap7\n      swap6\n      pop\n      pop\n      pop\n      pop\n      pop\n      pop\n      jump\t// out\n        /* \"contracts/MultiTokenPaymentIntegrated.sol\":8414:9614  function batchPayments(address token, address[] calldata recipients, uint256[] calldata amounts) external nonReentrant tokenSupported(token) returns (bool) {... */\n    tag_59:\n        /* \"contracts/MultiTokenPaymentIntegrated.sol\":8564:8568  bool */\n      0x00\n        /* \"@openzeppelin/contracts/security/ReentrancyGuard.sol\":2261:2282  _nonReentrantBefore() */\n      tag_281\n        /* \"@openzeppelin/contracts/security/ReentrancyGuard.sol\":2261:2280  _nonReentrantBefore */\n      tag_214\n        /* \"@openzeppelin/contracts/security/ReentrancyGuard.sol\":2261:2282  _nonReentrantBefore() */\n      jump\t// in\n    tag_281:\n        /* \"contracts/MultiTokenPaymentIntegrated.sol\":8548:8553  token */\n      dup6\n        /* \"contracts/MultiTokenPaymentIntegrated.sol\":1986:2002  isTokenSupported */\n      0x03\n        /* \"contracts/MultiTokenPaymentIntegrated.sol\":1986:2009  isTokenSupported[token] */\n      0x00\n        /* \"contracts/MultiTokenPaymentIntegrated.sol\":2003:2008  token */\n      dup3\n        /* \"contracts/MultiTokenPaymentIntegrated.sol\":1986:2009  isTokenSupported[token] */\n      0xffffffffffffffffffffffffffffffffffffffff\n      and\n      0xffffffffffffffffffffffffffffffffffffffff\n      and\n      dup2\n      mstore\n      0x20\n      add\n      swap1\n      dup2\n      mstore\n      0x20\n      add\n      0x00\n      keccak256\n      0x00\n      swap1\n      sload\n      swap1\n      0x0100\n      exp\n      swap1\n      div\n      0xff\n      and\n        /* \"contracts/MultiTokenPaymentIntegrated.sol\":1978:2033  require(isTokenSupported[token], \"Token not supported\") */\n      tag_283\n      jumpi\n      mload(0x40)\n      0x08c379a000000000000000000000000000000000000000000000000000000000\n      dup2\n      mstore\n      0x04\n      add\n      tag_284\n      swap1\n      tag_231\n      jump\t// in\n    tag_284:\n      mload(0x40)\n      dup1\n      swap2\n      sub\n      swap1\n      revert\n    tag_283:\n        /* \"contracts/MultiTokenPaymentIntegrated.sol\":8610:8617  amounts */\n      dup4\n      dup4\n        /* \"contracts/MultiTokenPaymentIntegrated.sol\":8610:8624  amounts.length */\n      swap1\n      pop\n        /* \"contracts/MultiTokenPaymentIntegrated.sol\":8589:8599  recipients */\n      dup7\n      dup7\n        /* \"contracts/MultiTokenPaymentIntegrated.sol\":8589:8606  recipients.length */\n      swap1\n      pop\n        /* \"contracts/MultiTokenPaymentIntegrated.sol\":8589:8624  recipients.length == amounts.length */\n      eq\n        /* \"contracts/MultiTokenPaymentIntegrated.sol\":8581:8651  require(recipients.length == amounts.length, \"Arrays length mismatch\") */\n      tag_286\n      jumpi\n      mload(0x40)\n      0x08c379a000000000000000000000000000000000000000000000000000000000\n      dup2\n      mstore\n      0x04\n      add\n      tag_287\n      swap1\n      tag_219\n      jump\t// in\n    tag_287:\n      mload(0x40)\n      dup1\n      swap2\n      sub\n      swap1\n      revert\n    tag_286:\n        /* \"contracts/MultiTokenPaymentIntegrated.sol\":8690:8691  0 */\n      0x00\n        /* \"contracts/MultiTokenPaymentIntegrated.sol\":8670:8680  recipients */\n      dup7\n      dup7\n        /* \"contracts/MultiTokenPaymentIntegrated.sol\":8670:8687  recipients.length */\n      swap1\n      pop\n        /* \"contracts/MultiTokenPaymentIntegrated.sol\":8670:8691  recipients.length > 0 */\n      gt\n        /* \"contracts/MultiTokenPaymentIntegrated.sol\":8662:8718  require(recipients.length > 0, \"No recipients provided\") */\n      tag_288\n      jumpi\n      mload(0x40)\n      0x08c379a000000000000000000000000000000000000000000000000000000000\n      dup2\n      mstore\n      0x04\n      add\n      tag_289\n      swap1\n      tag_290\n      jump\t// in\n    tag_289:\n      mload(0x40)\n      dup1\n      swap2\n      sub\n      swap1\n      revert\n    tag_288:\n        /* \"contracts/MultiTokenPaymentIntegrated.sol\":8739:8758  uint256 totalAmount */\n      0x00\n        /* \"contracts/MultiTokenPaymentIntegrated.sol\":8761:8762  0 */\n      0x00\n        /* \"contracts/MultiTokenPaymentIntegrated.sol\":8739:8762  uint256 totalAmount = 0 */\n      swap1\n      pop\n        /* \"contracts/MultiTokenPaymentIntegrated.sol\":8778:8787  uint256 i */\n      0x00\n        /* \"contracts/MultiTokenPaymentIntegrated.sol\":8790:8791  0 */\n      0x00\n        /* \"contracts/MultiTokenPaymentIntegrated.sol\":8778:8791  uint256 i = 0 */\n      swap1\n      pop\n        /* \"contracts/MultiTokenPaymentIntegrated.sol\":8773:8941  for (uint256 i = 0; i < amounts.length; i++) {... */\n    tag_291:\n        /* \"contracts/MultiTokenPaymentIntegrated.sol\":8797:8804  amounts */\n      dup6\n      dup6\n        /* \"contracts/MultiTokenPaymentIntegrated.sol\":8797:8811  amounts.length */\n      swap1\n      pop\n        /* \"contracts/MultiTokenPaymentIntegrated.sol\":8793:8794  i */\n      dup2\n        /* \"contracts/MultiTokenPaymentIntegrated.sol\":8793:8811  i < amounts.length */\n      lt\n        /* \"contracts/MultiTokenPaymentIntegrated.sol\":8773:8941  for (uint256 i = 0; i < amounts.length; i++) {... */\n      iszero\n      tag_292\n      jumpi\n        /* \"contracts/MultiTokenPaymentIntegrated.sol\":8854:8855  0 */\n      0x00\n        /* \"contracts/MultiTokenPaymentIntegrated.sol\":8841:8848  amounts */\n      dup7\n      dup7\n        /* \"contracts/MultiTokenPaymentIntegrated.sol\":8849:8850  i */\n      dup4\n        /* \"contracts/MultiTokenPaymentIntegrated.sol\":8841:8851  amounts[i] */\n      dup2\n      dup2\n      lt\n      tag_294\n      jumpi\n      tag_295\n      tag_192\n      jump\t// in\n    tag_295:\n    tag_294:\n      swap1\n      pop\n      0x20\n      mul\n      add\n      calldataload\n        /* \"contracts/MultiTokenPaymentIntegrated.sol\":8841:8855  amounts[i] > 0 */\n      gt\n        /* \"contracts/MultiTokenPaymentIntegrated.sol\":8833:8889  require(amounts[i] > 0, \"Amount must be greater than 0\") */\n      tag_296\n      jumpi\n      mload(0x40)\n      0x08c379a000000000000000000000000000000000000000000000000000000000\n      dup2\n      mstore\n      0x04\n      add\n      tag_297\n      swap1\n      tag_242\n      jump\t// in\n    tag_297:\n      mload(0x40)\n      dup1\n      swap2\n      sub\n      swap1\n      revert\n    tag_296:\n        /* \"contracts/MultiTokenPaymentIntegrated.sol\":8919:8926  amounts */\n      dup6\n      dup6\n        /* \"contracts/MultiTokenPaymentIntegrated.sol\":8927:8928  i */\n      dup3\n        /* \"contracts/MultiTokenPaymentIntegrated.sol\":8919:8929  amounts[i] */\n      dup2\n      dup2\n      lt\n      tag_298\n      jumpi\n      tag_299\n      tag_192\n      jump\t// in\n    tag_299:\n    tag_298:\n      swap1\n      pop\n      0x20\n      mul\n      add\n      calldataload\n        /* \"contracts/MultiTokenPaymentIntegrated.sol\":8904:8929  totalAmount += amounts[i] */\n      dup3\n      tag_300\n      swap2\n      swap1\n      tag_301\n      jump\t// in\n    tag_300:\n      swap2\n      pop\n        /* \"contracts/MultiTokenPaymentIntegrated.sol\":8813:8816  i++ */\n      dup1\n      dup1\n      0x01\n      add\n      swap2\n      pop\n      pop\n        /* \"contracts/MultiTokenPaymentIntegrated.sol\":8773:8941  for (uint256 i = 0; i < amounts.length; i++) {... */\n      jump(tag_291)\n    tag_292:\n      pop\n        /* \"contracts/MultiTokenPaymentIntegrated.sol\":8961:8982  uint256 allowedAmount */\n      0x00\n        /* \"contracts/MultiTokenPaymentIntegrated.sol\":8985:9033  _safeAllowance(token, msg.sender, address(this)) */\n      tag_302\n        /* \"contracts/MultiTokenPaymentIntegrated.sol\":9000:9005  token */\n      dup10\n        /* \"contracts/MultiTokenPaymentIntegrated.sol\":9007:9017  msg.sender */\n      caller\n        /* \"contracts/MultiTokenPaymentIntegrated.sol\":9027:9031  this */\n      address\n        /* \"contracts/MultiTokenPaymentIntegrated.sol\":8985:8999  _safeAllowance */\n      tag_247\n        /* \"contracts/MultiTokenPaymentIntegrated.sol\":8985:9033  _safeAllowance(token, msg.sender, address(this)) */\n      jump\t// in\n    tag_302:\n        /* \"contracts/MultiTokenPaymentIntegrated.sol\":8961:9033  uint256 allowedAmount = _safeAllowance(token, msg.sender, address(this)) */\n      swap1\n      pop\n        /* \"contracts/MultiTokenPaymentIntegrated.sol\":9069:9080  totalAmount */\n      dup2\n        /* \"contracts/MultiTokenPaymentIntegrated.sol\":9052:9065  allowedAmount */\n      dup2\n        /* \"contracts/MultiTokenPaymentIntegrated.sol\":9052:9080  allowedAmount >= totalAmount */\n      lt\n      iszero\n        /* \"contracts/MultiTokenPaymentIntegrated.sol\":9044:9113  require(allowedAmount >= totalAmount, \"Insufficient total allowance\") */\n      tag_303\n      jumpi\n      mload(0x40)\n      0x08c379a000000000000000000000000000000000000000000000000000000000\n      dup2\n      mstore\n      0x04\n      add\n      tag_304\n      swap1\n      tag_305\n      jump\t// in\n    tag_304:\n      mload(0x40)\n      dup1\n      swap2\n      sub\n      swap1\n      revert\n    tag_303:\n        /* \"contracts/MultiTokenPaymentIntegrated.sol\":9134:9153  uint256 userBalance */\n      0x00\n        /* \"contracts/MultiTokenPaymentIntegrated.sol\":9156:9189  _safeBalanceOf(token, msg.sender) */\n      tag_306\n        /* \"contracts/MultiTokenPaymentIntegrated.sol\":9171:9176  token */\n      dup11\n        /* \"contracts/MultiTokenPaymentIntegrated.sol\":9178:9188  msg.sender */\n      caller\n        /* \"contracts/MultiTokenPaymentIntegrated.sol\":9156:9170  _safeBalanceOf */\n      tag_257\n        /* \"contracts/MultiTokenPaymentIntegrated.sol\":9156:9189  _safeBalanceOf(token, msg.sender) */\n      jump\t// in\n    tag_306:\n        /* \"contracts/MultiTokenPaymentIntegrated.sol\":9134:9189  uint256 userBalance = _safeBalanceOf(token, msg.sender) */\n      swap1\n      pop\n        /* \"contracts/MultiTokenPaymentIntegrated.sol\":9223:9234  totalAmount */\n      dup3\n        /* \"contracts/MultiTokenPaymentIntegrated.sol\":9208:9219  userBalance */\n      dup2\n        /* \"contracts/MultiTokenPaymentIntegrated.sol\":9208:9234  userBalance >= totalAmount */\n      lt\n      iszero\n        /* \"contracts/MultiTokenPaymentIntegrated.sol\":9200:9265  require(userBalance >= totalAmount, \"Insufficient total balance\") */\n      tag_307\n      jumpi\n      mload(0x40)\n      0x08c379a000000000000000000000000000000000000000000000000000000000\n      dup2\n      mstore\n      0x04\n      add\n      tag_308\n      swap1\n      tag_309\n      jump\t// in\n    tag_308:\n      mload(0x40)\n      dup1\n      swap2\n      sub\n      swap1\n      revert\n    tag_307:\n        /* \"contracts/MultiTokenPaymentIntegrated.sol\":9291:9300  uint256 i */\n      0x00\n        /* \"contracts/MultiTokenPaymentIntegrated.sol\":9303:9304  0 */\n      0x00\n        /* \"contracts/MultiTokenPaymentIntegrated.sol\":9291:9304  uint256 i = 0 */\n      swap1\n      pop\n        /* \"contracts/MultiTokenPaymentIntegrated.sol\":9286:9575  for (uint256 i = 0; i < recipients.length; i++) {... */\n    tag_310:\n        /* \"contracts/MultiTokenPaymentIntegrated.sol\":9310:9320  recipients */\n      dup10\n      dup10\n        /* \"contracts/MultiTokenPaymentIntegrated.sol\":9310:9327  recipients.length */\n      swap1\n      pop\n        /* \"contracts/MultiTokenPaymentIntegrated.sol\":9306:9307  i */\n      dup2\n        /* \"contracts/MultiTokenPaymentIntegrated.sol\":9306:9327  i < recipients.length */\n      lt\n        /* \"contracts/MultiTokenPaymentIntegrated.sol\":9286:9575  for (uint256 i = 0; i < recipients.length; i++) {... */\n      iszero\n      tag_311\n      jumpi\n        /* \"contracts/MultiTokenPaymentIntegrated.sol\":9382:9383  0 */\n      0x00\n        /* \"contracts/MultiTokenPaymentIntegrated.sol\":9357:9384  recipients[i] != address(0) */\n      0xffffffffffffffffffffffffffffffffffffffff\n      and\n        /* \"contracts/MultiTokenPaymentIntegrated.sol\":9357:9367  recipients */\n      dup11\n      dup11\n        /* \"contracts/MultiTokenPaymentIntegrated.sol\":9368:9369  i */\n      dup4\n        /* \"contracts/MultiTokenPaymentIntegrated.sol\":9357:9370  recipients[i] */\n      dup2\n      dup2\n      lt\n      tag_313\n      jumpi\n      tag_314\n      tag_192\n      jump\t// in\n    tag_314:\n    tag_313:\n      swap1\n      pop\n      0x20\n      mul\n      add\n      0x20\n      dup2\n      add\n      swap1\n      tag_315\n      swap2\n      swap1\n      tag_34\n      jump\t// in\n    tag_315:\n        /* \"contracts/MultiTokenPaymentIntegrated.sol\":9357:9384  recipients[i] != address(0) */\n      0xffffffffffffffffffffffffffffffffffffffff\n      and\n      sub\n        /* \"contracts/MultiTokenPaymentIntegrated.sol\":9349:9414  require(recipients[i] != address(0), \"Invalid recipient address\") */\n      tag_316\n      jumpi\n      mload(0x40)\n      0x08c379a000000000000000000000000000000000000000000000000000000000\n      dup2\n      mstore\n      0x04\n      add\n      tag_317\n      swap1\n      tag_237\n      jump\t// in\n    tag_317:\n      mload(0x40)\n      dup1\n      swap2\n      sub\n      swap1\n      revert\n    tag_316:\n        /* \"contracts/MultiTokenPaymentIntegrated.sol\":9429:9441  bool success */\n      0x00\n        /* \"contracts/MultiTokenPaymentIntegrated.sol\":9444:9507  _safeTransferFrom(token, msg.sender, recipients[i], amounts[i]) */\n      tag_318\n        /* \"contracts/MultiTokenPaymentIntegrated.sol\":9462:9467  token */\n      dup13\n        /* \"contracts/MultiTokenPaymentIntegrated.sol\":9469:9479  msg.sender */\n      caller\n        /* \"contracts/MultiTokenPaymentIntegrated.sol\":9481:9491  recipients */\n      dup14\n      dup14\n        /* \"contracts/MultiTokenPaymentIntegrated.sol\":9492:9493  i */\n      dup7\n        /* \"contracts/MultiTokenPaymentIntegrated.sol\":9481:9494  recipients[i] */\n      dup2\n      dup2\n      lt\n      tag_319\n      jumpi\n      tag_320\n      tag_192\n      jump\t// in\n    tag_320:\n    tag_319:\n      swap1\n      pop\n      0x20\n      mul\n      add\n      0x20\n      dup2\n      add\n      swap1\n      tag_321\n      swap2\n      swap1\n      tag_34\n      jump\t// in\n    tag_321:\n        /* \"contracts/MultiTokenPaymentIntegrated.sol\":9496:9503  amounts */\n      dup13\n      dup13\n        /* \"contracts/MultiTokenPaymentIntegrated.sol\":9504:9505  i */\n      dup8\n        /* \"contracts/MultiTokenPaymentIntegrated.sol\":9496:9506  amounts[i] */\n      dup2\n      dup2\n      lt\n      tag_322\n      jumpi\n      tag_323\n      tag_192\n      jump\t// in\n    tag_323:\n    tag_322:\n      swap1\n      pop\n      0x20\n      mul\n      add\n      calldataload\n        /* \"contracts/MultiTokenPaymentIntegrated.sol\":9444:9461  _safeTransferFrom */\n      tag_272\n        /* \"contracts/MultiTokenPaymentIntegrated.sol\":9444:9507  _safeTransferFrom(token, msg.sender, recipients[i], amounts[i]) */\n      jump\t// in\n    tag_318:\n        /* \"contracts/MultiTokenPaymentIntegrated.sol\":9429:9507  bool success = _safeTransferFrom(token, msg.sender, recipients[i], amounts[i]) */\n      swap1\n      pop\n        /* \"contracts/MultiTokenPaymentIntegrated.sol\":9530:9537  success */\n      dup1\n        /* \"contracts/MultiTokenPaymentIntegrated.sol\":9522:9563  require(success, \"Batch transfer failed\") */\n      tag_324\n      jumpi\n      mload(0x40)\n      0x08c379a000000000000000000000000000000000000000000000000000000000\n      dup2\n      mstore\n      0x04\n      add\n      tag_325\n      swap1\n      tag_326\n      jump\t// in\n    tag_325:\n      mload(0x40)\n      dup1\n      swap2\n      sub\n      swap1\n      revert\n    tag_324:\n        /* \"contracts/MultiTokenPaymentIntegrated.sol\":9334:9575  {... */\n      pop\n        /* \"contracts/MultiTokenPaymentIntegrated.sol\":9329:9332  i++ */\n      dup1\n      dup1\n      0x01\n      add\n      swap2\n      pop\n      pop\n        /* \"contracts/MultiTokenPaymentIntegrated.sol\":9286:9575  for (uint256 i = 0; i < recipients.length; i++) {... */\n      jump(tag_310)\n    tag_311:\n      pop\n        /* \"contracts/MultiTokenPaymentIntegrated.sol\":9602:9606  true */\n      0x01\n        /* \"contracts/MultiTokenPaymentIntegrated.sol\":9595:9606  return true */\n      swap5\n      pop\n      pop\n      pop\n      pop\n        /* \"@openzeppelin/contracts/security/ReentrancyGuard.sol\":2292:2293  _ */\n      pop\n        /* \"@openzeppelin/contracts/security/ReentrancyGuard.sol\":2303:2323  _nonReentrantAfter() */\n      tag_327\n        /* \"@openzeppelin/contracts/security/ReentrancyGuard.sol\":2303:2321  _nonReentrantAfter */\n      tag_279\n        /* \"@openzeppelin/contracts/security/ReentrancyGuard.sol\":2303:2323  _nonReentrantAfter() */\n      jump\t// in\n    tag_327:\n        /* \"contracts/MultiTokenPaymentIntegrated.sol\":8414:9614  function batchPayments(address token, address[] calldata recipients, uint256[] calldata amounts) external nonReentrant tokenSupported(token) returns (bool) {... */\n      swap6\n      swap5\n      pop\n      pop\n      pop\n      pop\n      pop\n      jump\t// out\n        /* \"@openzeppelin/contracts/access/Ownable.sol\":1824:1925  function renounceOwnership() public virtual onlyOwner {... */\n    tag_62:\n        /* \"@openzeppelin/contracts/access/Ownable.sol\":1094:1107  _checkOwner() */\n      tag_329\n        /* \"@openzeppelin/contracts/access/Ownable.sol\":1094:1105  _checkOwner */\n      tag_124\n        /* \"@openzeppelin/contracts/access/Ownable.sol\":1094:1107  _checkOwner() */\n      jump\t// in\n    tag_329:\n        /* \"@openzeppelin/contracts/access/Ownable.sol\":1888:1918  _transferOwnership(address(0)) */\n      tag_331\n        /* \"@openzeppelin/contracts/access/Ownable.sol\":1915:1916  0 */\n      0x00\n        /* \"@openzeppelin/contracts/access/Ownable.sol\":1888:1906  _transferOwnership */\n      tag_332\n        /* \"@openzeppelin/contracts/access/Ownable.sol\":1888:1918  _transferOwnership(address(0)) */\n      jump\t// in\n    tag_331:\n        /* \"@openzeppelin/contracts/access/Ownable.sol\":1824:1925  function renounceOwnership() public virtual onlyOwner {... */\n      jump\t// out\n        /* \"contracts/MultiTokenPaymentIntegrated.sol\":989:1037  mapping(address => bool) public isTokenSupported */\n    tag_65:\n      mstore(0x20, 0x03)\n      dup1\n      0x00\n      mstore\n      keccak256(0x00, 0x40)\n      0x00\n      swap2\n      pop\n      sload\n      swap1\n      0x0100\n      exp\n      swap1\n      div\n      0xff\n      and\n      dup2\n      jump\t// out\n        /* \"contracts/MultiTokenPaymentIntegrated.sol\":5410:6016  function removeSupportedToken(address token) public onlyOwner {... */\n    tag_69:\n        /* \"@openzeppelin/contracts/access/Ownable.sol\":1094:1107  _checkOwner() */\n      tag_334\n        /* \"@openzeppelin/contracts/access/Ownable.sol\":1094:1105  _checkOwner */\n      tag_124\n        /* \"@openzeppelin/contracts/access/Ownable.sol\":1094:1107  _checkOwner() */\n      jump\t// in\n    tag_334:\n        /* \"contracts/MultiTokenPaymentIntegrated.sol\":5491:5507  isTokenSupported */\n      0x03\n        /* \"contracts/MultiTokenPaymentIntegrated.sol\":5491:5514  isTokenSupported[token] */\n      0x00\n        /* \"contracts/MultiTokenPaymentIntegrated.sol\":5508:5513  token */\n      dup3\n        /* \"contracts/MultiTokenPaymentIntegrated.sol\":5491:5514  isTokenSupported[token] */\n      0xffffffffffffffffffffffffffffffffffffffff\n      and\n      0xffffffffffffffffffffffffffffffffffffffff\n      and\n      dup2\n      mstore\n      0x20\n      add\n      swap1\n      dup2\n      mstore\n      0x20\n      add\n      0x00\n      keccak256\n      0x00\n      swap1\n      sload\n      swap1\n      0x0100\n      exp\n      swap1\n      div\n      0xff\n      and\n        /* \"contracts/MultiTokenPaymentIntegrated.sol\":5483:5538  require(isTokenSupported[token], \"Token not supported\") */\n      tag_336\n      jumpi\n      mload(0x40)\n      0x08c379a000000000000000000000000000000000000000000000000000000000\n      dup2\n      mstore\n      0x04\n      add\n      tag_337\n      swap1\n      tag_231\n      jump\t// in\n    tag_337:\n      mload(0x40)\n      dup1\n      swap2\n      sub\n      swap1\n      revert\n    tag_336:\n        /* \"contracts/MultiTokenPaymentIntegrated.sol\":5585:5590  false */\n      0x00\n        /* \"contracts/MultiTokenPaymentIntegrated.sol\":5559:5575  isTokenSupported */\n      0x03\n        /* \"contracts/MultiTokenPaymentIntegrated.sol\":5559:5582  isTokenSupported[token] */\n      0x00\n        /* \"contracts/MultiTokenPaymentIntegrated.sol\":5576:5581  token */\n      dup4\n        /* \"contracts/MultiTokenPaymentIntegrated.sol\":5559:5582  isTokenSupported[token] */\n      0xffffffffffffffffffffffffffffffffffffffff\n      and\n      0xffffffffffffffffffffffffffffffffffffffff\n      and\n      dup2\n      mstore\n      0x20\n      add\n      swap1\n      dup2\n      mstore\n      0x20\n      add\n      0x00\n      keccak256\n      0x00\n        /* \"contracts/MultiTokenPaymentIntegrated.sol\":5559:5590  isTokenSupported[token] = false */\n      0x0100\n      exp\n      dup2\n      sload\n      dup2\n      0xff\n      mul\n      not\n      and\n      swap1\n      dup4\n      iszero\n      iszero\n      mul\n      or\n      swap1\n      sstore\n      pop\n        /* \"contracts/MultiTokenPaymentIntegrated.sol\":5608:5617  tokenInfo */\n      0x06\n        /* \"contracts/MultiTokenPaymentIntegrated.sol\":5608:5624  tokenInfo[token] */\n      0x00\n        /* \"contracts/MultiTokenPaymentIntegrated.sol\":5618:5623  token */\n      dup3\n        /* \"contracts/MultiTokenPaymentIntegrated.sol\":5608:5624  tokenInfo[token] */\n      0xffffffffffffffffffffffffffffffffffffffff\n      and\n      0xffffffffffffffffffffffffffffffffffffffff\n      and\n      dup2\n      mstore\n      0x20\n      add\n      swap1\n      dup2\n      mstore\n      0x20\n      add\n      0x00\n      keccak256\n      0x00\n        /* \"contracts/MultiTokenPaymentIntegrated.sol\":5601:5624  delete tokenInfo[token] */\n      0x00\n      dup3\n      add\n      0x00\n      tag_338\n      swap2\n      swap1\n      tag_339\n      jump\t// in\n    tag_338:\n      0x01\n      dup3\n      add\n      0x00\n      tag_340\n      swap2\n      swap1\n      tag_339\n      jump\t// in\n    tag_340:\n      0x02\n      dup3\n      add\n      exp(0x0100, 0x00)\n      dup2\n      sload\n      swap1\n      0xff\n      mul\n      not\n      and\n      swap1\n      sstore\n      0x02\n      dup3\n      add\n      exp(0x0100, 0x01)\n      dup2\n      sload\n      swap1\n      0xff\n      mul\n      not\n      and\n      swap1\n      sstore\n      0x02\n      dup3\n      add\n      exp(0x0100, 0x02)\n      dup2\n      sload\n      swap1\n      0xff\n      mul\n      not\n      and\n      swap1\n      sstore\n      pop\n      pop\n        /* \"contracts/MultiTokenPaymentIntegrated.sol\":5663:5668  false */\n      0x00\n        /* \"contracts/MultiTokenPaymentIntegrated.sol\":5635:5653  isNonStandardToken */\n      0x04\n        /* \"contracts/MultiTokenPaymentIntegrated.sol\":5635:5660  isNonStandardToken[token] */\n      0x00\n        /* \"contracts/MultiTokenPaymentIntegrated.sol\":5654:5659  token */\n      dup4\n        /* \"contracts/MultiTokenPaymentIntegrated.sol\":5635:5660  isNonStandardToken[token] */\n      0xffffffffffffffffffffffffffffffffffffffff\n      and\n      0xffffffffffffffffffffffffffffffffffffffff\n      and\n      dup2\n      mstore\n      0x20\n      add\n      swap1\n      dup2\n      mstore\n      0x20\n      add\n      0x00\n      keccak256\n      0x00\n        /* \"contracts/MultiTokenPaymentIntegrated.sol\":5635:5668  isNonStandardToken[token] = false */\n      0x0100\n      exp\n      dup2\n      sload\n      dup2\n      0xff\n      mul\n      not\n      and\n      swap1\n      dup4\n      iszero\n      iszero\n      mul\n      or\n      swap1\n      sstore\n      pop\n        /* \"contracts/MultiTokenPaymentIntegrated.sol\":5694:5703  uint256 i */\n      0x00\n        /* \"contracts/MultiTokenPaymentIntegrated.sol\":5706:5707  0 */\n      0x00\n        /* \"contracts/MultiTokenPaymentIntegrated.sol\":5694:5707  uint256 i = 0 */\n      swap1\n      pop\n        /* \"contracts/MultiTokenPaymentIntegrated.sol\":5689:5964  for (uint256 i = 0; i < supportedTokens.length; i++) {... */\n    tag_341:\n        /* \"contracts/MultiTokenPaymentIntegrated.sol\":5713:5728  supportedTokens */\n      0x02\n        /* \"contracts/MultiTokenPaymentIntegrated.sol\":5713:5735  supportedTokens.length */\n      dup1\n      sload\n      swap1\n      pop\n        /* \"contracts/MultiTokenPaymentIntegrated.sol\":5709:5710  i */\n      dup2\n        /* \"contracts/MultiTokenPaymentIntegrated.sol\":5709:5735  i < supportedTokens.length */\n      lt\n        /* \"contracts/MultiTokenPaymentIntegrated.sol\":5689:5964  for (uint256 i = 0; i < supportedTokens.length; i++) {... */\n      iszero\n      tag_342\n      jumpi\n        /* \"contracts/MultiTokenPaymentIntegrated.sol\":5783:5788  token */\n      dup2\n        /* \"contracts/MultiTokenPaymentIntegrated.sol\":5761:5788  supportedTokens[i] == token */\n      0xffffffffffffffffffffffffffffffffffffffff\n      and\n        /* \"contracts/MultiTokenPaymentIntegrated.sol\":5761:5776  supportedTokens */\n      0x02\n        /* \"contracts/MultiTokenPaymentIntegrated.sol\":5777:5778  i */\n      dup3\n        /* \"contracts/MultiTokenPaymentIntegrated.sol\":5761:5779  supportedTokens[i] */\n      dup2\n      sload\n      dup2\n      lt\n      tag_344\n      jumpi\n      tag_345\n      tag_192\n      jump\t// in\n    tag_345:\n    tag_344:\n      swap1\n      0x00\n      mstore\n      keccak256(0x00, 0x20)\n      add\n      0x00\n      swap1\n      sload\n      swap1\n      0x0100\n      exp\n      swap1\n      div\n      0xffffffffffffffffffffffffffffffffffffffff\n      and\n        /* \"contracts/MultiTokenPaymentIntegrated.sol\":5761:5788  supportedTokens[i] == token */\n      0xffffffffffffffffffffffffffffffffffffffff\n      and\n      sub\n        /* \"contracts/MultiTokenPaymentIntegrated.sol\":5757:5953  if (supportedTokens[i] == token) {... */\n      tag_347\n      jumpi\n        /* \"contracts/MultiTokenPaymentIntegrated.sol\":5830:5845  supportedTokens */\n      0x02\n        /* \"contracts/MultiTokenPaymentIntegrated.sol\":5871:5872  1 */\n      0x01\n        /* \"contracts/MultiTokenPaymentIntegrated.sol\":5846:5861  supportedTokens */\n      0x02\n        /* \"contracts/MultiTokenPaymentIntegrated.sol\":5846:5868  supportedTokens.length */\n      dup1\n      sload\n      swap1\n      pop\n        /* \"contracts/MultiTokenPaymentIntegrated.sol\":5846:5872  supportedTokens.length - 1 */\n      tag_348\n      swap2\n      swap1\n      tag_349\n      jump\t// in\n    tag_348:\n        /* \"contracts/MultiTokenPaymentIntegrated.sol\":5830:5873  supportedTokens[supportedTokens.length - 1] */\n      dup2\n      sload\n      dup2\n      lt\n      tag_350\n      jumpi\n      tag_351\n      tag_192\n      jump\t// in\n    tag_351:\n    tag_350:\n      swap1\n      0x00\n      mstore\n      keccak256(0x00, 0x20)\n      add\n      0x00\n      swap1\n      sload\n      swap1\n      0x0100\n      exp\n      swap1\n      div\n      0xffffffffffffffffffffffffffffffffffffffff\n      and\n        /* \"contracts/MultiTokenPaymentIntegrated.sol\":5809:5824  supportedTokens */\n      0x02\n        /* \"contracts/MultiTokenPaymentIntegrated.sol\":5825:5826  i */\n      dup3\n        /* \"contracts/MultiTokenPaymentIntegrated.sol\":5809:5827  supportedTokens[i] */\n      dup2\n      sload\n      dup2\n      lt\n      tag_353\n      jumpi\n      tag_354\n      tag_192\n      jump\t// in\n    tag_354:\n    tag_353:\n      swap1\n      0x00\n      mstore\n      keccak256(0x00, 0x20)\n      add\n      0x00\n        /* \"contracts/MultiTokenPaymentIntegrated.sol\":5809:5873  supportedTokens[i] = supportedTokens[supportedTokens.length - 1] */\n      0x0100\n      exp\n      dup2\n      sload\n      dup2\n      0xffffffffffffffffffffffffffffffffffffffff\n      mul\n      not\n      and\n      swap1\n      dup4\n      0xffffffffffffffffffffffffffffffffffffffff\n      and\n      mul\n      or\n      swap1\n      sstore\n      pop\n        /* \"contracts/MultiTokenPaymentIntegrated.sol\":5892:5907  supportedTokens */\n      0x02\n        /* \"contracts/MultiTokenPaymentIntegrated.sol\":5892:5913  supportedTokens.pop() */\n      dup1\n      sload\n      dup1\n      tag_356\n      jumpi\n      tag_357\n      tag_358\n      jump\t// in\n    tag_357:\n    tag_356:\n      0x01\n      swap1\n      sub\n      dup2\n      dup2\n      swap1\n      0x00\n      mstore\n      keccak256(0x00, 0x20)\n      add\n      exp(0x0100, 0x00)\n      dup2\n      sload\n      swap1\n      0xffffffffffffffffffffffffffffffffffffffff\n      mul\n      not\n      and\n      swap1\n      sstore\n      swap1\n      sstore\n        /* \"contracts/MultiTokenPaymentIntegrated.sol\":5932:5937  break */\n      jump(tag_342)\n        /* \"contracts/MultiTokenPaymentIntegrated.sol\":5757:5953  if (supportedTokens[i] == token) {... */\n    tag_347:\n        /* \"contracts/MultiTokenPaymentIntegrated.sol\":5737:5740  i++ */\n      dup1\n      dup1\n      0x01\n      add\n      swap2\n      pop\n      pop\n        /* \"contracts/MultiTokenPaymentIntegrated.sol\":5689:5964  for (uint256 i = 0; i < supportedTokens.length; i++) {... */\n      jump(tag_341)\n    tag_342:\n      pop\n        /* \"contracts/MultiTokenPaymentIntegrated.sol\":6002:6007  token */\n      dup1\n        /* \"contracts/MultiTokenPaymentIntegrated.sol\":5989:6008  TokenRemoved(token) */\n      0xffffffffffffffffffffffffffffffffffffffff\n      and\n      0x4c910b69fe65a61f7531b9c5042b2329ca7179c77290aa7e2eb3afa3c8511fd3\n      mload(0x40)\n      mload(0x40)\n      dup1\n      swap2\n      sub\n      swap1\n      log2\n        /* \"contracts/MultiTokenPaymentIntegrated.sol\":5410:6016  function removeSupportedToken(address token) public onlyOwner {... */\n      pop\n      jump\t// out\n        /* \"contracts/MultiTokenPaymentIntegrated.sol\":10289:10445  function checkBalance(address token, address user) public view tokenSupported(token) returns (uint256) {... */\n    tag_73:\n        /* \"contracts/MultiTokenPaymentIntegrated.sol\":10383:10390  uint256 */\n      0x00\n        /* \"contracts/MultiTokenPaymentIntegrated.sol\":10367:10372  token */\n      dup3\n        /* \"contracts/MultiTokenPaymentIntegrated.sol\":1986:2002  isTokenSupported */\n      0x03\n        /* \"contracts/MultiTokenPaymentIntegrated.sol\":1986:2009  isTokenSupported[token] */\n      0x00\n        /* \"contracts/MultiTokenPaymentIntegrated.sol\":2003:2008  token */\n      dup3\n        /* \"contracts/MultiTokenPaymentIntegrated.sol\":1986:2009  isTokenSupported[token] */\n      0xffffffffffffffffffffffffffffffffffffffff\n      and\n      0xffffffffffffffffffffffffffffffffffffffff\n      and\n      dup2\n      mstore\n      0x20\n      add\n      swap1\n      dup2\n      mstore\n      0x20\n      add\n      0x00\n      keccak256\n      0x00\n      swap1\n      sload\n      swap1\n      0x0100\n      exp\n      swap1\n      div\n      0xff\n      and\n        /* \"contracts/MultiTokenPaymentIntegrated.sol\":1978:2033  require(isTokenSupported[token], \"Token not supported\") */\n      tag_361\n      jumpi\n      mload(0x40)\n      0x08c379a000000000000000000000000000000000000000000000000000000000\n      dup2\n      mstore\n      0x04\n      add\n      tag_362\n      swap1\n      tag_231\n      jump\t// in\n    tag_362:\n      mload(0x40)\n      dup1\n      swap2\n      sub\n      swap1\n      revert\n    tag_361:\n        /* \"contracts/MultiTokenPaymentIntegrated.sol\":10410:10437  _safeBalanceOf(token, user) */\n      tag_364\n        /* \"contracts/MultiTokenPaymentIntegrated.sol\":10425:10430  token */\n      dup5\n        /* \"contracts/MultiTokenPaymentIntegrated.sol\":10432:10436  user */\n      dup5\n        /* \"contracts/MultiTokenPaymentIntegrated.sol\":10410:10424  _safeBalanceOf */\n      tag_257\n        /* \"contracts/MultiTokenPaymentIntegrated.sol\":10410:10437  _safeBalanceOf(token, user) */\n      jump\t// in\n    tag_364:\n        /* \"contracts/MultiTokenPaymentIntegrated.sol\":10403:10437  return _safeBalanceOf(token, user) */\n      swap2\n      pop\n        /* \"contracts/MultiTokenPaymentIntegrated.sol\":10289:10445  function checkBalance(address token, address user) public view tokenSupported(token) returns (uint256) {... */\n      pop\n      swap3\n      swap2\n      pop\n      pop\n      jump\t// out\n        /* \"contracts/MultiTokenPaymentIntegrated.sol\":7713:8406  function makePayment(address token, address to, uint256 amount) external nonReentrant tokenSupported(token) returns (bool) {... */\n    tag_79:\n        /* \"contracts/MultiTokenPaymentIntegrated.sol\":7830:7834  bool */\n      0x00\n        /* \"@openzeppelin/contracts/security/ReentrancyGuard.sol\":2261:2282  _nonReentrantBefore() */\n      tag_366\n        /* \"@openzeppelin/contracts/security/ReentrancyGuard.sol\":2261:2280  _nonReentrantBefore */\n      tag_214\n        /* \"@openzeppelin/contracts/security/ReentrancyGuard.sol\":2261:2282  _nonReentrantBefore() */\n      jump\t// in\n    tag_366:\n        /* \"contracts/MultiTokenPaymentIntegrated.sol\":7814:7819  token */\n      dup4\n        /* \"contracts/MultiTokenPaymentIntegrated.sol\":1986:2002  isTokenSupported */\n      0x03\n        /* \"contracts/MultiTokenPaymentIntegrated.sol\":1986:2009  isTokenSupported[token] */\n      0x00\n        /* \"contracts/MultiTokenPaymentIntegrated.sol\":2003:2008  token */\n      dup3\n        /* \"contracts/MultiTokenPaymentIntegrated.sol\":1986:2009  isTokenSupported[token] */\n      0xffffffffffffffffffffffffffffffffffffffff\n      and\n      0xffffffffffffffffffffffffffffffffffffffff\n      and\n      dup2\n      mstore\n      0x20\n      add\n      swap1\n      dup2\n      mstore\n      0x20\n      add\n      0x00\n      keccak256\n      0x00\n      swap1\n      sload\n      swap1\n      0x0100\n      exp\n      swap1\n      div\n      0xff\n      and\n        /* \"contracts/MultiTokenPaymentIntegrated.sol\":1978:2033  require(isTokenSupported[token], \"Token not supported\") */\n      tag_368\n      jumpi\n      mload(0x40)\n      0x08c379a000000000000000000000000000000000000000000000000000000000\n      dup2\n      mstore\n      0x04\n      add\n      tag_369\n      swap1\n      tag_231\n      jump\t// in\n    tag_369:\n      mload(0x40)\n      dup1\n      swap2\n      sub\n      swap1\n      revert\n    tag_368:\n        /* \"contracts/MultiTokenPaymentIntegrated.sol\":7847:7868  uint256 allowedAmount */\n      0x00\n        /* \"contracts/MultiTokenPaymentIntegrated.sol\":7871:7919  _safeAllowance(token, msg.sender, address(this)) */\n      tag_371\n        /* \"contracts/MultiTokenPaymentIntegrated.sol\":7886:7891  token */\n      dup7\n        /* \"contracts/MultiTokenPaymentIntegrated.sol\":7893:7903  msg.sender */\n      caller\n        /* \"contracts/MultiTokenPaymentIntegrated.sol\":7913:7917  this */\n      address\n        /* \"contracts/MultiTokenPaymentIntegrated.sol\":7871:7885  _safeAllowance */\n      tag_247\n        /* \"contracts/MultiTokenPaymentIntegrated.sol\":7871:7919  _safeAllowance(token, msg.sender, address(this)) */\n      jump\t// in\n    tag_371:\n        /* \"contracts/MultiTokenPaymentIntegrated.sol\":7847:7919  uint256 allowedAmount = _safeAllowance(token, msg.sender, address(this)) */\n      swap1\n      pop\n        /* \"contracts/MultiTokenPaymentIntegrated.sol\":7955:7961  amount */\n      dup4\n        /* \"contracts/MultiTokenPaymentIntegrated.sol\":7938:7951  allowedAmount */\n      dup2\n        /* \"contracts/MultiTokenPaymentIntegrated.sol\":7938:7961  allowedAmount >= amount */\n      lt\n      iszero\n        /* \"contracts/MultiTokenPaymentIntegrated.sol\":7930:7988  require(allowedAmount >= amount, \"Insufficient allowance\") */\n      tag_372\n      jumpi\n      mload(0x40)\n      0x08c379a000000000000000000000000000000000000000000000000000000000\n      dup2\n      mstore\n      0x04\n      add\n      tag_373\n      swap1\n      tag_374\n      jump\t// in\n    tag_373:\n      mload(0x40)\n      dup1\n      swap2\n      sub\n      swap1\n      revert\n    tag_372:\n        /* \"contracts/MultiTokenPaymentIntegrated.sol\":8009:8028  uint256 userBalance */\n      0x00\n        /* \"contracts/MultiTokenPaymentIntegrated.sol\":8031:8064  _safeBalanceOf(token, msg.sender) */\n      tag_375\n        /* \"contracts/MultiTokenPaymentIntegrated.sol\":8046:8051  token */\n      dup8\n        /* \"contracts/MultiTokenPaymentIntegrated.sol\":8053:8063  msg.sender */\n      caller\n        /* \"contracts/MultiTokenPaymentIntegrated.sol\":8031:8045  _safeBalanceOf */\n      tag_257\n        /* \"contracts/MultiTokenPaymentIntegrated.sol\":8031:8064  _safeBalanceOf(token, msg.sender) */\n      jump\t// in\n    tag_375:\n        /* \"contracts/MultiTokenPaymentIntegrated.sol\":8009:8064  uint256 userBalance = _safeBalanceOf(token, msg.sender) */\n      swap1\n      pop\n        /* \"contracts/MultiTokenPaymentIntegrated.sol\":8098:8104  amount */\n      dup5\n        /* \"contracts/MultiTokenPaymentIntegrated.sol\":8083:8094  userBalance */\n      dup2\n        /* \"contracts/MultiTokenPaymentIntegrated.sol\":8083:8104  userBalance >= amount */\n      lt\n      iszero\n        /* \"contracts/MultiTokenPaymentIntegrated.sol\":8075:8129  require(userBalance >= amount, \"Insufficient balance\") */\n      tag_376\n      jumpi\n      mload(0x40)\n      0x08c379a000000000000000000000000000000000000000000000000000000000\n      dup2\n      mstore\n      0x04\n      add\n      tag_377\n      swap1\n      tag_378\n      jump\t// in\n    tag_377:\n      mload(0x40)\n      dup1\n      swap2\n      sub\n      swap1\n      revert\n    tag_376:\n        /* \"contracts/MultiTokenPaymentIntegrated.sol\":8150:8162  bool success */\n      0x00\n        /* \"contracts/MultiTokenPaymentIntegrated.sol\":8165:8213  _safeTransferFrom(token, msg.sender, to, amount) */\n      tag_379\n        /* \"contracts/MultiTokenPaymentIntegrated.sol\":8183:8188  token */\n      dup9\n        /* \"contracts/MultiTokenPaymentIntegrated.sol\":8190:8200  msg.sender */\n      caller\n        /* \"contracts/MultiTokenPaymentIntegrated.sol\":8202:8204  to */\n      dup10\n        /* \"contracts/MultiTokenPaymentIntegrated.sol\":8206:8212  amount */\n      dup10\n        /* \"contracts/MultiTokenPaymentIntegrated.sol\":8165:8182  _safeTransferFrom */\n      tag_272\n        /* \"contracts/MultiTokenPaymentIntegrated.sol\":8165:8213  _safeTransferFrom(token, msg.sender, to, amount) */\n      jump\t// in\n    tag_379:\n        /* \"contracts/MultiTokenPaymentIntegrated.sol\":8150:8213  bool success = _safeTransferFrom(token, msg.sender, to, amount) */\n      swap1\n      pop\n        /* \"contracts/MultiTokenPaymentIntegrated.sol\":8232:8239  success */\n      dup1\n        /* \"contracts/MultiTokenPaymentIntegrated.sol\":8224:8259  require(success, \"Transfer failed\") */\n      tag_380\n      jumpi\n      mload(0x40)\n      0x08c379a000000000000000000000000000000000000000000000000000000000\n      dup2\n      mstore\n      0x04\n      add\n      tag_381\n      swap1\n      tag_382\n      jump\t// in\n    tag_381:\n      mload(0x40)\n      dup1\n      swap2\n      sub\n      swap1\n      revert\n    tag_380:\n        /* \"contracts/MultiTokenPaymentIntegrated.sol\":8318:8323  token */\n      dup8\n        /* \"contracts/MultiTokenPaymentIntegrated.sol\":8285:8376  PaymentProcessed(msg.sender, to, token, amount, block.timestamp, isNonStandardToken[token]) */\n      0xffffffffffffffffffffffffffffffffffffffff\n      and\n        /* \"contracts/MultiTokenPaymentIntegrated.sol\":8314:8316  to */\n      dup8\n        /* \"contracts/MultiTokenPaymentIntegrated.sol\":8285:8376  PaymentProcessed(msg.sender, to, token, amount, block.timestamp, isNonStandardToken[token]) */\n      0xffffffffffffffffffffffffffffffffffffffff\n      and\n        /* \"contracts/MultiTokenPaymentIntegrated.sol\":8302:8312  msg.sender */\n      caller\n        /* \"contracts/MultiTokenPaymentIntegrated.sol\":8285:8376  PaymentProcessed(msg.sender, to, token, amount, block.timestamp, isNonStandardToken[token]) */\n      0xffffffffffffffffffffffffffffffffffffffff\n      and\n      0xe026fbb73500b279bf99c5005c5b3b41f4f084176a557bf5accb3c643cd2a8a0\n        /* \"contracts/MultiTokenPaymentIntegrated.sol\":8325:8331  amount */\n      dup10\n        /* \"contracts/MultiTokenPaymentIntegrated.sol\":8333:8348  block.timestamp */\n      timestamp\n        /* \"contracts/MultiTokenPaymentIntegrated.sol\":8350:8368  isNonStandardToken */\n      0x04\n        /* \"contracts/MultiTokenPaymentIntegrated.sol\":8350:8375  isNonStandardToken[token] */\n      0x00\n        /* \"contracts/MultiTokenPaymentIntegrated.sol\":8369:8374  token */\n      dup16\n        /* \"contracts/MultiTokenPaymentIntegrated.sol\":8350:8375  isNonStandardToken[token] */\n      0xffffffffffffffffffffffffffffffffffffffff\n      and\n      0xffffffffffffffffffffffffffffffffffffffff\n      and\n      dup2\n      mstore\n      0x20\n      add\n      swap1\n      dup2\n      mstore\n      0x20\n      add\n      0x00\n      keccak256\n      0x00\n      swap1\n      sload\n      swap1\n      0x0100\n      exp\n      swap1\n      div\n      0xff\n      and\n        /* \"contracts/MultiTokenPaymentIntegrated.sol\":8285:8376  PaymentProcessed(msg.sender, to, token, amount, block.timestamp, isNonStandardToken[token]) */\n      mload(0x40)\n      tag_383\n      swap4\n      swap3\n      swap2\n      swap1\n      tag_384\n      jump\t// in\n    tag_383:\n      mload(0x40)\n      dup1\n      swap2\n      sub\n      swap1\n      log4\n        /* \"contracts/MultiTokenPaymentIntegrated.sol\":8394:8398  true */\n      0x01\n        /* \"contracts/MultiTokenPaymentIntegrated.sol\":8387:8398  return true */\n      swap5\n      pop\n      pop\n      pop\n      pop\n        /* \"@openzeppelin/contracts/security/ReentrancyGuard.sol\":2292:2293  _ */\n      pop\n        /* \"@openzeppelin/contracts/security/ReentrancyGuard.sol\":2303:2323  _nonReentrantAfter() */\n      tag_385\n        /* \"@openzeppelin/contracts/security/ReentrancyGuard.sol\":2303:2321  _nonReentrantAfter */\n      tag_279\n        /* \"@openzeppelin/contracts/security/ReentrancyGuard.sol\":2303:2323  _nonReentrantAfter() */\n      jump\t// in\n    tag_385:\n        /* \"contracts/MultiTokenPaymentIntegrated.sol\":7713:8406  function makePayment(address token, address to, uint256 amount) external nonReentrant tokenSupported(token) returns (bool) {... */\n      swap4\n      swap3\n      pop\n      pop\n      pop\n      jump\t// out\n        /* \"contracts/MultiTokenPaymentIntegrated.sol\":2549:2867  function checkTokenStandard(address token) public view returns (bool) {... */\n    tag_83:\n        /* \"contracts/MultiTokenPaymentIntegrated.sol\":2613:2617  bool */\n      0x00\n        /* \"contracts/MultiTokenPaymentIntegrated.sol\":2634:2656  knownNonStandardTokens */\n      0x05\n        /* \"contracts/MultiTokenPaymentIntegrated.sol\":2634:2663  knownNonStandardTokens[token] */\n      0x00\n        /* \"contracts/MultiTokenPaymentIntegrated.sol\":2657:2662  token */\n      dup4\n        /* \"contracts/MultiTokenPaymentIntegrated.sol\":2634:2663  knownNonStandardTokens[token] */\n      0xffffffffffffffffffffffffffffffffffffffff\n      and\n      0xffffffffffffffffffffffffffffffffffffffff\n      and\n      dup2\n      mstore\n      0x20\n      add\n      swap1\n      dup2\n      mstore\n      0x20\n      add\n      0x00\n      keccak256\n      0x00\n      swap1\n      sload\n      swap1\n      0x0100\n      exp\n      swap1\n      div\n      0xff\n      and\n        /* \"contracts/MultiTokenPaymentIntegrated.sol\":2630:2703  if (knownNonStandardTokens[token]) {... */\n      iszero\n      tag_387\n      jumpi\n        /* \"contracts/MultiTokenPaymentIntegrated.sol\":2687:2691  true */\n      0x01\n        /* \"contracts/MultiTokenPaymentIntegrated.sol\":2680:2691  return true */\n      swap1\n      pop\n      jump(tag_386)\n        /* \"contracts/MultiTokenPaymentIntegrated.sol\":2630:2703  if (knownNonStandardTokens[token]) {... */\n    tag_387:\n        /* \"contracts/MultiTokenPaymentIntegrated.sol\":2742:2747  token */\n      dup2\n        /* \"contracts/MultiTokenPaymentIntegrated.sol\":2727:2757  IERC20Metadata(token).decimals */\n      0xffffffffffffffffffffffffffffffffffffffff\n      and\n      0x313ce567\n        /* \"contracts/MultiTokenPaymentIntegrated.sol\":2727:2759  IERC20Metadata(token).decimals() */\n      mload(0x40)\n      dup2\n      0xffffffff\n      and\n      0xe0\n      shl\n      dup2\n      mstore\n      0x04\n      add\n      0x20\n      mload(0x40)\n      dup1\n      dup4\n      sub\n      dup2\n      dup7\n      gas\n      staticcall\n      swap3\n      pop\n      pop\n      pop\n      dup1\n      iszero\n      tag_388\n      jumpi\n      pop\n      mload(0x40)\n      returndatasize\n      not(0x1f)\n      0x1f\n      dup3\n      add\n      and\n      dup3\n      add\n      dup1\n      0x40\n      mstore\n      pop\n      dup2\n      add\n      swap1\n      tag_389\n      swap2\n      swap1\n      tag_151\n      jump\t// in\n    tag_389:\n      0x01\n    tag_388:\n        /* \"contracts/MultiTokenPaymentIntegrated.sol\":2723:2860  try IERC20Metadata(token).decimals() returns (uint8) {... */\n      tag_390\n      jumpi\n        /* \"contracts/MultiTokenPaymentIntegrated.sol\":2844:2848  true */\n      0x01\n        /* \"contracts/MultiTokenPaymentIntegrated.sol\":2837:2848  return true */\n      swap1\n      pop\n      jump(tag_386)\n        /* \"contracts/MultiTokenPaymentIntegrated.sol\":2723:2860  try IERC20Metadata(token).decimals() returns (uint8) {... */\n    tag_390:\n        /* \"contracts/MultiTokenPaymentIntegrated.sol\":2798:2803  false */\n      0x00\n        /* \"contracts/MultiTokenPaymentIntegrated.sol\":2791:2803  return false */\n      swap2\n      pop\n      pop\n        /* \"contracts/MultiTokenPaymentIntegrated.sol\":2549:2867  function checkTokenStandard(address token) public view returns (bool) {... */\n    tag_386:\n      swap2\n      swap1\n      pop\n      jump\t// out\n        /* \"contracts/MultiTokenPaymentIntegrated.sol\":10108:10281  function checkAllowance(address token, address user) public view tokenSupported(token) returns (uint256) {... */\n    tag_87:\n        /* \"contracts/MultiTokenPaymentIntegrated.sol\":10204:10211  uint256 */\n      0x00\n        /* \"contracts/MultiTokenPaymentIntegrated.sol\":10188:10193  token */\n      dup3\n        /* \"contracts/MultiTokenPaymentIntegrated.sol\":1986:2002  isTokenSupported */\n      0x03\n        /* \"contracts/MultiTokenPaymentIntegrated.sol\":1986:2009  isTokenSupported[token] */\n      0x00\n        /* \"contracts/MultiTokenPaymentIntegrated.sol\":2003:2008  token */\n      dup3\n        /* \"contracts/MultiTokenPaymentIntegrated.sol\":1986:2009  isTokenSupported[token] */\n      0xffffffffffffffffffffffffffffffffffffffff\n      and\n      0xffffffffffffffffffffffffffffffffffffffff\n      and\n      dup2\n      mstore\n      0x20\n      add\n      swap1\n      dup2\n      mstore\n      0x20\n      add\n      0x00\n      keccak256\n      0x00\n      swap1\n      sload\n      swap1\n      0x0100\n      exp\n      swap1\n      div\n      0xff\n      and\n        /* \"contracts/MultiTokenPaymentIntegrated.sol\":1978:2033  require(isTokenSupported[token], \"Token not supported\") */\n      tag_396\n      jumpi\n      mload(0x40)\n      0x08c379a000000000000000000000000000000000000000000000000000000000\n      dup2\n      mstore\n      0x04\n      add\n      tag_397\n      swap1\n      tag_231\n      jump\t// in\n    tag_397:\n      mload(0x40)\n      dup1\n      swap2\n      sub\n      swap1\n      revert\n    tag_396:\n        /* \"contracts/MultiTokenPaymentIntegrated.sol\":10231:10273  _safeAllowance(token, user, address(this)) */\n      tag_399\n        /* \"contracts/MultiTokenPaymentIntegrated.sol\":10246:10251  token */\n      dup5\n        /* \"contracts/MultiTokenPaymentIntegrated.sol\":10253:10257  user */\n      dup5\n        /* \"contracts/MultiTokenPaymentIntegrated.sol\":10267:10271  this */\n      address\n        /* \"contracts/MultiTokenPaymentIntegrated.sol\":10231:10245  _safeAllowance */\n      tag_247\n        /* \"contracts/MultiTokenPaymentIntegrated.sol\":10231:10273  _safeAllowance(token, user, address(this)) */\n      jump\t// in\n    tag_399:\n        /* \"contracts/MultiTokenPaymentIntegrated.sol\":10224:10273  return _safeAllowance(token, user, address(this)) */\n      swap2\n      pop\n        /* \"contracts/MultiTokenPaymentIntegrated.sol\":10108:10281  function checkAllowance(address token, address user) public view tokenSupported(token) returns (uint256) {... */\n      pop\n      swap3\n      swap2\n      pop\n      pop\n      jump\t// out\n        /* \"contracts/MultiTokenPaymentIntegrated.sol\":1101:1155  mapping(address => bool) public knownNonStandardTokens */\n    tag_91:\n      mstore(0x20, 0x05)\n      dup1\n      0x00\n      mstore\n      keccak256(0x00, 0x40)\n      0x00\n      swap2\n      pop\n      sload\n      swap1\n      0x0100\n      exp\n      swap1\n      div\n      0xff\n      and\n      dup2\n      jump\t// out\n        /* \"@openzeppelin/contracts/access/Ownable.sol\":1201:1286  function owner() public view virtual returns (address) {... */\n    tag_94:\n        /* \"@openzeppelin/contracts/access/Ownable.sol\":1247:1254  address */\n      0x00\n        /* \"@openzeppelin/contracts/access/Ownable.sol\":1273:1279  _owner */\n      0x00\n      0x00\n      swap1\n      sload\n      swap1\n      0x0100\n      exp\n      swap1\n      div\n      0xffffffffffffffffffffffffffffffffffffffff\n      and\n        /* \"@openzeppelin/contracts/access/Ownable.sol\":1266:1279  return _owner */\n      swap1\n      pop\n        /* \"@openzeppelin/contracts/access/Ownable.sol\":1201:1286  function owner() public view virtual returns (address) {... */\n      swap1\n      jump\t// out\n        /* \"contracts/MultiTokenPaymentIntegrated.sol\":2429:2541  function addKnownNonStandardToken(address token) public  {... */\n    tag_99:\n        /* \"contracts/MultiTokenPaymentIntegrated.sol\":2529:2533  true */\n      0x01\n        /* \"contracts/MultiTokenPaymentIntegrated.sol\":2497:2519  knownNonStandardTokens */\n      0x05\n        /* \"contracts/MultiTokenPaymentIntegrated.sol\":2497:2526  knownNonStandardTokens[token] */\n      0x00\n        /* \"contracts/MultiTokenPaymentIntegrated.sol\":2520:2525  token */\n      dup4\n        /* \"contracts/MultiTokenPaymentIntegrated.sol\":2497:2526  knownNonStandardTokens[token] */\n      0xffffffffffffffffffffffffffffffffffffffff\n      and\n      0xffffffffffffffffffffffffffffffffffffffff\n      and\n      dup2\n      mstore\n      0x20\n      add\n      swap1\n      dup2\n      mstore\n      0x20\n      add\n      0x00\n      keccak256\n      0x00\n        /* \"contracts/MultiTokenPaymentIntegrated.sol\":2497:2533  knownNonStandardTokens[token] = true */\n      0x0100\n      exp\n      dup2\n      sload\n      dup2\n      0xff\n      mul\n      not\n      and\n      swap1\n      dup4\n      iszero\n      iszero\n      mul\n      or\n      swap1\n      sstore\n      pop\n        /* \"contracts/MultiTokenPaymentIntegrated.sol\":2429:2541  function addKnownNonStandardToken(address token) public  {... */\n      pop\n      jump\t// out\n        /* \"contracts/MultiTokenPaymentIntegrated.sol\":950:982  address[] public supportedTokens */\n    tag_103:\n      0x02\n      dup2\n      dup2\n      sload\n      dup2\n      lt\n      tag_402\n      jumpi\n      0x00\n      dup1\n      revert\n    tag_402:\n      swap1\n      0x00\n      mstore\n      keccak256(0x00, 0x20)\n      add\n      0x00\n      swap2\n      pop\n      sload\n      swap1\n      0x0100\n      exp\n      swap1\n      div\n      0xffffffffffffffffffffffffffffffffffffffff\n      and\n      dup2\n      jump\t// out\n        /* \"contracts/MultiTokenPaymentIntegrated.sol\":1044:1094  mapping(address => bool) public isNonStandardToken */\n    tag_107:\n      mstore(0x20, 0x04)\n      dup1\n      0x00\n      mstore\n      keccak256(0x00, 0x40)\n      0x00\n      swap2\n      pop\n      sload\n      swap1\n      0x0100\n      exp\n      swap1\n      div\n      0xff\n      and\n      dup2\n      jump\t// out\n        /* \"contracts/MultiTokenPaymentIntegrated.sol\":9643:9753  function getSupportedTokens() public view returns (address[] memory) {... */\n    tag_110:\n        /* \"contracts/MultiTokenPaymentIntegrated.sol\":9694:9710  address[] memory */\n      0x60\n        /* \"contracts/MultiTokenPaymentIntegrated.sol\":9730:9745  supportedTokens */\n      0x02\n        /* \"contracts/MultiTokenPaymentIntegrated.sol\":9723:9745  return supportedTokens */\n      dup1\n      sload\n      dup1\n      0x20\n      mul\n      0x20\n      add\n      mload(0x40)\n      swap1\n      dup2\n      add\n      0x40\n      mstore\n      dup1\n      swap3\n      swap2\n      swap1\n      dup2\n      dup2\n      mstore\n      0x20\n      add\n      dup3\n      dup1\n      sload\n      dup1\n      iszero\n      tag_405\n      jumpi\n      0x20\n      mul\n      dup3\n      add\n      swap2\n      swap1\n      0x00\n      mstore\n      keccak256(0x00, 0x20)\n      swap1\n    tag_406:\n      dup2\n      0x00\n      swap1\n      sload\n      swap1\n      0x0100\n      exp\n      swap1\n      div\n      0xffffffffffffffffffffffffffffffffffffffff\n      and\n      0xffffffffffffffffffffffffffffffffffffffff\n      and\n      dup2\n      mstore\n      0x20\n      add\n      swap1\n      0x01\n      add\n      swap1\n      dup1\n      dup4\n      gt\n      tag_406\n      jumpi\n    tag_405:\n      pop\n      pop\n      pop\n      pop\n      pop\n      swap1\n      pop\n        /* \"contracts/MultiTokenPaymentIntegrated.sol\":9643:9753  function getSupportedTokens() public view returns (address[] memory) {... */\n      swap1\n      jump\t// out\n        /* \"@openzeppelin/contracts/access/Ownable.sol\":2074:2272  function transferOwnership(address newOwner) public virtual onlyOwner {... */\n    tag_115:\n        /* \"@openzeppelin/contracts/access/Ownable.sol\":1094:1107  _checkOwner() */\n      tag_408\n        /* \"@openzeppelin/contracts/access/Ownable.sol\":1094:1105  _checkOwner */\n      tag_124\n        /* \"@openzeppelin/contracts/access/Ownable.sol\":1094:1107  _checkOwner() */\n      jump\t// in\n    tag_408:\n        /* \"@openzeppelin/contracts/access/Ownable.sol\":2182:2183  0 */\n      0x00\n        /* \"@openzeppelin/contracts/access/Ownable.sol\":2162:2184  newOwner != address(0) */\n      0xffffffffffffffffffffffffffffffffffffffff\n      and\n        /* \"@openzeppelin/contracts/access/Ownable.sol\":2162:2170  newOwner */\n      dup2\n        /* \"@openzeppelin/contracts/access/Ownable.sol\":2162:2184  newOwner != address(0) */\n      0xffffffffffffffffffffffffffffffffffffffff\n      and\n      sub\n        /* \"@openzeppelin/contracts/access/Ownable.sol\":2154:2227  require(newOwner != address(0), \"Ownable: new owner is the zero address\") */\n      tag_410\n      jumpi\n      mload(0x40)\n      0x08c379a000000000000000000000000000000000000000000000000000000000\n      dup2\n      mstore\n      0x04\n      add\n      tag_411\n      swap1\n      tag_412\n      jump\t// in\n    tag_411:\n      mload(0x40)\n      dup1\n      swap2\n      sub\n      swap1\n      revert\n    tag_410:\n        /* \"@openzeppelin/contracts/access/Ownable.sol\":2237:2265  _transferOwnership(newOwner) */\n      tag_413\n        /* \"@openzeppelin/contracts/access/Ownable.sol\":2256:2264  newOwner */\n      dup2\n        /* \"@openzeppelin/contracts/access/Ownable.sol\":2237:2255  _transferOwnership */\n      tag_332\n        /* \"@openzeppelin/contracts/access/Ownable.sol\":2237:2265  _transferOwnership(newOwner) */\n      jump\t// in\n    tag_413:\n        /* \"@openzeppelin/contracts/access/Ownable.sol\":2074:2272  function transferOwnership(address newOwner) public virtual onlyOwner {... */\n      pop\n      jump\t// out\n        /* \"contracts/MultiTokenPaymentIntegrated.sol\":1321:1367  mapping(address => TokenInfo) public tokenInfo */\n    tag_118:\n      mstore(0x20, 0x06)\n      dup1\n      0x00\n      mstore\n      keccak256(0x00, 0x40)\n      0x00\n      swap2\n      pop\n      swap1\n      pop\n      dup1\n      0x00\n      add\n      dup1\n      sload\n      tag_414\n      swap1\n      tag_169\n      jump\t// in\n    tag_414:\n      dup1\n      0x1f\n      add\n      0x20\n      dup1\n      swap2\n      div\n      mul\n      0x20\n      add\n      mload(0x40)\n      swap1\n      dup2\n      add\n      0x40\n      mstore\n      dup1\n      swap3\n      swap2\n      swap1\n      dup2\n      dup2\n      mstore\n      0x20\n      add\n      dup3\n      dup1\n      sload\n      tag_415\n      swap1\n      tag_169\n      jump\t// in\n    tag_415:\n      dup1\n      iszero\n      tag_416\n      jumpi\n      dup1\n      0x1f\n      lt\n      tag_417\n      jumpi\n      0x0100\n      dup1\n      dup4\n      sload\n      div\n      mul\n      dup4\n      mstore\n      swap2\n      0x20\n      add\n      swap2\n      jump(tag_416)\n    tag_417:\n      dup3\n      add\n      swap2\n      swap1\n      0x00\n      mstore\n      keccak256(0x00, 0x20)\n      swap1\n    tag_418:\n      dup2\n      sload\n      dup2\n      mstore\n      swap1\n      0x01\n      add\n      swap1\n      0x20\n      add\n      dup1\n      dup4\n      gt\n      tag_418\n      jumpi\n      dup3\n      swap1\n      sub\n      0x1f\n      and\n      dup3\n      add\n      swap2\n    tag_416:\n      pop\n      pop\n      pop\n      pop\n      pop\n      swap1\n      dup1\n      0x01\n      add\n      dup1\n      sload\n      tag_419\n      swap1\n      tag_169\n      jump\t// in\n    tag_419:\n      dup1\n      0x1f\n      add\n      0x20\n      dup1\n      swap2\n      div\n      mul\n      0x20\n      add\n      mload(0x40)\n      swap1\n      dup2\n      add\n      0x40\n      mstore\n      dup1\n      swap3\n      swap2\n      swap1\n      dup2\n      dup2\n      mstore\n      0x20\n      add\n      dup3\n      dup1\n      sload\n      tag_420\n      swap1\n      tag_169\n      jump\t// in\n    tag_420:\n      dup1\n      iszero\n      tag_421\n      jumpi\n      dup1\n      0x1f\n      lt\n      tag_422\n      jumpi\n      0x0100\n      dup1\n      dup4\n      sload\n      div\n      mul\n      dup4\n      mstore\n      swap2\n      0x20\n      add\n      swap2\n      jump(tag_421)\n    tag_422:\n      dup3\n      add\n      swap2\n      swap1\n      0x00\n      mstore\n      keccak256(0x00, 0x20)\n      swap1\n    tag_423:\n      dup2\n      sload\n      dup2\n      mstore\n      swap1\n      0x01\n      add\n      swap1\n      0x20\n      add\n      dup1\n      dup4\n      gt\n      tag_423\n      jumpi\n      dup3\n      swap1\n      sub\n      0x1f\n      and\n      dup3\n      add\n      swap2\n    tag_421:\n      pop\n      pop\n      pop\n      pop\n      pop\n      swap1\n      dup1\n      0x02\n      add\n      0x00\n      swap1\n      sload\n      swap1\n      0x0100\n      exp\n      swap1\n      div\n      0xff\n      and\n      swap1\n      dup1\n      0x02\n      add\n      0x01\n      swap1\n      sload\n      swap1\n      0x0100\n      exp\n      swap1\n      div\n      0xff\n      and\n      swap1\n      dup1\n      0x02\n      add\n      0x02\n      swap1\n      sload\n      swap1\n      0x0100\n      exp\n      swap1\n      div\n      0xff\n      and\n      swap1\n      pop\n      dup6\n      jump\t// out\n        /* \"@openzeppelin/contracts/access/Ownable.sol\":1359:1489  function _checkOwner() internal view virtual {... */\n    tag_124:\n        /* \"@openzeppelin/contracts/access/Ownable.sol\":1433:1445  _msgSender() */\n      tag_425\n        /* \"@openzeppelin/contracts/access/Ownable.sol\":1433:1443  _msgSender */\n      tag_426\n        /* \"@openzeppelin/contracts/access/Ownable.sol\":1433:1445  _msgSender() */\n      jump\t// in\n    tag_425:\n        /* \"@openzeppelin/contracts/access/Ownable.sol\":1422:1445  owner() == _msgSender() */\n      0xffffffffffffffffffffffffffffffffffffffff\n      and\n        /* \"@openzeppelin/contracts/access/Ownable.sol\":1422:1429  owner() */\n      tag_427\n        /* \"@openzeppelin/contracts/access/Ownable.sol\":1422:1427  owner */\n      tag_94\n        /* \"@openzeppelin/contracts/access/Ownable.sol\":1422:1429  owner() */\n      jump\t// in\n    tag_427:\n        /* \"@openzeppelin/contracts/access/Ownable.sol\":1422:1445  owner() == _msgSender() */\n      0xffffffffffffffffffffffffffffffffffffffff\n      and\n      eq\n        /* \"@openzeppelin/contracts/access/Ownable.sol\":1414:1482  require(owner() == _msgSender(), \"Ownable: caller is not the owner\") */\n      tag_428\n      jumpi\n      mload(0x40)\n      0x08c379a000000000000000000000000000000000000000000000000000000000\n      dup2\n      mstore\n      0x04\n      add\n      tag_429\n      swap1\n      tag_430\n      jump\t// in\n    tag_429:\n      mload(0x40)\n      dup1\n      swap2\n      sub\n      swap1\n      revert\n    tag_428:\n        /* \"@openzeppelin/contracts/access/Ownable.sol\":1359:1489  function _checkOwner() internal view virtual {... */\n      jump\t// out\n        /* \"@openzeppelin/contracts/security/ReentrancyGuard.sol\":2336:2623  function _nonReentrantBefore() private {... */\n    tag_214:\n        /* \"@openzeppelin/contracts/security/ReentrancyGuard.sol\":1759:1760  2 */\n      0x02\n        /* \"@openzeppelin/contracts/security/ReentrancyGuard.sol\":2468:2475  _status */\n      sload(0x01)\n        /* \"@openzeppelin/contracts/security/ReentrancyGuard.sol\":2468:2487  _status != _ENTERED */\n      sub\n        /* \"@openzeppelin/contracts/security/ReentrancyGuard.sol\":2460:2523  require(_status != _ENTERED, \"ReentrancyGuard: reentrant call\") */\n      tag_432\n      jumpi\n      mload(0x40)\n      0x08c379a000000000000000000000000000000000000000000000000000000000\n      dup2\n      mstore\n      0x04\n      add\n      tag_433\n      swap1\n      tag_434\n      jump\t// in\n    tag_433:\n      mload(0x40)\n      dup1\n      swap2\n      sub\n      swap1\n      revert\n    tag_432:\n        /* \"@openzeppelin/contracts/security/ReentrancyGuard.sol\":1759:1760  2 */\n      0x02\n        /* \"@openzeppelin/contracts/security/ReentrancyGuard.sol\":2598:2605  _status */\n      0x01\n        /* \"@openzeppelin/contracts/security/ReentrancyGuard.sol\":2598:2616  _status = _ENTERED */\n      dup2\n      swap1\n      sstore\n      pop\n        /* \"@openzeppelin/contracts/security/ReentrancyGuard.sol\":2336:2623  function _nonReentrantBefore() private {... */\n      jump\t// out\n        /* \"contracts/MultiTokenPaymentIntegrated.sol\":6024:6603  function _safeAllowance(address token, address owner, address spender) internal view returns (uint256) {... */\n    tag_247:\n        /* \"contracts/MultiTokenPaymentIntegrated.sol\":6118:6125  uint256 */\n      0x00\n        /* \"contracts/MultiTokenPaymentIntegrated.sol\":6142:6160  isNonStandardToken */\n      0x04\n        /* \"contracts/MultiTokenPaymentIntegrated.sol\":6142:6167  isNonStandardToken[token] */\n      0x00\n        /* \"contracts/MultiTokenPaymentIntegrated.sol\":6161:6166  token */\n      dup6\n        /* \"contracts/MultiTokenPaymentIntegrated.sol\":6142:6167  isNonStandardToken[token] */\n      0xffffffffffffffffffffffffffffffffffffffff\n      and\n      0xffffffffffffffffffffffffffffffffffffffff\n      and\n      dup2\n      mstore\n      0x20\n      add\n      swap1\n      dup2\n      mstore\n      0x20\n      add\n      0x00\n      keccak256\n      0x00\n      swap1\n      sload\n      swap1\n      0x0100\n      exp\n      swap1\n      div\n      0xff\n      and\n        /* \"contracts/MultiTokenPaymentIntegrated.sol\":6138:6596  if (isNonStandardToken[token]) {... */\n      iszero\n      tag_436\n      jumpi\n        /* \"contracts/MultiTokenPaymentIntegrated.sol\":6194:6199  token */\n      dup4\n        /* \"contracts/MultiTokenPaymentIntegrated.sol\":6188:6210  IUSDT(token).allowance */\n      0xffffffffffffffffffffffffffffffffffffffff\n      and\n      0xdd62ed3e\n        /* \"contracts/MultiTokenPaymentIntegrated.sol\":6211:6216  owner */\n      dup5\n        /* \"contracts/MultiTokenPaymentIntegrated.sol\":6218:6225  spender */\n      dup5\n        /* \"contracts/MultiTokenPaymentIntegrated.sol\":6188:6226  IUSDT(token).allowance(owner, spender) */\n      mload(0x40)\n      dup4\n      0xffffffff\n      and\n      0xe0\n      shl\n      dup2\n      mstore\n      0x04\n      add\n      tag_437\n      swap3\n      swap2\n      swap1\n      tag_438\n      jump\t// in\n    tag_437:\n      0x20\n      mload(0x40)\n      dup1\n      dup4\n      sub\n      dup2\n      dup7\n      gas\n      staticcall\n      swap3\n      pop\n      pop\n      pop\n      dup1\n      iszero\n      tag_439\n      jumpi\n      pop\n      mload(0x40)\n      returndatasize\n      not(0x1f)\n      0x1f\n      dup3\n      add\n      and\n      dup3\n      add\n      dup1\n      0x40\n      mstore\n      pop\n      dup2\n      add\n      swap1\n      tag_440\n      swap2\n      swap1\n      tag_441\n      jump\t// in\n    tag_440:\n      0x01\n    tag_439:\n        /* \"contracts/MultiTokenPaymentIntegrated.sol\":6184:6368  try IUSDT(token).allowance(owner, spender) returns (uint256 allowanceAmount) {... */\n      tag_442\n      jumpi\n        /* \"contracts/MultiTokenPaymentIntegrated.sol\":6351:6352  0 */\n      0x00\n        /* \"contracts/MultiTokenPaymentIntegrated.sol\":6344:6352  return 0 */\n      swap1\n      pop\n      jump(tag_435)\n        /* \"contracts/MultiTokenPaymentIntegrated.sol\":6184:6368  try IUSDT(token).allowance(owner, spender) returns (uint256 allowanceAmount) {... */\n    tag_442:\n        /* \"contracts/MultiTokenPaymentIntegrated.sol\":6287:6302  allowanceAmount */\n      dup1\n        /* \"contracts/MultiTokenPaymentIntegrated.sol\":6280:6302  return allowanceAmount */\n      swap2\n      pop\n      pop\n      jump(tag_435)\n        /* \"contracts/MultiTokenPaymentIntegrated.sol\":6138:6596  if (isNonStandardToken[token]) {... */\n    tag_436:\n        /* \"contracts/MultiTokenPaymentIntegrated.sol\":6411:6416  token */\n      dup4\n        /* \"contracts/MultiTokenPaymentIntegrated.sol\":6404:6427  IERC20(token).allowance */\n      0xffffffffffffffffffffffffffffffffffffffff\n      and\n      0xdd62ed3e\n        /* \"contracts/MultiTokenPaymentIntegrated.sol\":6428:6433  owner */\n      dup5\n        /* \"contracts/MultiTokenPaymentIntegrated.sol\":6435:6442  spender */\n      dup5\n        /* \"contracts/MultiTokenPaymentIntegrated.sol\":6404:6443  IERC20(token).allowance(owner, spender) */\n      mload(0x40)\n      dup4\n      0xffffffff\n      and\n      0xe0\n      shl\n      dup2\n      mstore\n      0x04\n      add\n      tag_448\n      swap3\n      swap2\n      swap1\n      tag_438\n      jump\t// in\n    tag_448:\n      0x20\n      mload(0x40)\n      dup1\n      dup4\n      sub\n      dup2\n      dup7\n      gas\n      staticcall\n      swap3\n      pop\n      pop\n      pop\n      dup1\n      iszero\n      tag_449\n      jumpi\n      pop\n      mload(0x40)\n      returndatasize\n      not(0x1f)\n      0x1f\n      dup3\n      add\n      and\n      dup3\n      add\n      dup1\n      0x40\n      mstore\n      pop\n      dup2\n      add\n      swap1\n      tag_450\n      swap2\n      swap1\n      tag_441\n      jump\t// in\n    tag_450:\n      0x01\n    tag_449:\n        /* \"contracts/MultiTokenPaymentIntegrated.sol\":6400:6585  try IERC20(token).allowance(owner, spender) returns (uint256 allowanceAmount) {... */\n      tag_451\n      jumpi\n        /* \"contracts/MultiTokenPaymentIntegrated.sol\":6568:6569  0 */\n      0x00\n        /* \"contracts/MultiTokenPaymentIntegrated.sol\":6561:6569  return 0 */\n      swap1\n      pop\n      jump(tag_435)\n        /* \"contracts/MultiTokenPaymentIntegrated.sol\":6400:6585  try IERC20(token).allowance(owner, spender) returns (uint256 allowanceAmount) {... */\n    tag_451:\n        /* \"contracts/MultiTokenPaymentIntegrated.sol\":6504:6519  allowanceAmount */\n      dup1\n        /* \"contracts/MultiTokenPaymentIntegrated.sol\":6497:6519  return allowanceAmount */\n      swap2\n      pop\n      pop\n        /* \"contracts/MultiTokenPaymentIntegrated.sol\":6024:6603  function _safeAllowance(address token, address owner, address spender) internal view returns (uint256) {... */\n    tag_435:\n      swap4\n      swap3\n      pop\n      pop\n      pop\n      jump\t// out\n        /* \"contracts/MultiTokenPaymentIntegrated.sol\":6611:7129  function _safeBalanceOf(address token, address account) internal view returns (uint256) {... */\n    tag_257:\n        /* \"contracts/MultiTokenPaymentIntegrated.sol\":6690:6697  uint256 */\n      0x00\n        /* \"contracts/MultiTokenPaymentIntegrated.sol\":6714:6732  isNonStandardToken */\n      0x04\n        /* \"contracts/MultiTokenPaymentIntegrated.sol\":6714:6739  isNonStandardToken[token] */\n      0x00\n        /* \"contracts/MultiTokenPaymentIntegrated.sol\":6733:6738  token */\n      dup5\n        /* \"contracts/MultiTokenPaymentIntegrated.sol\":6714:6739  isNonStandardToken[token] */\n      0xffffffffffffffffffffffffffffffffffffffff\n      and\n      0xffffffffffffffffffffffffffffffffffffffff\n      and\n      dup2\n      mstore\n      0x20\n      add\n      swap1\n      dup2\n      mstore\n      0x20\n      add\n      0x00\n      keccak256\n      0x00\n      swap1\n      sload\n      swap1\n      0x0100\n      exp\n      swap1\n      div\n      0xff\n      and\n        /* \"contracts/MultiTokenPaymentIntegrated.sol\":6710:7122  if (isNonStandardToken[token]) {... */\n      iszero\n      tag_457\n      jumpi\n        /* \"contracts/MultiTokenPaymentIntegrated.sol\":6766:6771  token */\n      dup3\n        /* \"contracts/MultiTokenPaymentIntegrated.sol\":6760:6782  IUSDT(token).balanceOf */\n      0xffffffffffffffffffffffffffffffffffffffff\n      and\n      0x70a08231\n        /* \"contracts/MultiTokenPaymentIntegrated.sol\":6783:6790  account */\n      dup4\n        /* \"contracts/MultiTokenPaymentIntegrated.sol\":6760:6791  IUSDT(token).balanceOf(account) */\n      mload(0x40)\n      dup3\n      0xffffffff\n      and\n      0xe0\n      shl\n      dup2\n      mstore\n      0x04\n      add\n      tag_458\n      swap2\n      swap1\n      tag_96\n      jump\t// in\n    tag_458:\n      0x20\n      mload(0x40)\n      dup1\n      dup4\n      sub\n      dup2\n      dup7\n      gas\n      staticcall\n      swap3\n      pop\n      pop\n      pop\n      dup1\n      iszero\n      tag_459\n      jumpi\n      pop\n      mload(0x40)\n      returndatasize\n      not(0x1f)\n      0x1f\n      dup3\n      add\n      and\n      dup3\n      add\n      dup1\n      0x40\n      mstore\n      pop\n      dup2\n      add\n      swap1\n      tag_460\n      swap2\n      swap1\n      tag_441\n      jump\t// in\n    tag_460:\n      0x01\n    tag_459:\n        /* \"contracts/MultiTokenPaymentIntegrated.sol\":6756:6917  try IUSDT(token).balanceOf(account) returns (uint256 balance) {... */\n      tag_461\n      jumpi\n        /* \"contracts/MultiTokenPaymentIntegrated.sol\":6900:6901  0 */\n      0x00\n        /* \"contracts/MultiTokenPaymentIntegrated.sol\":6893:6901  return 0 */\n      swap1\n      pop\n      jump(tag_456)\n        /* \"contracts/MultiTokenPaymentIntegrated.sol\":6756:6917  try IUSDT(token).balanceOf(account) returns (uint256 balance) {... */\n    tag_461:\n        /* \"contracts/MultiTokenPaymentIntegrated.sol\":6844:6851  balance */\n      dup1\n        /* \"contracts/MultiTokenPaymentIntegrated.sol\":6837:6851  return balance */\n      swap2\n      pop\n      pop\n      jump(tag_456)\n        /* \"contracts/MultiTokenPaymentIntegrated.sol\":6710:7122  if (isNonStandardToken[token]) {... */\n    tag_457:\n        /* \"contracts/MultiTokenPaymentIntegrated.sol\":6960:6965  token */\n      dup3\n        /* \"contracts/MultiTokenPaymentIntegrated.sol\":6953:6976  IERC20(token).balanceOf */\n      0xffffffffffffffffffffffffffffffffffffffff\n      and\n      0x70a08231\n        /* \"contracts/MultiTokenPaymentIntegrated.sol\":6977:6984  account */\n      dup4\n        /* \"contracts/MultiTokenPaymentIntegrated.sol\":6953:6985  IERC20(token).balanceOf(account) */\n      mload(0x40)\n      dup3\n      0xffffffff\n      and\n      0xe0\n      shl\n      dup2\n      mstore\n      0x04\n      add\n      tag_467\n      swap2\n      swap1\n      tag_96\n      jump\t// in\n    tag_467:\n      0x20\n      mload(0x40)\n      dup1\n      dup4\n      sub\n      dup2\n      dup7\n      gas\n      staticcall\n      swap3\n      pop\n      pop\n      pop\n      dup1\n      iszero\n      tag_468\n      jumpi\n      pop\n      mload(0x40)\n      returndatasize\n      not(0x1f)\n      0x1f\n      dup3\n      add\n      and\n      dup3\n      add\n      dup1\n      0x40\n      mstore\n      pop\n      dup2\n      add\n      swap1\n      tag_469\n      swap2\n      swap1\n      tag_441\n      jump\t// in\n    tag_469:\n      0x01\n    tag_468:\n        /* \"contracts/MultiTokenPaymentIntegrated.sol\":6949:7111  try IERC20(token).balanceOf(account) returns (uint256 balance) {... */\n      tag_470\n      jumpi\n        /* \"contracts/MultiTokenPaymentIntegrated.sol\":7094:7095  0 */\n      0x00\n        /* \"contracts/MultiTokenPaymentIntegrated.sol\":7087:7095  return 0 */\n      swap1\n      pop\n      jump(tag_456)\n        /* \"contracts/MultiTokenPaymentIntegrated.sol\":6949:7111  try IERC20(token).balanceOf(account) returns (uint256 balance) {... */\n    tag_470:\n        /* \"contracts/MultiTokenPaymentIntegrated.sol\":7038:7045  balance */\n      dup1\n        /* \"contracts/MultiTokenPaymentIntegrated.sol\":7031:7045  return balance */\n      swap2\n      pop\n      pop\n        /* \"contracts/MultiTokenPaymentIntegrated.sol\":6611:7129  function _safeBalanceOf(address token, address account) internal view returns (uint256) {... */\n    tag_456:\n      swap3\n      swap2\n      pop\n      pop\n      jump\t// out\n        /* \"contracts/MultiTokenPaymentIntegrated.sol\":7137:7705  function _safeTransferFrom(address token, address from, address to, uint256 amount) internal returns (bool) {... */\n    tag_272:\n        /* \"contracts/MultiTokenPaymentIntegrated.sol\":7239:7243  bool */\n      0x00\n        /* \"contracts/MultiTokenPaymentIntegrated.sol\":7260:7278  isNonStandardToken */\n      0x04\n        /* \"contracts/MultiTokenPaymentIntegrated.sol\":7260:7285  isNonStandardToken[token] */\n      0x00\n        /* \"contracts/MultiTokenPaymentIntegrated.sol\":7279:7284  token */\n      dup7\n        /* \"contracts/MultiTokenPaymentIntegrated.sol\":7260:7285  isNonStandardToken[token] */\n      0xffffffffffffffffffffffffffffffffffffffff\n      and\n      0xffffffffffffffffffffffffffffffffffffffff\n      and\n      dup2\n      mstore\n      0x20\n      add\n      swap1\n      dup2\n      mstore\n      0x20\n      add\n      0x00\n      keccak256\n      0x00\n      swap1\n      sload\n      swap1\n      0x0100\n      exp\n      swap1\n      div\n      0xff\n      and\n        /* \"contracts/MultiTokenPaymentIntegrated.sol\":7256:7698  if (isNonStandardToken[token]) {... */\n      iszero\n      tag_476\n      jumpi\n        /* \"contracts/MultiTokenPaymentIntegrated.sol\":7312:7317  token */\n      dup5\n        /* \"contracts/MultiTokenPaymentIntegrated.sol\":7306:7331  IUSDT(token).transferFrom */\n      0xffffffffffffffffffffffffffffffffffffffff\n      and\n      0x23b872dd\n        /* \"contracts/MultiTokenPaymentIntegrated.sol\":7332:7336  from */\n      dup6\n        /* \"contracts/MultiTokenPaymentIntegrated.sol\":7338:7340  to */\n      dup6\n        /* \"contracts/MultiTokenPaymentIntegrated.sol\":7342:7348  amount */\n      dup6\n        /* \"contracts/MultiTokenPaymentIntegrated.sol\":7306:7349  IUSDT(token).transferFrom(from, to, amount) */\n      mload(0x40)\n      dup5\n      0xffffffff\n      and\n      0xe0\n      shl\n      dup2\n      mstore\n      0x04\n      add\n      tag_477\n      swap4\n      swap3\n      swap2\n      swap1\n      tag_478\n      jump\t// in\n    tag_477:\n      0x00\n      mload(0x40)\n      dup1\n      dup4\n      sub\n      dup2\n      0x00\n      dup8\n      dup1\n      extcodesize\n      iszero\n      dup1\n      iszero\n      tag_479\n      jumpi\n      revert(0x00, 0x00)\n    tag_479:\n      pop\n      gas\n      call\n      swap3\n      pop\n      pop\n      pop\n      dup1\n      iszero\n      tag_480\n      jumpi\n      pop\n      0x01\n    tag_480:\n        /* \"contracts/MultiTokenPaymentIntegrated.sol\":7302:7465  try IUSDT(token).transferFrom(from, to, amount) {... */\n      tag_481\n      jumpi\n      returndatasize\n      dup1\n      0x00\n      dup2\n      eq\n      tag_486\n      jumpi\n      mload(0x40)\n      swap2\n      pop\n      and(add(returndatasize, 0x3f), not(0x1f))\n      dup3\n      add\n      0x40\n      mstore\n      returndatasize\n      dup3\n      mstore\n      returndatasize\n      0x00\n      0x20\n      dup5\n      add\n      returndatacopy\n      jump(tag_485)\n    tag_486:\n      0x60\n      swap2\n      pop\n    tag_485:\n      pop\n        /* \"contracts/MultiTokenPaymentIntegrated.sol\":7444:7449  false */\n      0x00\n        /* \"contracts/MultiTokenPaymentIntegrated.sol\":7437:7449  return false */\n      swap2\n      pop\n      pop\n      jump(tag_475)\n        /* \"contracts/MultiTokenPaymentIntegrated.sol\":7302:7465  try IUSDT(token).transferFrom(from, to, amount) {... */\n    tag_481:\n        /* \"contracts/MultiTokenPaymentIntegrated.sol\":7376:7380  true */\n      0x01\n        /* \"contracts/MultiTokenPaymentIntegrated.sol\":7369:7380  return true */\n      swap1\n      pop\n      jump(tag_475)\n        /* \"contracts/MultiTokenPaymentIntegrated.sol\":7256:7698  if (isNonStandardToken[token]) {... */\n    tag_476:\n        /* \"contracts/MultiTokenPaymentIntegrated.sol\":7508:7513  token */\n      dup5\n        /* \"contracts/MultiTokenPaymentIntegrated.sol\":7501:7527  IERC20(token).transferFrom */\n      0xffffffffffffffffffffffffffffffffffffffff\n      and\n      0x23b872dd\n        /* \"contracts/MultiTokenPaymentIntegrated.sol\":7528:7532  from */\n      dup6\n        /* \"contracts/MultiTokenPaymentIntegrated.sol\":7534:7536  to */\n      dup6\n        /* \"contracts/MultiTokenPaymentIntegrated.sol\":7538:7544  amount */\n      dup6\n        /* \"contracts/MultiTokenPaymentIntegrated.sol\":7501:7545  IERC20(token).transferFrom(from, to, amount) */\n      mload(0x40)\n      dup5\n      0xffffffff\n      and\n      0xe0\n      shl\n      dup2\n      mstore\n      0x04\n      add\n      tag_489\n      swap4\n      swap3\n      swap2\n      swap1\n      tag_478\n      jump\t// in\n    tag_489:\n      0x20\n      mload(0x40)\n      dup1\n      dup4\n      sub\n      dup2\n      0x00\n      dup8\n      gas\n      call\n      swap3\n      pop\n      pop\n      pop\n      dup1\n      iszero\n      tag_490\n      jumpi\n      pop\n      mload(0x40)\n      returndatasize\n      not(0x1f)\n      0x1f\n      dup3\n      add\n      and\n      dup3\n      add\n      dup1\n      0x40\n      mstore\n      pop\n      dup2\n      add\n      swap1\n      tag_491\n      swap2\n      swap1\n      tag_492\n      jump\t// in\n    tag_491:\n      0x01\n    tag_490:\n        /* \"contracts/MultiTokenPaymentIntegrated.sol\":7497:7687  try IERC20(token).transferFrom(from, to, amount) returns (bool success) {... */\n      tag_493\n      jumpi\n      returndatasize\n      dup1\n      0x00\n      dup2\n      eq\n      tag_498\n      jumpi\n      mload(0x40)\n      swap2\n      pop\n      and(add(returndatasize, 0x3f), not(0x1f))\n      dup3\n      add\n      0x40\n      mstore\n      returndatasize\n      dup3\n      mstore\n      returndatasize\n      0x00\n      0x20\n      dup5\n      add\n      returndatacopy\n      jump(tag_497)\n    tag_498:\n      0x60\n      swap2\n      pop\n    tag_497:\n      pop\n        /* \"contracts/MultiTokenPaymentIntegrated.sol\":7666:7671  false */\n      0x00\n        /* \"contracts/MultiTokenPaymentIntegrated.sol\":7659:7671  return false */\n      swap2\n      pop\n      pop\n      jump(tag_475)\n        /* \"contracts/MultiTokenPaymentIntegrated.sol\":7497:7687  try IERC20(token).transferFrom(from, to, amount) returns (bool success) {... */\n    tag_493:\n        /* \"contracts/MultiTokenPaymentIntegrated.sol\":7595:7602  success */\n      dup1\n        /* \"contracts/MultiTokenPaymentIntegrated.sol\":7588:7602  return success */\n      swap2\n      pop\n      pop\n        /* \"contracts/MultiTokenPaymentIntegrated.sol\":7137:7705  function _safeTransferFrom(address token, address from, address to, uint256 amount) internal returns (bool) {... */\n    tag_475:\n      swap5\n      swap4\n      pop\n      pop\n      pop\n      pop\n      jump\t// out\n        /* \"@openzeppelin/contracts/security/ReentrancyGuard.sol\":2629:2838  function _nonReentrantAfter() private {... */\n    tag_279:\n        /* \"@openzeppelin/contracts/security/ReentrancyGuard.sol\":1716:1717  1 */\n      0x01\n        /* \"@openzeppelin/contracts/security/ReentrancyGuard.sol\":2809:2816  _status */\n      dup1\n        /* \"@openzeppelin/contracts/security/ReentrancyGuard.sol\":2809:2831  _status = _NOT_ENTERED */\n      dup2\n      swap1\n      sstore\n      pop\n        /* \"@openzeppelin/contracts/security/ReentrancyGuard.sol\":2629:2838  function _nonReentrantAfter() private {... */\n      jump\t// out\n        /* \"@openzeppelin/contracts/access/Ownable.sol\":2426:2613  function _transferOwnership(address newOwner) internal virtual {... */\n    tag_332:\n        /* \"@openzeppelin/contracts/access/Ownable.sol\":2499:2515  address oldOwner */\n      0x00\n        /* \"@openzeppelin/contracts/access/Ownable.sol\":2518:2524  _owner */\n      0x00\n      0x00\n      swap1\n      sload\n      swap1\n      0x0100\n      exp\n      swap1\n      div\n      0xffffffffffffffffffffffffffffffffffffffff\n      and\n        /* \"@openzeppelin/contracts/access/Ownable.sol\":2499:2524  address oldOwner = _owner */\n      swap1\n      pop\n        /* \"@openzeppelin/contracts/access/Ownable.sol\":2543:2551  newOwner */\n      dup2\n        /* \"@openzeppelin/contracts/access/Ownable.sol\":2534:2540  _owner */\n      0x00\n      0x00\n        /* \"@openzeppelin/contracts/access/Ownable.sol\":2534:2551  _owner = newOwner */\n      0x0100\n      exp\n      dup2\n      sload\n      dup2\n      0xffffffffffffffffffffffffffffffffffffffff\n      mul\n      not\n      and\n      swap1\n      dup4\n      0xffffffffffffffffffffffffffffffffffffffff\n      and\n      mul\n      or\n      swap1\n      sstore\n      pop\n        /* \"@openzeppelin/contracts/access/Ownable.sol\":2597:2605  newOwner */\n      dup2\n        /* \"@openzeppelin/contracts/access/Ownable.sol\":2566:2606  OwnershipTransferred(oldOwner, newOwner) */\n      0xffffffffffffffffffffffffffffffffffffffff\n      and\n        /* \"@openzeppelin/contracts/access/Ownable.sol\":2587:2595  oldOwner */\n      dup2\n        /* \"@openzeppelin/contracts/access/Ownable.sol\":2566:2606  OwnershipTransferred(oldOwner, newOwner) */\n      0xffffffffffffffffffffffffffffffffffffffff\n      and\n      0x8be0079c531659141344cd1fd0a4f28419497f9722a3daafe3b4186f6b6457e0\n      mload(0x40)\n      mload(0x40)\n      dup1\n      swap2\n      sub\n      swap1\n      log3\n        /* \"@openzeppelin/contracts/access/Ownable.sol\":2489:2613  {... */\n      pop\n        /* \"@openzeppelin/contracts/access/Ownable.sol\":2426:2613  function _transferOwnership(address newOwner) internal virtual {... */\n      pop\n      jump\t// out\n        /* \"@openzeppelin/contracts/utils/Context.sol\":655:751  function _msgSender() internal view virtual returns (address) {... */\n    tag_426:\n        /* \"@openzeppelin/contracts/utils/Context.sol\":708:715  address */\n      0x00\n        /* \"@openzeppelin/contracts/utils/Context.sol\":734:744  msg.sender */\n      caller\n        /* \"@openzeppelin/contracts/utils/Context.sol\":727:744  return msg.sender */\n      swap1\n      pop\n        /* \"@openzeppelin/contracts/utils/Context.sol\":655:751  function _msgSender() internal view virtual returns (address) {... */\n      swap1\n      jump\t// out\n    tag_339:\n      pop\n      dup1\n      sload\n      tag_503\n      swap1\n      tag_169\n      jump\t// in\n    tag_503:\n      0x00\n      dup3\n      sstore\n      dup1\n      0x1f\n      lt\n      tag_505\n      jumpi\n      pop\n      jump(tag_504)\n    tag_505:\n      0x1f\n      add\n      0x20\n      swap1\n      div\n      swap1\n      0x00\n      mstore\n      keccak256(0x00, 0x20)\n      swap1\n      dup2\n      add\n      swap1\n      tag_506\n      swap2\n      swap1\n      tag_507\n      jump\t// in\n    tag_506:\n    tag_504:\n      pop\n      jump\t// out\n    tag_507:\n    tag_508:\n      dup1\n      dup3\n      gt\n      iszero\n      tag_509\n      jumpi\n      0x00\n      dup2\n      0x00\n      swap1\n      sstore\n      pop\n      0x01\n      add\n      jump(tag_508)\n    tag_509:\n      pop\n      swap1\n      jump\t// out\n        /* \"#utility.yul\":7:106   */\n    tag_510:\n        /* \"#utility.yul\":59:65   */\n      0x00\n        /* \"#utility.yul\":93:98   */\n      dup2\n        /* \"#utility.yul\":87:99   */\n      mload\n        /* \"#utility.yul\":77:99   */\n      swap1\n      pop\n        /* \"#utility.yul\":7:106   */\n      swap2\n      swap1\n      pop\n      jump\t// out\n        /* \"#utility.yul\":112:281   */\n    tag_511:\n        /* \"#utility.yul\":196:207   */\n      0x00\n        /* \"#utility.yul\":230:236   */\n      dup3\n        /* \"#utility.yul\":225:228   */\n      dup3\n        /* \"#utility.yul\":218:237   */\n      mstore\n        /* \"#utility.yul\":270:274   */\n      0x20\n        /* \"#utility.yul\":265:268   */\n      dup3\n        /* \"#utility.yul\":261:275   */\n      add\n        /* \"#utility.yul\":246:275   */\n      swap1\n      pop\n        /* \"#utility.yul\":112:281   */\n      swap3\n      swap2\n      pop\n      pop\n      jump\t// out\n        /* \"#utility.yul\":287:426   */\n    tag_512:\n        /* \"#utility.yul\":376:382   */\n      dup3\n        /* \"#utility.yul\":371:374   */\n      dup2\n        /* \"#utility.yul\":366:369   */\n      dup4\n        /* \"#utility.yul\":360:383   */\n      mcopy\n        /* \"#utility.yul\":417:418   */\n      0x00\n        /* \"#utility.yul\":408:414   */\n      dup4\n        /* \"#utility.yul\":403:406   */\n      dup4\n        /* \"#utility.yul\":399:415   */\n      add\n        /* \"#utility.yul\":392:419   */\n      mstore\n        /* \"#utility.yul\":287:426   */\n      pop\n      pop\n      pop\n      jump\t// out\n        /* \"#utility.yul\":432:534   */\n    tag_513:\n        /* \"#utility.yul\":473:479   */\n      0x00\n        /* \"#utility.yul\":524:526   */\n      0x1f\n        /* \"#utility.yul\":520:527   */\n      not\n        /* \"#utility.yul\":515:517   */\n      0x1f\n        /* \"#utility.yul\":508:513   */\n      dup4\n        /* \"#utility.yul\":504:518   */\n      add\n        /* \"#utility.yul\":500:528   */\n      and\n        /* \"#utility.yul\":490:528   */\n      swap1\n      pop\n        /* \"#utility.yul\":432:534   */\n      swap2\n      swap1\n      pop\n      jump\t// out\n        /* \"#utility.yul\":540:917   */\n    tag_514:\n        /* \"#utility.yul\":628:631   */\n      0x00\n        /* \"#utility.yul\":656:695   */\n      tag_638\n        /* \"#utility.yul\":689:694   */\n      dup3\n        /* \"#utility.yul\":656:695   */\n      tag_510\n      jump\t// in\n    tag_638:\n        /* \"#utility.yul\":711:782   */\n      tag_639\n        /* \"#utility.yul\":775:781   */\n      dup2\n        /* \"#utility.yul\":770:773   */\n      dup6\n        /* \"#utility.yul\":711:782   */\n      tag_511\n      jump\t// in\n    tag_639:\n        /* \"#utility.yul\":704:782   */\n      swap4\n      pop\n        /* \"#utility.yul\":791:856   */\n      tag_640\n        /* \"#utility.yul\":849:855   */\n      dup2\n        /* \"#utility.yul\":844:847   */\n      dup6\n        /* \"#utility.yul\":837:841   */\n      0x20\n        /* \"#utility.yul\":830:835   */\n      dup7\n        /* \"#utility.yul\":826:842   */\n      add\n        /* \"#utility.yul\":791:856   */\n      tag_512\n      jump\t// in\n    tag_640:\n        /* \"#utility.yul\":881:910   */\n      tag_641\n        /* \"#utility.yul\":903:909   */\n      dup2\n        /* \"#utility.yul\":881:910   */\n      tag_513\n      jump\t// in\n    tag_641:\n        /* \"#utility.yul\":876:879   */\n      dup5\n        /* \"#utility.yul\":872:911   */\n      add\n        /* \"#utility.yul\":865:911   */\n      swap2\n      pop\n        /* \"#utility.yul\":632:917   */\n      pop\n        /* \"#utility.yul\":540:917   */\n      swap3\n      swap2\n      pop\n      pop\n      jump\t// out\n        /* \"#utility.yul\":923:1236   */\n    tag_31:\n        /* \"#utility.yul\":1036:1040   */\n      0x00\n        /* \"#utility.yul\":1074:1076   */\n      0x20\n        /* \"#utility.yul\":1063:1072   */\n      dup3\n        /* \"#utility.yul\":1059:1077   */\n      add\n        /* \"#utility.yul\":1051:1077   */\n      swap1\n      pop\n        /* \"#utility.yul\":1123:1132   */\n      dup2\n        /* \"#utility.yul\":1117:1121   */\n      dup2\n        /* \"#utility.yul\":1113:1133   */\n      sub\n        /* \"#utility.yul\":1109:1110   */\n      0x00\n        /* \"#utility.yul\":1098:1107   */\n      dup4\n        /* \"#utility.yul\":1094:1111   */\n      add\n        /* \"#utility.yul\":1087:1134   */\n      mstore\n        /* \"#utility.yul\":1151:1229   */\n      tag_643\n        /* \"#utility.yul\":1224:1228   */\n      dup2\n        /* \"#utility.yul\":1215:1221   */\n      dup5\n        /* \"#utility.yul\":1151:1229   */\n      tag_514\n      jump\t// in\n    tag_643:\n        /* \"#utility.yul\":1143:1229   */\n      swap1\n      pop\n        /* \"#utility.yul\":923:1236   */\n      swap3\n      swap2\n      pop\n      pop\n      jump\t// out\n        /* \"#utility.yul\":1242:1317   */\n    tag_515:\n        /* \"#utility.yul\":1275:1281   */\n      0x00\n        /* \"#utility.yul\":1308:1310   */\n      0x40\n        /* \"#utility.yul\":1302:1311   */\n      mload\n        /* \"#utility.yul\":1292:1311   */\n      swap1\n      pop\n        /* \"#utility.yul\":1242:1317   */\n      swap1\n      jump\t// out\n        /* \"#utility.yul\":1323:1440   */\n    tag_516:\n        /* \"#utility.yul\":1432:1433   */\n      0x00\n        /* \"#utility.yul\":1429:1430   */\n      0x00\n        /* \"#utility.yul\":1422:1434   */\n      revert\n        /* \"#utility.yul\":1446:1563   */\n    tag_517:\n        /* \"#utility.yul\":1555:1556   */\n      0x00\n        /* \"#utility.yul\":1552:1553   */\n      0x00\n        /* \"#utility.yul\":1545:1557   */\n      revert\n        /* \"#utility.yul\":1569:1695   */\n    tag_518:\n        /* \"#utility.yul\":1606:1613   */\n      0x00\n        /* \"#utility.yul\":1646:1688   */\n      0xffffffffffffffffffffffffffffffffffffffff\n        /* \"#utility.yul\":1639:1644   */\n      dup3\n        /* \"#utility.yul\":1635:1689   */\n      and\n        /* \"#utility.yul\":1624:1689   */\n      swap1\n      pop\n        /* \"#utility.yul\":1569:1695   */\n      swap2\n      swap1\n      pop\n      jump\t// out\n        /* \"#utility.yul\":1701:1797   */\n    tag_519:\n        /* \"#utility.yul\":1738:1745   */\n      0x00\n        /* \"#utility.yul\":1767:1791   */\n      tag_649\n        /* \"#utility.yul\":1785:1790   */\n      dup3\n        /* \"#utility.yul\":1767:1791   */\n      tag_518\n      jump\t// in\n    tag_649:\n        /* \"#utility.yul\":1756:1791   */\n      swap1\n      pop\n        /* \"#utility.yul\":1701:1797   */\n      swap2\n      swap1\n      pop\n      jump\t// out\n        /* \"#utility.yul\":1803:1925   */\n    tag_520:\n        /* \"#utility.yul\":1876:1900   */\n      tag_651\n        /* \"#utility.yul\":1894:1899   */\n      dup2\n        /* \"#utility.yul\":1876:1900   */\n      tag_519\n      jump\t// in\n    tag_651:\n        /* \"#utility.yul\":1869:1874   */\n      dup2\n        /* \"#utility.yul\":1866:1901   */\n      eq\n        /* \"#utility.yul\":1856:1919   */\n      tag_652\n      jumpi\n        /* \"#utility.yul\":1915:1916   */\n      0x00\n        /* \"#utility.yul\":1912:1913   */\n      0x00\n        /* \"#utility.yul\":1905:1917   */\n      revert\n        /* \"#utility.yul\":1856:1919   */\n    tag_652:\n        /* \"#utility.yul\":1803:1925   */\n      pop\n      jump\t// out\n        /* \"#utility.yul\":1931:2070   */\n    tag_521:\n        /* \"#utility.yul\":1977:1982   */\n      0x00\n        /* \"#utility.yul\":2015:2021   */\n      dup2\n        /* \"#utility.yul\":2002:2022   */\n      calldataload\n        /* \"#utility.yul\":1993:2022   */\n      swap1\n      pop\n        /* \"#utility.yul\":2031:2064   */\n      tag_654\n        /* \"#utility.yul\":2058:2063   */\n      dup2\n        /* \"#utility.yul\":2031:2064   */\n      tag_520\n      jump\t// in\n    tag_654:\n        /* \"#utility.yul\":1931:2070   */\n      swap3\n      swap2\n      pop\n      pop\n      jump\t// out\n        /* \"#utility.yul\":2076:2405   */\n    tag_34:\n        /* \"#utility.yul\":2135:2141   */\n      0x00\n        /* \"#utility.yul\":2184:2186   */\n      0x20\n        /* \"#utility.yul\":2172:2181   */\n      dup3\n        /* \"#utility.yul\":2163:2170   */\n      dup5\n        /* \"#utility.yul\":2159:2182   */\n      sub\n        /* \"#utility.yul\":2155:2187   */\n      slt\n        /* \"#utility.yul\":2152:2271   */\n      iszero\n      tag_656\n      jumpi\n        /* \"#utility.yul\":2190:2269   */\n      tag_657\n      tag_516\n      jump\t// in\n    tag_657:\n        /* \"#utility.yul\":2152:2271   */\n    tag_656:\n        /* \"#utility.yul\":2310:2311   */\n      0x00\n        /* \"#utility.yul\":2335:2388   */\n      tag_658\n        /* \"#utility.yul\":2380:2387   */\n      dup5\n        /* \"#utility.yul\":2371:2377   */\n      dup3\n        /* \"#utility.yul\":2360:2369   */\n      dup6\n        /* \"#utility.yul\":2356:2378   */\n      add\n        /* \"#utility.yul\":2335:2388   */\n      tag_521\n      jump\t// in\n    tag_658:\n        /* \"#utility.yul\":2325:2388   */\n      swap2\n      pop\n        /* \"#utility.yul\":2281:2398   */\n      pop\n        /* \"#utility.yul\":2076:2405   */\n      swap3\n      swap2\n      pop\n      pop\n      jump\t// out\n        /* \"#utility.yul\":2411:2497   */\n    tag_522:\n        /* \"#utility.yul\":2446:2453   */\n      0x00\n        /* \"#utility.yul\":2486:2490   */\n      0xff\n        /* \"#utility.yul\":2479:2484   */\n      dup3\n        /* \"#utility.yul\":2475:2491   */\n      and\n        /* \"#utility.yul\":2464:2491   */\n      swap1\n      pop\n        /* \"#utility.yul\":2411:2497   */\n      swap2\n      swap1\n      pop\n      jump\t// out\n        /* \"#utility.yul\":2503:2615   */\n    tag_523:\n        /* \"#utility.yul\":2586:2608   */\n      tag_661\n        /* \"#utility.yul\":2602:2607   */\n      dup2\n        /* \"#utility.yul\":2586:2608   */\n      tag_522\n      jump\t// in\n    tag_661:\n        /* \"#utility.yul\":2581:2584   */\n      dup3\n        /* \"#utility.yul\":2574:2609   */\n      mstore\n        /* \"#utility.yul\":2503:2615   */\n      pop\n      pop\n      jump\t// out\n        /* \"#utility.yul\":2621:2711   */\n    tag_524:\n        /* \"#utility.yul\":2655:2662   */\n      0x00\n        /* \"#utility.yul\":2698:2703   */\n      dup2\n        /* \"#utility.yul\":2691:2704   */\n      iszero\n        /* \"#utility.yul\":2684:2705   */\n      iszero\n        /* \"#utility.yul\":2673:2705   */\n      swap1\n      pop\n        /* \"#utility.yul\":2621:2711   */\n      swap2\n      swap1\n      pop\n      jump\t// out\n        /* \"#utility.yul\":2717:2826   */\n    tag_525:\n        /* \"#utility.yul\":2798:2819   */\n      tag_664\n        /* \"#utility.yul\":2813:2818   */\n      dup2\n        /* \"#utility.yul\":2798:2819   */\n      tag_524\n      jump\t// in\n    tag_664:\n        /* \"#utility.yul\":2793:2796   */\n      dup3\n        /* \"#utility.yul\":2786:2820   */\n      mstore\n        /* \"#utility.yul\":2717:2826   */\n      pop\n      pop\n      jump\t// out\n        /* \"#utility.yul\":2832:3547   */\n    tag_40:\n        /* \"#utility.yul\":3039:3043   */\n      0x00\n        /* \"#utility.yul\":3077:3080   */\n      0x80\n        /* \"#utility.yul\":3066:3075   */\n      dup3\n        /* \"#utility.yul\":3062:3081   */\n      add\n        /* \"#utility.yul\":3054:3081   */\n      swap1\n      pop\n        /* \"#utility.yul\":3127:3136   */\n      dup2\n        /* \"#utility.yul\":3121:3125   */\n      dup2\n        /* \"#utility.yul\":3117:3137   */\n      sub\n        /* \"#utility.yul\":3113:3114   */\n      0x00\n        /* \"#utility.yul\":3102:3111   */\n      dup4\n        /* \"#utility.yul\":3098:3115   */\n      add\n        /* \"#utility.yul\":3091:3138   */\n      mstore\n        /* \"#utility.yul\":3155:3233   */\n      tag_666\n        /* \"#utility.yul\":3228:3232   */\n      dup2\n        /* \"#utility.yul\":3219:3225   */\n      dup8\n        /* \"#utility.yul\":3155:3233   */\n      tag_514\n      jump\t// in\n    tag_666:\n        /* \"#utility.yul\":3147:3233   */\n      swap1\n      pop\n        /* \"#utility.yul\":3280:3289   */\n      dup2\n        /* \"#utility.yul\":3274:3278   */\n      dup2\n        /* \"#utility.yul\":3270:3290   */\n      sub\n        /* \"#utility.yul\":3265:3267   */\n      0x20\n        /* \"#utility.yul\":3254:3263   */\n      dup4\n        /* \"#utility.yul\":3250:3268   */\n      add\n        /* \"#utility.yul\":3243:3291   */\n      mstore\n        /* \"#utility.yul\":3308:3386   */\n      tag_667\n        /* \"#utility.yul\":3381:3385   */\n      dup2\n        /* \"#utility.yul\":3372:3378   */\n      dup7\n        /* \"#utility.yul\":3308:3386   */\n      tag_514\n      jump\t// in\n    tag_667:\n        /* \"#utility.yul\":3300:3386   */\n      swap1\n      pop\n        /* \"#utility.yul\":3396:3464   */\n      tag_668\n        /* \"#utility.yul\":3460:3462   */\n      0x40\n        /* \"#utility.yul\":3449:3458   */\n      dup4\n        /* \"#utility.yul\":3445:3463   */\n      add\n        /* \"#utility.yul\":3436:3442   */\n      dup6\n        /* \"#utility.yul\":3396:3464   */\n      tag_523\n      jump\t// in\n    tag_668:\n        /* \"#utility.yul\":3474:3540   */\n      tag_669\n        /* \"#utility.yul\":3536:3538   */\n      0x60\n        /* \"#utility.yul\":3525:3534   */\n      dup4\n        /* \"#utility.yul\":3521:3539   */\n      add\n        /* \"#utility.yul\":3512:3518   */\n      dup5\n        /* \"#utility.yul\":3474:3540   */\n      tag_525\n      jump\t// in\n    tag_669:\n        /* \"#utility.yul\":2832:3547   */\n      swap6\n      swap5\n      pop\n      pop\n      pop\n      pop\n      pop\n      jump\t// out\n        /* \"#utility.yul\":3553:3667   */\n    tag_526:\n        /* \"#utility.yul\":3620:3626   */\n      0x00\n        /* \"#utility.yul\":3654:3659   */\n      dup2\n        /* \"#utility.yul\":3648:3660   */\n      mload\n        /* \"#utility.yul\":3638:3660   */\n      swap1\n      pop\n        /* \"#utility.yul\":3553:3667   */\n      swap2\n      swap1\n      pop\n      jump\t// out\n        /* \"#utility.yul\":3673:3857   */\n    tag_527:\n        /* \"#utility.yul\":3772:3783   */\n      0x00\n        /* \"#utility.yul\":3806:3812   */\n      dup3\n        /* \"#utility.yul\":3801:3804   */\n      dup3\n        /* \"#utility.yul\":3794:3813   */\n      mstore\n        /* \"#utility.yul\":3846:3850   */\n      0x20\n        /* \"#utility.yul\":3841:3844   */\n      dup3\n        /* \"#utility.yul\":3837:3851   */\n      add\n        /* \"#utility.yul\":3822:3851   */\n      swap1\n      pop\n        /* \"#utility.yul\":3673:3857   */\n      swap3\n      swap2\n      pop\n      pop\n      jump\t// out\n        /* \"#utility.yul\":3863:3995   */\n    tag_528:\n        /* \"#utility.yul\":3930:3934   */\n      0x00\n        /* \"#utility.yul\":3953:3956   */\n      dup2\n        /* \"#utility.yul\":3945:3956   */\n      swap1\n      pop\n        /* \"#utility.yul\":3983:3987   */\n      0x20\n        /* \"#utility.yul\":3978:3981   */\n      dup3\n        /* \"#utility.yul\":3974:3988   */\n      add\n        /* \"#utility.yul\":3966:3988   */\n      swap1\n      pop\n        /* \"#utility.yul\":3863:3995   */\n      swap2\n      swap1\n      pop\n      jump\t// out\n        /* \"#utility.yul\":4001:4109   */\n    tag_529:\n        /* \"#utility.yul\":4078:4102   */\n      tag_674\n        /* \"#utility.yul\":4096:4101   */\n      dup2\n        /* \"#utility.yul\":4078:4102   */\n      tag_519\n      jump\t// in\n    tag_674:\n        /* \"#utility.yul\":4073:4076   */\n      dup3\n        /* \"#utility.yul\":4066:4103   */\n      mstore\n        /* \"#utility.yul\":4001:4109   */\n      pop\n      pop\n      jump\t// out\n        /* \"#utility.yul\":4115:4294   */\n    tag_530:\n        /* \"#utility.yul\":4184:4194   */\n      0x00\n        /* \"#utility.yul\":4205:4251   */\n      tag_676\n        /* \"#utility.yul\":4247:4250   */\n      dup4\n        /* \"#utility.yul\":4239:4245   */\n      dup4\n        /* \"#utility.yul\":4205:4251   */\n      tag_529\n      jump\t// in\n    tag_676:\n        /* \"#utility.yul\":4283:4287   */\n      0x20\n        /* \"#utility.yul\":4278:4281   */\n      dup4\n        /* \"#utility.yul\":4274:4288   */\n      add\n        /* \"#utility.yul\":4260:4288   */\n      swap1\n      pop\n        /* \"#utility.yul\":4115:4294   */\n      swap3\n      swap2\n      pop\n      pop\n      jump\t// out\n        /* \"#utility.yul\":4300:4413   */\n    tag_531:\n        /* \"#utility.yul\":4370:4374   */\n      0x00\n        /* \"#utility.yul\":4402:4406   */\n      0x20\n        /* \"#utility.yul\":4397:4400   */\n      dup3\n        /* \"#utility.yul\":4393:4407   */\n      add\n        /* \"#utility.yul\":4385:4407   */\n      swap1\n      pop\n        /* \"#utility.yul\":4300:4413   */\n      swap2\n      swap1\n      pop\n      jump\t// out\n        /* \"#utility.yul\":4449:5181   */\n    tag_532:\n        /* \"#utility.yul\":4568:4571   */\n      0x00\n        /* \"#utility.yul\":4597:4651   */\n      tag_679\n        /* \"#utility.yul\":4645:4650   */\n      dup3\n        /* \"#utility.yul\":4597:4651   */\n      tag_526\n      jump\t// in\n    tag_679:\n        /* \"#utility.yul\":4667:4753   */\n      tag_680\n        /* \"#utility.yul\":4746:4752   */\n      dup2\n        /* \"#utility.yul\":4741:4744   */\n      dup6\n        /* \"#utility.yul\":4667:4753   */\n      tag_527\n      jump\t// in\n    tag_680:\n        /* \"#utility.yul\":4660:4753   */\n      swap4\n      pop\n        /* \"#utility.yul\":4777:4833   */\n      tag_681\n        /* \"#utility.yul\":4827:4832   */\n      dup4\n        /* \"#utility.yul\":4777:4833   */\n      tag_528\n      jump\t// in\n    tag_681:\n        /* \"#utility.yul\":4856:4863   */\n      dup1\n        /* \"#utility.yul\":4887:4888   */\n      0x00\n        /* \"#utility.yul\":4872:5156   */\n    tag_682:\n        /* \"#utility.yul\":4897:4903   */\n      dup4\n        /* \"#utility.yul\":4894:4895   */\n      dup2\n        /* \"#utility.yul\":4891:4904   */\n      lt\n        /* \"#utility.yul\":4872:5156   */\n      iszero\n      tag_684\n      jumpi\n        /* \"#utility.yul\":4973:4979   */\n      dup2\n        /* \"#utility.yul\":4967:4980   */\n      mload\n        /* \"#utility.yul\":5000:5063   */\n      tag_685\n        /* \"#utility.yul\":5059:5062   */\n      dup9\n        /* \"#utility.yul\":5044:5057   */\n      dup3\n        /* \"#utility.yul\":5000:5063   */\n      tag_530\n      jump\t// in\n    tag_685:\n        /* \"#utility.yul\":4993:5063   */\n      swap8\n      pop\n        /* \"#utility.yul\":5086:5146   */\n      tag_686\n        /* \"#utility.yul\":5139:5145   */\n      dup4\n        /* \"#utility.yul\":5086:5146   */\n      tag_531\n      jump\t// in\n    tag_686:\n        /* \"#utility.yul\":5076:5146   */\n      swap3\n      pop\n        /* \"#utility.yul\":4932:5156   */\n      pop\n        /* \"#utility.yul\":4919:4920   */\n      0x01\n        /* \"#utility.yul\":4916:4917   */\n      dup2\n        /* \"#utility.yul\":4912:4921   */\n      add\n        /* \"#utility.yul\":4907:4921   */\n      swap1\n      pop\n        /* \"#utility.yul\":4872:5156   */\n      jump(tag_682)\n    tag_684:\n        /* \"#utility.yul\":4876:4890   */\n      pop\n        /* \"#utility.yul\":5172:5175   */\n      dup6\n        /* \"#utility.yul\":5165:5175   */\n      swap4\n      pop\n        /* \"#utility.yul\":4573:5181   */\n      pop\n      pop\n      pop\n        /* \"#utility.yul\":4449:5181   */\n      swap3\n      swap2\n      pop\n      pop\n      jump\t// out\n        /* \"#utility.yul\":5187:5301   */\n    tag_533:\n        /* \"#utility.yul\":5254:5260   */\n      0x00\n        /* \"#utility.yul\":5288:5293   */\n      dup2\n        /* \"#utility.yul\":5282:5294   */\n      mload\n        /* \"#utility.yul\":5272:5294   */\n      swap1\n      pop\n        /* \"#utility.yul\":5187:5301   */\n      swap2\n      swap1\n      pop\n      jump\t// out\n        /* \"#utility.yul\":5307:5491   */\n    tag_534:\n        /* \"#utility.yul\":5406:5417   */\n      0x00\n        /* \"#utility.yul\":5440:5446   */\n      dup3\n        /* \"#utility.yul\":5435:5438   */\n      dup3\n        /* \"#utility.yul\":5428:5447   */\n      mstore\n        /* \"#utility.yul\":5480:5484   */\n      0x20\n        /* \"#utility.yul\":5475:5478   */\n      dup3\n        /* \"#utility.yul\":5471:5485   */\n      add\n        /* \"#utility.yul\":5456:5485   */\n      swap1\n      pop\n        /* \"#utility.yul\":5307:5491   */\n      swap3\n      swap2\n      pop\n      pop\n      jump\t// out\n        /* \"#utility.yul\":5497:5629   */\n    tag_535:\n        /* \"#utility.yul\":5564:5568   */\n      0x00\n        /* \"#utility.yul\":5587:5590   */\n      dup2\n        /* \"#utility.yul\":5579:5590   */\n      swap1\n      pop\n        /* \"#utility.yul\":5617:5621   */\n      0x20\n        /* \"#utility.yul\":5612:5615   */\n      dup3\n        /* \"#utility.yul\":5608:5622   */\n      add\n        /* \"#utility.yul\":5600:5622   */\n      swap1\n      pop\n        /* \"#utility.yul\":5497:5629   */\n      swap2\n      swap1\n      pop\n      jump\t// out\n        /* \"#utility.yul\":5635:5712   */\n    tag_536:\n        /* \"#utility.yul\":5672:5679   */\n      0x00\n        /* \"#utility.yul\":5701:5706   */\n      dup2\n        /* \"#utility.yul\":5690:5706   */\n      swap1\n      pop\n        /* \"#utility.yul\":5635:5712   */\n      swap2\n      swap1\n      pop\n      jump\t// out\n        /* \"#utility.yul\":5718:5826   */\n    tag_537:\n        /* \"#utility.yul\":5795:5819   */\n      tag_692\n        /* \"#utility.yul\":5813:5818   */\n      dup2\n        /* \"#utility.yul\":5795:5819   */\n      tag_536\n      jump\t// in\n    tag_692:\n        /* \"#utility.yul\":5790:5793   */\n      dup3\n        /* \"#utility.yul\":5783:5820   */\n      mstore\n        /* \"#utility.yul\":5718:5826   */\n      pop\n      pop\n      jump\t// out\n        /* \"#utility.yul\":5832:6011   */\n    tag_538:\n        /* \"#utility.yul\":5901:5911   */\n      0x00\n        /* \"#utility.yul\":5922:5968   */\n      tag_694\n        /* \"#utility.yul\":5964:5967   */\n      dup4\n        /* \"#utility.yul\":5956:5962   */\n      dup4\n        /* \"#utility.yul\":5922:5968   */\n      tag_537\n      jump\t// in\n    tag_694:\n        /* \"#utility.yul\":6000:6004   */\n      0x20\n        /* \"#utility.yul\":5995:5998   */\n      dup4\n        /* \"#utility.yul\":5991:6005   */\n      add\n        /* \"#utility.yul\":5977:6005   */\n      swap1\n      pop\n        /* \"#utility.yul\":5832:6011   */\n      swap3\n      swap2\n      pop\n      pop\n      jump\t// out\n        /* \"#utility.yul\":6017:6130   */\n    tag_539:\n        /* \"#utility.yul\":6087:6091   */\n      0x00\n        /* \"#utility.yul\":6119:6123   */\n      0x20\n        /* \"#utility.yul\":6114:6117   */\n      dup3\n        /* \"#utility.yul\":6110:6124   */\n      add\n        /* \"#utility.yul\":6102:6124   */\n      swap1\n      pop\n        /* \"#utility.yul\":6017:6130   */\n      swap2\n      swap1\n      pop\n      jump\t// out\n        /* \"#utility.yul\":6166:6898   */\n    tag_540:\n        /* \"#utility.yul\":6285:6288   */\n      0x00\n        /* \"#utility.yul\":6314:6368   */\n      tag_697\n        /* \"#utility.yul\":6362:6367   */\n      dup3\n        /* \"#utility.yul\":6314:6368   */\n      tag_533\n      jump\t// in\n    tag_697:\n        /* \"#utility.yul\":6384:6470   */\n      tag_698\n        /* \"#utility.yul\":6463:6469   */\n      dup2\n        /* \"#utility.yul\":6458:6461   */\n      dup6\n        /* \"#utility.yul\":6384:6470   */\n      tag_534\n      jump\t// in\n    tag_698:\n        /* \"#utility.yul\":6377:6470   */\n      swap4\n      pop\n        /* \"#utility.yul\":6494:6550   */\n      tag_699\n        /* \"#utility.yul\":6544:6549   */\n      dup4\n        /* \"#utility.yul\":6494:6550   */\n      tag_535\n      jump\t// in\n    tag_699:\n        /* \"#utility.yul\":6573:6580   */\n      dup1\n        /* \"#utility.yul\":6604:6605   */\n      0x00\n        /* \"#utility.yul\":6589:6873   */\n    tag_700:\n        /* \"#utility.yul\":6614:6620   */\n      dup4\n        /* \"#utility.yul\":6611:6612   */\n      dup2\n        /* \"#utility.yul\":6608:6621   */\n      lt\n        /* \"#utility.yul\":6589:6873   */\n      iszero\n      tag_702\n      jumpi\n        /* \"#utility.yul\":6690:6696   */\n      dup2\n        /* \"#utility.yul\":6684:6697   */\n      mload\n        /* \"#utility.yul\":6717:6780   */\n      tag_703\n        /* \"#utility.yul\":6776:6779   */\n      dup9\n        /* \"#utility.yul\":6761:6774   */\n      dup3\n        /* \"#utility.yul\":6717:6780   */\n      tag_538\n      jump\t// in\n    tag_703:\n        /* \"#utility.yul\":6710:6780   */\n      swap8\n      pop\n        /* \"#utility.yul\":6803:6863   */\n      tag_704\n        /* \"#utility.yul\":6856:6862   */\n      dup4\n        /* \"#utility.yul\":6803:6863   */\n      tag_539\n      jump\t// in\n    tag_704:\n        /* \"#utility.yul\":6793:6863   */\n      swap3\n      pop\n        /* \"#utility.yul\":6649:6873   */\n      pop\n        /* \"#utility.yul\":6636:6637   */\n      0x01\n        /* \"#utility.yul\":6633:6634   */\n      dup2\n        /* \"#utility.yul\":6629:6638   */\n      add\n        /* \"#utility.yul\":6624:6638   */\n      swap1\n      pop\n        /* \"#utility.yul\":6589:6873   */\n      jump(tag_700)\n    tag_702:\n        /* \"#utility.yul\":6593:6607   */\n      pop\n        /* \"#utility.yul\":6889:6892   */\n      dup6\n        /* \"#utility.yul\":6882:6892   */\n      swap4\n      pop\n        /* \"#utility.yul\":6290:6898   */\n      pop\n      pop\n      pop\n        /* \"#utility.yul\":6166:6898   */\n      swap3\n      swap2\n      pop\n      pop\n      jump\t// out\n        /* \"#utility.yul\":6904:7538   */\n    tag_45:\n        /* \"#utility.yul\":7125:7129   */\n      0x00\n        /* \"#utility.yul\":7163:7165   */\n      0x40\n        /* \"#utility.yul\":7152:7161   */\n      dup3\n        /* \"#utility.yul\":7148:7166   */\n      add\n        /* \"#utility.yul\":7140:7166   */\n      swap1\n      pop\n        /* \"#utility.yul\":7212:7221   */\n      dup2\n        /* \"#utility.yul\":7206:7210   */\n      dup2\n        /* \"#utility.yul\":7202:7222   */\n      sub\n        /* \"#utility.yul\":7198:7199   */\n      0x00\n        /* \"#utility.yul\":7187:7196   */\n      dup4\n        /* \"#utility.yul\":7183:7200   */\n      add\n        /* \"#utility.yul\":7176:7223   */\n      mstore\n        /* \"#utility.yul\":7240:7348   */\n      tag_706\n        /* \"#utility.yul\":7343:7347   */\n      dup2\n        /* \"#utility.yul\":7334:7340   */\n      dup6\n        /* \"#utility.yul\":7240:7348   */\n      tag_532\n      jump\t// in\n    tag_706:\n        /* \"#utility.yul\":7232:7348   */\n      swap1\n      pop\n        /* \"#utility.yul\":7395:7404   */\n      dup2\n        /* \"#utility.yul\":7389:7393   */\n      dup2\n        /* \"#utility.yul\":7385:7405   */\n      sub\n        /* \"#utility.yul\":7380:7382   */\n      0x20\n        /* \"#utility.yul\":7369:7378   */\n      dup4\n        /* \"#utility.yul\":7365:7383   */\n      add\n        /* \"#utility.yul\":7358:7406   */\n      mstore\n        /* \"#utility.yul\":7423:7531   */\n      tag_707\n        /* \"#utility.yul\":7526:7530   */\n      dup2\n        /* \"#utility.yul\":7517:7523   */\n      dup5\n        /* \"#utility.yul\":7423:7531   */\n      tag_540\n      jump\t// in\n    tag_707:\n        /* \"#utility.yul\":7415:7531   */\n      swap1\n      pop\n        /* \"#utility.yul\":6904:7538   */\n      swap4\n      swap3\n      pop\n      pop\n      pop\n      jump\t// out\n        /* \"#utility.yul\":7544:7661   */\n    tag_541:\n        /* \"#utility.yul\":7653:7654   */\n      0x00\n        /* \"#utility.yul\":7650:7651   */\n      0x00\n        /* \"#utility.yul\":7643:7655   */\n      revert\n        /* \"#utility.yul\":7667:7784   */\n    tag_542:\n        /* \"#utility.yul\":7776:7777   */\n      0x00\n        /* \"#utility.yul\":7773:7774   */\n      0x00\n        /* \"#utility.yul\":7766:7778   */\n      revert\n        /* \"#utility.yul\":7790:7970   */\n    tag_182:\n        /* \"#utility.yul\":7838:7915   */\n      0x4e487b7100000000000000000000000000000000000000000000000000000000\n        /* \"#utility.yul\":7835:7836   */\n      0x00\n        /* \"#utility.yul\":7828:7916   */\n      mstore\n        /* \"#utility.yul\":7935:7939   */\n      0x41\n        /* \"#utility.yul\":7932:7933   */\n      0x04\n        /* \"#utility.yul\":7925:7940   */\n      mstore\n        /* \"#utility.yul\":7959:7963   */\n      0x24\n        /* \"#utility.yul\":7956:7957   */\n      0x00\n        /* \"#utility.yul\":7949:7964   */\n      revert\n        /* \"#utility.yul\":7976:8257   */\n    tag_543:\n        /* \"#utility.yul\":8059:8086   */\n      tag_712\n        /* \"#utility.yul\":8081:8085   */\n      dup3\n        /* \"#utility.yul\":8059:8086   */\n      tag_513\n      jump\t// in\n    tag_712:\n        /* \"#utility.yul\":8051:8057   */\n      dup2\n        /* \"#utility.yul\":8047:8087   */\n      add\n        /* \"#utility.yul\":8189:8195   */\n      dup2\n        /* \"#utility.yul\":8177:8187   */\n      dup2\n        /* \"#utility.yul\":8174:8196   */\n      lt\n        /* \"#utility.yul\":8153:8171   */\n      0xffffffffffffffff\n        /* \"#utility.yul\":8141:8151   */\n      dup3\n        /* \"#utility.yul\":8138:8172   */\n      gt\n        /* \"#utility.yul\":8135:8197   */\n      or\n        /* \"#utility.yul\":8132:8220   */\n      iszero\n      tag_713\n      jumpi\n        /* \"#utility.yul\":8200:8218   */\n      tag_714\n      tag_182\n      jump\t// in\n    tag_714:\n        /* \"#utility.yul\":8132:8220   */\n    tag_713:\n        /* \"#utility.yul\":8240:8250   */\n      dup1\n        /* \"#utility.yul\":8236:8238   */\n      0x40\n        /* \"#utility.yul\":8229:8251   */\n      mstore\n        /* \"#utility.yul\":8019:8257   */\n      pop\n        /* \"#utility.yul\":7976:8257   */\n      pop\n      pop\n      jump\t// out\n        /* \"#utility.yul\":8263:8392   */\n    tag_544:\n        /* \"#utility.yul\":8297:8303   */\n      0x00\n        /* \"#utility.yul\":8324:8344   */\n      tag_716\n      tag_515\n      jump\t// in\n    tag_716:\n        /* \"#utility.yul\":8314:8344   */\n      swap1\n      pop\n        /* \"#utility.yul\":8353:8386   */\n      tag_717\n        /* \"#utility.yul\":8381:8385   */\n      dup3\n        /* \"#utility.yul\":8373:8379   */\n      dup3\n        /* \"#utility.yul\":8353:8386   */\n      tag_543\n      jump\t// in\n    tag_717:\n        /* \"#utility.yul\":8263:8392   */\n      swap2\n      swap1\n      pop\n      jump\t// out\n        /* \"#utility.yul\":8398:8706   */\n    tag_545:\n        /* \"#utility.yul\":8460:8464   */\n      0x00\n        /* \"#utility.yul\":8550:8568   */\n      0xffffffffffffffff\n        /* \"#utility.yul\":8542:8548   */\n      dup3\n        /* \"#utility.yul\":8539:8569   */\n      gt\n        /* \"#utility.yul\":8536:8592   */\n      iszero\n      tag_719\n      jumpi\n        /* \"#utility.yul\":8572:8590   */\n      tag_720\n      tag_182\n      jump\t// in\n    tag_720:\n        /* \"#utility.yul\":8536:8592   */\n    tag_719:\n        /* \"#utility.yul\":8610:8639   */\n      tag_721\n        /* \"#utility.yul\":8632:8638   */\n      dup3\n        /* \"#utility.yul\":8610:8639   */\n      tag_513\n      jump\t// in\n    tag_721:\n        /* \"#utility.yul\":8602:8639   */\n      swap1\n      pop\n        /* \"#utility.yul\":8694:8698   */\n      0x20\n        /* \"#utility.yul\":8688:8692   */\n      dup2\n        /* \"#utility.yul\":8684:8699   */\n      add\n        /* \"#utility.yul\":8676:8699   */\n      swap1\n      pop\n        /* \"#utility.yul\":8398:8706   */\n      swap2\n      swap1\n      pop\n      jump\t// out\n        /* \"#utility.yul\":8712:8860   */\n    tag_546:\n        /* \"#utility.yul\":8810:8816   */\n      dup3\n        /* \"#utility.yul\":8805:8808   */\n      dup2\n        /* \"#utility.yul\":8800:8803   */\n      dup4\n        /* \"#utility.yul\":8787:8817   */\n      calldatacopy\n        /* \"#utility.yul\":8851:8852   */\n      0x00\n        /* \"#utility.yul\":8842:8848   */\n      dup4\n        /* \"#utility.yul\":8837:8840   */\n      dup4\n        /* \"#utility.yul\":8833:8849   */\n      add\n        /* \"#utility.yul\":8826:8853   */\n      mstore\n        /* \"#utility.yul\":8712:8860   */\n      pop\n      pop\n      pop\n      jump\t// out\n        /* \"#utility.yul\":8866:9291   */\n    tag_547:\n        /* \"#utility.yul\":8944:8949   */\n      0x00\n        /* \"#utility.yul\":8969:9035   */\n      tag_724\n        /* \"#utility.yul\":8985:9034   */\n      tag_725\n        /* \"#utility.yul\":9027:9033   */\n      dup5\n        /* \"#utility.yul\":8985:9034   */\n      tag_545\n      jump\t// in\n    tag_725:\n        /* \"#utility.yul\":8969:9035   */\n      tag_544\n      jump\t// in\n    tag_724:\n        /* \"#utility.yul\":8960:9035   */\n      swap1\n      pop\n        /* \"#utility.yul\":9058:9064   */\n      dup3\n        /* \"#utility.yul\":9051:9056   */\n      dup2\n        /* \"#utility.yul\":9044:9065   */\n      mstore\n        /* \"#utility.yul\":9096:9100   */\n      0x20\n        /* \"#utility.yul\":9089:9094   */\n      dup2\n        /* \"#utility.yul\":9085:9101   */\n      add\n        /* \"#utility.yul\":9134:9137   */\n      dup5\n        /* \"#utility.yul\":9125:9131   */\n      dup5\n        /* \"#utility.yul\":9120:9123   */\n      dup5\n        /* \"#utility.yul\":9116:9132   */\n      add\n        /* \"#utility.yul\":9113:9138   */\n      gt\n        /* \"#utility.yul\":9110:9222   */\n      iszero\n      tag_726\n      jumpi\n        /* \"#utility.yul\":9141:9220   */\n      tag_727\n      tag_542\n      jump\t// in\n    tag_727:\n        /* \"#utility.yul\":9110:9222   */\n    tag_726:\n        /* \"#utility.yul\":9231:9285   */\n      tag_728\n        /* \"#utility.yul\":9278:9284   */\n      dup5\n        /* \"#utility.yul\":9273:9276   */\n      dup3\n        /* \"#utility.yul\":9268:9271   */\n      dup6\n        /* \"#utility.yul\":9231:9285   */\n      tag_546\n      jump\t// in\n    tag_728:\n        /* \"#utility.yul\":8950:9291   */\n      pop\n        /* \"#utility.yul\":8866:9291   */\n      swap4\n      swap3\n      pop\n      pop\n      pop\n      jump\t// out\n        /* \"#utility.yul\":9311:9651   */\n    tag_548:\n        /* \"#utility.yul\":9367:9372   */\n      0x00\n        /* \"#utility.yul\":9416:9419   */\n      dup3\n        /* \"#utility.yul\":9409:9413   */\n      0x1f\n        /* \"#utility.yul\":9401:9407   */\n      dup4\n        /* \"#utility.yul\":9397:9414   */\n      add\n        /* \"#utility.yul\":9393:9420   */\n      slt\n        /* \"#utility.yul\":9383:9505   */\n      tag_730\n      jumpi\n        /* \"#utility.yul\":9424:9503   */\n      tag_731\n      tag_541\n      jump\t// in\n    tag_731:\n        /* \"#utility.yul\":9383:9505   */\n    tag_730:\n        /* \"#utility.yul\":9541:9547   */\n      dup2\n        /* \"#utility.yul\":9528:9548   */\n      calldataload\n        /* \"#utility.yul\":9566:9645   */\n      tag_732\n        /* \"#utility.yul\":9641:9644   */\n      dup5\n        /* \"#utility.yul\":9633:9639   */\n      dup3\n        /* \"#utility.yul\":9626:9630   */\n      0x20\n        /* \"#utility.yul\":9618:9624   */\n      dup7\n        /* \"#utility.yul\":9614:9631   */\n      add\n        /* \"#utility.yul\":9566:9645   */\n      tag_547\n      jump\t// in\n    tag_732:\n        /* \"#utility.yul\":9557:9645   */\n      swap2\n      pop\n        /* \"#utility.yul\":9373:9651   */\n      pop\n        /* \"#utility.yul\":9311:9651   */\n      swap3\n      swap2\n      pop\n      pop\n      jump\t// out\n        /* \"#utility.yul\":9657:9775   */\n    tag_549:\n        /* \"#utility.yul\":9728:9750   */\n      tag_734\n        /* \"#utility.yul\":9744:9749   */\n      dup2\n        /* \"#utility.yul\":9728:9750   */\n      tag_522\n      jump\t// in\n    tag_734:\n        /* \"#utility.yul\":9721:9726   */\n      dup2\n        /* \"#utility.yul\":9718:9751   */\n      eq\n        /* \"#utility.yul\":9708:9769   */\n      tag_735\n      jumpi\n        /* \"#utility.yul\":9765:9766   */\n      0x00\n        /* \"#utility.yul\":9762:9763   */\n      0x00\n        /* \"#utility.yul\":9755:9767   */\n      revert\n        /* \"#utility.yul\":9708:9769   */\n    tag_735:\n        /* \"#utility.yul\":9657:9775   */\n      pop\n      jump\t// out\n        /* \"#utility.yul\":9781:9916   */\n    tag_550:\n        /* \"#utility.yul\":9825:9830   */\n      0x00\n        /* \"#utility.yul\":9863:9869   */\n      dup2\n        /* \"#utility.yul\":9850:9870   */\n      calldataload\n        /* \"#utility.yul\":9841:9870   */\n      swap1\n      pop\n        /* \"#utility.yul\":9879:9910   */\n      tag_737\n        /* \"#utility.yul\":9904:9909   */\n      dup2\n        /* \"#utility.yul\":9879:9910   */\n      tag_549\n      jump\t// in\n    tag_737:\n        /* \"#utility.yul\":9781:9916   */\n      swap3\n      swap2\n      pop\n      pop\n      jump\t// out\n        /* \"#utility.yul\":9922:10038   */\n    tag_551:\n        /* \"#utility.yul\":9992:10013   */\n      tag_739\n        /* \"#utility.yul\":10007:10012   */\n      dup2\n        /* \"#utility.yul\":9992:10013   */\n      tag_524\n      jump\t// in\n    tag_739:\n        /* \"#utility.yul\":9985:9990   */\n      dup2\n        /* \"#utility.yul\":9982:10014   */\n      eq\n        /* \"#utility.yul\":9972:10032   */\n      tag_740\n      jumpi\n        /* \"#utility.yul\":10028:10029   */\n      0x00\n        /* \"#utility.yul\":10025:10026   */\n      0x00\n        /* \"#utility.yul\":10018:10030   */\n      revert\n        /* \"#utility.yul\":9972:10032   */\n    tag_740:\n        /* \"#utility.yul\":9922:10038   */\n      pop\n      jump\t// out\n        /* \"#utility.yul\":10044:10177   */\n    tag_552:\n        /* \"#utility.yul\":10087:10092   */\n      0x00\n        /* \"#utility.yul\":10125:10131   */\n      dup2\n        /* \"#utility.yul\":10112:10132   */\n      calldataload\n        /* \"#utility.yul\":10103:10132   */\n      swap1\n      pop\n        /* \"#utility.yul\":10141:10171   */\n      tag_742\n        /* \"#utility.yul\":10165:10170   */\n      dup2\n        /* \"#utility.yul\":10141:10171   */\n      tag_551\n      jump\t// in\n    tag_742:\n        /* \"#utility.yul\":10044:10177   */\n      swap3\n      swap2\n      pop\n      pop\n      jump\t// out\n        /* \"#utility.yul\":10183:11444   */\n    tag_48:\n        /* \"#utility.yul\":10293:10299   */\n      0x00\n        /* \"#utility.yul\":10301:10307   */\n      0x00\n        /* \"#utility.yul\":10309:10315   */\n      0x00\n        /* \"#utility.yul\":10317:10323   */\n      0x00\n        /* \"#utility.yul\":10325:10331   */\n      0x00\n        /* \"#utility.yul\":10374:10377   */\n      0xa0\n        /* \"#utility.yul\":10362:10371   */\n      dup7\n        /* \"#utility.yul\":10353:10360   */\n      dup9\n        /* \"#utility.yul\":10349:10372   */\n      sub\n        /* \"#utility.yul\":10345:10378   */\n      slt\n        /* \"#utility.yul\":10342:10462   */\n      iszero\n      tag_744\n      jumpi\n        /* \"#utility.yul\":10381:10460   */\n      tag_745\n      tag_516\n      jump\t// in\n    tag_745:\n        /* \"#utility.yul\":10342:10462   */\n    tag_744:\n        /* \"#utility.yul\":10501:10502   */\n      0x00\n        /* \"#utility.yul\":10526:10579   */\n      tag_746\n        /* \"#utility.yul\":10571:10578   */\n      dup9\n        /* \"#utility.yul\":10562:10568   */\n      dup3\n        /* \"#utility.yul\":10551:10560   */\n      dup10\n        /* \"#utility.yul\":10547:10569   */\n      add\n        /* \"#utility.yul\":10526:10579   */\n      tag_521\n      jump\t// in\n    tag_746:\n        /* \"#utility.yul\":10516:10579   */\n      swap6\n      pop\n        /* \"#utility.yul\":10472:10589   */\n      pop\n        /* \"#utility.yul\":10656:10658   */\n      0x20\n        /* \"#utility.yul\":10645:10654   */\n      dup7\n        /* \"#utility.yul\":10641:10659   */\n      add\n        /* \"#utility.yul\":10628:10660   */\n      calldataload\n        /* \"#utility.yul\":10687:10705   */\n      0xffffffffffffffff\n        /* \"#utility.yul\":10679:10685   */\n      dup2\n        /* \"#utility.yul\":10676:10706   */\n      gt\n        /* \"#utility.yul\":10673:10790   */\n      iszero\n      tag_747\n      jumpi\n        /* \"#utility.yul\":10709:10788   */\n      tag_748\n      tag_517\n      jump\t// in\n    tag_748:\n        /* \"#utility.yul\":10673:10790   */\n    tag_747:\n        /* \"#utility.yul\":10814:10877   */\n      tag_749\n        /* \"#utility.yul\":10869:10876   */\n      dup9\n        /* \"#utility.yul\":10860:10866   */\n      dup3\n        /* \"#utility.yul\":10849:10858   */\n      dup10\n        /* \"#utility.yul\":10845:10867   */\n      add\n        /* \"#utility.yul\":10814:10877   */\n      tag_548\n      jump\t// in\n    tag_749:\n        /* \"#utility.yul\":10804:10877   */\n      swap5\n      pop\n        /* \"#utility.yul\":10599:10887   */\n      pop\n        /* \"#utility.yul\":10954:10956   */\n      0x40\n        /* \"#utility.yul\":10943:10952   */\n      dup7\n        /* \"#utility.yul\":10939:10957   */\n      add\n        /* \"#utility.yul\":10926:10958   */\n      calldataload\n        /* \"#utility.yul\":10985:11003   */\n      0xffffffffffffffff\n        /* \"#utility.yul\":10977:10983   */\n      dup2\n        /* \"#utility.yul\":10974:11004   */\n      gt\n        /* \"#utility.yul\":10971:11088   */\n      iszero\n      tag_750\n      jumpi\n        /* \"#utility.yul\":11007:11086   */\n      tag_751\n      tag_517\n      jump\t// in\n    tag_751:\n        /* \"#utility.yul\":10971:11088   */\n    tag_750:\n        /* \"#utility.yul\":11112:11175   */\n      tag_752\n        /* \"#utility.yul\":11167:11174   */\n      dup9\n        /* \"#utility.yul\":11158:11164   */\n      dup3\n        /* \"#utility.yul\":11147:11156   */\n      dup10\n        /* \"#utility.yul\":11143:11165   */\n      add\n        /* \"#utility.yul\":11112:11175   */\n      tag_548\n      jump\t// in\n    tag_752:\n        /* \"#utility.yul\":11102:11175   */\n      swap4\n      pop\n        /* \"#utility.yul\":10897:11185   */\n      pop\n        /* \"#utility.yul\":11224:11226   */\n      0x60\n        /* \"#utility.yul\":11250:11301   */\n      tag_753\n        /* \"#utility.yul\":11293:11300   */\n      dup9\n        /* \"#utility.yul\":11284:11290   */\n      dup3\n        /* \"#utility.yul\":11273:11282   */\n      dup10\n        /* \"#utility.yul\":11269:11291   */\n      add\n        /* \"#utility.yul\":11250:11301   */\n      tag_550\n      jump\t// in\n    tag_753:\n        /* \"#utility.yul\":11240:11301   */\n      swap3\n      pop\n        /* \"#utility.yul\":11195:11311   */\n      pop\n        /* \"#utility.yul\":11350:11353   */\n      0x80\n        /* \"#utility.yul\":11377:11427   */\n      tag_754\n        /* \"#utility.yul\":11419:11426   */\n      dup9\n        /* \"#utility.yul\":11410:11416   */\n      dup3\n        /* \"#utility.yul\":11399:11408   */\n      dup10\n        /* \"#utility.yul\":11395:11417   */\n      add\n        /* \"#utility.yul\":11377:11427   */\n      tag_552\n      jump\t// in\n    tag_754:\n        /* \"#utility.yul\":11367:11427   */\n      swap2\n      pop\n        /* \"#utility.yul\":11321:11437   */\n      pop\n        /* \"#utility.yul\":10183:11444   */\n      swap3\n      swap6\n      pop\n      swap3\n      swap6\n      swap1\n      swap4\n      pop\n      jump\t// out\n        /* \"#utility.yul\":11450:11567   */\n    tag_553:\n        /* \"#utility.yul\":11559:11560   */\n      0x00\n        /* \"#utility.yul\":11556:11557   */\n      0x00\n        /* \"#utility.yul\":11549:11561   */\n      revert\n        /* \"#utility.yul\":11573:11690   */\n    tag_554:\n        /* \"#utility.yul\":11682:11683   */\n      0x00\n        /* \"#utility.yul\":11679:11680   */\n      0x00\n        /* \"#utility.yul\":11672:11684   */\n      revert\n        /* \"#utility.yul\":11713:12281   */\n    tag_555:\n        /* \"#utility.yul\":11786:11794   */\n      0x00\n        /* \"#utility.yul\":11796:11802   */\n      0x00\n        /* \"#utility.yul\":11846:11849   */\n      dup4\n        /* \"#utility.yul\":11839:11843   */\n      0x1f\n        /* \"#utility.yul\":11831:11837   */\n      dup5\n        /* \"#utility.yul\":11827:11844   */\n      add\n        /* \"#utility.yul\":11823:11850   */\n      slt\n        /* \"#utility.yul\":11813:11935   */\n      tag_758\n      jumpi\n        /* \"#utility.yul\":11854:11933   */\n      tag_759\n      tag_541\n      jump\t// in\n    tag_759:\n        /* \"#utility.yul\":11813:11935   */\n    tag_758:\n        /* \"#utility.yul\":11967:11973   */\n      dup3\n        /* \"#utility.yul\":11954:11974   */\n      calldataload\n        /* \"#utility.yul\":11944:11974   */\n      swap1\n      pop\n        /* \"#utility.yul\":11997:12015   */\n      0xffffffffffffffff\n        /* \"#utility.yul\":11989:11995   */\n      dup2\n        /* \"#utility.yul\":11986:12016   */\n      gt\n        /* \"#utility.yul\":11983:12100   */\n      iszero\n      tag_760\n      jumpi\n        /* \"#utility.yul\":12019:12098   */\n      tag_761\n      tag_553\n      jump\t// in\n    tag_761:\n        /* \"#utility.yul\":11983:12100   */\n    tag_760:\n        /* \"#utility.yul\":12133:12137   */\n      0x20\n        /* \"#utility.yul\":12125:12131   */\n      dup4\n        /* \"#utility.yul\":12121:12138   */\n      add\n        /* \"#utility.yul\":12109:12138   */\n      swap2\n      pop\n        /* \"#utility.yul\":12187:12190   */\n      dup4\n        /* \"#utility.yul\":12179:12183   */\n      0x20\n        /* \"#utility.yul\":12171:12177   */\n      dup3\n        /* \"#utility.yul\":12167:12184   */\n      mul\n        /* \"#utility.yul\":12157:12165   */\n      dup4\n        /* \"#utility.yul\":12153:12185   */\n      add\n        /* \"#utility.yul\":12150:12191   */\n      gt\n        /* \"#utility.yul\":12147:12275   */\n      iszero\n      tag_762\n      jumpi\n        /* \"#utility.yul\":12194:12273   */\n      tag_763\n      tag_554\n      jump\t// in\n    tag_763:\n        /* \"#utility.yul\":12147:12275   */\n    tag_762:\n        /* \"#utility.yul\":11713:12281   */\n      swap3\n      pop\n      swap3\n      swap1\n      pop\n      jump\t// out\n        /* \"#utility.yul\":12304:12872   */\n    tag_556:\n        /* \"#utility.yul\":12377:12385   */\n      0x00\n        /* \"#utility.yul\":12387:12393   */\n      0x00\n        /* \"#utility.yul\":12437:12440   */\n      dup4\n        /* \"#utility.yul\":12430:12434   */\n      0x1f\n        /* \"#utility.yul\":12422:12428   */\n      dup5\n        /* \"#utility.yul\":12418:12435   */\n      add\n        /* \"#utility.yul\":12414:12441   */\n      slt\n        /* \"#utility.yul\":12404:12526   */\n      tag_765\n      jumpi\n        /* \"#utility.yul\":12445:12524   */\n      tag_766\n      tag_541\n      jump\t// in\n    tag_766:\n        /* \"#utility.yul\":12404:12526   */\n    tag_765:\n        /* \"#utility.yul\":12558:12564   */\n      dup3\n        /* \"#utility.yul\":12545:12565   */\n      calldataload\n        /* \"#utility.yul\":12535:12565   */\n      swap1\n      pop\n        /* \"#utility.yul\":12588:12606   */\n      0xffffffffffffffff\n        /* \"#utility.yul\":12580:12586   */\n      dup2\n        /* \"#utility.yul\":12577:12607   */\n      gt\n        /* \"#utility.yul\":12574:12691   */\n      iszero\n      tag_767\n      jumpi\n        /* \"#utility.yul\":12610:12689   */\n      tag_768\n      tag_553\n      jump\t// in\n    tag_768:\n        /* \"#utility.yul\":12574:12691   */\n    tag_767:\n        /* \"#utility.yul\":12724:12728   */\n      0x20\n        /* \"#utility.yul\":12716:12722   */\n      dup4\n        /* \"#utility.yul\":12712:12729   */\n      add\n        /* \"#utility.yul\":12700:12729   */\n      swap2\n      pop\n        /* \"#utility.yul\":12778:12781   */\n      dup4\n        /* \"#utility.yul\":12770:12774   */\n      0x20\n        /* \"#utility.yul\":12762:12768   */\n      dup3\n        /* \"#utility.yul\":12758:12775   */\n      mul\n        /* \"#utility.yul\":12748:12756   */\n      dup4\n        /* \"#utility.yul\":12744:12776   */\n      add\n        /* \"#utility.yul\":12741:12782   */\n      gt\n        /* \"#utility.yul\":12738:12866   */\n      iszero\n      tag_769\n      jumpi\n        /* \"#utility.yul\":12785:12864   */\n      tag_770\n      tag_554\n      jump\t// in\n    tag_770:\n        /* \"#utility.yul\":12738:12866   */\n    tag_769:\n        /* \"#utility.yul\":12304:12872   */\n      swap3\n      pop\n      swap3\n      swap1\n      pop\n      jump\t// out\n        /* \"#utility.yul\":12878:14187   */\n    tag_52:\n        /* \"#utility.yul\":13036:13042   */\n      0x00\n        /* \"#utility.yul\":13044:13050   */\n      0x00\n        /* \"#utility.yul\":13052:13058   */\n      0x00\n        /* \"#utility.yul\":13060:13066   */\n      0x00\n        /* \"#utility.yul\":13068:13074   */\n      0x00\n        /* \"#utility.yul\":13076:13082   */\n      0x00\n        /* \"#utility.yul\":13125:13127   */\n      0x60\n        /* \"#utility.yul\":13113:13122   */\n      dup8\n        /* \"#utility.yul\":13104:13111   */\n      dup10\n        /* \"#utility.yul\":13100:13123   */\n      sub\n        /* \"#utility.yul\":13096:13128   */\n      slt\n        /* \"#utility.yul\":13093:13212   */\n      iszero\n      tag_772\n      jumpi\n        /* \"#utility.yul\":13131:13210   */\n      tag_773\n      tag_516\n      jump\t// in\n    tag_773:\n        /* \"#utility.yul\":13093:13212   */\n    tag_772:\n        /* \"#utility.yul\":13279:13280   */\n      0x00\n        /* \"#utility.yul\":13268:13277   */\n      dup8\n        /* \"#utility.yul\":13264:13281   */\n      add\n        /* \"#utility.yul\":13251:13282   */\n      calldataload\n        /* \"#utility.yul\":13309:13327   */\n      0xffffffffffffffff\n        /* \"#utility.yul\":13301:13307   */\n      dup2\n        /* \"#utility.yul\":13298:13328   */\n      gt\n        /* \"#utility.yul\":13295:13412   */\n      iszero\n      tag_774\n      jumpi\n        /* \"#utility.yul\":13331:13410   */\n      tag_775\n      tag_517\n      jump\t// in\n    tag_775:\n        /* \"#utility.yul\":13295:13412   */\n    tag_774:\n        /* \"#utility.yul\":13444:13524   */\n      tag_776\n        /* \"#utility.yul\":13516:13523   */\n      dup10\n        /* \"#utility.yul\":13507:13513   */\n      dup3\n        /* \"#utility.yul\":13496:13505   */\n      dup11\n        /* \"#utility.yul\":13492:13514   */\n      add\n        /* \"#utility.yul\":13444:13524   */\n      tag_555\n      jump\t// in\n    tag_776:\n        /* \"#utility.yul\":13426:13524   */\n      swap7\n      pop\n      swap7\n      pop\n        /* \"#utility.yul\":13222:13534   */\n      pop\n        /* \"#utility.yul\":13601:13603   */\n      0x20\n        /* \"#utility.yul\":13590:13599   */\n      dup8\n        /* \"#utility.yul\":13586:13604   */\n      add\n        /* \"#utility.yul\":13573:13605   */\n      calldataload\n        /* \"#utility.yul\":13632:13650   */\n      0xffffffffffffffff\n        /* \"#utility.yul\":13624:13630   */\n      dup2\n        /* \"#utility.yul\":13621:13651   */\n      gt\n        /* \"#utility.yul\":13618:13735   */\n      iszero\n      tag_777\n      jumpi\n        /* \"#utility.yul\":13654:13733   */\n      tag_778\n      tag_517\n      jump\t// in\n    tag_778:\n        /* \"#utility.yul\":13618:13735   */\n    tag_777:\n        /* \"#utility.yul\":13767:13847   */\n      tag_779\n        /* \"#utility.yul\":13839:13846   */\n      dup10\n        /* \"#utility.yul\":13830:13836   */\n      dup3\n        /* \"#utility.yul\":13819:13828   */\n      dup11\n        /* \"#utility.yul\":13815:13837   */\n      add\n        /* \"#utility.yul\":13767:13847   */\n      tag_555\n      jump\t// in\n    tag_779:\n        /* \"#utility.yul\":13749:13847   */\n      swap5\n      pop\n      swap5\n      pop\n        /* \"#utility.yul\":13544:13857   */\n      pop\n        /* \"#utility.yul\":13924:13926   */\n      0x40\n        /* \"#utility.yul\":13913:13922   */\n      dup8\n        /* \"#utility.yul\":13909:13927   */\n      add\n        /* \"#utility.yul\":13896:13928   */\n      calldataload\n        /* \"#utility.yul\":13955:13973   */\n      0xffffffffffffffff\n        /* \"#utility.yul\":13947:13953   */\n      dup2\n        /* \"#utility.yul\":13944:13974   */\n      gt\n        /* \"#utility.yul\":13941:14058   */\n      iszero\n      tag_780\n      jumpi\n        /* \"#utility.yul\":13977:14056   */\n      tag_781\n      tag_517\n      jump\t// in\n    tag_781:\n        /* \"#utility.yul\":13941:14058   */\n    tag_780:\n        /* \"#utility.yul\":14090:14170   */\n      tag_782\n        /* \"#utility.yul\":14162:14169   */\n      dup10\n        /* \"#utility.yul\":14153:14159   */\n      dup3\n        /* \"#utility.yul\":14142:14151   */\n      dup11\n        /* \"#utility.yul\":14138:14160   */\n      add\n        /* \"#utility.yul\":14090:14170   */\n      tag_556\n      jump\t// in\n    tag_782:\n        /* \"#utility.yul\":14072:14170   */\n      swap3\n      pop\n      swap3\n      pop\n        /* \"#utility.yul\":13867:14180   */\n      pop\n        /* \"#utility.yul\":12878:14187   */\n      swap3\n      swap6\n      pop\n      swap3\n      swap6\n      pop\n      swap3\n      swap6\n      jump\t// out\n        /* \"#utility.yul\":14193:14403   */\n    tag_55:\n        /* \"#utility.yul\":14280:14284   */\n      0x00\n        /* \"#utility.yul\":14318:14320   */\n      0x20\n        /* \"#utility.yul\":14307:14316   */\n      dup3\n        /* \"#utility.yul\":14303:14321   */\n      add\n        /* \"#utility.yul\":14295:14321   */\n      swap1\n      pop\n        /* \"#utility.yul\":14331:14396   */\n      tag_784\n        /* \"#utility.yul\":14393:14394   */\n      0x00\n        /* \"#utility.yul\":14382:14391   */\n      dup4\n        /* \"#utility.yul\":14378:14395   */\n      add\n        /* \"#utility.yul\":14369:14375   */\n      dup5\n        /* \"#utility.yul\":14331:14396   */\n      tag_525\n      jump\t// in\n    tag_784:\n        /* \"#utility.yul\":14193:14403   */\n      swap3\n      swap2\n      pop\n      pop\n      jump\t// out\n        /* \"#utility.yul\":14409:15488   */\n    tag_58:\n        /* \"#utility.yul\":14540:14546   */\n      0x00\n        /* \"#utility.yul\":14548:14554   */\n      0x00\n        /* \"#utility.yul\":14556:14562   */\n      0x00\n        /* \"#utility.yul\":14564:14570   */\n      0x00\n        /* \"#utility.yul\":14572:14578   */\n      0x00\n        /* \"#utility.yul\":14621:14623   */\n      0x60\n        /* \"#utility.yul\":14609:14618   */\n      dup7\n        /* \"#utility.yul\":14600:14607   */\n      dup9\n        /* \"#utility.yul\":14596:14619   */\n      sub\n        /* \"#utility.yul\":14592:14624   */\n      slt\n        /* \"#utility.yul\":14589:14708   */\n      iszero\n      tag_786\n      jumpi\n        /* \"#utility.yul\":14627:14706   */\n      tag_787\n      tag_516\n      jump\t// in\n    tag_787:\n        /* \"#utility.yul\":14589:14708   */\n    tag_786:\n        /* \"#utility.yul\":14747:14748   */\n      0x00\n        /* \"#utility.yul\":14772:14825   */\n      tag_788\n        /* \"#utility.yul\":14817:14824   */\n      dup9\n        /* \"#utility.yul\":14808:14814   */\n      dup3\n        /* \"#utility.yul\":14797:14806   */\n      dup10\n        /* \"#utility.yul\":14793:14815   */\n      add\n        /* \"#utility.yul\":14772:14825   */\n      tag_521\n      jump\t// in\n    tag_788:\n        /* \"#utility.yul\":14762:14825   */\n      swap6\n      pop\n        /* \"#utility.yul\":14718:14835   */\n      pop\n        /* \"#utility.yul\":14902:14904   */\n      0x20\n        /* \"#utility.yul\":14891:14900   */\n      dup7\n        /* \"#utility.yul\":14887:14905   */\n      add\n        /* \"#utility.yul\":14874:14906   */\n      calldataload\n        /* \"#utility.yul\":14933:14951   */\n      0xffffffffffffffff\n        /* \"#utility.yul\":14925:14931   */\n      dup2\n        /* \"#utility.yul\":14922:14952   */\n      gt\n        /* \"#utility.yul\":14919:15036   */\n      iszero\n      tag_789\n      jumpi\n        /* \"#utility.yul\":14955:15034   */\n      tag_790\n      tag_517\n      jump\t// in\n    tag_790:\n        /* \"#utility.yul\":14919:15036   */\n    tag_789:\n        /* \"#utility.yul\":15068:15148   */\n      tag_791\n        /* \"#utility.yul\":15140:15147   */\n      dup9\n        /* \"#utility.yul\":15131:15137   */\n      dup3\n        /* \"#utility.yul\":15120:15129   */\n      dup10\n        /* \"#utility.yul\":15116:15138   */\n      add\n        /* \"#utility.yul\":15068:15148   */\n      tag_555\n      jump\t// in\n    tag_791:\n        /* \"#utility.yul\":15050:15148   */\n      swap5\n      pop\n      swap5\n      pop\n        /* \"#utility.yul\":14845:15158   */\n      pop\n        /* \"#utility.yul\":15225:15227   */\n      0x40\n        /* \"#utility.yul\":15214:15223   */\n      dup7\n        /* \"#utility.yul\":15210:15228   */\n      add\n        /* \"#utility.yul\":15197:15229   */\n      calldataload\n        /* \"#utility.yul\":15256:15274   */\n      0xffffffffffffffff\n        /* \"#utility.yul\":15248:15254   */\n      dup2\n        /* \"#utility.yul\":15245:15275   */\n      gt\n        /* \"#utility.yul\":15242:15359   */\n      iszero\n      tag_792\n      jumpi\n        /* \"#utility.yul\":15278:15357   */\n      tag_793\n      tag_517\n      jump\t// in\n    tag_793:\n        /* \"#utility.yul\":15242:15359   */\n    tag_792:\n        /* \"#utility.yul\":15391:15471   */\n      tag_794\n        /* \"#utility.yul\":15463:15470   */\n      dup9\n        /* \"#utility.yul\":15454:15460   */\n      dup3\n        /* \"#utility.yul\":15443:15452   */\n      dup10\n        /* \"#utility.yul\":15439:15461   */\n      add\n        /* \"#utility.yul\":15391:15471   */\n      tag_556\n      jump\t// in\n    tag_794:\n        /* \"#utility.yul\":15373:15471   */\n      swap3\n      pop\n      swap3\n      pop\n        /* \"#utility.yul\":15168:15481   */\n      pop\n        /* \"#utility.yul\":14409:15488   */\n      swap3\n      swap6\n      pop\n      swap3\n      swap6\n      swap1\n      swap4\n      pop\n      jump\t// out\n        /* \"#utility.yul\":15494:15968   */\n    tag_72:\n        /* \"#utility.yul\":15562:15568   */\n      0x00\n        /* \"#utility.yul\":15570:15576   */\n      0x00\n        /* \"#utility.yul\":15619:15621   */\n      0x40\n        /* \"#utility.yul\":15607:15616   */\n      dup4\n        /* \"#utility.yul\":15598:15605   */\n      dup6\n        /* \"#utility.yul\":15594:15617   */\n      sub\n        /* \"#utility.yul\":15590:15622   */\n      slt\n        /* \"#utility.yul\":15587:15706   */\n      iszero\n      tag_796\n      jumpi\n        /* \"#utility.yul\":15625:15704   */\n      tag_797\n      tag_516\n      jump\t// in\n    tag_797:\n        /* \"#utility.yul\":15587:15706   */\n    tag_796:\n        /* \"#utility.yul\":15745:15746   */\n      0x00\n        /* \"#utility.yul\":15770:15823   */\n      tag_798\n        /* \"#utility.yul\":15815:15822   */\n      dup6\n        /* \"#utility.yul\":15806:15812   */\n      dup3\n        /* \"#utility.yul\":15795:15804   */\n      dup7\n        /* \"#utility.yul\":15791:15813   */\n      add\n        /* \"#utility.yul\":15770:15823   */\n      tag_521\n      jump\t// in\n    tag_798:\n        /* \"#utility.yul\":15760:15823   */\n      swap3\n      pop\n        /* \"#utility.yul\":15716:15833   */\n      pop\n        /* \"#utility.yul\":15872:15874   */\n      0x20\n        /* \"#utility.yul\":15898:15951   */\n      tag_799\n        /* \"#utility.yul\":15943:15950   */\n      dup6\n        /* \"#utility.yul\":15934:15940   */\n      dup3\n        /* \"#utility.yul\":15923:15932   */\n      dup7\n        /* \"#utility.yul\":15919:15941   */\n      add\n        /* \"#utility.yul\":15898:15951   */\n      tag_521\n      jump\t// in\n    tag_799:\n        /* \"#utility.yul\":15888:15951   */\n      swap2\n      pop\n        /* \"#utility.yul\":15843:15961   */\n      pop\n        /* \"#utility.yul\":15494:15968   */\n      swap3\n      pop\n      swap3\n      swap1\n      pop\n      jump\t// out\n        /* \"#utility.yul\":15974:16092   */\n    tag_557:\n        /* \"#utility.yul\":16061:16085   */\n      tag_801\n        /* \"#utility.yul\":16079:16084   */\n      dup2\n        /* \"#utility.yul\":16061:16085   */\n      tag_536\n      jump\t// in\n    tag_801:\n        /* \"#utility.yul\":16056:16059   */\n      dup3\n        /* \"#utility.yul\":16049:16086   */\n      mstore\n        /* \"#utility.yul\":15974:16092   */\n      pop\n      pop\n      jump\t// out\n        /* \"#utility.yul\":16098:16320   */\n    tag_75:\n        /* \"#utility.yul\":16191:16195   */\n      0x00\n        /* \"#utility.yul\":16229:16231   */\n      0x20\n        /* \"#utility.yul\":16218:16227   */\n      dup3\n        /* \"#utility.yul\":16214:16232   */\n      add\n        /* \"#utility.yul\":16206:16232   */\n      swap1\n      pop\n        /* \"#utility.yul\":16242:16313   */\n      tag_803\n        /* \"#utility.yul\":16310:16311   */\n      0x00\n        /* \"#utility.yul\":16299:16308   */\n      dup4\n        /* \"#utility.yul\":16295:16312   */\n      add\n        /* \"#utility.yul\":16286:16292   */\n      dup5\n        /* \"#utility.yul\":16242:16313   */\n      tag_557\n      jump\t// in\n    tag_803:\n        /* \"#utility.yul\":16098:16320   */\n      swap3\n      swap2\n      pop\n      pop\n      jump\t// out\n        /* \"#utility.yul\":16326:16448   */\n    tag_558:\n        /* \"#utility.yul\":16399:16423   */\n      tag_805\n        /* \"#utility.yul\":16417:16422   */\n      dup2\n        /* \"#utility.yul\":16399:16423   */\n      tag_536\n      jump\t// in\n    tag_805:\n        /* \"#utility.yul\":16392:16397   */\n      dup2\n        /* \"#utility.yul\":16389:16424   */\n      eq\n        /* \"#utility.yul\":16379:16442   */\n      tag_806\n      jumpi\n        /* \"#utility.yul\":16438:16439   */\n      0x00\n        /* \"#utility.yul\":16435:16436   */\n      0x00\n        /* \"#utility.yul\":16428:16440   */\n      revert\n        /* \"#utility.yul\":16379:16442   */\n    tag_806:\n        /* \"#utility.yul\":16326:16448   */\n      pop\n      jump\t// out\n        /* \"#utility.yul\":16454:16593   */\n    tag_559:\n        /* \"#utility.yul\":16500:16505   */\n      0x00\n        /* \"#utility.yul\":16538:16544   */\n      dup2\n        /* \"#utility.yul\":16525:16545   */\n      calldataload\n        /* \"#utility.yul\":16516:16545   */\n      swap1\n      pop\n        /* \"#utility.yul\":16554:16587   */\n      tag_808\n        /* \"#utility.yul\":16581:16586   */\n      dup2\n        /* \"#utility.yul\":16554:16587   */\n      tag_558\n      jump\t// in\n    tag_808:\n        /* \"#utility.yul\":16454:16593   */\n      swap3\n      swap2\n      pop\n      pop\n      jump\t// out\n        /* \"#utility.yul\":16599:17218   */\n    tag_78:\n        /* \"#utility.yul\":16676:16682   */\n      0x00\n        /* \"#utility.yul\":16684:16690   */\n      0x00\n        /* \"#utility.yul\":16692:16698   */\n      0x00\n        /* \"#utility.yul\":16741:16743   */\n      0x60\n        /* \"#utility.yul\":16729:16738   */\n      dup5\n        /* \"#utility.yul\":16720:16727   */\n      dup7\n        /* \"#utility.yul\":16716:16739   */\n      sub\n        /* \"#utility.yul\":16712:16744   */\n      slt\n        /* \"#utility.yul\":16709:16828   */\n      iszero\n      tag_810\n      jumpi\n        /* \"#utility.yul\":16747:16826   */\n      tag_811\n      tag_516\n      jump\t// in\n    tag_811:\n        /* \"#utility.yul\":16709:16828   */\n    tag_810:\n        /* \"#utility.yul\":16867:16868   */\n      0x00\n        /* \"#utility.yul\":16892:16945   */\n      tag_812\n        /* \"#utility.yul\":16937:16944   */\n      dup7\n        /* \"#utility.yul\":16928:16934   */\n      dup3\n        /* \"#utility.yul\":16917:16926   */\n      dup8\n        /* \"#utility.yul\":16913:16935   */\n      add\n        /* \"#utility.yul\":16892:16945   */\n      tag_521\n      jump\t// in\n    tag_812:\n        /* \"#utility.yul\":16882:16945   */\n      swap4\n      pop\n        /* \"#utility.yul\":16838:16955   */\n      pop\n        /* \"#utility.yul\":16994:16996   */\n      0x20\n        /* \"#utility.yul\":17020:17073   */\n      tag_813\n        /* \"#utility.yul\":17065:17072   */\n      dup7\n        /* \"#utility.yul\":17056:17062   */\n      dup3\n        /* \"#utility.yul\":17045:17054   */\n      dup8\n        /* \"#utility.yul\":17041:17063   */\n      add\n        /* \"#utility.yul\":17020:17073   */\n      tag_521\n      jump\t// in\n    tag_813:\n        /* \"#utility.yul\":17010:17073   */\n      swap3\n      pop\n        /* \"#utility.yul\":16965:17083   */\n      pop\n        /* \"#utility.yul\":17122:17124   */\n      0x40\n        /* \"#utility.yul\":17148:17201   */\n      tag_814\n        /* \"#utility.yul\":17193:17200   */\n      dup7\n        /* \"#utility.yul\":17184:17190   */\n      dup3\n        /* \"#utility.yul\":17173:17182   */\n      dup8\n        /* \"#utility.yul\":17169:17191   */\n      add\n        /* \"#utility.yul\":17148:17201   */\n      tag_559\n      jump\t// in\n    tag_814:\n        /* \"#utility.yul\":17138:17201   */\n      swap2\n      pop\n        /* \"#utility.yul\":17093:17211   */\n      pop\n        /* \"#utility.yul\":16599:17218   */\n      swap3\n      pop\n      swap3\n      pop\n      swap3\n      jump\t// out\n        /* \"#utility.yul\":17224:17342   */\n    tag_560:\n        /* \"#utility.yul\":17311:17335   */\n      tag_816\n        /* \"#utility.yul\":17329:17334   */\n      dup2\n        /* \"#utility.yul\":17311:17335   */\n      tag_519\n      jump\t// in\n    tag_816:\n        /* \"#utility.yul\":17306:17309   */\n      dup3\n        /* \"#utility.yul\":17299:17336   */\n      mstore\n        /* \"#utility.yul\":17224:17342   */\n      pop\n      pop\n      jump\t// out\n        /* \"#utility.yul\":17348:17570   */\n    tag_96:\n        /* \"#utility.yul\":17441:17445   */\n      0x00\n        /* \"#utility.yul\":17479:17481   */\n      0x20\n        /* \"#utility.yul\":17468:17477   */\n      dup3\n        /* \"#utility.yul\":17464:17482   */\n      add\n        /* \"#utility.yul\":17456:17482   */\n      swap1\n      pop\n        /* \"#utility.yul\":17492:17563   */\n      tag_818\n        /* \"#utility.yul\":17560:17561   */\n      0x00\n        /* \"#utility.yul\":17549:17558   */\n      dup4\n        /* \"#utility.yul\":17545:17562   */\n      add\n        /* \"#utility.yul\":17536:17542   */\n      dup5\n        /* \"#utility.yul\":17492:17563   */\n      tag_560\n      jump\t// in\n    tag_818:\n        /* \"#utility.yul\":17348:17570   */\n      swap3\n      swap2\n      pop\n      pop\n      jump\t// out\n        /* \"#utility.yul\":17576:17905   */\n    tag_102:\n        /* \"#utility.yul\":17635:17641   */\n      0x00\n        /* \"#utility.yul\":17684:17686   */\n      0x20\n        /* \"#utility.yul\":17672:17681   */\n      dup3\n        /* \"#utility.yul\":17663:17670   */\n      dup5\n        /* \"#utility.yul\":17659:17682   */\n      sub\n        /* \"#utility.yul\":17655:17687   */\n      slt\n        /* \"#utility.yul\":17652:17771   */\n      iszero\n      tag_820\n      jumpi\n        /* \"#utility.yul\":17690:17769   */\n      tag_821\n      tag_516\n      jump\t// in\n    tag_821:\n        /* \"#utility.yul\":17652:17771   */\n    tag_820:\n        /* \"#utility.yul\":17810:17811   */\n      0x00\n        /* \"#utility.yul\":17835:17888   */\n      tag_822\n        /* \"#utility.yul\":17880:17887   */\n      dup5\n        /* \"#utility.yul\":17871:17877   */\n      dup3\n        /* \"#utility.yul\":17860:17869   */\n      dup6\n        /* \"#utility.yul\":17856:17878   */\n      add\n        /* \"#utility.yul\":17835:17888   */\n      tag_559\n      jump\t// in\n    tag_822:\n        /* \"#utility.yul\":17825:17888   */\n      swap2\n      pop\n        /* \"#utility.yul\":17781:17898   */\n      pop\n        /* \"#utility.yul\":17576:17905   */\n      swap3\n      swap2\n      pop\n      pop\n      jump\t// out\n        /* \"#utility.yul\":17911:18284   */\n    tag_112:\n        /* \"#utility.yul\":18054:18058   */\n      0x00\n        /* \"#utility.yul\":18092:18094   */\n      0x20\n        /* \"#utility.yul\":18081:18090   */\n      dup3\n        /* \"#utility.yul\":18077:18095   */\n      add\n        /* \"#utility.yul\":18069:18095   */\n      swap1\n      pop\n        /* \"#utility.yul\":18141:18150   */\n      dup2\n        /* \"#utility.yul\":18135:18139   */\n      dup2\n        /* \"#utility.yul\":18131:18151   */\n      sub\n        /* \"#utility.yul\":18127:18128   */\n      0x00\n        /* \"#utility.yul\":18116:18125   */\n      dup4\n        /* \"#utility.yul\":18112:18129   */\n      add\n        /* \"#utility.yul\":18105:18152   */\n      mstore\n        /* \"#utility.yul\":18169:18277   */\n      tag_824\n        /* \"#utility.yul\":18272:18276   */\n      dup2\n        /* \"#utility.yul\":18263:18269   */\n      dup5\n        /* \"#utility.yul\":18169:18277   */\n      tag_532\n      jump\t// in\n    tag_824:\n        /* \"#utility.yul\":18161:18277   */\n      swap1\n      pop\n        /* \"#utility.yul\":17911:18284   */\n      swap3\n      swap2\n      pop\n      pop\n      jump\t// out\n        /* \"#utility.yul\":18290:19104   */\n    tag_120:\n        /* \"#utility.yul\":18519:18523   */\n      0x00\n        /* \"#utility.yul\":18557:18560   */\n      0xa0\n        /* \"#utility.yul\":18546:18555   */\n      dup3\n        /* \"#utility.yul\":18542:18561   */\n      add\n        /* \"#utility.yul\":18534:18561   */\n      swap1\n      pop\n        /* \"#utility.yul\":18607:18616   */\n      dup2\n        /* \"#utility.yul\":18601:18605   */\n      dup2\n        /* \"#utility.yul\":18597:18617   */\n      sub\n        /* \"#utility.yul\":18593:18594   */\n      0x00\n        /* \"#utility.yul\":18582:18591   */\n      dup4\n        /* \"#utility.yul\":18578:18595   */\n      add\n        /* \"#utility.yul\":18571:18618   */\n      mstore\n        /* \"#utility.yul\":18635:18713   */\n      tag_826\n        /* \"#utility.yul\":18708:18712   */\n      dup2\n        /* \"#utility.yul\":18699:18705   */\n      dup9\n        /* \"#utility.yul\":18635:18713   */\n      tag_514\n      jump\t// in\n    tag_826:\n        /* \"#utility.yul\":18627:18713   */\n      swap1\n      pop\n        /* \"#utility.yul\":18760:18769   */\n      dup2\n        /* \"#utility.yul\":18754:18758   */\n      dup2\n        /* \"#utility.yul\":18750:18770   */\n      sub\n        /* \"#utility.yul\":18745:18747   */\n      0x20\n        /* \"#utility.yul\":18734:18743   */\n      dup4\n        /* \"#utility.yul\":18730:18748   */\n      add\n        /* \"#utility.yul\":18723:18771   */\n      mstore\n        /* \"#utility.yul\":18788:18866   */\n      tag_827\n        /* \"#utility.yul\":18861:18865   */\n      dup2\n        /* \"#utility.yul\":18852:18858   */\n      dup8\n        /* \"#utility.yul\":18788:18866   */\n      tag_514\n      jump\t// in\n    tag_827:\n        /* \"#utility.yul\":18780:18866   */\n      swap1\n      pop\n        /* \"#utility.yul\":18876:18944   */\n      tag_828\n        /* \"#utility.yul\":18940:18942   */\n      0x40\n        /* \"#utility.yul\":18929:18938   */\n      dup4\n        /* \"#utility.yul\":18925:18943   */\n      add\n        /* \"#utility.yul\":18916:18922   */\n      dup7\n        /* \"#utility.yul\":18876:18944   */\n      tag_523\n      jump\t// in\n    tag_828:\n        /* \"#utility.yul\":18954:19020   */\n      tag_829\n        /* \"#utility.yul\":19016:19018   */\n      0x60\n        /* \"#utility.yul\":19005:19014   */\n      dup4\n        /* \"#utility.yul\":19001:19019   */\n      add\n        /* \"#utility.yul\":18992:18998   */\n      dup6\n        /* \"#utility.yul\":18954:19020   */\n      tag_525\n      jump\t// in\n    tag_829:\n        /* \"#utility.yul\":19030:19097   */\n      tag_830\n        /* \"#utility.yul\":19092:19095   */\n      0x80\n        /* \"#utility.yul\":19081:19090   */\n      dup4\n        /* \"#utility.yul\":19077:19096   */\n      add\n        /* \"#utility.yul\":19068:19074   */\n      dup5\n        /* \"#utility.yul\":19030:19097   */\n      tag_525\n      jump\t// in\n    tag_830:\n        /* \"#utility.yul\":18290:19104   */\n      swap7\n      swap6\n      pop\n      pop\n      pop\n      pop\n      pop\n      pop\n      jump\t// out\n        /* \"#utility.yul\":19110:19281   */\n    tag_561:\n        /* \"#utility.yul\":19250:19273   */\n      0x496e76616c696420746f6b656e20616464726573730000000000000000000000\n        /* \"#utility.yul\":19246:19247   */\n      0x00\n        /* \"#utility.yul\":19238:19244   */\n      dup3\n        /* \"#utility.yul\":19234:19248   */\n      add\n        /* \"#utility.yul\":19227:19274   */\n      mstore\n        /* \"#utility.yul\":19110:19281   */\n      pop\n      jump\t// out\n        /* \"#utility.yul\":19287:19653   */\n    tag_562:\n        /* \"#utility.yul\":19429:19432   */\n      0x00\n        /* \"#utility.yul\":19450:19517   */\n      tag_833\n        /* \"#utility.yul\":19514:19516   */\n      0x15\n        /* \"#utility.yul\":19509:19512   */\n      dup4\n        /* \"#utility.yul\":19450:19517   */\n      tag_511\n      jump\t// in\n    tag_833:\n        /* \"#utility.yul\":19443:19517   */\n      swap2\n      pop\n        /* \"#utility.yul\":19526:19619   */\n      tag_834\n        /* \"#utility.yul\":19615:19618   */\n      dup3\n        /* \"#utility.yul\":19526:19619   */\n      tag_561\n      jump\t// in\n    tag_834:\n        /* \"#utility.yul\":19644:19646   */\n      0x20\n        /* \"#utility.yul\":19639:19642   */\n      dup3\n        /* \"#utility.yul\":19635:19647   */\n      add\n        /* \"#utility.yul\":19628:19647   */\n      swap1\n      pop\n        /* \"#utility.yul\":19287:19653   */\n      swap2\n      swap1\n      pop\n      jump\t// out\n        /* \"#utility.yul\":19659:20078   */\n    tag_128:\n        /* \"#utility.yul\":19825:19829   */\n      0x00\n        /* \"#utility.yul\":19863:19865   */\n      0x20\n        /* \"#utility.yul\":19852:19861   */\n      dup3\n        /* \"#utility.yul\":19848:19866   */\n      add\n        /* \"#utility.yul\":19840:19866   */\n      swap1\n      pop\n        /* \"#utility.yul\":19912:19921   */\n      dup2\n        /* \"#utility.yul\":19906:19910   */\n      dup2\n        /* \"#utility.yul\":19902:19922   */\n      sub\n        /* \"#utility.yul\":19898:19899   */\n      0x00\n        /* \"#utility.yul\":19887:19896   */\n      dup4\n        /* \"#utility.yul\":19883:19900   */\n      add\n        /* \"#utility.yul\":19876:19923   */\n      mstore\n        /* \"#utility.yul\":19940:20071   */\n      tag_836\n        /* \"#utility.yul\":20066:20070   */\n      dup2\n        /* \"#utility.yul\":19940:20071   */\n      tag_562\n      jump\t// in\n    tag_836:\n        /* \"#utility.yul\":19932:20071   */\n      swap1\n      pop\n        /* \"#utility.yul\":19659:20078   */\n      swap2\n      swap1\n      pop\n      jump\t// out\n        /* \"#utility.yul\":20084:20257   */\n    tag_563:\n        /* \"#utility.yul\":20224:20249   */\n      0x546f6b656e20616c726561647920737570706f72746564000000000000000000\n        /* \"#utility.yul\":20220:20221   */\n      0x00\n        /* \"#utility.yul\":20212:20218   */\n      dup3\n        /* \"#utility.yul\":20208:20222   */\n      add\n        /* \"#utility.yul\":20201:20250   */\n      mstore\n        /* \"#utility.yul\":20084:20257   */\n      pop\n      jump\t// out\n        /* \"#utility.yul\":20263:20629   */\n    tag_564:\n        /* \"#utility.yul\":20405:20408   */\n      0x00\n        /* \"#utility.yul\":20426:20493   */\n      tag_839\n        /* \"#utility.yul\":20490:20492   */\n      0x17\n        /* \"#utility.yul\":20485:20488   */\n      dup4\n        /* \"#utility.yul\":20426:20493   */\n      tag_511\n      jump\t// in\n    tag_839:\n        /* \"#utility.yul\":20419:20493   */\n      swap2\n      pop\n        /* \"#utility.yul\":20502:20595   */\n      tag_840\n        /* \"#utility.yul\":20591:20594   */\n      dup3\n        /* \"#utility.yul\":20502:20595   */\n      tag_563\n      jump\t// in\n    tag_840:\n        /* \"#utility.yul\":20620:20622   */\n      0x20\n        /* \"#utility.yul\":20615:20618   */\n      dup3\n        /* \"#utility.yul\":20611:20623   */\n      add\n        /* \"#utility.yul\":20604:20623   */\n      swap1\n      pop\n        /* \"#utility.yul\":20263:20629   */\n      swap2\n      swap1\n      pop\n      jump\t// out\n        /* \"#utility.yul\":20635:21054   */\n    tag_131:\n        /* \"#utility.yul\":20801:20805   */\n      0x00\n        /* \"#utility.yul\":20839:20841   */\n      0x20\n        /* \"#utility.yul\":20828:20837   */\n      dup3\n        /* \"#utility.yul\":20824:20842   */\n      add\n        /* \"#utility.yul\":20816:20842   */\n      swap1\n      pop\n        /* \"#utility.yul\":20888:20897   */\n      dup2\n        /* \"#utility.yul\":20882:20886   */\n      dup2\n        /* \"#utility.yul\":20878:20898   */\n      sub\n        /* \"#utility.yul\":20874:20875   */\n      0x00\n        /* \"#utility.yul\":20863:20872   */\n      dup4\n        /* \"#utility.yul\":20859:20876   */\n      add\n        /* \"#utility.yul\":20852:20899   */\n      mstore\n        /* \"#utility.yul\":20916:21047   */\n      tag_842\n        /* \"#utility.yul\":21042:21046   */\n      dup2\n        /* \"#utility.yul\":20916:21047   */\n      tag_564\n      jump\t// in\n    tag_842:\n        /* \"#utility.yul\":20908:21047   */\n      swap1\n      pop\n        /* \"#utility.yul\":20635:21054   */\n      swap2\n      swap1\n      pop\n      jump\t// out\n        /* \"#utility.yul\":21060:21494   */\n    tag_565:\n        /* \"#utility.yul\":21149:21154   */\n      0x00\n        /* \"#utility.yul\":21174:21240   */\n      tag_844\n        /* \"#utility.yul\":21190:21239   */\n      tag_845\n        /* \"#utility.yul\":21232:21238   */\n      dup5\n        /* \"#utility.yul\":21190:21239   */\n      tag_545\n      jump\t// in\n    tag_845:\n        /* \"#utility.yul\":21174:21240   */\n      tag_544\n      jump\t// in\n    tag_844:\n        /* \"#utility.yul\":21165:21240   */\n      swap1\n      pop\n        /* \"#utility.yul\":21263:21269   */\n      dup3\n        /* \"#utility.yul\":21256:21261   */\n      dup2\n        /* \"#utility.yul\":21249:21270   */\n      mstore\n        /* \"#utility.yul\":21301:21305   */\n      0x20\n        /* \"#utility.yul\":21294:21299   */\n      dup2\n        /* \"#utility.yul\":21290:21306   */\n      add\n        /* \"#utility.yul\":21339:21342   */\n      dup5\n        /* \"#utility.yul\":21330:21336   */\n      dup5\n        /* \"#utility.yul\":21325:21328   */\n      dup5\n        /* \"#utility.yul\":21321:21337   */\n      add\n        /* \"#utility.yul\":21318:21343   */\n      gt\n        /* \"#utility.yul\":21315:21427   */\n      iszero\n      tag_846\n      jumpi\n        /* \"#utility.yul\":21346:21425   */\n      tag_847\n      tag_542\n      jump\t// in\n    tag_847:\n        /* \"#utility.yul\":21315:21427   */\n    tag_846:\n        /* \"#utility.yul\":21436:21488   */\n      tag_848\n        /* \"#utility.yul\":21481:21487   */\n      dup5\n        /* \"#utility.yul\":21476:21479   */\n      dup3\n        /* \"#utility.yul\":21471:21474   */\n      dup6\n        /* \"#utility.yul\":21436:21488   */\n      tag_512\n      jump\t// in\n    tag_848:\n        /* \"#utility.yul\":21155:21494   */\n      pop\n        /* \"#utility.yul\":21060:21494   */\n      swap4\n      swap3\n      pop\n      pop\n      pop\n      jump\t// out\n        /* \"#utility.yul\":21514:21869   */\n    tag_566:\n        /* \"#utility.yul\":21581:21586   */\n      0x00\n        /* \"#utility.yul\":21630:21633   */\n      dup3\n        /* \"#utility.yul\":21623:21627   */\n      0x1f\n        /* \"#utility.yul\":21615:21621   */\n      dup4\n        /* \"#utility.yul\":21611:21628   */\n      add\n        /* \"#utility.yul\":21607:21634   */\n      slt\n        /* \"#utility.yul\":21597:21719   */\n      tag_850\n      jumpi\n        /* \"#utility.yul\":21638:21717   */\n      tag_851\n      tag_541\n      jump\t// in\n    tag_851:\n        /* \"#utility.yul\":21597:21719   */\n    tag_850:\n        /* \"#utility.yul\":21748:21754   */\n      dup2\n        /* \"#utility.yul\":21742:21755   */\n      mload\n        /* \"#utility.yul\":21773:21863   */\n      tag_852\n        /* \"#utility.yul\":21859:21862   */\n      dup5\n        /* \"#utility.yul\":21851:21857   */\n      dup3\n        /* \"#utility.yul\":21844:21848   */\n      0x20\n        /* \"#utility.yul\":21836:21842   */\n      dup7\n        /* \"#utility.yul\":21832:21849   */\n      add\n        /* \"#utility.yul\":21773:21863   */\n      tag_565\n      jump\t// in\n    tag_852:\n        /* \"#utility.yul\":21764:21863   */\n      swap2\n      pop\n        /* \"#utility.yul\":21587:21869   */\n      pop\n        /* \"#utility.yul\":21514:21869   */\n      swap3\n      swap2\n      pop\n      pop\n      jump\t// out\n        /* \"#utility.yul\":21875:22399   */\n    tag_136:\n        /* \"#utility.yul\":21955:21961   */\n      0x00\n        /* \"#utility.yul\":22004:22006   */\n      0x20\n        /* \"#utility.yul\":21992:22001   */\n      dup3\n        /* \"#utility.yul\":21983:21990   */\n      dup5\n        /* \"#utility.yul\":21979:22002   */\n      sub\n        /* \"#utility.yul\":21975:22007   */\n      slt\n        /* \"#utility.yul\":21972:22091   */\n      iszero\n      tag_854\n      jumpi\n        /* \"#utility.yul\":22010:22089   */\n      tag_855\n      tag_516\n      jump\t// in\n    tag_855:\n        /* \"#utility.yul\":21972:22091   */\n    tag_854:\n        /* \"#utility.yul\":22151:22152   */\n      0x00\n        /* \"#utility.yul\":22140:22149   */\n      dup3\n        /* \"#utility.yul\":22136:22153   */\n      add\n        /* \"#utility.yul\":22130:22154   */\n      mload\n        /* \"#utility.yul\":22181:22199   */\n      0xffffffffffffffff\n        /* \"#utility.yul\":22173:22179   */\n      dup2\n        /* \"#utility.yul\":22170:22200   */\n      gt\n        /* \"#utility.yul\":22167:22284   */\n      iszero\n      tag_856\n      jumpi\n        /* \"#utility.yul\":22203:22282   */\n      tag_857\n      tag_517\n      jump\t// in\n    tag_857:\n        /* \"#utility.yul\":22167:22284   */\n    tag_856:\n        /* \"#utility.yul\":22308:22382   */\n      tag_858\n        /* \"#utility.yul\":22374:22381   */\n      dup5\n        /* \"#utility.yul\":22365:22371   */\n      dup3\n        /* \"#utility.yul\":22354:22363   */\n      dup6\n        /* \"#utility.yul\":22350:22372   */\n      add\n        /* \"#utility.yul\":22308:22382   */\n      tag_566\n      jump\t// in\n    tag_858:\n        /* \"#utility.yul\":22298:22382   */\n      swap2\n      pop\n        /* \"#utility.yul\":22101:22392   */\n      pop\n        /* \"#utility.yul\":21875:22399   */\n      swap3\n      swap2\n      pop\n      pop\n      jump\t// out\n        /* \"#utility.yul\":22405:22544   */\n    tag_567:\n        /* \"#utility.yul\":22460:22465   */\n      0x00\n        /* \"#utility.yul\":22491:22497   */\n      dup2\n        /* \"#utility.yul\":22485:22498   */\n      mload\n        /* \"#utility.yul\":22476:22498   */\n      swap1\n      pop\n        /* \"#utility.yul\":22507:22538   */\n      tag_860\n        /* \"#utility.yul\":22532:22537   */\n      dup2\n        /* \"#utility.yul\":22507:22538   */\n      tag_549\n      jump\t// in\n    tag_860:\n        /* \"#utility.yul\":22405:22544   */\n      swap3\n      swap2\n      pop\n      pop\n      jump\t// out\n        /* \"#utility.yul\":22550:22897   */\n    tag_151:\n        /* \"#utility.yul\":22618:22624   */\n      0x00\n        /* \"#utility.yul\":22667:22669   */\n      0x20\n        /* \"#utility.yul\":22655:22664   */\n      dup3\n        /* \"#utility.yul\":22646:22653   */\n      dup5\n        /* \"#utility.yul\":22642:22665   */\n      sub\n        /* \"#utility.yul\":22638:22670   */\n      slt\n        /* \"#utility.yul\":22635:22754   */\n      iszero\n      tag_862\n      jumpi\n        /* \"#utility.yul\":22673:22752   */\n      tag_863\n      tag_516\n      jump\t// in\n    tag_863:\n        /* \"#utility.yul\":22635:22754   */\n    tag_862:\n        /* \"#utility.yul\":22793:22794   */\n      0x00\n        /* \"#utility.yul\":22818:22880   */\n      tag_864\n        /* \"#utility.yul\":22872:22879   */\n      dup5\n        /* \"#utility.yul\":22863:22869   */\n      dup3\n        /* \"#utility.yul\":22852:22861   */\n      dup6\n        /* \"#utility.yul\":22848:22870   */\n      add\n        /* \"#utility.yul\":22818:22880   */\n      tag_567\n      jump\t// in\n    tag_864:\n        /* \"#utility.yul\":22808:22880   */\n      swap2\n      pop\n        /* \"#utility.yul\":22764:22890   */\n      pop\n        /* \"#utility.yul\":22550:22897   */\n      swap3\n      swap2\n      pop\n      pop\n      jump\t// out\n        /* \"#utility.yul\":22903:23083   */\n    tag_568:\n        /* \"#utility.yul\":22951:23028   */\n      0x4e487b7100000000000000000000000000000000000000000000000000000000\n        /* \"#utility.yul\":22948:22949   */\n      0x00\n        /* \"#utility.yul\":22941:23029   */\n      mstore\n        /* \"#utility.yul\":23048:23052   */\n      0x22\n        /* \"#utility.yul\":23045:23046   */\n      0x04\n        /* \"#utility.yul\":23038:23053   */\n      mstore\n        /* \"#utility.yul\":23072:23076   */\n      0x24\n        /* \"#utility.yul\":23069:23070   */\n      0x00\n        /* \"#utility.yul\":23062:23077   */\n      revert\n        /* \"#utility.yul\":23089:23409   */\n    tag_169:\n        /* \"#utility.yul\":23133:23139   */\n      0x00\n        /* \"#utility.yul\":23170:23171   */\n      0x02\n        /* \"#utility.yul\":23164:23168   */\n      dup3\n        /* \"#utility.yul\":23160:23172   */\n      div\n        /* \"#utility.yul\":23150:23172   */\n      swap1\n      pop\n        /* \"#utility.yul\":23217:23218   */\n      0x01\n        /* \"#utility.yul\":23211:23215   */\n      dup3\n        /* \"#utility.yul\":23207:23219   */\n      and\n        /* \"#utility.yul\":23238:23256   */\n      dup1\n        /* \"#utility.yul\":23228:23309   */\n      tag_867\n      jumpi\n        /* \"#utility.yul\":23294:23298   */\n      0x7f\n        /* \"#utility.yul\":23286:23292   */\n      dup3\n        /* \"#utility.yul\":23282:23299   */\n      and\n        /* \"#utility.yul\":23272:23299   */\n      swap2\n      pop\n        /* \"#utility.yul\":23228:23309   */\n    tag_867:\n        /* \"#utility.yul\":23356:23358   */\n      0x20\n        /* \"#utility.yul\":23348:23354   */\n      dup3\n        /* \"#utility.yul\":23345:23359   */\n      lt\n        /* \"#utility.yul\":23325:23343   */\n      dup2\n        /* \"#utility.yul\":23322:23360   */\n      sub\n        /* \"#utility.yul\":23319:23403   */\n      tag_868\n      jumpi\n        /* \"#utility.yul\":23375:23393   */\n      tag_869\n      tag_568\n      jump\t// in\n    tag_869:\n        /* \"#utility.yul\":23319:23403   */\n    tag_868:\n        /* \"#utility.yul\":23140:23409   */\n      pop\n        /* \"#utility.yul\":23089:23409   */\n      swap2\n      swap1\n      pop\n      jump\t// out\n        /* \"#utility.yul\":23415:23556   */\n    tag_569:\n        /* \"#utility.yul\":23464:23468   */\n      0x00\n        /* \"#utility.yul\":23487:23490   */\n      dup2\n        /* \"#utility.yul\":23479:23490   */\n      swap1\n      pop\n        /* \"#utility.yul\":23510:23513   */\n      dup2\n        /* \"#utility.yul\":23507:23508   */\n      0x00\n        /* \"#utility.yul\":23500:23514   */\n      mstore\n        /* \"#utility.yul\":23544:23548   */\n      0x20\n        /* \"#utility.yul\":23541:23542   */\n      0x00\n        /* \"#utility.yul\":23531:23549   */\n      keccak256\n        /* \"#utility.yul\":23523:23549   */\n      swap1\n      pop\n        /* \"#utility.yul\":23415:23556   */\n      swap2\n      swap1\n      pop\n      jump\t// out\n        /* \"#utility.yul\":23562:23655   */\n    tag_570:\n        /* \"#utility.yul\":23599:23605   */\n      0x00\n        /* \"#utility.yul\":23646:23648   */\n      0x20\n        /* \"#utility.yul\":23641:23643   */\n      0x1f\n        /* \"#utility.yul\":23634:23639   */\n      dup4\n        /* \"#utility.yul\":23630:23644   */\n      add\n        /* \"#utility.yul\":23626:23649   */\n      div\n        /* \"#utility.yul\":23616:23649   */\n      swap1\n      pop\n        /* \"#utility.yul\":23562:23655   */\n      swap2\n      swap1\n      pop\n      jump\t// out\n        /* \"#utility.yul\":23661:23768   */\n    tag_571:\n        /* \"#utility.yul\":23705:23713   */\n      0x00\n        /* \"#utility.yul\":23755:23760   */\n      dup3\n        /* \"#utility.yul\":23749:23753   */\n      dup3\n        /* \"#utility.yul\":23745:23761   */\n      shl\n        /* \"#utility.yul\":23724:23761   */\n      swap1\n      pop\n        /* \"#utility.yul\":23661:23768   */\n      swap3\n      swap2\n      pop\n      pop\n      jump\t// out\n        /* \"#utility.yul\":23774:24167   */\n    tag_572:\n        /* \"#utility.yul\":23843:23849   */\n      0x00\n        /* \"#utility.yul\":23893:23894   */\n      0x08\n        /* \"#utility.yul\":23881:23891   */\n      dup4\n        /* \"#utility.yul\":23877:23895   */\n      mul\n        /* \"#utility.yul\":23916:24013   */\n      tag_874\n        /* \"#utility.yul\":23946:24012   */\n      0xffffffffffffffffffffffffffffffffffffffffffffffffffffffffffffffff\n        /* \"#utility.yul\":23935:23944   */\n      dup3\n        /* \"#utility.yul\":23916:24013   */\n      tag_571\n      jump\t// in\n    tag_874:\n        /* \"#utility.yul\":24034:24073   */\n      tag_875\n        /* \"#utility.yul\":24064:24072   */\n      dup7\n        /* \"#utility.yul\":24053:24062   */\n      dup4\n        /* \"#utility.yul\":24034:24073   */\n      tag_571\n      jump\t// in\n    tag_875:\n        /* \"#utility.yul\":24022:24073   */\n      swap6\n      pop\n        /* \"#utility.yul\":24106:24110   */\n      dup1\n        /* \"#utility.yul\":24102:24111   */\n      not\n        /* \"#utility.yul\":24095:24100   */\n      dup5\n        /* \"#utility.yul\":24091:24112   */\n      and\n        /* \"#utility.yul\":24082:24112   */\n      swap4\n      pop\n        /* \"#utility.yul\":24155:24159   */\n      dup1\n        /* \"#utility.yul\":24145:24153   */\n      dup7\n        /* \"#utility.yul\":24141:24160   */\n      and\n        /* \"#utility.yul\":24134:24139   */\n      dup5\n        /* \"#utility.yul\":24131:24161   */\n      or\n        /* \"#utility.yul\":24121:24161   */\n      swap3\n      pop\n        /* \"#utility.yul\":23850:24167   */\n      pop\n      pop\n        /* \"#utility.yul\":23774:24167   */\n      swap4\n      swap3\n      pop\n      pop\n      pop\n      jump\t// out\n        /* \"#utility.yul\":24173:24233   */\n    tag_573:\n        /* \"#utility.yul\":24201:24204   */\n      0x00\n        /* \"#utility.yul\":24222:24227   */\n      dup2\n        /* \"#utility.yul\":24215:24227   */\n      swap1\n      pop\n        /* \"#utility.yul\":24173:24233   */\n      swap2\n      swap1\n      pop\n      jump\t// out\n        /* \"#utility.yul\":24239:24381   */\n    tag_574:\n        /* \"#utility.yul\":24289:24298   */\n      0x00\n        /* \"#utility.yul\":24322:24375   */\n      tag_878\n        /* \"#utility.yul\":24340:24374   */\n      tag_879\n        /* \"#utility.yul\":24349:24373   */\n      tag_880\n        /* \"#utility.yul\":24367:24372   */\n      dup5\n        /* \"#utility.yul\":24349:24373   */\n      tag_536\n      jump\t// in\n    tag_880:\n        /* \"#utility.yul\":24340:24374   */\n      tag_573\n      jump\t// in\n    tag_879:\n        /* \"#utility.yul\":24322:24375   */\n      tag_536\n      jump\t// in\n    tag_878:\n        /* \"#utility.yul\":24309:24375   */\n      swap1\n      pop\n        /* \"#utility.yul\":24239:24381   */\n      swap2\n      swap1\n      pop\n      jump\t// out\n        /* \"#utility.yul\":24387:24462   */\n    tag_575:\n        /* \"#utility.yul\":24430:24433   */\n      0x00\n        /* \"#utility.yul\":24451:24456   */\n      dup2\n        /* \"#utility.yul\":24444:24456   */\n      swap1\n      pop\n        /* \"#utility.yul\":24387:24462   */\n      swap2\n      swap1\n      pop\n      jump\t// out\n        /* \"#utility.yul\":24468:24737   */\n    tag_576:\n        /* \"#utility.yul\":24578:24617   */\n      tag_883\n        /* \"#utility.yul\":24609:24616   */\n      dup4\n        /* \"#utility.yul\":24578:24617   */\n      tag_574\n      jump\t// in\n    tag_883:\n        /* \"#utility.yul\":24639:24730   */\n      tag_884\n        /* \"#utility.yul\":24688:24729   */\n      tag_885\n        /* \"#utility.yul\":24712:24728   */\n      dup3\n        /* \"#utility.yul\":24688:24729   */\n      tag_575\n      jump\t// in\n    tag_885:\n        /* \"#utility.yul\":24680:24686   */\n      dup5\n        /* \"#utility.yul\":24673:24677   */\n      dup5\n        /* \"#utility.yul\":24667:24678   */\n      sload\n        /* \"#utility.yul\":24639:24730   */\n      tag_572\n      jump\t// in\n    tag_884:\n        /* \"#utility.yul\":24633:24637   */\n      dup3\n        /* \"#utility.yul\":24626:24731   */\n      sstore\n        /* \"#utility.yul\":24544:24737   */\n      pop\n        /* \"#utility.yul\":24468:24737   */\n      pop\n      pop\n      pop\n      jump\t// out\n        /* \"#utility.yul\":24743:24816   */\n    tag_577:\n        /* \"#utility.yul\":24788:24791   */\n      0x00\n        /* \"#utility.yul\":24809:24810   */\n      0x00\n        /* \"#utility.yul\":24802:24810   */\n      swap1\n      pop\n        /* \"#utility.yul\":24743:24816   */\n      swap1\n      jump\t// out\n        /* \"#utility.yul\":24822:25011   */\n    tag_578:\n        /* \"#utility.yul\":24899:24931   */\n      tag_888\n      tag_577\n      jump\t// in\n    tag_888:\n        /* \"#utility.yul\":24940:25005   */\n      tag_889\n        /* \"#utility.yul\":24998:25004   */\n      dup2\n        /* \"#utility.yul\":24990:24996   */\n      dup5\n        /* \"#utility.yul\":24984:24988   */\n      dup5\n        /* \"#utility.yul\":24940:25005   */\n      tag_576\n      jump\t// in\n    tag_889:\n        /* \"#utility.yul\":24875:25011   */\n      pop\n        /* \"#utility.yul\":24822:25011   */\n      pop\n      pop\n      jump\t// out\n        /* \"#utility.yul\":25017:25203   */\n    tag_579:\n        /* \"#utility.yul\":25077:25197   */\n    tag_891:\n        /* \"#utility.yul\":25094:25097   */\n      dup2\n        /* \"#utility.yul\":25087:25092   */\n      dup2\n        /* \"#utility.yul\":25084:25098   */\n      lt\n        /* \"#utility.yul\":25077:25197   */\n      iszero\n      tag_893\n      jumpi\n        /* \"#utility.yul\":25148:25187   */\n      tag_894\n        /* \"#utility.yul\":25185:25186   */\n      0x00\n        /* \"#utility.yul\":25178:25183   */\n      dup3\n        /* \"#utility.yul\":25148:25187   */\n      tag_578\n      jump\t// in\n    tag_894:\n        /* \"#utility.yul\":25121:25122   */\n      0x01\n        /* \"#utility.yul\":25114:25119   */\n      dup2\n        /* \"#utility.yul\":25110:25123   */\n      add\n        /* \"#utility.yul\":25101:25123   */\n      swap1\n      pop\n        /* \"#utility.yul\":25077:25197   */\n      jump(tag_891)\n    tag_893:\n        /* \"#utility.yul\":25017:25203   */\n      pop\n      pop\n      jump\t// out\n        /* \"#utility.yul\":25209:25752   */\n    tag_580:\n        /* \"#utility.yul\":25310:25312   */\n      0x1f\n        /* \"#utility.yul\":25305:25308   */\n      dup3\n        /* \"#utility.yul\":25302:25313   */\n      gt\n        /* \"#utility.yul\":25299:25745   */\n      iszero\n      tag_896\n      jumpi\n        /* \"#utility.yul\":25344:25382   */\n      tag_897\n        /* \"#utility.yul\":25376:25381   */\n      dup2\n        /* \"#utility.yul\":25344:25382   */\n      tag_569\n      jump\t// in\n    tag_897:\n        /* \"#utility.yul\":25428:25457   */\n      tag_898\n        /* \"#utility.yul\":25446:25456   */\n      dup5\n        /* \"#utility.yul\":25428:25457   */\n      tag_570\n      jump\t// in\n    tag_898:\n        /* \"#utility.yul\":25418:25426   */\n      dup2\n        /* \"#utility.yul\":25414:25458   */\n      add\n        /* \"#utility.yul\":25611:25613   */\n      0x20\n        /* \"#utility.yul\":25599:25609   */\n      dup6\n        /* \"#utility.yul\":25596:25614   */\n      lt\n        /* \"#utility.yul\":25593:25642   */\n      iszero\n      tag_899\n      jumpi\n        /* \"#utility.yul\":25632:25640   */\n      dup2\n        /* \"#utility.yul\":25617:25640   */\n      swap1\n      pop\n        /* \"#utility.yul\":25593:25642   */\n    tag_899:\n        /* \"#utility.yul\":25655:25735   */\n      tag_900\n        /* \"#utility.yul\":25711:25733   */\n      tag_901\n        /* \"#utility.yul\":25729:25732   */\n      dup6\n        /* \"#utility.yul\":25711:25733   */\n      tag_570\n      jump\t// in\n    tag_901:\n        /* \"#utility.yul\":25701:25709   */\n      dup4\n        /* \"#utility.yul\":25697:25734   */\n      add\n        /* \"#utility.yul\":25684:25695   */\n      dup3\n        /* \"#utility.yul\":25655:25735   */\n      tag_579\n      jump\t// in\n    tag_900:\n        /* \"#utility.yul\":25314:25745   */\n      pop\n      pop\n        /* \"#utility.yul\":25299:25745   */\n    tag_896:\n        /* \"#utility.yul\":25209:25752   */\n      pop\n      pop\n      pop\n      jump\t// out\n        /* \"#utility.yul\":25758:25875   */\n    tag_581:\n        /* \"#utility.yul\":25812:25820   */\n      0x00\n        /* \"#utility.yul\":25862:25867   */\n      dup3\n        /* \"#utility.yul\":25856:25860   */\n      dup3\n        /* \"#utility.yul\":25852:25868   */\n      shr\n        /* \"#utility.yul\":25831:25868   */\n      swap1\n      pop\n        /* \"#utility.yul\":25758:25875   */\n      swap3\n      swap2\n      pop\n      pop\n      jump\t// out\n        /* \"#utility.yul\":25881:26050   */\n    tag_582:\n        /* \"#utility.yul\":25925:25931   */\n      0x00\n        /* \"#utility.yul\":25958:26009   */\n      tag_904\n        /* \"#utility.yul\":26006:26007   */\n      0x00\n        /* \"#utility.yul\":26002:26008   */\n      not\n        /* \"#utility.yul\":25994:25999   */\n      dup5\n        /* \"#utility.yul\":25991:25992   */\n      0x08\n        /* \"#utility.yul\":25987:26000   */\n      mul\n        /* \"#utility.yul\":25958:26009   */\n      tag_581\n      jump\t// in\n    tag_904:\n        /* \"#utility.yul\":25954:26010   */\n      not\n        /* \"#utility.yul\":26039:26043   */\n      dup1\n        /* \"#utility.yul\":26033:26037   */\n      dup4\n        /* \"#utility.yul\":26029:26044   */\n      and\n        /* \"#utility.yul\":26019:26044   */\n      swap2\n      pop\n        /* \"#utility.yul\":25932:26050   */\n      pop\n        /* \"#utility.yul\":25881:26050   */\n      swap3\n      swap2\n      pop\n      pop\n      jump\t// out\n        /* \"#utility.yul\":26055:26350   */\n    tag_583:\n        /* \"#utility.yul\":26131:26135   */\n      0x00\n        /* \"#utility.yul\":26277:26306   */\n      tag_906\n        /* \"#utility.yul\":26302:26305   */\n      dup4\n        /* \"#utility.yul\":26296:26300   */\n      dup4\n        /* \"#utility.yul\":26277:26306   */\n      tag_582\n      jump\t// in\n    tag_906:\n        /* \"#utility.yul\":26269:26306   */\n      swap2\n      pop\n        /* \"#utility.yul\":26339:26342   */\n      dup3\n        /* \"#utility.yul\":26336:26337   */\n      0x02\n        /* \"#utility.yul\":26332:26343   */\n      mul\n        /* \"#utility.yul\":26326:26330   */\n      dup3\n        /* \"#utility.yul\":26323:26344   */\n      or\n        /* \"#utility.yul\":26315:26344   */\n      swap1\n      pop\n        /* \"#utility.yul\":26055:26350   */\n      swap3\n      swap2\n      pop\n      pop\n      jump\t// out\n        /* \"#utility.yul\":26355:27750   */\n    tag_160:\n        /* \"#utility.yul\":26472:26509   */\n      tag_908\n        /* \"#utility.yul\":26505:26508   */\n      dup3\n        /* \"#utility.yul\":26472:26509   */\n      tag_510\n      jump\t// in\n    tag_908:\n        /* \"#utility.yul\":26574:26592   */\n      0xffffffffffffffff\n        /* \"#utility.yul\":26566:26572   */\n      dup2\n        /* \"#utility.yul\":26563:26593   */\n      gt\n        /* \"#utility.yul\":26560:26616   */\n      iszero\n      tag_909\n      jumpi\n        /* \"#utility.yul\":26596:26614   */\n      tag_910\n      tag_182\n      jump\t// in\n    tag_910:\n        /* \"#utility.yul\":26560:26616   */\n    tag_909:\n        /* \"#utility.yul\":26640:26678   */\n      tag_911\n        /* \"#utility.yul\":26672:26676   */\n      dup3\n        /* \"#utility.yul\":26666:26677   */\n      sload\n        /* \"#utility.yul\":26640:26678   */\n      tag_169\n      jump\t// in\n    tag_911:\n        /* \"#utility.yul\":26725:26792   */\n      tag_912\n        /* \"#utility.yul\":26785:26791   */\n      dup3\n        /* \"#utility.yul\":26777:26783   */\n      dup3\n        /* \"#utility.yul\":26771:26775   */\n      dup6\n        /* \"#utility.yul\":26725:26792   */\n      tag_580\n      jump\t// in\n    tag_912:\n        /* \"#utility.yul\":26819:26820   */\n      0x00\n        /* \"#utility.yul\":26843:26847   */\n      0x20\n        /* \"#utility.yul\":26830:26847   */\n      swap1\n      pop\n        /* \"#utility.yul\":26875:26877   */\n      0x1f\n        /* \"#utility.yul\":26867:26873   */\n      dup4\n        /* \"#utility.yul\":26864:26878   */\n      gt\n        /* \"#utility.yul\":26892:26893   */\n      0x01\n        /* \"#utility.yul\":26887:27505   */\n      dup2\n      eq\n      tag_914\n      jumpi\n        /* \"#utility.yul\":27549:27550   */\n      0x00\n        /* \"#utility.yul\":27566:27572   */\n      dup5\n        /* \"#utility.yul\":27563:27640   */\n      iszero\n      tag_915\n      jumpi\n        /* \"#utility.yul\":27615:27624   */\n      dup3\n        /* \"#utility.yul\":27610:27613   */\n      dup8\n        /* \"#utility.yul\":27606:27625   */\n      add\n        /* \"#utility.yul\":27600:27626   */\n      mload\n        /* \"#utility.yul\":27591:27626   */\n      swap1\n      pop\n        /* \"#utility.yul\":27563:27640   */\n    tag_915:\n        /* \"#utility.yul\":27666:27733   */\n      tag_916\n        /* \"#utility.yul\":27726:27732   */\n      dup6\n        /* \"#utility.yul\":27719:27724   */\n      dup3\n        /* \"#utility.yul\":27666:27733   */\n      tag_583\n      jump\t// in\n    tag_916:\n        /* \"#utility.yul\":27660:27664   */\n      dup7\n        /* \"#utility.yul\":27653:27734   */\n      sstore\n        /* \"#utility.yul\":27522:27744   */\n      pop\n        /* \"#utility.yul\":26857:27744   */\n      jump(tag_913)\n        /* \"#utility.yul\":26887:27505   */\n    tag_914:\n        /* \"#utility.yul\":26939:26943   */\n      0x1f\n        /* \"#utility.yul\":26935:26944   */\n      not\n        /* \"#utility.yul\":26927:26933   */\n      dup5\n        /* \"#utility.yul\":26923:26945   */\n      and\n        /* \"#utility.yul\":26973:27010   */\n      tag_917\n        /* \"#utility.yul\":27005:27009   */\n      dup7\n        /* \"#utility.yul\":26973:27010   */\n      tag_569\n      jump\t// in\n    tag_917:\n        /* \"#utility.yul\":27032:27033   */\n      0x00\n        /* \"#utility.yul\":27046:27254   */\n    tag_918:\n        /* \"#utility.yul\":27060:27067   */\n      dup3\n        /* \"#utility.yul\":27057:27058   */\n      dup2\n        /* \"#utility.yul\":27054:27068   */\n      lt\n        /* \"#utility.yul\":27046:27254   */\n      iszero\n      tag_920\n      jumpi\n        /* \"#utility.yul\":27139:27148   */\n      dup5\n        /* \"#utility.yul\":27134:27137   */\n      dup10\n        /* \"#utility.yul\":27130:27149   */\n      add\n        /* \"#utility.yul\":27124:27150   */\n      mload\n        /* \"#utility.yul\":27116:27122   */\n      dup3\n        /* \"#utility.yul\":27109:27151   */\n      sstore\n        /* \"#utility.yul\":27190:27191   */\n      0x01\n        /* \"#utility.yul\":27182:27188   */\n      dup3\n        /* \"#utility.yul\":27178:27192   */\n      add\n        /* \"#utility.yul\":27168:27192   */\n      swap2\n      pop\n        /* \"#utility.yul\":27237:27239   */\n      0x20\n        /* \"#utility.yul\":27226:27235   */\n      dup6\n        /* \"#utility.yul\":27222:27240   */\n      add\n        /* \"#utility.yul\":27209:27240   */\n      swap5\n      pop\n        /* \"#utility.yul\":27083:27087   */\n      0x20\n        /* \"#utility.yul\":27080:27081   */\n      dup2\n        /* \"#utility.yul\":27076:27088   */\n      add\n        /* \"#utility.yul\":27071:27088   */\n      swap1\n      pop\n        /* \"#utility.yul\":27046:27254   */\n      jump(tag_918)\n    tag_920:\n        /* \"#utility.yul\":27282:27288   */\n      dup7\n        /* \"#utility.yul\":27273:27280   */\n      dup4\n        /* \"#utility.yul\":27270:27289   */\n      lt\n        /* \"#utility.yul\":27267:27446   */\n      iszero\n      tag_921\n      jumpi\n        /* \"#utility.yul\":27340:27349   */\n      dup5\n        /* \"#utility.yul\":27335:27338   */\n      dup10\n        /* \"#utility.yul\":27331:27350   */\n      add\n        /* \"#utility.yul\":27325:27351   */\n      mload\n        /* \"#utility.yul\":27383:27431   */\n      tag_922\n        /* \"#utility.yul\":27425:27429   */\n      0x1f\n        /* \"#utility.yul\":27417:27423   */\n      dup10\n        /* \"#utility.yul\":27413:27430   */\n      and\n        /* \"#utility.yul\":27402:27411   */\n      dup3\n        /* \"#utility.yul\":27383:27431   */\n      tag_582\n      jump\t// in\n    tag_922:\n        /* \"#utility.yul\":27375:27381   */\n      dup4\n        /* \"#utility.yul\":27368:27432   */\n      sstore\n        /* \"#utility.yul\":27290:27446   */\n      pop\n        /* \"#utility.yul\":27267:27446   */\n    tag_921:\n        /* \"#utility.yul\":27492:27493   */\n      0x01\n        /* \"#utility.yul\":27488:27489   */\n      0x02\n        /* \"#utility.yul\":27480:27486   */\n      dup9\n        /* \"#utility.yul\":27476:27490   */\n      mul\n        /* \"#utility.yul\":27472:27494   */\n      add\n        /* \"#utility.yul\":27466:27470   */\n      dup9\n        /* \"#utility.yul\":27459:27495   */\n      sstore\n        /* \"#utility.yul\":26894:27505   */\n      pop\n      pop\n      pop\n        /* \"#utility.yul\":26857:27744   */\n    tag_913:\n      pop\n        /* \"#utility.yul\":26447:27750   */\n      pop\n      pop\n      pop\n        /* \"#utility.yul\":26355:27750   */\n      pop\n      pop\n      jump\t// out\n        /* \"#utility.yul\":27756:28368   */\n    tag_163:\n        /* \"#utility.yul\":27939:27943   */\n      0x00\n        /* \"#utility.yul\":27977:27979   */\n      0x60\n        /* \"#utility.yul\":27966:27975   */\n      dup3\n        /* \"#utility.yul\":27962:27980   */\n      add\n        /* \"#utility.yul\":27954:27980   */\n      swap1\n      pop\n        /* \"#utility.yul\":28026:28035   */\n      dup2\n        /* \"#utility.yul\":28020:28024   */\n      dup2\n        /* \"#utility.yul\":28016:28036   */\n      sub\n        /* \"#utility.yul\":28012:28013   */\n      0x00\n        /* \"#utility.yul\":28001:28010   */\n      dup4\n        /* \"#utility.yul\":27997:28014   */\n      add\n        /* \"#utility.yul\":27990:28037   */\n      mstore\n        /* \"#utility.yul\":28054:28132   */\n      tag_924\n        /* \"#utility.yul\":28127:28131   */\n      dup2\n        /* \"#utility.yul\":28118:28124   */\n      dup7\n        /* \"#utility.yul\":28054:28132   */\n      tag_514\n      jump\t// in\n    tag_924:\n        /* \"#utility.yul\":28046:28132   */\n      swap1\n      pop\n        /* \"#utility.yul\":28179:28188   */\n      dup2\n        /* \"#utility.yul\":28173:28177   */\n      dup2\n        /* \"#utility.yul\":28169:28189   */\n      sub\n        /* \"#utility.yul\":28164:28166   */\n      0x20\n        /* \"#utility.yul\":28153:28162   */\n      dup4\n        /* \"#utility.yul\":28149:28167   */\n      add\n        /* \"#utility.yul\":28142:28190   */\n      mstore\n        /* \"#utility.yul\":28207:28285   */\n      tag_925\n        /* \"#utility.yul\":28280:28284   */\n      dup2\n        /* \"#utility.yul\":28271:28277   */\n      dup6\n        /* \"#utility.yul\":28207:28285   */\n      tag_514\n      jump\t// in\n    tag_925:\n        /* \"#utility.yul\":28199:28285   */\n      swap1\n      pop\n        /* \"#utility.yul\":28295:28361   */\n      tag_926\n        /* \"#utility.yul\":28357:28359   */\n      0x40\n        /* \"#utility.yul\":28346:28355   */\n      dup4\n        /* \"#utility.yul\":28342:28360   */\n      add\n        /* \"#utility.yul\":28333:28339   */\n      dup5\n        /* \"#utility.yul\":28295:28361   */\n      tag_525\n      jump\t// in\n    tag_926:\n        /* \"#utility.yul\":27756:28368   */\n      swap5\n      swap4\n      pop\n      pop\n      pop\n      pop\n      jump\t// out\n        /* \"#utility.yul\":28374:28544   */\n    tag_584:\n        /* \"#utility.yul\":28514:28536   */\n      0x546f6b656e20696e666f206e6f7420666f756e64000000000000000000000000\n        /* \"#utility.yul\":28510:28511   */\n      0x00\n        /* \"#utility.yul\":28502:28508   */\n      dup3\n        /* \"#utility.yul\":28498:28512   */\n      add\n        /* \"#utility.yul\":28491:28537   */\n      mstore\n        /* \"#utility.yul\":28374:28544   */\n      pop\n      jump\t// out\n        /* \"#utility.yul\":28550:28916   */\n    tag_585:\n        /* \"#utility.yul\":28692:28695   */\n      0x00\n        /* \"#utility.yul\":28713:28780   */\n      tag_929\n        /* \"#utility.yul\":28777:28779   */\n      0x14\n        /* \"#utility.yul\":28772:28775   */\n      dup4\n        /* \"#utility.yul\":28713:28780   */\n      tag_511\n      jump\t// in\n    tag_929:\n        /* \"#utility.yul\":28706:28780   */\n      swap2\n      pop\n        /* \"#utility.yul\":28789:28882   */\n      tag_930\n        /* \"#utility.yul\":28878:28881   */\n      dup3\n        /* \"#utility.yul\":28789:28882   */\n      tag_584\n      jump\t// in\n    tag_930:\n        /* \"#utility.yul\":28907:28909   */\n      0x20\n        /* \"#utility.yul\":28902:28905   */\n      dup3\n        /* \"#utility.yul\":28898:28910   */\n      add\n        /* \"#utility.yul\":28891:28910   */\n      swap1\n      pop\n        /* \"#utility.yul\":28550:28916   */\n      swap2\n      swap1\n      pop\n      jump\t// out\n        /* \"#utility.yul\":28922:29341   */\n    tag_167:\n        /* \"#utility.yul\":29088:29092   */\n      0x00\n        /* \"#utility.yul\":29126:29128   */\n      0x20\n        /* \"#utility.yul\":29115:29124   */\n      dup3\n        /* \"#utility.yul\":29111:29129   */\n      add\n        /* \"#utility.yul\":29103:29129   */\n      swap1\n      pop\n        /* \"#utility.yul\":29175:29184   */\n      dup2\n        /* \"#utility.yul\":29169:29173   */\n      dup2\n        /* \"#utility.yul\":29165:29185   */\n      sub\n        /* \"#utility.yul\":29161:29162   */\n      0x00\n        /* \"#utility.yul\":29150:29159   */\n      dup4\n        /* \"#utility.yul\":29146:29163   */\n      add\n        /* \"#utility.yul\":29139:29186   */\n      mstore\n        /* \"#utility.yul\":29203:29334   */\n      tag_932\n        /* \"#utility.yul\":29329:29333   */\n      dup2\n        /* \"#utility.yul\":29203:29334   */\n      tag_585\n      jump\t// in\n    tag_932:\n        /* \"#utility.yul\":29195:29334   */\n      swap1\n      pop\n        /* \"#utility.yul\":28922:29341   */\n      swap2\n      swap1\n      pop\n      jump\t// out\n        /* \"#utility.yul\":29347:29527   */\n    tag_192:\n        /* \"#utility.yul\":29395:29472   */\n      0x4e487b7100000000000000000000000000000000000000000000000000000000\n        /* \"#utility.yul\":29392:29393   */\n      0x00\n        /* \"#utility.yul\":29385:29473   */\n      mstore\n        /* \"#utility.yul\":29492:29496   */\n      0x32\n        /* \"#utility.yul\":29489:29490   */\n      0x04\n        /* \"#utility.yul\":29482:29497   */\n      mstore\n        /* \"#utility.yul\":29516:29520   */\n      0x24\n        /* \"#utility.yul\":29513:29514   */\n      0x00\n        /* \"#utility.yul\":29506:29521   */\n      revert\n        /* \"#utility.yul\":29533:29705   */\n    tag_586:\n        /* \"#utility.yul\":29673:29697   */\n      0x417272617973206c656e677468206d69736d6174636800000000000000000000\n        /* \"#utility.yul\":29669:29670   */\n      0x00\n        /* \"#utility.yul\":29661:29667   */\n      dup3\n        /* \"#utility.yul\":29657:29671   */\n      add\n        /* \"#utility.yul\":29650:29698   */\n      mstore\n        /* \"#utility.yul\":29533:29705   */\n      pop\n      jump\t// out\n        /* \"#utility.yul\":29711:30077   */\n    tag_587:\n        /* \"#utility.yul\":29853:29856   */\n      0x00\n        /* \"#utility.yul\":29874:29941   */\n      tag_936\n        /* \"#utility.yul\":29938:29940   */\n      0x16\n        /* \"#utility.yul\":29933:29936   */\n      dup4\n        /* \"#utility.yul\":29874:29941   */\n      tag_511\n      jump\t// in\n    tag_936:\n        /* \"#utility.yul\":29867:29941   */\n      swap2\n      pop\n        /* \"#utility.yul\":29950:30043   */\n      tag_937\n        /* \"#utility.yul\":30039:30042   */\n      dup3\n        /* \"#utility.yul\":29950:30043   */\n      tag_586\n      jump\t// in\n    tag_937:\n        /* \"#utility.yul\":30068:30070   */\n      0x20\n        /* \"#utility.yul\":30063:30066   */\n      dup3\n        /* \"#utility.yul\":30059:30071   */\n      add\n        /* \"#utility.yul\":30052:30071   */\n      swap1\n      pop\n        /* \"#utility.yul\":29711:30077   */\n      swap2\n      swap1\n      pop\n      jump\t// out\n        /* \"#utility.yul\":30083:30502   */\n    tag_219:\n        /* \"#utility.yul\":30249:30253   */\n      0x00\n        /* \"#utility.yul\":30287:30289   */\n      0x20\n        /* \"#utility.yul\":30276:30285   */\n      dup3\n        /* \"#utility.yul\":30272:30290   */\n      add\n        /* \"#utility.yul\":30264:30290   */\n      swap1\n      pop\n        /* \"#utility.yul\":30336:30345   */\n      dup2\n        /* \"#utility.yul\":30330:30334   */\n      dup2\n        /* \"#utility.yul\":30326:30346   */\n      sub\n        /* \"#utility.yul\":30322:30323   */\n      0x00\n        /* \"#utility.yul\":30311:30320   */\n      dup4\n        /* \"#utility.yul\":30307:30324   */\n      add\n        /* \"#utility.yul\":30300:30347   */\n      mstore\n        /* \"#utility.yul\":30364:30495   */\n      tag_939\n        /* \"#utility.yul\":30490:30494   */\n      dup2\n        /* \"#utility.yul\":30364:30495   */\n      tag_587\n      jump\t// in\n    tag_939:\n        /* \"#utility.yul\":30356:30495   */\n      swap1\n      pop\n        /* \"#utility.yul\":30083:30502   */\n      swap2\n      swap1\n      pop\n      jump\t// out\n        /* \"#utility.yul\":30508:30676   */\n    tag_588:\n        /* \"#utility.yul\":30648:30668   */\n      0x4e6f20746f6b656e732070726f76696465640000000000000000000000000000\n        /* \"#utility.yul\":30644:30645   */\n      0x00\n        /* \"#utility.yul\":30636:30642   */\n      dup3\n        /* \"#utility.yul\":30632:30646   */\n      add\n        /* \"#utility.yul\":30625:30669   */\n      mstore\n        /* \"#utility.yul\":30508:30676   */\n      pop\n      jump\t// out\n        /* \"#utility.yul\":30682:31048   */\n    tag_589:\n        /* \"#utility.yul\":30824:30827   */\n      0x00\n        /* \"#utility.yul\":30845:30912   */\n      tag_942\n        /* \"#utility.yul\":30909:30911   */\n      0x12\n        /* \"#utility.yul\":30904:30907   */\n      dup4\n        /* \"#utility.yul\":30845:30912   */\n      tag_511\n      jump\t// in\n    tag_942:\n        /* \"#utility.yul\":30838:30912   */\n      swap2\n      pop\n        /* \"#utility.yul\":30921:31014   */\n      tag_943\n        /* \"#utility.yul\":31010:31013   */\n      dup3\n        /* \"#utility.yul\":30921:31014   */\n      tag_588\n      jump\t// in\n    tag_943:\n        /* \"#utility.yul\":31039:31041   */\n      0x20\n        /* \"#utility.yul\":31034:31037   */\n      dup3\n        /* \"#utility.yul\":31030:31042   */\n      add\n        /* \"#utility.yul\":31023:31042   */\n      swap1\n      pop\n        /* \"#utility.yul\":30682:31048   */\n      swap2\n      swap1\n      pop\n      jump\t// out\n        /* \"#utility.yul\":31054:31473   */\n    tag_222:\n        /* \"#utility.yul\":31220:31224   */\n      0x00\n        /* \"#utility.yul\":31258:31260   */\n      0x20\n        /* \"#utility.yul\":31247:31256   */\n      dup3\n        /* \"#utility.yul\":31243:31261   */\n      add\n        /* \"#utility.yul\":31235:31261   */\n      swap1\n      pop\n        /* \"#utility.yul\":31307:31316   */\n      dup2\n        /* \"#utility.yul\":31301:31305   */\n      dup2\n        /* \"#utility.yul\":31297:31317   */\n      sub\n        /* \"#utility.yul\":31293:31294   */\n      0x00\n        /* \"#utility.yul\":31282:31291   */\n      dup4\n        /* \"#utility.yul\":31278:31295   */\n      add\n        /* \"#utility.yul\":31271:31318   */\n      mstore\n        /* \"#utility.yul\":31335:31466   */\n      tag_945\n        /* \"#utility.yul\":31461:31465   */\n      dup2\n        /* \"#utility.yul\":31335:31466   */\n      tag_589\n      jump\t// in\n    tag_945:\n        /* \"#utility.yul\":31327:31466   */\n      swap1\n      pop\n        /* \"#utility.yul\":31054:31473   */\n      swap2\n      swap1\n      pop\n      jump\t// out\n        /* \"#utility.yul\":31479:31648   */\n    tag_590:\n        /* \"#utility.yul\":31619:31640   */\n      0x546f6b656e206e6f7420737570706f7274656400000000000000000000000000\n        /* \"#utility.yul\":31615:31616   */\n      0x00\n        /* \"#utility.yul\":31607:31613   */\n      dup3\n        /* \"#utility.yul\":31603:31617   */\n      add\n        /* \"#utility.yul\":31596:31641   */\n      mstore\n        /* \"#utility.yul\":31479:31648   */\n      pop\n      jump\t// out\n        /* \"#utility.yul\":31654:32020   */\n    tag_591:\n        /* \"#utility.yul\":31796:31799   */\n      0x00\n        /* \"#utility.yul\":31817:31884   */\n      tag_948\n        /* \"#utility.yul\":31881:31883   */\n      0x13\n        /* \"#utility.yul\":31876:31879   */\n      dup4\n        /* \"#utility.yul\":31817:31884   */\n      tag_511\n      jump\t// in\n    tag_948:\n        /* \"#utility.yul\":31810:31884   */\n      swap2\n      pop\n        /* \"#utility.yul\":31893:31986   */\n      tag_949\n        /* \"#utility.yul\":31982:31985   */\n      dup3\n        /* \"#utility.yul\":31893:31986   */\n      tag_590\n      jump\t// in\n    tag_949:\n        /* \"#utility.yul\":32011:32013   */\n      0x20\n        /* \"#utility.yul\":32006:32009   */\n      dup3\n        /* \"#utility.yul\":32002:32014   */\n      add\n        /* \"#utility.yul\":31995:32014   */\n      swap1\n      pop\n        /* \"#utility.yul\":31654:32020   */\n      swap2\n      swap1\n      pop\n      jump\t// out\n        /* \"#utility.yul\":32026:32445   */\n    tag_231:\n        /* \"#utility.yul\":32192:32196   */\n      0x00\n        /* \"#utility.yul\":32230:32232   */\n      0x20\n        /* \"#utility.yul\":32219:32228   */\n      dup3\n        /* \"#utility.yul\":32215:32233   */\n      add\n        /* \"#utility.yul\":32207:32233   */\n      swap1\n      pop\n        /* \"#utility.yul\":32279:32288   */\n      dup2\n        /* \"#utility.yul\":32273:32277   */\n      dup2\n        /* \"#utility.yul\":32269:32289   */\n      sub\n        /* \"#utility.yul\":32265:32266   */\n      0x00\n        /* \"#utility.yul\":32254:32263   */\n      dup4\n        /* \"#utility.yul\":32250:32267   */\n      add\n        /* \"#utility.yul\":32243:32290   */\n      mstore\n        /* \"#utility.yul\":32307:32438   */\n      tag_951\n        /* \"#utility.yul\":32433:32437   */\n      dup2\n        /* \"#utility.yul\":32307:32438   */\n      tag_591\n      jump\t// in\n    tag_951:\n        /* \"#utility.yul\":32299:32438   */\n      swap1\n      pop\n        /* \"#utility.yul\":32026:32445   */\n      swap2\n      swap1\n      pop\n      jump\t// out\n        /* \"#utility.yul\":32451:32626   */\n    tag_592:\n        /* \"#utility.yul\":32591:32618   */\n      0x496e76616c696420726563697069656e74206164647265737300000000000000\n        /* \"#utility.yul\":32587:32588   */\n      0x00\n        /* \"#utility.yul\":32579:32585   */\n      dup3\n        /* \"#utility.yul\":32575:32589   */\n      add\n        /* \"#utility.yul\":32568:32619   */\n      mstore\n        /* \"#utility.yul\":32451:32626   */\n      pop\n      jump\t// out\n        /* \"#utility.yul\":32632:32998   */\n    tag_593:\n        /* \"#utility.yul\":32774:32777   */\n      0x00\n        /* \"#utility.yul\":32795:32862   */\n      tag_954\n        /* \"#utility.yul\":32859:32861   */\n      0x19\n        /* \"#utility.yul\":32854:32857   */\n      dup4\n        /* \"#utility.yul\":32795:32862   */\n      tag_511\n      jump\t// in\n    tag_954:\n        /* \"#utility.yul\":32788:32862   */\n      swap2\n      pop\n        /* \"#utility.yul\":32871:32964   */\n      tag_955\n        /* \"#utility.yul\":32960:32963   */\n      dup3\n        /* \"#utility.yul\":32871:32964   */\n      tag_592\n      jump\t// in\n    tag_955:\n        /* \"#utility.yul\":32989:32991   */\n      0x20\n        /* \"#utility.yul\":32984:32987   */\n      dup3\n        /* \"#utility.yul\":32980:32992   */\n      add\n        /* \"#utility.yul\":32973:32992   */\n      swap1\n      pop\n        /* \"#utility.yul\":32632:32998   */\n      swap2\n      swap1\n      pop\n      jump\t// out\n        /* \"#utility.yul\":33004:33423   */\n    tag_237:\n        /* \"#utility.yul\":33170:33174   */\n      0x00\n        /* \"#utility.yul\":33208:33210   */\n      0x20\n        /* \"#utility.yul\":33197:33206   */\n      dup3\n        /* \"#utility.yul\":33193:33211   */\n      add\n        /* \"#utility.yul\":33185:33211   */\n      swap1\n      pop\n        /* \"#utility.yul\":33257:33266   */\n      dup2\n        /* \"#utility.yul\":33251:33255   */\n      dup2\n        /* \"#utility.yul\":33247:33267   */\n      sub\n        /* \"#utility.yul\":33243:33244   */\n      0x00\n        /* \"#utility.yul\":33232:33241   */\n      dup4\n        /* \"#utility.yul\":33228:33245   */\n      add\n        /* \"#utility.yul\":33221:33268   */\n      mstore\n        /* \"#utility.yul\":33285:33416   */\n      tag_957\n        /* \"#utility.yul\":33411:33415   */\n      dup2\n        /* \"#utility.yul\":33285:33416   */\n      tag_593\n      jump\t// in\n    tag_957:\n        /* \"#utility.yul\":33277:33416   */\n      swap1\n      pop\n        /* \"#utility.yul\":33004:33423   */\n      swap2\n      swap1\n      pop\n      jump\t// out\n        /* \"#utility.yul\":33429:33608   */\n    tag_594:\n        /* \"#utility.yul\":33569:33600   */\n      0x416d6f756e74206d7573742062652067726561746572207468616e2030000000\n        /* \"#utility.yul\":33565:33566   */\n      0x00\n        /* \"#utility.yul\":33557:33563   */\n      dup3\n        /* \"#utility.yul\":33553:33567   */\n      add\n        /* \"#utility.yul\":33546:33601   */\n      mstore\n        /* \"#utility.yul\":33429:33608   */\n      pop\n      jump\t// out\n        /* \"#utility.yul\":33614:33980   */\n    tag_595:\n        /* \"#utility.yul\":33756:33759   */\n      0x00\n        /* \"#utility.yul\":33777:33844   */\n      tag_960\n        /* \"#utility.yul\":33841:33843   */\n      0x1d\n        /* \"#utility.yul\":33836:33839   */\n      dup4\n        /* \"#utility.yul\":33777:33844   */\n      tag_511\n      jump\t// in\n    tag_960:\n        /* \"#utility.yul\":33770:33844   */\n      swap2\n      pop\n        /* \"#utility.yul\":33853:33946   */\n      tag_961\n        /* \"#utility.yul\":33942:33945   */\n      dup3\n        /* \"#utility.yul\":33853:33946   */\n      tag_594\n      jump\t// in\n    tag_961:\n        /* \"#utility.yul\":33971:33973   */\n      0x20\n        /* \"#utility.yul\":33966:33969   */\n      dup3\n        /* \"#utility.yul\":33962:33974   */\n      add\n        /* \"#utility.yul\":33955:33974   */\n      swap1\n      pop\n        /* \"#utility.yul\":33614:33980   */\n      swap2\n      swap1\n      pop\n      jump\t// out\n        /* \"#utility.yul\":33986:34405   */\n    tag_242:\n        /* \"#utility.yul\":34152:34156   */\n      0x00\n        /* \"#utility.yul\":34190:34192   */\n      0x20\n        /* \"#utility.yul\":34179:34188   */\n      dup3\n        /* \"#utility.yul\":34175:34193   */\n      add\n        /* \"#utility.yul\":34167:34193   */\n      swap1\n      pop\n        /* \"#utility.yul\":34239:34248   */\n      dup2\n        /* \"#utility.yul\":34233:34237   */\n      dup2\n        /* \"#utility.yul\":34229:34249   */\n      sub\n        /* \"#utility.yul\":34225:34226   */\n      0x00\n        /* \"#utility.yul\":34214:34223   */\n      dup4\n        /* \"#utility.yul\":34210:34227   */\n      add\n        /* \"#utility.yul\":34203:34250   */\n      mstore\n        /* \"#utility.yul\":34267:34398   */\n      tag_963\n        /* \"#utility.yul\":34393:34397   */\n      dup2\n        /* \"#utility.yul\":34267:34398   */\n      tag_595\n      jump\t// in\n    tag_963:\n        /* \"#utility.yul\":34259:34398   */\n      swap1\n      pop\n        /* \"#utility.yul\":33986:34405   */\n      swap2\n      swap1\n      pop\n      jump\t// out\n        /* \"#utility.yul\":34411:34593   */\n    tag_596:\n        /* \"#utility.yul\":34551:34585   */\n      0x496e73756666696369656e7420616c6c6f77616e636520666f7220746f6b656e\n        /* \"#utility.yul\":34547:34548   */\n      0x00\n        /* \"#utility.yul\":34539:34545   */\n      dup3\n        /* \"#utility.yul\":34535:34549   */\n      add\n        /* \"#utility.yul\":34528:34586   */\n      mstore\n        /* \"#utility.yul\":34411:34593   */\n      pop\n      jump\t// out\n        /* \"#utility.yul\":34599:34965   */\n    tag_597:\n        /* \"#utility.yul\":34741:34744   */\n      0x00\n        /* \"#utility.yul\":34762:34829   */\n      tag_966\n        /* \"#utility.yul\":34826:34828   */\n      0x20\n        /* \"#utility.yul\":34821:34824   */\n      dup4\n        /* \"#utility.yul\":34762:34829   */\n      tag_511\n      jump\t// in\n    tag_966:\n        /* \"#utility.yul\":34755:34829   */\n      swap2\n      pop\n        /* \"#utility.yul\":34838:34931   */\n      tag_967\n        /* \"#utility.yul\":34927:34930   */\n      dup3\n        /* \"#utility.yul\":34838:34931   */\n      tag_596\n      jump\t// in\n    tag_967:\n        /* \"#utility.yul\":34956:34958   */\n      0x20\n        /* \"#utility.yul\":34951:34954   */\n      dup3\n        /* \"#utility.yul\":34947:34959   */\n      add\n        /* \"#utility.yul\":34940:34959   */\n      swap1\n      pop\n        /* \"#utility.yul\":34599:34965   */\n      swap2\n      swap1\n      pop\n      jump\t// out\n        /* \"#utility.yul\":34971:35390   */\n    tag_252:\n        /* \"#utility.yul\":35137:35141   */\n      0x00\n        /* \"#utility.yul\":35175:35177   */\n      0x20\n        /* \"#utility.yul\":35164:35173   */\n      dup3\n        /* \"#utility.yul\":35160:35178   */\n      add\n        /* \"#utility.yul\":35152:35178   */\n      swap1\n      pop\n        /* \"#utility.yul\":35224:35233   */\n      dup2\n        /* \"#utility.yul\":35218:35222   */\n      dup2\n        /* \"#utility.yul\":35214:35234   */\n      sub\n        /* \"#utility.yul\":35210:35211   */\n      0x00\n        /* \"#utility.yul\":35199:35208   */\n      dup4\n        /* \"#utility.yul\":35195:35212   */\n      add\n        /* \"#utility.yul\":35188:35235   */\n      mstore\n        /* \"#utility.yul\":35252:35383   */\n      tag_969\n        /* \"#utility.yul\":35378:35382   */\n      dup2\n        /* \"#utility.yul\":35252:35383   */\n      tag_597\n      jump\t// in\n    tag_969:\n        /* \"#utility.yul\":35244:35383   */\n      swap1\n      pop\n        /* \"#utility.yul\":34971:35390   */\n      swap2\n      swap1\n      pop\n      jump\t// out\n        /* \"#utility.yul\":35396:35576   */\n    tag_598:\n        /* \"#utility.yul\":35536:35568   */\n      0x496e73756666696369656e742062616c616e636520666f7220746f6b656e0000\n        /* \"#utility.yul\":35532:35533   */\n      0x00\n        /* \"#utility.yul\":35524:35530   */\n      dup3\n        /* \"#utility.yul\":35520:35534   */\n      add\n        /* \"#utility.yul\":35513:35569   */\n      mstore\n        /* \"#utility.yul\":35396:35576   */\n      pop\n      jump\t// out\n        /* \"#utility.yul\":35582:35948   */\n    tag_599:\n        /* \"#utility.yul\":35724:35727   */\n      0x00\n        /* \"#utility.yul\":35745:35812   */\n      tag_972\n        /* \"#utility.yul\":35809:35811   */\n      0x1e\n        /* \"#utility.yul\":35804:35807   */\n      dup4\n        /* \"#utility.yul\":35745:35812   */\n      tag_511\n      jump\t// in\n    tag_972:\n        /* \"#utility.yul\":35738:35812   */\n      swap2\n      pop\n        /* \"#utility.yul\":35821:35914   */\n      tag_973\n        /* \"#utility.yul\":35910:35913   */\n      dup3\n        /* \"#utility.yul\":35821:35914   */\n      tag_598\n      jump\t// in\n    tag_973:\n        /* \"#utility.yul\":35939:35941   */\n      0x20\n        /* \"#utility.yul\":35934:35937   */\n      dup3\n        /* \"#utility.yul\":35930:35942   */\n      add\n        /* \"#utility.yul\":35923:35942   */\n      swap1\n      pop\n        /* \"#utility.yul\":35582:35948   */\n      swap2\n      swap1\n      pop\n      jump\t// out\n        /* \"#utility.yul\":35954:36373   */\n    tag_262:\n        /* \"#utility.yul\":36120:36124   */\n      0x00\n        /* \"#utility.yul\":36158:36160   */\n      0x20\n        /* \"#utility.yul\":36147:36156   */\n      dup3\n        /* \"#utility.yul\":36143:36161   */\n      add\n        /* \"#utility.yul\":36135:36161   */\n      swap1\n      pop\n        /* \"#utility.yul\":36207:36216   */\n      dup2\n        /* \"#utility.yul\":36201:36205   */\n      dup2\n        /* \"#utility.yul\":36197:36217   */\n      sub\n        /* \"#utility.yul\":36193:36194   */\n      0x00\n        /* \"#utility.yul\":36182:36191   */\n      dup4\n        /* \"#utility.yul\":36178:36195   */\n      add\n        /* \"#utility.yul\":36171:36218   */\n      mstore\n        /* \"#utility.yul\":36235:36366   */\n      tag_975\n        /* \"#utility.yul\":36361:36365   */\n      dup2\n        /* \"#utility.yul\":36235:36366   */\n      tag_599\n      jump\t// in\n    tag_975:\n        /* \"#utility.yul\":36227:36366   */\n      swap1\n      pop\n        /* \"#utility.yul\":35954:36373   */\n      swap2\n      swap1\n      pop\n      jump\t// out\n        /* \"#utility.yul\":36379:36554   */\n    tag_600:\n        /* \"#utility.yul\":36519:36546   */\n      0x5472616e73666572206661696c656420666f7220746f6b656e00000000000000\n        /* \"#utility.yul\":36515:36516   */\n      0x00\n        /* \"#utility.yul\":36507:36513   */\n      dup3\n        /* \"#utility.yul\":36503:36517   */\n      add\n        /* \"#utility.yul\":36496:36547   */\n      mstore\n        /* \"#utility.yul\":36379:36554   */\n      pop\n      jump\t// out\n        /* \"#utility.yul\":36560:36926   */\n    tag_601:\n        /* \"#utility.yul\":36702:36705   */\n      0x00\n        /* \"#utility.yul\":36723:36790   */\n      tag_978\n        /* \"#utility.yul\":36787:36789   */\n      0x19\n        /* \"#utility.yul\":36782:36785   */\n      dup4\n        /* \"#utility.yul\":36723:36790   */\n      tag_511\n      jump\t// in\n    tag_978:\n        /* \"#utility.yul\":36716:36790   */\n      swap2\n      pop\n        /* \"#utility.yul\":36799:36892   */\n      tag_979\n        /* \"#utility.yul\":36888:36891   */\n      dup3\n        /* \"#utility.yul\":36799:36892   */\n      tag_600\n      jump\t// in\n    tag_979:\n        /* \"#utility.yul\":36917:36919   */\n      0x20\n        /* \"#utility.yul\":36912:36915   */\n      dup3\n        /* \"#utility.yul\":36908:36920   */\n      add\n        /* \"#utility.yul\":36901:36920   */\n      swap1\n      pop\n        /* \"#utility.yul\":36560:36926   */\n      swap2\n      swap1\n      pop\n      jump\t// out\n        /* \"#utility.yul\":36932:37351   */\n    tag_275:\n        /* \"#utility.yul\":37098:37102   */\n      0x00\n        /* \"#utility.yul\":37136:37138   */\n      0x20\n        /* \"#utility.yul\":37125:37134   */\n      dup3\n        /* \"#utility.yul\":37121:37139   */\n      add\n        /* \"#utility.yul\":37113:37139   */\n      swap1\n      pop\n        /* \"#utility.yul\":37185:37194   */\n      dup2\n        /* \"#utility.yul\":37179:37183   */\n      dup2\n        /* \"#utility.yul\":37175:37195   */\n      sub\n        /* \"#utility.yul\":37171:37172   */\n      0x00\n        /* \"#utility.yul\":37160:37169   */\n      dup4\n        /* \"#utility.yul\":37156:37173   */\n      add\n        /* \"#utility.yul\":37149:37196   */\n      mstore\n        /* \"#utility.yul\":37213:37344   */\n      tag_981\n        /* \"#utility.yul\":37339:37343   */\n      dup2\n        /* \"#utility.yul\":37213:37344   */\n      tag_601\n      jump\t// in\n    tag_981:\n        /* \"#utility.yul\":37205:37344   */\n      swap1\n      pop\n        /* \"#utility.yul\":36932:37351   */\n      swap2\n      swap1\n      pop\n      jump\t// out\n        /* \"#utility.yul\":37357:37459   */\n    tag_602:\n        /* \"#utility.yul\":37426:37430   */\n      0x00\n        /* \"#utility.yul\":37449:37452   */\n      dup2\n        /* \"#utility.yul\":37441:37452   */\n      swap1\n      pop\n        /* \"#utility.yul\":37357:37459   */\n      swap2\n      swap1\n      pop\n      jump\t// out\n        /* \"#utility.yul\":37465:37587   */\n    tag_603:\n        /* \"#utility.yul\":37517:37522   */\n      0x00\n        /* \"#utility.yul\":37542:37581   */\n      tag_984\n        /* \"#utility.yul\":37577:37579   */\n      0x20\n        /* \"#utility.yul\":37572:37575   */\n      dup5\n        /* \"#utility.yul\":37568:37580   */\n      add\n        /* \"#utility.yul\":37563:37566   */\n      dup5\n        /* \"#utility.yul\":37542:37581   */\n      tag_521\n      jump\t// in\n    tag_984:\n        /* \"#utility.yul\":37533:37581   */\n      swap1\n      pop\n        /* \"#utility.yul\":37465:37587   */\n      swap3\n      swap2\n      pop\n      pop\n      jump\t// out\n        /* \"#utility.yul\":37593:37708   */\n    tag_604:\n        /* \"#utility.yul\":37665:37669   */\n      0x00\n        /* \"#utility.yul\":37697:37701   */\n      0x20\n        /* \"#utility.yul\":37692:37695   */\n      dup3\n        /* \"#utility.yul\":37688:37702   */\n      add\n        /* \"#utility.yul\":37680:37702   */\n      swap1\n      pop\n        /* \"#utility.yul\":37593:37708   */\n      swap2\n      swap1\n      pop\n      jump\t// out\n        /* \"#utility.yul\":37744:38443   */\n    tag_605:\n        /* \"#utility.yul\":37873:37876   */\n      0x00\n        /* \"#utility.yul\":37896:37982   */\n      tag_987\n        /* \"#utility.yul\":37975:37981   */\n      dup4\n        /* \"#utility.yul\":37970:37973   */\n      dup6\n        /* \"#utility.yul\":37896:37982   */\n      tag_527\n      jump\t// in\n    tag_987:\n        /* \"#utility.yul\":37889:37982   */\n      swap4\n      pop\n        /* \"#utility.yul\":38006:38064   */\n      tag_988\n        /* \"#utility.yul\":38058:38063   */\n      dup3\n        /* \"#utility.yul\":38006:38064   */\n      tag_602\n      jump\t// in\n    tag_988:\n        /* \"#utility.yul\":38087:38094   */\n      dup1\n        /* \"#utility.yul\":38118:38119   */\n      0x00\n        /* \"#utility.yul\":38103:38418   */\n    tag_989:\n        /* \"#utility.yul\":38128:38134   */\n      dup6\n        /* \"#utility.yul\":38125:38126   */\n      dup2\n        /* \"#utility.yul\":38122:38135   */\n      lt\n        /* \"#utility.yul\":38103:38418   */\n      iszero\n      tag_991\n      jumpi\n        /* \"#utility.yul\":38198:38240   */\n      tag_992\n        /* \"#utility.yul\":38233:38239   */\n      dup3\n        /* \"#utility.yul\":38224:38231   */\n      dup5\n        /* \"#utility.yul\":38198:38240   */\n      tag_603\n      jump\t// in\n    tag_992:\n        /* \"#utility.yul\":38260:38323   */\n      tag_993\n        /* \"#utility.yul\":38319:38322   */\n      dup9\n        /* \"#utility.yul\":38304:38317   */\n      dup3\n        /* \"#utility.yul\":38260:38323   */\n      tag_530\n      jump\t// in\n    tag_993:\n        /* \"#utility.yul\":38253:38323   */\n      swap8\n      pop\n        /* \"#utility.yul\":38346:38408   */\n      tag_994\n        /* \"#utility.yul\":38401:38407   */\n      dup4\n        /* \"#utility.yul\":38346:38408   */\n      tag_604\n      jump\t// in\n    tag_994:\n        /* \"#utility.yul\":38336:38408   */\n      swap3\n      pop\n        /* \"#utility.yul\":38163:38418   */\n      pop\n        /* \"#utility.yul\":38150:38151   */\n      0x01\n        /* \"#utility.yul\":38147:38148   */\n      dup2\n        /* \"#utility.yul\":38143:38152   */\n      add\n        /* \"#utility.yul\":38138:38152   */\n      swap1\n      pop\n        /* \"#utility.yul\":38103:38418   */\n      jump(tag_989)\n    tag_991:\n        /* \"#utility.yul\":38107:38121   */\n      pop\n        /* \"#utility.yul\":38434:38437   */\n      dup6\n        /* \"#utility.yul\":38427:38437   */\n      swap3\n      pop\n        /* \"#utility.yul\":37878:38443   */\n      pop\n      pop\n        /* \"#utility.yul\":37744:38443   */\n      swap4\n      swap3\n      pop\n      pop\n      pop\n      jump\t// out\n        /* \"#utility.yul\":38449:38566   */\n    tag_606:\n        /* \"#utility.yul\":38558:38559   */\n      0x00\n        /* \"#utility.yul\":38555:38556   */\n      0x00\n        /* \"#utility.yul\":38548:38560   */\n      revert\n        /* \"#utility.yul\":38572:38671   */\n    tag_607:\n        /* \"#utility.yul\":38657:38663   */\n      dup3\n        /* \"#utility.yul\":38652:38655   */\n      dup2\n        /* \"#utility.yul\":38647:38650   */\n      dup4\n        /* \"#utility.yul\":38634:38664   */\n      calldatacopy\n        /* \"#utility.yul\":38572:38671   */\n      pop\n      pop\n      pop\n      jump\t// out\n        /* \"#utility.yul\":38707:39244   */\n    tag_608:\n        /* \"#utility.yul\":38835:38838   */\n      0x00\n        /* \"#utility.yul\":38856:38942   */\n      tag_998\n        /* \"#utility.yul\":38935:38941   */\n      dup4\n        /* \"#utility.yul\":38930:38933   */\n      dup6\n        /* \"#utility.yul\":38856:38942   */\n      tag_534\n      jump\t// in\n    tag_998:\n        /* \"#utility.yul\":38849:38942   */\n      swap4\n      pop\n        /* \"#utility.yul\":38966:39032   */\n      0x07ffffffffffffffffffffffffffffffffffffffffffffffffffffffffffffff\n        /* \"#utility.yul\":38958:38964   */\n      dup4\n        /* \"#utility.yul\":38955:39033   */\n      gt\n        /* \"#utility.yul\":38952:39117   */\n      iszero\n      tag_999\n      jumpi\n        /* \"#utility.yul\":39036:39115   */\n      tag_1000\n      tag_606\n      jump\t// in\n    tag_1000:\n        /* \"#utility.yul\":38952:39117   */\n    tag_999:\n        /* \"#utility.yul\":39148:39152   */\n      0x20\n        /* \"#utility.yul\":39140:39146   */\n      dup4\n        /* \"#utility.yul\":39136:39153   */\n      mul\n        /* \"#utility.yul\":39126:39153   */\n      swap3\n      pop\n        /* \"#utility.yul\":39163:39206   */\n      tag_1001\n        /* \"#utility.yul\":39199:39205   */\n      dup4\n        /* \"#utility.yul\":39194:39197   */\n      dup6\n        /* \"#utility.yul\":39187:39192   */\n      dup5\n        /* \"#utility.yul\":39163:39206   */\n      tag_607\n      jump\t// in\n    tag_1001:\n        /* \"#utility.yul\":39231:39237   */\n      dup3\n        /* \"#utility.yul\":39226:39229   */\n      dup5\n        /* \"#utility.yul\":39222:39238   */\n      add\n        /* \"#utility.yul\":39215:39238   */\n      swap1\n      pop\n        /* \"#utility.yul\":38707:39244   */\n      swap4\n      swap3\n      pop\n      pop\n      pop\n      jump\t// out\n        /* \"#utility.yul\":39250:40316   */\n    tag_277:\n        /* \"#utility.yul\":39607:39611   */\n      0x00\n        /* \"#utility.yul\":39645:39648   */\n      0x80\n        /* \"#utility.yul\":39634:39643   */\n      dup3\n        /* \"#utility.yul\":39630:39649   */\n      add\n        /* \"#utility.yul\":39622:39649   */\n      swap1\n      pop\n        /* \"#utility.yul\":39695:39704   */\n      dup2\n        /* \"#utility.yul\":39689:39693   */\n      dup2\n        /* \"#utility.yul\":39685:39705   */\n      sub\n        /* \"#utility.yul\":39681:39682   */\n      0x00\n        /* \"#utility.yul\":39670:39679   */\n      dup4\n        /* \"#utility.yul\":39666:39683   */\n      add\n        /* \"#utility.yul\":39659:39706   */\n      mstore\n        /* \"#utility.yul\":39723:39841   */\n      tag_1003\n        /* \"#utility.yul\":39836:39840   */\n      dup2\n        /* \"#utility.yul\":39827:39833   */\n      dup10\n        /* \"#utility.yul\":39819:39825   */\n      dup12\n        /* \"#utility.yul\":39723:39841   */\n      tag_605\n      jump\t// in\n    tag_1003:\n        /* \"#utility.yul\":39715:39841   */\n      swap1\n      pop\n        /* \"#utility.yul\":39888:39897   */\n      dup2\n        /* \"#utility.yul\":39882:39886   */\n      dup2\n        /* \"#utility.yul\":39878:39898   */\n      sub\n        /* \"#utility.yul\":39873:39875   */\n      0x20\n        /* \"#utility.yul\":39862:39871   */\n      dup4\n        /* \"#utility.yul\":39858:39876   */\n      add\n        /* \"#utility.yul\":39851:39899   */\n      mstore\n        /* \"#utility.yul\":39916:40034   */\n      tag_1004\n        /* \"#utility.yul\":40029:40033   */\n      dup2\n        /* \"#utility.yul\":40020:40026   */\n      dup8\n        /* \"#utility.yul\":40012:40018   */\n      dup10\n        /* \"#utility.yul\":39916:40034   */\n      tag_605\n      jump\t// in\n    tag_1004:\n        /* \"#utility.yul\":39908:40034   */\n      swap1\n      pop\n        /* \"#utility.yul\":40081:40090   */\n      dup2\n        /* \"#utility.yul\":40075:40079   */\n      dup2\n        /* \"#utility.yul\":40071:40091   */\n      sub\n        /* \"#utility.yul\":40066:40068   */\n      0x40\n        /* \"#utility.yul\":40055:40064   */\n      dup4\n        /* \"#utility.yul\":40051:40069   */\n      add\n        /* \"#utility.yul\":40044:40092   */\n      mstore\n        /* \"#utility.yul\":40109:40227   */\n      tag_1005\n        /* \"#utility.yul\":40222:40226   */\n      dup2\n        /* \"#utility.yul\":40213:40219   */\n      dup6\n        /* \"#utility.yul\":40205:40211   */\n      dup8\n        /* \"#utility.yul\":40109:40227   */\n      tag_608\n      jump\t// in\n    tag_1005:\n        /* \"#utility.yul\":40101:40227   */\n      swap1\n      pop\n        /* \"#utility.yul\":40237:40309   */\n      tag_1006\n        /* \"#utility.yul\":40305:40307   */\n      0x60\n        /* \"#utility.yul\":40294:40303   */\n      dup4\n        /* \"#utility.yul\":40290:40308   */\n      add\n        /* \"#utility.yul\":40281:40287   */\n      dup5\n        /* \"#utility.yul\":40237:40309   */\n      tag_557\n      jump\t// in\n    tag_1006:\n        /* \"#utility.yul\":39250:40316   */\n      swap9\n      swap8\n      pop\n      pop\n      pop\n      pop\n      pop\n      pop\n      pop\n      pop\n      jump\t// out\n        /* \"#utility.yul\":40322:40494   */\n    tag_609:\n        /* \"#utility.yul\":40462:40486   */\n      0x4e6f20726563697069656e74732070726f766964656400000000000000000000\n        /* \"#utility.yul\":40458:40459   */\n      0x00\n        /* \"#utility.yul\":40450:40456   */\n      dup3\n        /* \"#utility.yul\":40446:40460   */\n      add\n        /* \"#utility.yul\":40439:40487   */\n      mstore\n        /* \"#utility.yul\":40322:40494   */\n      pop\n      jump\t// out\n        /* \"#utility.yul\":40500:40866   */\n    tag_610:\n        /* \"#utility.yul\":40642:40645   */\n      0x00\n        /* \"#utility.yul\":40663:40730   */\n      tag_1009\n        /* \"#utility.yul\":40727:40729   */\n      0x16\n        /* \"#utility.yul\":40722:40725   */\n      dup4\n        /* \"#utility.yul\":40663:40730   */\n      tag_511\n      jump\t// in\n    tag_1009:\n        /* \"#utility.yul\":40656:40730   */\n      swap2\n      pop\n        /* \"#utility.yul\":40739:40832   */\n      tag_1010\n        /* \"#utility.yul\":40828:40831   */\n      dup3\n        /* \"#utility.yul\":40739:40832   */\n      tag_609\n      jump\t// in\n    tag_1010:\n        /* \"#utility.yul\":40857:40859   */\n      0x20\n        /* \"#utility.yul\":40852:40855   */\n      dup3\n        /* \"#utility.yul\":40848:40860   */\n      add\n        /* \"#utility.yul\":40841:40860   */\n      swap1\n      pop\n        /* \"#utility.yul\":40500:40866   */\n      swap2\n      swap1\n      pop\n      jump\t// out\n        /* \"#utility.yul\":40872:41291   */\n    tag_290:\n        /* \"#utility.yul\":41038:41042   */\n      0x00\n        /* \"#utility.yul\":41076:41078   */\n      0x20\n        /* \"#utility.yul\":41065:41074   */\n      dup3\n        /* \"#utility.yul\":41061:41079   */\n      add\n        /* \"#utility.yul\":41053:41079   */\n      swap1\n      pop\n        /* \"#utility.yul\":41125:41134   */\n      dup2\n        /* \"#utility.yul\":41119:41123   */\n      dup2\n        /* \"#utility.yul\":41115:41135   */\n      sub\n        /* \"#utility.yul\":41111:41112   */\n      0x00\n        /* \"#utility.yul\":41100:41109   */\n      dup4\n        /* \"#utility.yul\":41096:41113   */\n      add\n        /* \"#utility.yul\":41089:41136   */\n      mstore\n        /* \"#utility.yul\":41153:41284   */\n      tag_1012\n        /* \"#utility.yul\":41279:41283   */\n      dup2\n        /* \"#utility.yul\":41153:41284   */\n      tag_610\n      jump\t// in\n    tag_1012:\n        /* \"#utility.yul\":41145:41284   */\n      swap1\n      pop\n        /* \"#utility.yul\":40872:41291   */\n      swap2\n      swap1\n      pop\n      jump\t// out\n        /* \"#utility.yul\":41297:41477   */\n    tag_611:\n        /* \"#utility.yul\":41345:41422   */\n      0x4e487b7100000000000000000000000000000000000000000000000000000000\n        /* \"#utility.yul\":41342:41343   */\n      0x00\n        /* \"#utility.yul\":41335:41423   */\n      mstore\n        /* \"#utility.yul\":41442:41446   */\n      0x11\n        /* \"#utility.yul\":41439:41440   */\n      0x04\n        /* \"#utility.yul\":41432:41447   */\n      mstore\n        /* \"#utility.yul\":41466:41470   */\n      0x24\n        /* \"#utility.yul\":41463:41464   */\n      0x00\n        /* \"#utility.yul\":41456:41471   */\n      revert\n        /* \"#utility.yul\":41483:41674   */\n    tag_301:\n        /* \"#utility.yul\":41523:41526   */\n      0x00\n        /* \"#utility.yul\":41542:41562   */\n      tag_1015\n        /* \"#utility.yul\":41560:41561   */\n      dup3\n        /* \"#utility.yul\":41542:41562   */\n      tag_536\n      jump\t// in\n    tag_1015:\n        /* \"#utility.yul\":41537:41562   */\n      swap2\n      pop\n        /* \"#utility.yul\":41576:41596   */\n      tag_1016\n        /* \"#utility.yul\":41594:41595   */\n      dup4\n        /* \"#utility.yul\":41576:41596   */\n      tag_536\n      jump\t// in\n    tag_1016:\n        /* \"#utility.yul\":41571:41596   */\n      swap3\n      pop\n        /* \"#utility.yul\":41619:41620   */\n      dup3\n        /* \"#utility.yul\":41616:41617   */\n      dup3\n        /* \"#utility.yul\":41612:41621   */\n      add\n        /* \"#utility.yul\":41605:41621   */\n      swap1\n      pop\n        /* \"#utility.yul\":41640:41643   */\n      dup1\n        /* \"#utility.yul\":41637:41638   */\n      dup3\n        /* \"#utility.yul\":41634:41644   */\n      gt\n        /* \"#utility.yul\":41631:41667   */\n      iszero\n      tag_1017\n      jumpi\n        /* \"#utility.yul\":41647:41665   */\n      tag_1018\n      tag_611\n      jump\t// in\n    tag_1018:\n        /* \"#utility.yul\":41631:41667   */\n    tag_1017:\n        /* \"#utility.yul\":41483:41674   */\n      swap3\n      swap2\n      pop\n      pop\n      jump\t// out\n        /* \"#utility.yul\":41680:41858   */\n    tag_612:\n        /* \"#utility.yul\":41820:41850   */\n      0x496e73756666696369656e7420746f74616c20616c6c6f77616e636500000000\n        /* \"#utility.yul\":41816:41817   */\n      0x00\n        /* \"#utility.yul\":41808:41814   */\n      dup3\n        /* \"#utility.yul\":41804:41818   */\n      add\n        /* \"#utility.yul\":41797:41851   */\n      mstore\n        /* \"#utility.yul\":41680:41858   */\n      pop\n      jump\t// out\n        /* \"#utility.yul\":41864:42230   */\n    tag_613:\n        /* \"#utility.yul\":42006:42009   */\n      0x00\n        /* \"#utility.yul\":42027:42094   */\n      tag_1021\n        /* \"#utility.yul\":42091:42093   */\n      0x1c\n        /* \"#utility.yul\":42086:42089   */\n      dup4\n        /* \"#utility.yul\":42027:42094   */\n      tag_511\n      jump\t// in\n    tag_1021:\n        /* \"#utility.yul\":42020:42094   */\n      swap2\n      pop\n        /* \"#utility.yul\":42103:42196   */\n      tag_1022\n        /* \"#utility.yul\":42192:42195   */\n      dup3\n        /* \"#utility.yul\":42103:42196   */\n      tag_612\n      jump\t// in\n    tag_1022:\n        /* \"#utility.yul\":42221:42223   */\n      0x20\n        /* \"#utility.yul\":42216:42219   */\n      dup3\n        /* \"#utility.yul\":42212:42224   */\n      add\n        /* \"#utility.yul\":42205:42224   */\n      swap1\n      pop\n        /* \"#utility.yul\":41864:42230   */\n      swap2\n      swap1\n      pop\n      jump\t// out\n        /* \"#utility.yul\":42236:42655   */\n    tag_305:\n        /* \"#utility.yul\":42402:42406   */\n      0x00\n        /* \"#utility.yul\":42440:42442   */\n      0x20\n        /* \"#utility.yul\":42429:42438   */\n      dup3\n        /* \"#utility.yul\":42425:42443   */\n      add\n        /* \"#utility.yul\":42417:42443   */\n      swap1\n      pop\n        /* \"#utility.yul\":42489:42498   */\n      dup2\n        /* \"#utility.yul\":42483:42487   */\n      dup2\n        /* \"#utility.yul\":42479:42499   */\n      sub\n        /* \"#utility.yul\":42475:42476   */\n      0x00\n        /* \"#utility.yul\":42464:42473   */\n      dup4\n        /* \"#utility.yul\":42460:42477   */\n      add\n        /* \"#utility.yul\":42453:42500   */\n      mstore\n        /* \"#utility.yul\":42517:42648   */\n      tag_1024\n        /* \"#utility.yul\":42643:42647   */\n      dup2\n        /* \"#utility.yul\":42517:42648   */\n      tag_613\n      jump\t// in\n    tag_1024:\n        /* \"#utility.yul\":42509:42648   */\n      swap1\n      pop\n        /* \"#utility.yul\":42236:42655   */\n      swap2\n      swap1\n      pop\n      jump\t// out\n        /* \"#utility.yul\":42661:42837   */\n    tag_614:\n        /* \"#utility.yul\":42801:42829   */\n      0x496e73756666696369656e7420746f74616c2062616c616e6365000000000000\n        /* \"#utility.yul\":42797:42798   */\n      0x00\n        /* \"#utility.yul\":42789:42795   */\n      dup3\n        /* \"#utility.yul\":42785:42799   */\n      add\n        /* \"#utility.yul\":42778:42830   */\n      mstore\n        /* \"#utility.yul\":42661:42837   */\n      pop\n      jump\t// out\n        /* \"#utility.yul\":42843:43209   */\n    tag_615:\n        /* \"#utility.yul\":42985:42988   */\n      0x00\n        /* \"#utility.yul\":43006:43073   */\n      tag_1027\n        /* \"#utility.yul\":43070:43072   */\n      0x1a\n        /* \"#utility.yul\":43065:43068   */\n      dup4\n        /* \"#utility.yul\":43006:43073   */\n      tag_511\n      jump\t// in\n    tag_1027:\n        /* \"#utility.yul\":42999:43073   */\n      swap2\n      pop\n        /* \"#utility.yul\":43082:43175   */\n      tag_1028\n        /* \"#utility.yul\":43171:43174   */\n      dup3\n        /* \"#utility.yul\":43082:43175   */\n      tag_614\n      jump\t// in\n    tag_1028:\n        /* \"#utility.yul\":43200:43202   */\n      0x20\n        /* \"#utility.yul\":43195:43198   */\n      dup3\n        /* \"#utility.yul\":43191:43203   */\n      add\n        /* \"#utility.yul\":43184:43203   */\n      swap1\n      pop\n        /* \"#utility.yul\":42843:43209   */\n      swap2\n      swap1\n      pop\n      jump\t// out\n        /* \"#utility.yul\":43215:43634   */\n    tag_309:\n        /* \"#utility.yul\":43381:43385   */\n      0x00\n        /* \"#utility.yul\":43419:43421   */\n      0x20\n        /* \"#utility.yul\":43408:43417   */\n      dup3\n        /* \"#utility.yul\":43404:43422   */\n      add\n        /* \"#utility.yul\":43396:43422   */\n      swap1\n      pop\n        /* \"#utility.yul\":43468:43477   */\n      dup2\n        /* \"#utility.yul\":43462:43466   */\n      dup2\n        /* \"#utility.yul\":43458:43478   */\n      sub\n        /* \"#utility.yul\":43454:43455   */\n      0x00\n        /* \"#utility.yul\":43443:43452   */\n      dup4\n        /* \"#utility.yul\":43439:43456   */\n      add\n        /* \"#utility.yul\":43432:43479   */\n      mstore\n        /* \"#utility.yul\":43496:43627   */\n      tag_1030\n        /* \"#utility.yul\":43622:43626   */\n      dup2\n        /* \"#utility.yul\":43496:43627   */\n      tag_615\n      jump\t// in\n    tag_1030:\n        /* \"#utility.yul\":43488:43627   */\n      swap1\n      pop\n        /* \"#utility.yul\":43215:43634   */\n      swap2\n      swap1\n      pop\n      jump\t// out\n        /* \"#utility.yul\":43640:43811   */\n    tag_616:\n        /* \"#utility.yul\":43780:43803   */\n      0x4261746368207472616e73666572206661696c65640000000000000000000000\n        /* \"#utility.yul\":43776:43777   */\n      0x00\n        /* \"#utility.yul\":43768:43774   */\n      dup3\n        /* \"#utility.yul\":43764:43778   */\n      add\n        /* \"#utility.yul\":43757:43804   */\n      mstore\n        /* \"#utility.yul\":43640:43811   */\n      pop\n      jump\t// out\n        /* \"#utility.yul\":43817:44183   */\n    tag_617:\n        /* \"#utility.yul\":43959:43962   */\n      0x00\n        /* \"#utility.yul\":43980:44047   */\n      tag_1033\n        /* \"#utility.yul\":44044:44046   */\n      0x15\n        /* \"#utility.yul\":44039:44042   */\n      dup4\n        /* \"#utility.yul\":43980:44047   */\n      tag_511\n      jump\t// in\n    tag_1033:\n        /* \"#utility.yul\":43973:44047   */\n      swap2\n      pop\n        /* \"#utility.yul\":44056:44149   */\n      tag_1034\n        /* \"#utility.yul\":44145:44148   */\n      dup3\n        /* \"#utility.yul\":44056:44149   */\n      tag_616\n      jump\t// in\n    tag_1034:\n        /* \"#utility.yul\":44174:44176   */\n      0x20\n        /* \"#utility.yul\":44169:44172   */\n      dup3\n        /* \"#utility.yul\":44165:44177   */\n      add\n        /* \"#utility.yul\":44158:44177   */\n      swap1\n      pop\n        /* \"#utility.yul\":43817:44183   */\n      swap2\n      swap1\n      pop\n      jump\t// out\n        /* \"#utility.yul\":44189:44608   */\n    tag_326:\n        /* \"#utility.yul\":44355:44359   */\n      0x00\n        /* \"#utility.yul\":44393:44395   */\n      0x20\n        /* \"#utility.yul\":44382:44391   */\n      dup3\n        /* \"#utility.yul\":44378:44396   */\n      add\n        /* \"#utility.yul\":44370:44396   */\n      swap1\n      pop\n        /* \"#utility.yul\":44442:44451   */\n      dup2\n        /* \"#utility.yul\":44436:44440   */\n      dup2\n        /* \"#utility.yul\":44432:44452   */\n      sub\n        /* \"#utility.yul\":44428:44429   */\n      0x00\n        /* \"#utility.yul\":44417:44426   */\n      dup4\n        /* \"#utility.yul\":44413:44430   */\n      add\n        /* \"#utility.yul\":44406:44453   */\n      mstore\n        /* \"#utility.yul\":44470:44601   */\n      tag_1036\n        /* \"#utility.yul\":44596:44600   */\n      dup2\n        /* \"#utility.yul\":44470:44601   */\n      tag_617\n      jump\t// in\n    tag_1036:\n        /* \"#utility.yul\":44462:44601   */\n      swap1\n      pop\n        /* \"#utility.yul\":44189:44608   */\n      swap2\n      swap1\n      pop\n      jump\t// out\n        /* \"#utility.yul\":44614:44808   */\n    tag_349:\n        /* \"#utility.yul\":44654:44658   */\n      0x00\n        /* \"#utility.yul\":44674:44694   */\n      tag_1038\n        /* \"#utility.yul\":44692:44693   */\n      dup3\n        /* \"#utility.yul\":44674:44694   */\n      tag_536\n      jump\t// in\n    tag_1038:\n        /* \"#utility.yul\":44669:44694   */\n      swap2\n      pop\n        /* \"#utility.yul\":44708:44728   */\n      tag_1039\n        /* \"#utility.yul\":44726:44727   */\n      dup4\n        /* \"#utility.yul\":44708:44728   */\n      tag_536\n      jump\t// in\n    tag_1039:\n        /* \"#utility.yul\":44703:44728   */\n      swap3\n      pop\n        /* \"#utility.yul\":44752:44753   */\n      dup3\n        /* \"#utility.yul\":44749:44750   */\n      dup3\n        /* \"#utility.yul\":44745:44754   */\n      sub\n        /* \"#utility.yul\":44737:44754   */\n      swap1\n      pop\n        /* \"#utility.yul\":44776:44777   */\n      dup2\n        /* \"#utility.yul\":44770:44774   */\n      dup2\n        /* \"#utility.yul\":44767:44778   */\n      gt\n        /* \"#utility.yul\":44764:44801   */\n      iszero\n      tag_1040\n      jumpi\n        /* \"#utility.yul\":44781:44799   */\n      tag_1041\n      tag_611\n      jump\t// in\n    tag_1041:\n        /* \"#utility.yul\":44764:44801   */\n    tag_1040:\n        /* \"#utility.yul\":44614:44808   */\n      swap3\n      swap2\n      pop\n      pop\n      jump\t// out\n        /* \"#utility.yul\":44814:44994   */\n    tag_358:\n        /* \"#utility.yul\":44862:44939   */\n      0x4e487b7100000000000000000000000000000000000000000000000000000000\n        /* \"#utility.yul\":44859:44860   */\n      0x00\n        /* \"#utility.yul\":44852:44940   */\n      mstore\n        /* \"#utility.yul\":44959:44963   */\n      0x31\n        /* \"#utility.yul\":44956:44957   */\n      0x04\n        /* \"#utility.yul\":44949:44964   */\n      mstore\n        /* \"#utility.yul\":44983:44987   */\n      0x24\n        /* \"#utility.yul\":44980:44981   */\n      0x00\n        /* \"#utility.yul\":44973:44988   */\n      revert\n        /* \"#utility.yul\":45000:45172   */\n    tag_618:\n        /* \"#utility.yul\":45140:45164   */\n      0x496e73756666696369656e7420616c6c6f77616e636500000000000000000000\n        /* \"#utility.yul\":45136:45137   */\n      0x00\n        /* \"#utility.yul\":45128:45134   */\n      dup3\n        /* \"#utility.yul\":45124:45138   */\n      add\n        /* \"#utility.yul\":45117:45165   */\n      mstore\n        /* \"#utility.yul\":45000:45172   */\n      pop\n      jump\t// out\n        /* \"#utility.yul\":45178:45544   */\n    tag_619:\n        /* \"#utility.yul\":45320:45323   */\n      0x00\n        /* \"#utility.yul\":45341:45408   */\n      tag_1045\n        /* \"#utility.yul\":45405:45407   */\n      0x16\n        /* \"#utility.yul\":45400:45403   */\n      dup4\n        /* \"#utility.yul\":45341:45408   */\n      tag_511\n      jump\t// in\n    tag_1045:\n        /* \"#utility.yul\":45334:45408   */\n      swap2\n      pop\n        /* \"#utility.yul\":45417:45510   */\n      tag_1046\n        /* \"#utility.yul\":45506:45509   */\n      dup3\n        /* \"#utility.yul\":45417:45510   */\n      tag_618\n      jump\t// in\n    tag_1046:\n        /* \"#utility.yul\":45535:45537   */\n      0x20\n        /* \"#utility.yul\":45530:45533   */\n      dup3\n        /* \"#utility.yul\":45526:45538   */\n      add\n        /* \"#utility.yul\":45519:45538   */\n      swap1\n      pop\n        /* \"#utility.yul\":45178:45544   */\n      swap2\n      swap1\n      pop\n      jump\t// out\n        /* \"#utility.yul\":45550:45969   */\n    tag_374:\n        /* \"#utility.yul\":45716:45720   */\n      0x00\n        /* \"#utility.yul\":45754:45756   */\n      0x20\n        /* \"#utility.yul\":45743:45752   */\n      dup3\n        /* \"#utility.yul\":45739:45757   */\n      add\n        /* \"#utility.yul\":45731:45757   */\n      swap1\n      pop\n        /* \"#utility.yul\":45803:45812   */\n      dup2\n        /* \"#utility.yul\":45797:45801   */\n      dup2\n        /* \"#utility.yul\":45793:45813   */\n      sub\n        /* \"#utility.yul\":45789:45790   */\n      0x00\n        /* \"#utility.yul\":45778:45787   */\n      dup4\n        /* \"#utility.yul\":45774:45791   */\n      add\n        /* \"#utility.yul\":45767:45814   */\n      mstore\n        /* \"#utility.yul\":45831:45962   */\n      tag_1048\n        /* \"#utility.yul\":45957:45961   */\n      dup2\n        /* \"#utility.yul\":45831:45962   */\n      tag_619\n      jump\t// in\n    tag_1048:\n        /* \"#utility.yul\":45823:45962   */\n      swap1\n      pop\n        /* \"#utility.yul\":45550:45969   */\n      swap2\n      swap1\n      pop\n      jump\t// out\n        /* \"#utility.yul\":45975:46145   */\n    tag_620:\n        /* \"#utility.yul\":46115:46137   */\n      0x496e73756666696369656e742062616c616e6365000000000000000000000000\n        /* \"#utility.yul\":46111:46112   */\n      0x00\n        /* \"#utility.yul\":46103:46109   */\n      dup3\n        /* \"#utility.yul\":46099:46113   */\n      add\n        /* \"#utility.yul\":46092:46138   */\n      mstore\n        /* \"#utility.yul\":45975:46145   */\n      pop\n      jump\t// out\n        /* \"#utility.yul\":46151:46517   */\n    tag_621:\n        /* \"#utility.yul\":46293:46296   */\n      0x00\n        /* \"#utility.yul\":46314:46381   */\n      tag_1051\n        /* \"#utility.yul\":46378:46380   */\n      0x14\n        /* \"#utility.yul\":46373:46376   */\n      dup4\n        /* \"#utility.yul\":46314:46381   */\n      tag_511\n      jump\t// in\n    tag_1051:\n        /* \"#utility.yul\":46307:46381   */\n      swap2\n      pop\n        /* \"#utility.yul\":46390:46483   */\n      tag_1052\n        /* \"#utility.yul\":46479:46482   */\n      dup3\n        /* \"#utility.yul\":46390:46483   */\n      tag_620\n      jump\t// in\n    tag_1052:\n        /* \"#utility.yul\":46508:46510   */\n      0x20\n        /* \"#utility.yul\":46503:46506   */\n      dup3\n        /* \"#utility.yul\":46499:46511   */\n      add\n        /* \"#utility.yul\":46492:46511   */\n      swap1\n      pop\n        /* \"#utility.yul\":46151:46517   */\n      swap2\n      swap1\n      pop\n      jump\t// out\n        /* \"#utility.yul\":46523:46942   */\n    tag_378:\n        /* \"#utility.yul\":46689:46693   */\n      0x00\n        /* \"#utility.yul\":46727:46729   */\n      0x20\n        /* \"#utility.yul\":46716:46725   */\n      dup3\n        /* \"#utility.yul\":46712:46730   */\n      add\n        /* \"#utility.yul\":46704:46730   */\n      swap1\n      pop\n        /* \"#utility.yul\":46776:46785   */\n      dup2\n        /* \"#utility.yul\":46770:46774   */\n      dup2\n        /* \"#utility.yul\":46766:46786   */\n      sub\n        /* \"#utility.yul\":46762:46763   */\n      0x00\n        /* \"#utility.yul\":46751:46760   */\n      dup4\n        /* \"#utility.yul\":46747:46764   */\n      add\n        /* \"#utility.yul\":46740:46787   */\n      mstore\n        /* \"#utility.yul\":46804:46935   */\n      tag_1054\n        /* \"#utility.yul\":46930:46934   */\n      dup2\n        /* \"#utility.yul\":46804:46935   */\n      tag_621\n      jump\t// in\n    tag_1054:\n        /* \"#utility.yul\":46796:46935   */\n      swap1\n      pop\n        /* \"#utility.yul\":46523:46942   */\n      swap2\n      swap1\n      pop\n      jump\t// out\n        /* \"#utility.yul\":46948:47113   */\n    tag_622:\n        /* \"#utility.yul\":47088:47105   */\n      0x5472616e73666572206661696c65640000000000000000000000000000000000\n        /* \"#utility.yul\":47084:47085   */\n      0x00\n        /* \"#utility.yul\":47076:47082   */\n      dup3\n        /* \"#utility.yul\":47072:47086   */\n      add\n        /* \"#utility.yul\":47065:47106   */\n      mstore\n        /* \"#utility.yul\":46948:47113   */\n      pop\n      jump\t// out\n        /* \"#utility.yul\":47119:47485   */\n    tag_623:\n        /* \"#utility.yul\":47261:47264   */\n      0x00\n        /* \"#utility.yul\":47282:47349   */\n      tag_1057\n        /* \"#utility.yul\":47346:47348   */\n      0x0f\n        /* \"#utility.yul\":47341:47344   */\n      dup4\n        /* \"#utility.yul\":47282:47349   */\n      tag_511\n      jump\t// in\n    tag_1057:\n        /* \"#utility.yul\":47275:47349   */\n      swap2\n      pop\n        /* \"#utility.yul\":47358:47451   */\n      tag_1058\n        /* \"#utility.yul\":47447:47450   */\n      dup3\n        /* \"#utility.yul\":47358:47451   */\n      tag_622\n      jump\t// in\n    tag_1058:\n        /* \"#utility.yul\":47476:47478   */\n      0x20\n        /* \"#utility.yul\":47471:47474   */\n      dup3\n        /* \"#utility.yul\":47467:47479   */\n      add\n        /* \"#utility.yul\":47460:47479   */\n      swap1\n      pop\n        /* \"#utility.yul\":47119:47485   */\n      swap2\n      swap1\n      pop\n      jump\t// out\n        /* \"#utility.yul\":47491:47910   */\n    tag_382:\n        /* \"#utility.yul\":47657:47661   */\n      0x00\n        /* \"#utility.yul\":47695:47697   */\n      0x20\n        /* \"#utility.yul\":47684:47693   */\n      dup3\n        /* \"#utility.yul\":47680:47698   */\n      add\n        /* \"#utility.yul\":47672:47698   */\n      swap1\n      pop\n        /* \"#utility.yul\":47744:47753   */\n      dup2\n        /* \"#utility.yul\":47738:47742   */\n      dup2\n        /* \"#utility.yul\":47734:47754   */\n      sub\n        /* \"#utility.yul\":47730:47731   */\n      0x00\n        /* \"#utility.yul\":47719:47728   */\n      dup4\n        /* \"#utility.yul\":47715:47732   */\n      add\n        /* \"#utility.yul\":47708:47755   */\n      mstore\n        /* \"#utility.yul\":47772:47903   */\n      tag_1060\n        /* \"#utility.yul\":47898:47902   */\n      dup2\n        /* \"#utility.yul\":47772:47903   */\n      tag_623\n      jump\t// in\n    tag_1060:\n        /* \"#utility.yul\":47764:47903   */\n      swap1\n      pop\n        /* \"#utility.yul\":47491:47910   */\n      swap2\n      swap1\n      pop\n      jump\t// out\n        /* \"#utility.yul\":47916:48346   */\n    tag_384:\n        /* \"#utility.yul\":48059:48063   */\n      0x00\n        /* \"#utility.yul\":48097:48099   */\n      0x60\n        /* \"#utility.yul\":48086:48095   */\n      dup3\n        /* \"#utility.yul\":48082:48100   */\n      add\n        /* \"#utility.yul\":48074:48100   */\n      swap1\n      pop\n        /* \"#utility.yul\":48110:48181   */\n      tag_1062\n        /* \"#utility.yul\":48178:48179   */\n      0x00\n        /* \"#utility.yul\":48167:48176   */\n      dup4\n        /* \"#utility.yul\":48163:48180   */\n      add\n        /* \"#utility.yul\":48154:48160   */\n      dup7\n        /* \"#utility.yul\":48110:48181   */\n      tag_557\n      jump\t// in\n    tag_1062:\n        /* \"#utility.yul\":48191:48263   */\n      tag_1063\n        /* \"#utility.yul\":48259:48261   */\n      0x20\n        /* \"#utility.yul\":48248:48257   */\n      dup4\n        /* \"#utility.yul\":48244:48262   */\n      add\n        /* \"#utility.yul\":48235:48241   */\n      dup6\n        /* \"#utility.yul\":48191:48263   */\n      tag_557\n      jump\t// in\n    tag_1063:\n        /* \"#utility.yul\":48273:48339   */\n      tag_1064\n        /* \"#utility.yul\":48335:48337   */\n      0x40\n        /* \"#utility.yul\":48324:48333   */\n      dup4\n        /* \"#utility.yul\":48320:48338   */\n      add\n        /* \"#utility.yul\":48311:48317   */\n      dup5\n        /* \"#utility.yul\":48273:48339   */\n      tag_525\n      jump\t// in\n    tag_1064:\n        /* \"#utility.yul\":47916:48346   */\n      swap5\n      swap4\n      pop\n      pop\n      pop\n      pop\n      jump\t// out\n        /* \"#utility.yul\":48352:48577   */\n    tag_624:\n        /* \"#utility.yul\":48492:48526   */\n      0x4f776e61626c653a206e6577206f776e657220697320746865207a65726f2061\n        /* \"#utility.yul\":48488:48489   */\n      0x00\n        /* \"#utility.yul\":48480:48486   */\n      dup3\n        /* \"#utility.yul\":48476:48490   */\n      add\n        /* \"#utility.yul\":48469:48527   */\n      mstore\n        /* \"#utility.yul\":48561:48569   */\n      0x6464726573730000000000000000000000000000000000000000000000000000\n        /* \"#utility.yul\":48556:48558   */\n      0x20\n        /* \"#utility.yul\":48548:48554   */\n      dup3\n        /* \"#utility.yul\":48544:48559   */\n      add\n        /* \"#utility.yul\":48537:48570   */\n      mstore\n        /* \"#utility.yul\":48352:48577   */\n      pop\n      jump\t// out\n        /* \"#utility.yul\":48583:48949   */\n    tag_625:\n        /* \"#utility.yul\":48725:48728   */\n      0x00\n        /* \"#utility.yul\":48746:48813   */\n      tag_1067\n        /* \"#utility.yul\":48810:48812   */\n      0x26\n        /* \"#utility.yul\":48805:48808   */\n      dup4\n        /* \"#utility.yul\":48746:48813   */\n      tag_511\n      jump\t// in\n    tag_1067:\n        /* \"#utility.yul\":48739:48813   */\n      swap2\n      pop\n        /* \"#utility.yul\":48822:48915   */\n      tag_1068\n        /* \"#utility.yul\":48911:48914   */\n      dup3\n        /* \"#utility.yul\":48822:48915   */\n      tag_624\n      jump\t// in\n    tag_1068:\n        /* \"#utility.yul\":48940:48942   */\n      0x40\n        /* \"#utility.yul\":48935:48938   */\n      dup3\n        /* \"#utility.yul\":48931:48943   */\n      add\n        /* \"#utility.yul\":48924:48943   */\n      swap1\n      pop\n        /* \"#utility.yul\":48583:48949   */\n      swap2\n      swap1\n      pop\n      jump\t// out\n        /* \"#utility.yul\":48955:49374   */\n    tag_412:\n        /* \"#utility.yul\":49121:49125   */\n      0x00\n        /* \"#utility.yul\":49159:49161   */\n      0x20\n        /* \"#utility.yul\":49148:49157   */\n      dup3\n        /* \"#utility.yul\":49144:49162   */\n      add\n        /* \"#utility.yul\":49136:49162   */\n      swap1\n      pop\n        /* \"#utility.yul\":49208:49217   */\n      dup2\n        /* \"#utility.yul\":49202:49206   */\n      dup2\n        /* \"#utility.yul\":49198:49218   */\n      sub\n        /* \"#utility.yul\":49194:49195   */\n      0x00\n        /* \"#utility.yul\":49183:49192   */\n      dup4\n        /* \"#utility.yul\":49179:49196   */\n      add\n        /* \"#utility.yul\":49172:49219   */\n      mstore\n        /* \"#utility.yul\":49236:49367   */\n      tag_1070\n        /* \"#utility.yul\":49362:49366   */\n      dup2\n        /* \"#utility.yul\":49236:49367   */\n      tag_625\n      jump\t// in\n    tag_1070:\n        /* \"#utility.yul\":49228:49367   */\n      swap1\n      pop\n        /* \"#utility.yul\":48955:49374   */\n      swap2\n      swap1\n      pop\n      jump\t// out\n        /* \"#utility.yul\":49380:49562   */\n    tag_626:\n        /* \"#utility.yul\":49520:49554   */\n      0x4f776e61626c653a2063616c6c6572206973206e6f7420746865206f776e6572\n        /* \"#utility.yul\":49516:49517   */\n      0x00\n        /* \"#utility.yul\":49508:49514   */\n      dup3\n        /* \"#utility.yul\":49504:49518   */\n      add\n        /* \"#utility.yul\":49497:49555   */\n      mstore\n        /* \"#utility.yul\":49380:49562   */\n      pop\n      jump\t// out\n        /* \"#utility.yul\":49568:49934   */\n    tag_627:\n        /* \"#utility.yul\":49710:49713   */\n      0x00\n        /* \"#utility.yul\":49731:49798   */\n      tag_1073\n        /* \"#utility.yul\":49795:49797   */\n      0x20\n        /* \"#utility.yul\":49790:49793   */\n      dup4\n        /* \"#utility.yul\":49731:49798   */\n      tag_511\n      jump\t// in\n    tag_1073:\n        /* \"#utility.yul\":49724:49798   */\n      swap2\n      pop\n        /* \"#utility.yul\":49807:49900   */\n      tag_1074\n        /* \"#utility.yul\":49896:49899   */\n      dup3\n        /* \"#utility.yul\":49807:49900   */\n      tag_626\n      jump\t// in\n    tag_1074:\n        /* \"#utility.yul\":49925:49927   */\n      0x20\n        /* \"#utility.yul\":49920:49923   */\n      dup3\n        /* \"#utility.yul\":49916:49928   */\n      add\n        /* \"#utility.yul\":49909:49928   */\n      swap1\n      pop\n        /* \"#utility.yul\":49568:49934   */\n      swap2\n      swap1\n      pop\n      jump\t// out\n        /* \"#utility.yul\":49940:50359   */\n    tag_430:\n        /* \"#utility.yul\":50106:50110   */\n      0x00\n        /* \"#utility.yul\":50144:50146   */\n      0x20\n        /* \"#utility.yul\":50133:50142   */\n      dup3\n        /* \"#utility.yul\":50129:50147   */\n      add\n        /* \"#utility.yul\":50121:50147   */\n      swap1\n      pop\n        /* \"#utility.yul\":50193:50202   */\n      dup2\n        /* \"#utility.yul\":50187:50191   */\n      dup2\n        /* \"#utility.yul\":50183:50203   */\n      sub\n        /* \"#utility.yul\":50179:50180   */\n      0x00\n        /* \"#utility.yul\":50168:50177   */\n      dup4\n        /* \"#utility.yul\":50164:50181   */\n      add\n        /* \"#utility.yul\":50157:50204   */\n      mstore\n        /* \"#utility.yul\":50221:50352   */\n      tag_1076\n        /* \"#utility.yul\":50347:50351   */\n      dup2\n        /* \"#utility.yul\":50221:50352   */\n      tag_627\n      jump\t// in\n    tag_1076:\n        /* \"#utility.yul\":50213:50352   */\n      swap1\n      pop\n        /* \"#utility.yul\":49940:50359   */\n      swap2\n      swap1\n      pop\n      jump\t// out\n        /* \"#utility.yul\":50365:50546   */\n    tag_628:\n        /* \"#utility.yul\":50505:50538   */\n      0x5265656e7472616e637947756172643a207265656e7472616e742063616c6c00\n        /* \"#utility.yul\":50501:50502   */\n      0x00\n        /* \"#utility.yul\":50493:50499   */\n      dup3\n        /* \"#utility.yul\":50489:50503   */\n      add\n        /* \"#utility.yul\":50482:50539   */\n      mstore\n        /* \"#utility.yul\":50365:50546   */\n      pop\n      jump\t// out\n        /* \"#utility.yul\":50552:50918   */\n    tag_629:\n        /* \"#utility.yul\":50694:50697   */\n      0x00\n        /* \"#utility.yul\":50715:50782   */\n      tag_1079\n        /* \"#utility.yul\":50779:50781   */\n      0x1f\n        /* \"#utility.yul\":50774:50777   */\n      dup4\n        /* \"#utility.yul\":50715:50782   */\n      tag_511\n      jump\t// in\n    tag_1079:\n        /* \"#utility.yul\":50708:50782   */\n      swap2\n      pop\n        /* \"#utility.yul\":50791:50884   */\n      tag_1080\n        /* \"#utility.yul\":50880:50883   */\n      dup3\n        /* \"#utility.yul\":50791:50884   */\n      tag_628\n      jump\t// in\n    tag_1080:\n        /* \"#utility.yul\":50909:50911   */\n      0x20\n        /* \"#utility.yul\":50904:50907   */\n      dup3\n        /* \"#utility.yul\":50900:50912   */\n      add\n        /* \"#utility.yul\":50893:50912   */\n      swap1\n      pop\n        /* \"#utility.yul\":50552:50918   */\n      swap2\n      swap1\n      pop\n      jump\t// out\n        /* \"#utility.yul\":50924:51343   */\n    tag_434:\n        /* \"#utility.yul\":51090:51094   */\n      0x00\n        /* \"#utility.yul\":51128:51130   */\n      0x20\n        /* \"#utility.yul\":51117:51126   */\n      dup3\n        /* \"#utility.yul\":51113:51131   */\n      add\n        /* \"#utility.yul\":51105:51131   */\n      swap1\n      pop\n        /* \"#utility.yul\":51177:51186   */\n      dup2\n        /* \"#utility.yul\":51171:51175   */\n      dup2\n        /* \"#utility.yul\":51167:51187   */\n      sub\n        /* \"#utility.yul\":51163:51164   */\n      0x00\n        /* \"#utility.yul\":51152:51161   */\n      dup4\n        /* \"#utility.yul\":51148:51165   */\n      add\n        /* \"#utility.yul\":51141:51188   */\n      mstore\n        /* \"#utility.yul\":51205:51336   */\n      tag_1082\n        /* \"#utility.yul\":51331:51335   */\n      dup2\n        /* \"#utility.yul\":51205:51336   */\n      tag_629\n      jump\t// in\n    tag_1082:\n        /* \"#utility.yul\":51197:51336   */\n      swap1\n      pop\n        /* \"#utility.yul\":50924:51343   */\n      swap2\n      swap1\n      pop\n      jump\t// out\n        /* \"#utility.yul\":51349:51681   */\n    tag_438:\n        /* \"#utility.yul\":51470:51474   */\n      0x00\n        /* \"#utility.yul\":51508:51510   */\n      0x40\n        /* \"#utility.yul\":51497:51506   */\n      dup3\n        /* \"#utility.yul\":51493:51511   */\n      add\n        /* \"#utility.yul\":51485:51511   */\n      swap1\n      pop\n        /* \"#utility.yul\":51521:51592   */\n      tag_1084\n        /* \"#utility.yul\":51589:51590   */\n      0x00\n        /* \"#utility.yul\":51578:51587   */\n      dup4\n        /* \"#utility.yul\":51574:51591   */\n      add\n        /* \"#utility.yul\":51565:51571   */\n      dup6\n        /* \"#utility.yul\":51521:51592   */\n      tag_560\n      jump\t// in\n    tag_1084:\n        /* \"#utility.yul\":51602:51674   */\n      tag_1085\n        /* \"#utility.yul\":51670:51672   */\n      0x20\n        /* \"#utility.yul\":51659:51668   */\n      dup4\n        /* \"#utility.yul\":51655:51673   */\n      add\n        /* \"#utility.yul\":51646:51652   */\n      dup5\n        /* \"#utility.yul\":51602:51674   */\n      tag_560\n      jump\t// in\n    tag_1085:\n        /* \"#utility.yul\":51349:51681   */\n      swap4\n      swap3\n      pop\n      pop\n      pop\n      jump\t// out\n        /* \"#utility.yul\":51687:51830   */\n    tag_630:\n        /* \"#utility.yul\":51744:51749   */\n      0x00\n        /* \"#utility.yul\":51775:51781   */\n      dup2\n        /* \"#utility.yul\":51769:51782   */\n      mload\n        /* \"#utility.yul\":51760:51782   */\n      swap1\n      pop\n        /* \"#utility.yul\":51791:51824   */\n      tag_1087\n        /* \"#utility.yul\":51818:51823   */\n      dup2\n        /* \"#utility.yul\":51791:51824   */\n      tag_558\n      jump\t// in\n    tag_1087:\n        /* \"#utility.yul\":51687:51830   */\n      swap3\n      swap2\n      pop\n      pop\n      jump\t// out\n        /* \"#utility.yul\":51836:52187   */\n    tag_441:\n        /* \"#utility.yul\":51906:51912   */\n      0x00\n        /* \"#utility.yul\":51955:51957   */\n      0x20\n        /* \"#utility.yul\":51943:51952   */\n      dup3\n        /* \"#utility.yul\":51934:51941   */\n      dup5\n        /* \"#utility.yul\":51930:51953   */\n      sub\n        /* \"#utility.yul\":51926:51958   */\n      slt\n        /* \"#utility.yul\":51923:52042   */\n      iszero\n      tag_1089\n      jumpi\n        /* \"#utility.yul\":51961:52040   */\n      tag_1090\n      tag_516\n      jump\t// in\n    tag_1090:\n        /* \"#utility.yul\":51923:52042   */\n    tag_1089:\n        /* \"#utility.yul\":52081:52082   */\n      0x00\n        /* \"#utility.yul\":52106:52170   */\n      tag_1091\n        /* \"#utility.yul\":52162:52169   */\n      dup5\n        /* \"#utility.yul\":52153:52159   */\n      dup3\n        /* \"#utility.yul\":52142:52151   */\n      dup6\n        /* \"#utility.yul\":52138:52160   */\n      add\n        /* \"#utility.yul\":52106:52170   */\n      tag_630\n      jump\t// in\n    tag_1091:\n        /* \"#utility.yul\":52096:52170   */\n      swap2\n      pop\n        /* \"#utility.yul\":52052:52180   */\n      pop\n        /* \"#utility.yul\":51836:52187   */\n      swap3\n      swap2\n      pop\n      pop\n      jump\t// out\n        /* \"#utility.yul\":52193:52635   */\n    tag_478:\n        /* \"#utility.yul\":52342:52346   */\n      0x00\n        /* \"#utility.yul\":52380:52382   */\n      0x60\n        /* \"#utility.yul\":52369:52378   */\n      dup3\n        /* \"#utility.yul\":52365:52383   */\n      add\n        /* \"#utility.yul\":52357:52383   */\n      swap1\n      pop\n        /* \"#utility.yul\":52393:52464   */\n      tag_1093\n        /* \"#utility.yul\":52461:52462   */\n      0x00\n        /* \"#utility.yul\":52450:52459   */\n      dup4\n        /* \"#utility.yul\":52446:52463   */\n      add\n        /* \"#utility.yul\":52437:52443   */\n      dup7\n        /* \"#utility.yul\":52393:52464   */\n      tag_560\n      jump\t// in\n    tag_1093:\n        /* \"#utility.yul\":52474:52546   */\n      tag_1094\n        /* \"#utility.yul\":52542:52544   */\n      0x20\n        /* \"#utility.yul\":52531:52540   */\n      dup4\n        /* \"#utility.yul\":52527:52545   */\n      add\n        /* \"#utility.yul\":52518:52524   */\n      dup6\n        /* \"#utility.yul\":52474:52546   */\n      tag_560\n      jump\t// in\n    tag_1094:\n        /* \"#utility.yul\":52556:52628   */\n      tag_1095\n        /* \"#utility.yul\":52624:52626   */\n      0x40\n        /* \"#utility.yul\":52613:52622   */\n      dup4\n        /* \"#utility.yul\":52609:52627   */\n      add\n        /* \"#utility.yul\":52600:52606   */\n      dup5\n        /* \"#utility.yul\":52556:52628   */\n      tag_557\n      jump\t// in\n    tag_1095:\n        /* \"#utility.yul\":52193:52635   */\n      swap5\n      swap4\n      pop\n      pop\n      pop\n      pop\n      jump\t// out\n        /* \"#utility.yul\":52641:52778   */\n    tag_631:\n        /* \"#utility.yul\":52695:52700   */\n      0x00\n        /* \"#utility.yul\":52726:52732   */\n      dup2\n        /* \"#utility.yul\":52720:52733   */\n      mload\n        /* \"#utility.yul\":52711:52733   */\n      swap1\n      pop\n        /* \"#utility.yul\":52742:52772   */\n      tag_1097\n        /* \"#utility.yul\":52766:52771   */\n      dup2\n        /* \"#utility.yul\":52742:52772   */\n      tag_551\n      jump\t// in\n    tag_1097:\n        /* \"#utility.yul\":52641:52778   */\n      swap3\n      swap2\n      pop\n      pop\n      jump\t// out\n        /* \"#utility.yul\":52784:53129   */\n    tag_492:\n        /* \"#utility.yul\":52851:52857   */\n      0x00\n        /* \"#utility.yul\":52900:52902   */\n      0x20\n        /* \"#utility.yul\":52888:52897   */\n      dup3\n        /* \"#utility.yul\":52879:52886   */\n      dup5\n        /* \"#utility.yul\":52875:52898   */\n      sub\n        /* \"#utility.yul\":52871:52903   */\n      slt\n        /* \"#utility.yul\":52868:52987   */\n      iszero\n      tag_1099\n      jumpi\n        /* \"#utility.yul\":52906:52985   */\n      tag_1100\n      tag_516\n      jump\t// in\n    tag_1100:\n        /* \"#utility.yul\":52868:52987   */\n    tag_1099:\n        /* \"#utility.yul\":53026:53027   */\n      0x00\n        /* \"#utility.yul\":53051:53112   */\n      tag_1101\n        /* \"#utility.yul\":53104:53111   */\n      dup5\n        /* \"#utility.yul\":53095:53101   */\n      dup3\n        /* \"#utility.yul\":53084:53093   */\n      dup6\n        /* \"#utility.yul\":53080:53102   */\n      add\n        /* \"#utility.yul\":53051:53112   */\n      tag_631\n      jump\t// in\n    tag_1101:\n        /* \"#utility.yul\":53041:53112   */\n      swap2\n      pop\n        /* \"#utility.yul\":52997:53122   */\n      pop\n        /* \"#utility.yul\":52784:53129   */\n      swap3\n      swap2\n      pop\n      pop\n      jump\t// out\n    stop\n    data_8fb4fb23177feac96cb42f3c602cc39f350167e355eac9f63cfb34a9df37fd0e 4d756c7469546f6b656e5061796d656e742076322e31202d20496e7465677261746564\n\n    auxdata: 0xa2646970667358221220edf42ee7363fc3294a4e83354713c2d69db93fe216af4f8b4a906854c0ebd6d964736f6c634300081e0033\n}\n",
				"bytecode": {
					"linkReferences": {},
					"object": "608060405234801561000f575f5ffd5b5061002c61002161003860201b60201c565b61003f60201b60201c565b60018081905550610100565b5f33905090565b5f5f5f9054906101000a900473ffffffffffffffffffffffffffffffffffffffff169050815f5f6101000a81548173ffffffffffffffffffffffffffffffffffffffff021916908373ffffffffffffffffffffffffffffffffffffffff1602179055508173ffffffffffffffffffffffffffffffffffffffff168173ffffffffffffffffffffffffffffffffffffffff167f8be0079c531659141344cd1fd0a4f28419497f9722a3daafe3b4186f6b6457e060405160405180910390a35050565b6146008061010d5f395ff3fe608060405234801561000f575f5ffd5b5060043610610140575f3560e01c806387e660d3116100b6578063c4b1eb901161007a578063c4b1eb90146103c2578063c6255626146103de578063c86b268a1461040e578063d3c7c2c71461043e578063f2fde38b1461045c578063f5dab7111461047857610140565b806387e660d3146102e4578063892d5f74146103145780638b099b23146103445780638b1b3303146103745780638da5cb5b146103a457610140565b80635848d919116101085780635848d919146101fe5780635a59079a1461022e578063715018a61461025e57806375151b6314610268578063763191901461029857806377b76ec3146102b457610140565b80630d8e6e2c14610144578063159166c0146101625780631f69565f1461017e5780632fa21126146101b15780633367dad3146101e2575b5f5ffd5b61014c6104ac565b6040516101599190612cd9565b60405180910390f35b61017c60048036038101906101779190612d64565b6104cc565b005b61019860048036038101906101939190612d64565b610a76565b6040516101a89493929190612dc4565b60405180910390f35b6101cb60048036038101906101c69190612d64565b610ce7565b6040516101d9929190612f8c565b60405180910390f35b6101fc60048036038101906101f79190613141565b610e6b565b005b610218600480360381019061021391906132a2565b6111dc565b6040516102259190613352565b60405180910390f35b6102486004803603810190610243919061336b565b61168b565b6040516102559190613352565b60405180910390f35b610266611a4c565b005b610282600480360381019061027d9190612d64565b611a5f565b60405161028f9190613352565b60405180910390f35b6102b260048036038101906102ad9190612d64565b611a7c565b005b6102ce60048036038101906102c991906133fc565b611e10565b6040516102db9190613449565b60405180910390f35b6102fe60048036038101906102f9919061348c565b611eae565b60405161030b9190613352565b60405180910390f35b61032e60048036038101906103299190612d64565b612111565b60405161033b9190613352565b60405180910390f35b61035e600480360381019061035991906133fc565b6121e9565b60405161036b9190613449565b60405180910390f35b61038e60048036038101906103899190612d64565b612288565b60405161039b9190613352565b60405180910390f35b6103ac6122a5565b6040516103b991906134eb565b60405180910390f35b6103dc60048036038101906103d79190612d64565b6122cc565b005b6103f860048036038101906103f39190613504565b612324565b60405161040591906134eb565b60405180910390f35b61042860048036038101906104239190612d64565b61235f565b6040516104359190613352565b60405180910390f35b61044661237c565b604051610453919061352f565b60405180910390f35b61047660048036038101906104719190612d64565b612407565b005b610492600480360381019061048d9190612d64565b612489565b6040516104a395949392919061354f565b60405180910390f35b60606040518060600160405280602381526020016145a860239139905090565b6104d46125ed565b5f73ffffffffffffffffffffffffffffffffffffffff168173ffffffffffffffffffffffffffffffffffffffff1603610542576040517f08c379a0000000000000000000000000000000000000000000000000000000008152600401610539906135f8565b60405180910390fd5b60035f8273ffffffffffffffffffffffffffffffffffffffff1673ffffffffffffffffffffffffffffffffffffffff1681526020019081526020015f205f9054906101000a900460ff16156105cc576040517f08c379a00000000000000000000000000000000000000000000000000000000081526004016105c390613660565b60405180910390fd5b600160035f8373ffffffffffffffffffffffffffffffffffffffff1673ffffffffffffffffffffffffffffffffffffffff1681526020019081526020015f205f6101000a81548160ff021916908315150217905550600281908060018154018082558091505060019003905f5260205f20015f9091909190916101000a81548173ffffffffffffffffffffffffffffffffffffffff021916908373ffffffffffffffffffffffffffffffffffffffff1602179055505f6040518060400160405280600781526020017f554e4b4e4f574e0000000000000000000000000000000000000000000000000081525090505f6040518060400160405280600781526020017f554e4b4e4f574e0000000000000000000000000000000000000000000000000081525090505f601290505f60055f8673ffffffffffffffffffffffffffffffffffffffff1673ffffffffffffffffffffffffffffffffffffffff1681526020019081526020015f205f9054906101000a900460ff169050806108bf578473ffffffffffffffffffffffffffffffffffffffff166395d89b416040518163ffffffff1660e01b81526004015f60405180830381865afa9250505080156107b557506040513d5f823e3d601f19601f820116820180604052508101906107b291906136ec565b60015b6107c257600190506107c7565b809450505b8473ffffffffffffffffffffffffffffffffffffffff166306fdde036040518163ffffffff1660e01b81526004015f60405180830381865afa92505050801561083257506040513d5f823e3d601f19601f8201168201806040525081019061082f91906136ec565b60015b61083f5760019050610844565b809350505b8473ffffffffffffffffffffffffffffffffffffffff1663313ce5676040518163ffffffff1660e01b8152600401602060405180830381865afa9250505080156108ac57506040513d601f19601f820116820180604052508101906108a99190613747565b60015b6108b957600190506108be565b809250505b5b806108d0576108cd85612111565b90505b6040518060a001604052808581526020018481526020018360ff16815260200160011515815260200182151581525060065f8773ffffffffffffffffffffffffffffffffffffffff1673ffffffffffffffffffffffffffffffffffffffff1681526020019081526020015f205f820151815f01908161094f919061396f565b506020820151816001019081610965919061396f565b506040820151816002015f6101000a81548160ff021916908360ff16021790555060608201518160020160016101000a81548160ff02191690831515021790555060808201518160020160026101000a81548160ff0219169083151502179055509050508060045f8773ffffffffffffffffffffffffffffffffffffffff1673ffffffffffffffffffffffffffffffffffffffff1681526020019081526020015f205f6101000a81548160ff0219169083151502179055508473ffffffffffffffffffffffffffffffffffffffff167f7fc380a378a7436b00bfbfa4745a879f9095ad1fde33a412783721a59a2ad6b9858584604051610a6793929190613a3e565b60405180910390a25050505050565b6060805f5f60065f8673ffffffffffffffffffffffffffffffffffffffff1673ffffffffffffffffffffffffffffffffffffffff1681526020019081526020015f2060020160019054906101000a900460ff16610b08576040517f08c379a0000000000000000000000000000000000000000000000000000000008152600401610aff90613acb565b60405180910390fd5b5f60065f8773ffffffffffffffffffffffffffffffffffffffff1673ffffffffffffffffffffffffffffffffffffffff1681526020019081526020015f206040518060a00160405290815f82018054610b609061379f565b80601f0160208091040260200160405190810160405280929190818152602001828054610b8c9061379f565b8015610bd75780601f10610bae57610100808354040283529160200191610bd7565b820191905f5260205f20905b815481529060010190602001808311610bba57829003601f168201915b50505050508152602001600182018054610bf09061379f565b80601f0160208091040260200160405190810160405280929190818152602001828054610c1c9061379f565b8015610c675780601f10610c3e57610100808354040283529160200191610c67565b820191905f5260205f20905b815481529060010190602001808311610c4a57829003601f168201915b50505050508152602001600282015f9054906101000a900460ff1660ff1660ff1681526020016002820160019054906101000a900460ff161515151581526020016002820160029054906101000a900460ff1615151515815250509050805f01518160200151826040015183608001519450945094509450509193509193565b6060805f60028054905090505f8167ffffffffffffffff811115610d0e57610d0d612fc9565b5b604051908082528060200260200182016040528015610d3c5781602001602082028036833780820191505090505b5090505f8267ffffffffffffffff811115610d5a57610d59612fc9565b5b604051908082528060200260200182016040528015610d885781602001602082028036833780820191505090505b5090505f5f90505b83811015610e5c575f60028281548110610dad57610dac613ae9565b5b905f5260205f20015f9054906101000a900473ffffffffffffffffffffffffffffffffffffffff16905080848381518110610deb57610dea613ae9565b5b602002602001019073ffffffffffffffffffffffffffffffffffffffff16908173ffffffffffffffffffffffffffffffffffffffff1681525050610e2f81896121e9565b838381518110610e4257610e41613ae9565b5b602002602001018181525050508080600101915050610d90565b50818194509450505050915091565b610e736125ed565b5f73ffffffffffffffffffffffffffffffffffffffff168573ffffffffffffffffffffffffffffffffffffffff1603610ee1576040517f08c379a0000000000000000000000000000000000000000000000000000000008152600401610ed8906135f8565b60405180910390fd5b60035f8673ffffffffffffffffffffffffffffffffffffffff1673ffffffffffffffffffffffffffffffffffffffff1681526020019081526020015f205f9054906101000a900460ff1615610f6b576040517f08c379a0000000000000000000000000000000000000000000000000000000008152600401610f6290613660565b60405180910390fd5b600160035f8773ffffffffffffffffffffffffffffffffffffffff1673ffffffffffffffffffffffffffffffffffffffff1681526020019081526020015f205f6101000a81548160ff021916908315150217905550600285908060018154018082558091505060019003905f5260205f20015f9091909190916101000a81548173ffffffffffffffffffffffffffffffffffffffff021916908373ffffffffffffffffffffffffffffffffffffffff1602179055505f819050816110355761103286612111565b90505b6040518060a001604052808681526020018581526020018460ff16815260200160011515815260200182151581525060065f8873ffffffffffffffffffffffffffffffffffffffff1673ffffffffffffffffffffffffffffffffffffffff1681526020019081526020015f205f820151815f0190816110b4919061396f565b5060208201518160010190816110ca919061396f565b506040820151816002015f6101000a81548160ff021916908360ff16021790555060608201518160020160016101000a81548160ff02191690831515021790555060808201518160020160026101000a81548160ff0219169083151502179055509050508060045f8873ffffffffffffffffffffffffffffffffffffffff1673ffffffffffffffffffffffffffffffffffffffff1681526020019081526020015f205f6101000a81548160ff0219169083151502179055508573ffffffffffffffffffffffffffffffffffffffff167f7fc380a378a7436b00bfbfa4745a879f9095ad1fde33a412783721a59a2ad6b98686846040516111cc93929190613a3e565b60405180910390a2505050505050565b5f6111e561266b565b84849050878790501480156111ff57508282905085859050145b61123e576040517f08c379a000000000000000000000000000000000000000000000000000000000815260040161123590613b60565b60405180910390fd5b5f8787905011611283576040517f08c379a000000000000000000000000000000000000000000000000000000000815260040161127a90613bc8565b60405180910390fd5b5f5f90505b8787905081101561161a5760035f8989848181106112a9576112a8613ae9565b5b90506020020160208101906112be9190612d64565b73ffffffffffffffffffffffffffffffffffffffff1673ffffffffffffffffffffffffffffffffffffffff1681526020019081526020015f205f9054906101000a900460ff16611343576040517f08c379a000000000000000000000000000000000000000000000000000000000815260040161133a90613c30565b60405180910390fd5b5f73ffffffffffffffffffffffffffffffffffffffff1686868381811061136d5761136c613ae9565b5b90506020020160208101906113829190612d64565b73ffffffffffffffffffffffffffffffffffffffff16036113d8576040517f08c379a00000000000000000000000000000000000000000000000000000000081526004016113cf90613c98565b60405180910390fd5b5f8484838181106113ec576113eb613ae9565b5b9050602002013511611433576040517f08c379a000000000000000000000000000000000000000000000000000000000815260040161142a90613d00565b60405180910390fd5b5f61146689898481811061144a57611449613ae9565b5b905060200201602081019061145f9190612d64565b33306126ba565b905084848381811061147b5761147a613ae9565b5b905060200201358110156114c4576040517f08c379a00000000000000000000000000000000000000000000000000000000081526004016114bb90613d68565b60405180910390fd5b5f6114f68a8a858181106114db576114da613ae9565b5b90506020020160208101906114f09190612d64565b33612821565b905085858481811061150b5761150a613ae9565b5b90506020020135811015611554576040517f08c379a000000000000000000000000000000000000000000000000000000000815260040161154b90613dd0565b60405180910390fd5b5f6115c88b8b8681811061156b5761156a613ae9565b5b90506020020160208101906115809190612d64565b338b8b8881811061159457611593613ae9565b5b90506020020160208101906115a99190612d64565b8a8a898181106115bc576115bb613ae9565b5b90506020020135612983565b90508061160a576040517f08c379a000000000000000000000000000000000000000000000000000000000815260040161160190613e38565b60405180910390fd5b5050508080600101915050611288565b503373ffffffffffffffffffffffffffffffffffffffff167f2f083430e3639318f985c2267903b2c4fcf8c0cb45d237cbd54367a1274239c486868a8a88884260405161166d9796959493929190613f44565b60405180910390a260019050611681612b40565b9695505050505050565b5f61169461266b565b8560035f8273ffffffffffffffffffffffffffffffffffffffff1673ffffffffffffffffffffffffffffffffffffffff1681526020019081526020015f205f9054906101000a900460ff1661171e576040517f08c379a000000000000000000000000000000000000000000000000000000000815260040161171590613c30565b60405180910390fd5b838390508686905014611766576040517f08c379a000000000000000000000000000000000000000000000000000000000815260040161175d90613b60565b60405180910390fd5b5f86869050116117ab576040517f08c379a00000000000000000000000000000000000000000000000000000000081526004016117a290613fec565b60405180910390fd5b5f5f90505f5f90505b8585905081101561184e575f8686838181106117d3576117d2613ae9565b5b905060200201351161181a576040517f08c379a000000000000000000000000000000000000000000000000000000000815260040161181190613d00565b60405180910390fd5b85858281811061182d5761182c613ae9565b5b905060200201358261183f9190614037565b915080806001019150506117b4565b505f61185b8933306126ba565b9050818110156118a0576040517f08c379a0000000000000000000000000000000000000000000000000000000008152600401611897906140b4565b60405180910390fd5b5f6118ab8a33612821565b9050828110156118f0576040517f08c379a00000000000000000000000000000000000000000000000000000000081526004016118e79061411c565b60405180910390fd5b5f5f90505b89899050811015611a32575f73ffffffffffffffffffffffffffffffffffffffff168a8a8381811061192a57611929613ae9565b5b905060200201602081019061193f9190612d64565b73ffffffffffffffffffffffffffffffffffffffff1603611995576040517f08c379a000000000000000000000000000000000000000000000000000000000815260040161198c90613c98565b60405180910390fd5b5f6119e28c338d8d868181106119ae576119ad613ae9565b5b90506020020160208101906119c39190612d64565b8c8c878181106119d6576119d5613ae9565b5b90506020020135612983565b905080611a24576040517f08c379a0000000000000000000000000000000000000000000000000000000008152600401611a1b90614184565b60405180910390fd5b5080806001019150506118f5565b506001945050505050611a43612b40565b95945050505050565b611a546125ed565b611a5d5f612b49565b565b6003602052805f5260405f205f915054906101000a900460ff1681565b611a846125ed565b60035f8273ffffffffffffffffffffffffffffffffffffffff1673ffffffffffffffffffffffffffffffffffffffff1681526020019081526020015f205f9054906101000a900460ff16611b0d576040517f08c379a0000000000000000000000000000000000000000000000000000000008152600401611b0490613c30565b60405180910390fd5b5f60035f8373ffffffffffffffffffffffffffffffffffffffff1673ffffffffffffffffffffffffffffffffffffffff1681526020019081526020015f205f6101000a81548160ff02191690831515021790555060065f8273ffffffffffffffffffffffffffffffffffffffff1673ffffffffffffffffffffffffffffffffffffffff1681526020019081526020015f205f5f82015f611bad9190612c11565b600182015f611bbc9190612c11565b600282015f6101000a81549060ff02191690556002820160016101000a81549060ff02191690556002820160026101000a81549060ff021916905550505f60045f8373ffffffffffffffffffffffffffffffffffffffff1673ffffffffffffffffffffffffffffffffffffffff1681526020019081526020015f205f6101000a81548160ff0219169083151502179055505f5f90505b600280549050811015611dc9578173ffffffffffffffffffffffffffffffffffffffff1660028281548110611c8a57611c89613ae9565b5b905f5260205f20015f9054906101000a900473ffffffffffffffffffffffffffffffffffffffff1673ffffffffffffffffffffffffffffffffffffffff1603611dbc5760026001600280549050611ce191906141a2565b81548110611cf257611cf1613ae9565b5b905f5260205f20015f9054906101000a900473ffffffffffffffffffffffffffffffffffffffff1660028281548110611d2e57611d2d613ae9565b5b905f5260205f20015f6101000a81548173ffffffffffffffffffffffffffffffffffffffff021916908373ffffffffffffffffffffffffffffffffffffffff1602179055506002805480611d8557611d846141d5565b5b600190038181905f5260205f20015f6101000a81549073ffffffffffffffffffffffffffffffffffffffff02191690559055611dc9565b8080600101915050611c52565b508073ffffffffffffffffffffffffffffffffffffffff167f4c910b69fe65a61f7531b9c5042b2329ca7179c77290aa7e2eb3afa3c8511fd360405160405180910390a250565b5f8260035f8273ffffffffffffffffffffffffffffffffffffffff1673ffffffffffffffffffffffffffffffffffffffff1681526020019081526020015f205f9054906101000a900460ff16611e9b576040517f08c379a0000000000000000000000000000000000000000000000000000000008152600401611e9290613c30565b60405180910390fd5b611ea58484612821565b91505092915050565b5f611eb761266b565b8360035f8273ffffffffffffffffffffffffffffffffffffffff1673ffffffffffffffffffffffffffffffffffffffff1681526020019081526020015f205f9054906101000a900460ff16611f41576040517f08c379a0000000000000000000000000000000000000000000000000000000008152600401611f3890613c30565b60405180910390fd5b5f611f4d8633306126ba565b905083811015611f92576040517f08c379a0000000000000000000000000000000000000000000000000000000008152600401611f899061424c565b60405180910390fd5b5f611f9d8733612821565b905084811015611fe2576040517f08c379a0000000000000000000000000000000000000000000000000000000008152600401611fd9906142b4565b60405180910390fd5b5f611fef88338989612983565b905080612031576040517f08c379a00000000000000000000000000000000000000000000000000000000081526004016120289061431c565b60405180910390fd5b8773ffffffffffffffffffffffffffffffffffffffff168773ffffffffffffffffffffffffffffffffffffffff163373ffffffffffffffffffffffffffffffffffffffff167fe026fbb73500b279bf99c5005c5b3b41f4f084176a557bf5accb3c643cd2a8a0894260045f8f73ffffffffffffffffffffffffffffffffffffffff1673ffffffffffffffffffffffffffffffffffffffff1681526020019081526020015f205f9054906101000a900460ff166040516120f29392919061433a565b60405180910390a4600194505050505061210a612b40565b9392505050565b5f60055f8373ffffffffffffffffffffffffffffffffffffffff1673ffffffffffffffffffffffffffffffffffffffff1681526020019081526020015f205f9054906101000a900460ff161561216a57600190506121e4565b8173ffffffffffffffffffffffffffffffffffffffff1663313ce5676040518163ffffffff1660e01b8152600401602060405180830381865afa9250505080156121d257506040513d601f19601f820116820180604052508101906121cf9190613747565b60015b6121df57600190506121e4565b5f9150505b919050565b5f8260035f8273ffffffffffffffffffffffffffffffffffffffff1673ffffffffffffffffffffffffffffffffffffffff1681526020019081526020015f205f9054906101000a900460ff16612274576040517f08c379a000000000000000000000000000000000000000000000000000000000815260040161226b90613c30565b60405180910390fd5b61227f8484306126ba565b91505092915050565b6005602052805f5260405f205f915054906101000a900460ff1681565b5f5f5f9054906101000a900473ffffffffffffffffffffffffffffffffffffffff16905090565b600160055f8373ffffffffffffffffffffffffffffffffffffffff1673ffffffffffffffffffffffffffffffffffffffff1681526020019081526020015f205f6101000a81548160ff02191690831515021790555050565b60028181548110612333575f80fd5b905f5260205f20015f915054906101000a900473ffffffffffffffffffffffffffffffffffffffff1681565b6004602052805f5260405f205f915054906101000a900460ff1681565b606060028054806020026020016040519081016040528092919081815260200182805480156123fd57602002820191905f5260205f20905b815f9054906101000a900473ffffffffffffffffffffffffffffffffffffffff1673ffffffffffffffffffffffffffffffffffffffff16815260200190600101908083116123b4575b5050505050905090565b61240f6125ed565b5f73ffffffffffffffffffffffffffffffffffffffff168173ffffffffffffffffffffffffffffffffffffffff160361247d576040517f08c379a0000000000000000000000000000000000000000000000000000000008152600401612474906143df565b60405180910390fd5b61248681612b49565b50565b6006602052805f5260405f205f91509050805f0180546124a89061379f565b80601f01602080910402602001604051908101604052809291908181526020018280546124d49061379f565b801561251f5780601f106124f65761010080835404028352916020019161251f565b820191905f5260205f20905b81548152906001019060200180831161250257829003601f168201915b5050505050908060010180546125349061379f565b80601f01602080910402602001604051908101604052809291908181526020018280546125609061379f565b80156125ab5780601f10612582576101008083540402835291602001916125ab565b820191905f5260205f20905b81548152906001019060200180831161258e57829003601f168201915b505050505090806002015f9054906101000a900460ff16908060020160019054906101000a900460ff16908060020160029054906101000a900460ff16905085565b6125f5612c0a565b73ffffffffffffffffffffffffffffffffffffffff166126136122a5565b73ffffffffffffffffffffffffffffffffffffffff1614612669576040517f08c379a000000000000000000000000000000000000000000000000000000000815260040161266090614447565b60405180910390fd5b565b6002600154036126b0576040517f08c379a00000000000000000000000000000000000000000000000000000000081526004016126a7906144af565b60405180910390fd5b6002600181905550565b5f60045f8573ffffffffffffffffffffffffffffffffffffffff1673ffffffffffffffffffffffffffffffffffffffff1681526020019081526020015f205f9054906101000a900460ff1615612794578373ffffffffffffffffffffffffffffffffffffffff1663dd62ed3e84846040518363ffffffff1660e01b81526004016127459291906144cd565b602060405180830381865afa92505050801561277f57506040513d601f19601f8201168201806040525081019061277c9190614508565b60015b61278b575f905061281a565b8091505061281a565b8373ffffffffffffffffffffffffffffffffffffffff1663dd62ed3e84846040518363ffffffff1660e01b81526004016127cf9291906144cd565b602060405180830381865afa92505050801561280957506040513d601f19601f820116820180604052508101906128069190614508565b60015b612815575f905061281a565b809150505b9392505050565b5f60045f8473ffffffffffffffffffffffffffffffffffffffff1673ffffffffffffffffffffffffffffffffffffffff1681526020019081526020015f205f9054906101000a900460ff16156128f9578273ffffffffffffffffffffffffffffffffffffffff166370a08231836040518263ffffffff1660e01b81526004016128aa91906134eb565b602060405180830381865afa9250505080156128e457506040513d601f19601f820116820180604052508101906128e19190614508565b60015b6128f0575f905061297d565b8091505061297d565b8273ffffffffffffffffffffffffffffffffffffffff166370a08231836040518263ffffffff1660e01b815260040161293291906134eb565b602060405180830381865afa92505050801561296c57506040513d601f19601f820116820180604052508101906129699190614508565b60015b612978575f905061297d565b809150505b92915050565b5f60045f8673ffffffffffffffffffffffffffffffffffffffff1673ffffffffffffffffffffffffffffffffffffffff1681526020019081526020015f205f9054906101000a900460ff1615612a7e578473ffffffffffffffffffffffffffffffffffffffff166323b872dd8585856040518463ffffffff1660e01b8152600401612a1093929190614533565b5f604051808303815f87803b158015612a27575f5ffd5b505af1925050508015612a38575060015b612a75573d805f8114612a66576040519150601f19603f3d011682016040523d82523d5f602084013e612a6b565b606091505b505f915050612b38565b60019050612b38565b8473ffffffffffffffffffffffffffffffffffffffff166323b872dd8585856040518463ffffffff1660e01b8152600401612abb93929190614533565b6020604051808303815f875af1925050508015612af657506040513d601f19601f82011682018060405250810190612af3919061457c565b60015b612b33573d805f8114612b24576040519150601f19603f3d011682016040523d82523d5f602084013e612b29565b606091505b505f915050612b38565b809150505b949350505050565b60018081905550565b5f5f5f9054906101000a900473ffffffffffffffffffffffffffffffffffffffff169050815f5f6101000a81548173ffffffffffffffffffffffffffffffffffffffff021916908373ffffffffffffffffffffffffffffffffffffffff1602179055508173ffffffffffffffffffffffffffffffffffffffff168173ffffffffffffffffffffffffffffffffffffffff167f8be0079c531659141344cd1fd0a4f28419497f9722a3daafe3b4186f6b6457e060405160405180910390a35050565b5f33905090565b508054612c1d9061379f565b5f825580601f10612c2e5750612c4b565b601f0160209004905f5260205f2090810190612c4a9190612c4e565b5b50565b5b80821115612c65575f815f905550600101612c4f565b5090565b5f81519050919050565b5f82825260208201905092915050565b8281835e5f83830152505050565b5f601f19601f8301169050919050565b5f612cab82612c69565b612cb58185612c73565b9350612cc5818560208601612c83565b612cce81612c91565b840191505092915050565b5f6020820190508181035f830152612cf18184612ca1565b905092915050565b5f604051905090565b5f5ffd5b5f5ffd5b5f73ffffffffffffffffffffffffffffffffffffffff82169050919050565b5f612d3382612d0a565b9050919050565b612d4381612d29565b8114612d4d575f5ffd5b50565b5f81359050612d5e81612d3a565b92915050565b5f60208284031215612d7957612d78612d02565b5b5f612d8684828501612d50565b91505092915050565b5f60ff82169050919050565b612da481612d8f565b82525050565b5f8115159050919050565b612dbe81612daa565b82525050565b5f6080820190508181035f830152612ddc8187612ca1565b90508181036020830152612df08186612ca1565b9050612dff6040830185612d9b565b612e0c6060830184612db5565b95945050505050565b5f81519050919050565b5f82825260208201905092915050565b5f819050602082019050919050565b612e4781612d29565b82525050565b5f612e588383612e3e565b60208301905092915050565b5f602082019050919050565b5f612e7a82612e15565b612e848185612e1f565b9350612e8f83612e2f565b805f5b83811015612ebf578151612ea68882612e4d565b9750612eb183612e64565b925050600181019050612e92565b5085935050505092915050565b5f81519050919050565b5f82825260208201905092915050565b5f819050602082019050919050565b5f819050919050565b612f0781612ef5565b82525050565b5f612f188383612efe565b60208301905092915050565b5f602082019050919050565b5f612f3a82612ecc565b612f448185612ed6565b9350612f4f83612ee6565b805f5b83811015612f7f578151612f668882612f0d565b9750612f7183612f24565b925050600181019050612f52565b5085935050505092915050565b5f6040820190508181035f830152612fa48185612e70565b90508181036020830152612fb88184612f30565b90509392505050565b5f5ffd5b5f5ffd5b7f4e487b71000000000000000000000000000000000000000000000000000000005f52604160045260245ffd5b612fff82612c91565b810181811067ffffffffffffffff8211171561301e5761301d612fc9565b5b80604052505050565b5f613030612cf9565b905061303c8282612ff6565b919050565b5f67ffffffffffffffff82111561305b5761305a612fc9565b5b61306482612c91565b9050602081019050919050565b828183375f83830152505050565b5f61309161308c84613041565b613027565b9050828152602081018484840111156130ad576130ac612fc5565b5b6130b8848285613071565b509392505050565b5f82601f8301126130d4576130d3612fc1565b5b81356130e484826020860161307f565b91505092915050565b6130f681612d8f565b8114613100575f5ffd5b50565b5f81359050613111816130ed565b92915050565b61312081612daa565b811461312a575f5ffd5b50565b5f8135905061313b81613117565b92915050565b5f5f5f5f5f60a0868803121561315a57613159612d02565b5b5f61316788828901612d50565b955050602086013567ffffffffffffffff81111561318857613187612d06565b5b613194888289016130c0565b945050604086013567ffffffffffffffff8111156131b5576131b4612d06565b5b6131c1888289016130c0565b93505060606131d288828901613103565b92505060806131e38882890161312d565b9150509295509295909350565b5f5ffd5b5f5ffd5b5f5f83601f84011261320d5761320c612fc1565b5b8235905067ffffffffffffffff81111561322a576132296131f0565b5b602083019150836020820283011115613246576132456131f4565b5b9250929050565b5f5f83601f84011261326257613261612fc1565b5b8235905067ffffffffffffffff81111561327f5761327e6131f0565b5b60208301915083602082028301111561329b5761329a6131f4565b5b9250929050565b5f5f5f5f5f5f606087890312156132bc576132bb612d02565b5b5f87013567ffffffffffffffff8111156132d9576132d8612d06565b5b6132e589828a016131f8565b9650965050602087013567ffffffffffffffff81111561330857613307612d06565b5b61331489828a016131f8565b9450945050604087013567ffffffffffffffff81111561333757613336612d06565b5b61334389828a0161324d565b92509250509295509295509295565b5f6020820190506133655f830184612db5565b92915050565b5f5f5f5f5f6060868803121561338457613383612d02565b5b5f61339188828901612d50565b955050602086013567ffffffffffffffff8111156133b2576133b1612d06565b5b6133be888289016131f8565b9450945050604086013567ffffffffffffffff8111156133e1576133e0612d06565b5b6133ed8882890161324d565b92509250509295509295909350565b5f5f6040838503121561341257613411612d02565b5b5f61341f85828601612d50565b925050602061343085828601612d50565b9150509250929050565b61344381612ef5565b82525050565b5f60208201905061345c5f83018461343a565b92915050565b61346b81612ef5565b8114613475575f5ffd5b50565b5f8135905061348681613462565b92915050565b5f5f5f606084860312156134a3576134a2612d02565b5b5f6134b086828701612d50565b93505060206134c186828701612d50565b92505060406134d286828701613478565b9150509250925092565b6134e581612d29565b82525050565b5f6020820190506134fe5f8301846134dc565b92915050565b5f6020828403121561351957613518612d02565b5b5f61352684828501613478565b91505092915050565b5f6020820190508181035f8301526135478184612e70565b905092915050565b5f60a0820190508181035f8301526135678188612ca1565b9050818103602083015261357b8187612ca1565b905061358a6040830186612d9b565b6135976060830185612db5565b6135a46080830184612db5565b9695505050505050565b7f496e76616c696420746f6b656e206164647265737300000000000000000000005f82015250565b5f6135e2601583612c73565b91506135ed826135ae565b602082019050919050565b5f6020820190508181035f83015261360f816135d6565b9050919050565b7f546f6b656e20616c726561647920737570706f727465640000000000000000005f82015250565b5f61364a601783612c73565b915061365582613616565b602082019050919050565b5f6020820190508181035f8301526136778161363e565b9050919050565b5f61369061368b84613041565b613027565b9050828152602081018484840111156136ac576136ab612fc5565b5b6136b7848285612c83565b509392505050565b5f82601f8301126136d3576136d2612fc1565b5b81516136e384826020860161367e565b91505092915050565b5f6020828403121561370157613700612d02565b5b5f82015167ffffffffffffffff81111561371e5761371d612d06565b5b61372a848285016136bf565b91505092915050565b5f81519050613741816130ed565b92915050565b5f6020828403121561375c5761375b612d02565b5b5f61376984828501613733565b91505092915050565b7f4e487b71000000000000000000000000000000000000000000000000000000005f52602260045260245ffd5b5f60028204905060018216806137b657607f821691505b6020821081036137c9576137c8613772565b5b50919050565b5f819050815f5260205f209050919050565b5f6020601f8301049050919050565b5f82821b905092915050565b5f6008830261382b7fffffffffffffffffffffffffffffffffffffffffffffffffffffffffffffffff826137f0565b61383586836137f0565b95508019841693508086168417925050509392505050565b5f819050919050565b5f61387061386b61386684612ef5565b61384d565b612ef5565b9050919050565b5f819050919050565b61388983613856565b61389d61389582613877565b8484546137fc565b825550505050565b5f5f905090565b6138b46138a5565b6138bf818484613880565b505050565b5b818110156138e2576138d75f826138ac565b6001810190506138c5565b5050565b601f821115613927576138f8816137cf565b613901846137e1565b81016020851015613910578190505b61392461391c856137e1565b8301826138c4565b50505b505050565b5f82821c905092915050565b5f6139475f198460080261392c565b1980831691505092915050565b5f61395f8383613938565b9150826002028217905092915050565b61397882612c69565b67ffffffffffffffff81111561399157613990612fc9565b5b61399b825461379f565b6139a68282856138e6565b5f60209050601f8311600181146139d7575f84156139c5578287015190505b6139cf8582613954565b865550613a36565b601f1984166139e5866137cf565b5f5b82811015613a0c578489015182556001820191506020850194506020810190506139e7565b86831015613a295784890151613a25601f891682613938565b8355505b6001600288020188555050505b505050505050565b5f6060820190508181035f830152613a568186612ca1565b90508181036020830152613a6a8185612ca1565b9050613a796040830184612db5565b949350505050565b7f546f6b656e20696e666f206e6f7420666f756e640000000000000000000000005f82015250565b5f613ab5601483612c73565b9150613ac082613a81565b602082019050919050565b5f6020820190508181035f830152613ae281613aa9565b9050919050565b7f4e487b71000000000000000000000000000000000000000000000000000000005f52603260045260245ffd5b7f417272617973206c656e677468206d69736d61746368000000000000000000005f82015250565b5f613b4a601683612c73565b9150613b5582613b16565b602082019050919050565b5f6020820190508181035f830152613b7781613b3e565b9050919050565b7f4e6f20746f6b656e732070726f766964656400000000000000000000000000005f82015250565b5f613bb2601283612c73565b9150613bbd82613b7e565b602082019050919050565b5f6020820190508181035f830152613bdf81613ba6565b9050919050565b7f546f6b656e206e6f7420737570706f72746564000000000000000000000000005f82015250565b5f613c1a601383612c73565b9150613c2582613be6565b602082019050919050565b5f6020820190508181035f830152613c4781613c0e565b9050919050565b7f496e76616c696420726563697069656e742061646472657373000000000000005f82015250565b5f613c82601983612c73565b9150613c8d82613c4e565b602082019050919050565b5f6020820190508181035f830152613caf81613c76565b9050919050565b7f416d6f756e74206d7573742062652067726561746572207468616e20300000005f82015250565b5f613cea601d83612c73565b9150613cf582613cb6565b602082019050919050565b5f6020820190508181035f830152613d1781613cde565b9050919050565b7f496e73756666696369656e7420616c6c6f77616e636520666f7220746f6b656e5f82015250565b5f613d52602083612c73565b9150613d5d82613d1e565b602082019050919050565b5f6020820190508181035f830152613d7f81613d46565b9050919050565b7f496e73756666696369656e742062616c616e636520666f7220746f6b656e00005f82015250565b5f613dba601e83612c73565b9150613dc582613d86565b602082019050919050565b5f6020820190508181035f830152613de781613dae565b9050919050565b7f5472616e73666572206661696c656420666f7220746f6b656e000000000000005f82015250565b5f613e22601983612c73565b9150613e2d82613dee565b602082019050919050565b5f6020820190508181035f830152613e4f81613e16565b9050919050565b5f819050919050565b5f613e6d6020840184612d50565b905092915050565b5f602082019050919050565b5f613e8c8385612e1f565b9350613e9782613e56565b805f5b85811015613ecf57613eac8284613e5f565b613eb68882612e4d565b9750613ec183613e75565b925050600181019050613e9a565b5085925050509392505050565b5f5ffd5b82818337505050565b5f613ef48385612ed6565b93507f07ffffffffffffffffffffffffffffffffffffffffffffffffffffffffffffff831115613f2757613f26613edc565b5b602083029250613f38838584613ee0565b82840190509392505050565b5f6080820190508181035f830152613f5d81898b613e81565b90508181036020830152613f72818789613e81565b90508181036040830152613f87818587613ee9565b9050613f96606083018461343a565b98975050505050505050565b7f4e6f20726563697069656e74732070726f7669646564000000000000000000005f82015250565b5f613fd6601683612c73565b9150613fe182613fa2565b602082019050919050565b5f6020820190508181035f83015261400381613fca565b9050919050565b7f4e487b71000000000000000000000000000000000000000000000000000000005f52601160045260245ffd5b5f61404182612ef5565b915061404c83612ef5565b92508282019050808211156140645761406361400a565b5b92915050565b7f496e73756666696369656e7420746f74616c20616c6c6f77616e6365000000005f82015250565b5f61409e601c83612c73565b91506140a98261406a565b602082019050919050565b5f6020820190508181035f8301526140cb81614092565b9050919050565b7f496e73756666696369656e7420746f74616c2062616c616e63650000000000005f82015250565b5f614106601a83612c73565b9150614111826140d2565b602082019050919050565b5f6020820190508181035f830152614133816140fa565b9050919050565b7f4261746368207472616e73666572206661696c656400000000000000000000005f82015250565b5f61416e601583612c73565b91506141798261413a565b602082019050919050565b5f6020820190508181035f83015261419b81614162565b9050919050565b5f6141ac82612ef5565b91506141b783612ef5565b92508282039050818111156141cf576141ce61400a565b5b92915050565b7f4e487b71000000000000000000000000000000000000000000000000000000005f52603160045260245ffd5b7f496e73756666696369656e7420616c6c6f77616e6365000000000000000000005f82015250565b5f614236601683612c73565b915061424182614202565b602082019050919050565b5f6020820190508181035f8301526142638161422a565b9050919050565b7f496e73756666696369656e742062616c616e63650000000000000000000000005f82015250565b5f61429e601483612c73565b91506142a98261426a565b602082019050919050565b5f6020820190508181035f8301526142cb81614292565b9050919050565b7f5472616e73666572206661696c656400000000000000000000000000000000005f82015250565b5f614306600f83612c73565b9150614311826142d2565b602082019050919050565b5f6020820190508181035f830152614333816142fa565b9050919050565b5f60608201905061434d5f83018661343a565b61435a602083018561343a565b6143676040830184612db5565b949350505050565b7f4f776e61626c653a206e6577206f776e657220697320746865207a65726f20615f8201527f6464726573730000000000000000000000000000000000000000000000000000602082015250565b5f6143c9602683612c73565b91506143d48261436f565b604082019050919050565b5f6020820190508181035f8301526143f6816143bd565b9050919050565b7f4f776e61626c653a2063616c6c6572206973206e6f7420746865206f776e65725f82015250565b5f614431602083612c73565b915061443c826143fd565b602082019050919050565b5f6020820190508181035f83015261445e81614425565b9050919050565b7f5265656e7472616e637947756172643a207265656e7472616e742063616c6c005f82015250565b5f614499601f83612c73565b91506144a482614465565b602082019050919050565b5f6020820190508181035f8301526144c68161448d565b9050919050565b5f6040820190506144e05f8301856134dc565b6144ed60208301846134dc565b9392505050565b5f8151905061450281613462565b92915050565b5f6020828403121561451d5761451c612d02565b5b5f61452a848285016144f4565b91505092915050565b5f6060820190506145465f8301866134dc565b61455360208301856134dc565b614560604083018461343a565b949350505050565b5f8151905061457681613117565b92915050565b5f6020828403121561459157614590612d02565b5b5f61459e84828501614568565b9150509291505056fe4d756c7469546f6b656e5061796d656e742076322e31202d20496e7465677261746564a2646970667358221220edf42ee7363fc3294a4e83354713c2d69db93fe216af4f8b4a906854c0ebd6d964736f6c634300081e0033",
					"opcodes": "PUSH1 0x80 PUSH1 0x40 MSTORE CALLVALUE DUP1 ISZERO PUSH2 0xF JUMPI PUSH0 PUSH0 REVERT JUMPDEST POP PUSH2 0x2C PUSH2 0x21 PUSH2 0x38 PUSH1 0x20 SHL PUSH1 0x20 SHR JUMP JUMPDEST PUSH2 0x3F PUSH1 0x20 SHL PUSH1 0x20 SHR JUMP JUMPDEST PUSH1 0x1 DUP1 DUP2 SWAP1 SSTORE POP PUSH2 0x100 JUMP JUMPDEST PUSH0 CALLER SWAP1 POP SWAP1 JUMP JUMPDEST PUSH0 PUSH0 PUSH0 SWAP1 SLOAD SWAP1 PUSH2 0x100 EXP SWAP1 DIV PUSH20 0xFFFFFFFFFFFFFFFFFFFFFFFFFFFFFFFFFFFFFFFF AND SWAP1 POP DUP2 PUSH0 PUSH0 PUSH2 0x100 EXP DUP2 SLOAD DUP2 PUSH20 0xFFFFFFFFFFFFFFFFFFFFFFFFFFFFFFFFFFFFFFFF MUL NOT AND SWAP1 DUP4 PUSH20 0xFFFFFFFFFFFFFFFFFFFFFFFFFFFFFFFFFFFFFFFF AND MUL OR SWAP1 SSTORE POP DUP2 PUSH20 0xFFFFFFFFFFFFFFFFFFFFFFFFFFFFFFFFFFFFFFFF AND DUP2 PUSH20 0xFFFFFFFFFFFFFFFFFFFFFFFFFFFFFFFFFFFFFFFF AND PUSH32 0x8BE0079C531659141344CD1FD0A4F28419497F9722A3DAAFE3B4186F6B6457E0 PUSH1 0x40 MLOAD PUSH1 0x40 MLOAD DUP1 SWAP2 SUB SWAP1 LOG3 POP POP JUMP JUMPDEST PUSH2 0x4600 DUP1 PUSH2 0x10D PUSH0 CODECOPY PUSH0 RETURN INVALID PUSH1 0x80 PUSH1 0x40 MSTORE CALLVALUE DUP1 ISZERO PUSH2 0xF JUMPI PUSH0 PUSH0 REVERT JUMPDEST POP PUSH1 0x4 CALLDATASIZE LT PUSH2 0x140 JUMPI PUSH0 CALLDATALOAD PUSH1 0xE0 SHR DUP1 PUSH4 0x87E660D3 GT PUSH2 0xB6 JUMPI DUP1 PUSH4 0xC4B1EB90 GT PUSH2 0x7A JUMPI DUP1 PUSH4 0xC4B1EB90 EQ PUSH2 0x3C2 JUMPI DUP1 PUSH4 0xC6255626 EQ PUSH2 0x3DE JUMPI DUP1 PUSH4 0xC86B268A EQ PUSH2 0x40E JUMPI DUP1 PUSH4 0xD3C7C2C7 EQ PUSH2 0x43E JUMPI DUP1 PUSH4 0xF2FDE38B EQ PUSH2 0x45C JUMPI DUP1 PUSH4 0xF5DAB711 EQ PUSH2 0x478 JUMPI PUSH2 0x140 JUMP JUMPDEST DUP1 PUSH4 0x87E660D3 EQ PUSH2 0x2E4 JUMPI DUP1 PUSH4 0x892D5F74 EQ PUSH2 0x314 JUMPI DUP1 PUSH4 0x8B099B23 EQ PUSH2 0x344 JUMPI DUP1 PUSH4 0x8B1B3303 EQ PUSH2 0x374 JUMPI DUP1 PUSH4 0x8DA5CB5B EQ PUSH2 0x3A4 JUMPI PUSH2 0x140 JUMP JUMPDEST DUP1 PUSH4 0x5848D919 GT PUSH2 0x108 JUMPI DUP1 PUSH4 0x5848D919 EQ PUSH2 0x1FE JUMPI DUP1 PUSH4 0x5A59079A EQ PUSH2 0x22E JUMPI DUP1 PUSH4 0x715018A6 EQ PUSH2 0x25E JUMPI DUP1 PUSH4 0x75151B63 EQ PUSH2 0x268 JUMPI DUP1 PUSH4 0x76319190 EQ PUSH2 0x298 JUMPI DUP1 PUSH4 0x77B76EC3 EQ PUSH2 0x2B4 JUMPI PUSH2 0x140 JUMP JUMPDEST DUP1 PUSH4 0xD8E6E2C EQ PUSH2 0x144 JUMPI DUP1 PUSH4 0x159166C0 EQ PUSH2 0x162 JUMPI DUP1 PUSH4 0x1F69565F EQ PUSH2 0x17E JUMPI DUP1 PUSH4 0x2FA21126 EQ PUSH2 0x1B1 JUMPI DUP1 PUSH4 0x3367DAD3 EQ PUSH2 0x1E2 JUMPI JUMPDEST PUSH0 PUSH0 REVERT JUMPDEST PUSH2 0x14C PUSH2 0x4AC JUMP JUMPDEST PUSH1 0x40 MLOAD PUSH2 0x159 SWAP2 SWAP1 PUSH2 0x2CD9 JUMP JUMPDEST PUSH1 0x40 MLOAD DUP1 SWAP2 SUB SWAP1 RETURN JUMPDEST PUSH2 0x17C PUSH1 0x4 DUP1 CALLDATASIZE SUB DUP2 ADD SWAP1 PUSH2 0x177 SWAP2 SWAP1 PUSH2 0x2D64 JUMP JUMPDEST PUSH2 0x4CC JUMP JUMPDEST STOP JUMPDEST PUSH2 0x198 PUSH1 0x4 DUP1 CALLDATASIZE SUB DUP2 ADD SWAP1 PUSH2 0x193 SWAP2 SWAP1 PUSH2 0x2D64 JUMP JUMPDEST PUSH2 0xA76 JUMP JUMPDEST PUSH1 0x40 MLOAD PUSH2 0x1A8 SWAP5 SWAP4 SWAP3 SWAP2 SWAP1 PUSH2 0x2DC4 JUMP JUMPDEST PUSH1 0x40 MLOAD DUP1 SWAP2 SUB SWAP1 RETURN JUMPDEST PUSH2 0x1CB PUSH1 0x4 DUP1 CALLDATASIZE SUB DUP2 ADD SWAP1 PUSH2 0x1C6 SWAP2 SWAP1 PUSH2 0x2D64 JUMP JUMPDEST PUSH2 0xCE7 JUMP JUMPDEST PUSH1 0x40 MLOAD PUSH2 0x1D9 SWAP3 SWAP2 SWAP1 PUSH2 0x2F8C JUMP JUMPDEST PUSH1 0x40 MLOAD DUP1 SWAP2 SUB SWAP1 RETURN JUMPDEST PUSH2 0x1FC PUSH1 0x4 DUP1 CALLDATASIZE SUB DUP2 ADD SWAP1 PUSH2 0x1F7 SWAP2 SWAP1 PUSH2 0x3141 JUMP JUMPDEST PUSH2 0xE6B JUMP JUMPDEST STOP JUMPDEST PUSH2 0x218 PUSH1 0x4 DUP1 CALLDATASIZE SUB DUP2 ADD SWAP1 PUSH2 0x213 SWAP2 SWAP1 PUSH2 0x32A2 JUMP JUMPDEST PUSH2 0x11DC JUMP JUMPDEST PUSH1 0x40 MLOAD PUSH2 0x225 SWAP2 SWAP1 PUSH2 0x3352 JUMP JUMPDEST PUSH1 0x40 MLOAD DUP1 SWAP2 SUB SWAP1 RETURN JUMPDEST PUSH2 0x248 PUSH1 0x4 DUP1 CALLDATASIZE SUB DUP2 ADD SWAP1 PUSH2 0x243 SWAP2 SWAP1 PUSH2 0x336B JUMP JUMPDEST PUSH2 0x168B JUMP JUMPDEST PUSH1 0x40 MLOAD PUSH2 0x255 SWAP2 SWAP1 PUSH2 0x3352 JUMP JUMPDEST PUSH1 0x40 MLOAD DUP1 SWAP2 SUB SWAP1 RETURN JUMPDEST PUSH2 0x266 PUSH2 0x1A4C JUMP JUMPDEST STOP JUMPDEST PUSH2 0x282 PUSH1 0x4 DUP1 CALLDATASIZE SUB DUP2 ADD SWAP1 PUSH2 0x27D SWAP2 SWAP1 PUSH2 0x2D64 JUMP JUMPDEST PUSH2 0x1A5F JUMP JUMPDEST PUSH1 0x40 MLOAD PUSH2 0x28F SWAP2 SWAP1 PUSH2 0x3352 JUMP JUMPDEST PUSH1 0x40 MLOAD DUP1 SWAP2 SUB SWAP1 RETURN JUMPDEST PUSH2 0x2B2 PUSH1 0x4 DUP1 CALLDATASIZE SUB DUP2 ADD SWAP1 PUSH2 0x2AD SWAP2 SWAP1 PUSH2 0x2D64 JUMP JUMPDEST PUSH2 0x1A7C JUMP JUMPDEST STOP JUMPDEST PUSH2 0x2CE PUSH1 0x4 DUP1 CALLDATASIZE SUB DUP2 ADD SWAP1 PUSH2 0x2C9 SWAP2 SWAP1 PUSH2 0x33FC JUMP JUMPDEST PUSH2 0x1E10 JUMP JUMPDEST PUSH1 0x40 MLOAD PUSH2 0x2DB SWAP2 SWAP1 PUSH2 0x3449 JUMP JUMPDEST PUSH1 0x40 MLOAD DUP1 SWAP2 SUB SWAP1 RETURN JUMPDEST PUSH2 0x2FE PUSH1 0x4 DUP1 CALLDATASIZE SUB DUP2 ADD SWAP1 PUSH2 0x2F9 SWAP2 SWAP1 PUSH2 0x348C JUMP JUMPDEST PUSH2 0x1EAE JUMP JUMPDEST PUSH1 0x40 MLOAD PUSH2 0x30B SWAP2 SWAP1 PUSH2 0x3352 JUMP JUMPDEST PUSH1 0x40 MLOAD DUP1 SWAP2 SUB SWAP1 RETURN JUMPDEST PUSH2 0x32E PUSH1 0x4 DUP1 CALLDATASIZE SUB DUP2 ADD SWAP1 PUSH2 0x329 SWAP2 SWAP1 PUSH2 0x2D64 JUMP JUMPDEST PUSH2 0x2111 JUMP JUMPDEST PUSH1 0x40 MLOAD PUSH2 0x33B SWAP2 SWAP1 PUSH2 0x3352 JUMP JUMPDEST PUSH1 0x40 MLOAD DUP1 SWAP2 SUB SWAP1 RETURN JUMPDEST PUSH2 0x35E PUSH1 0x4 DUP1 CALLDATASIZE SUB DUP2 ADD SWAP1 PUSH2 0x359 SWAP2 SWAP1 PUSH2 0x33FC JUMP JUMPDEST PUSH2 0x21E9 JUMP JUMPDEST PUSH1 0x40 MLOAD PUSH2 0x36B SWAP2 SWAP1 PUSH2 0x3449 JUMP JUMPDEST PUSH1 0x40 MLOAD DUP1 SWAP2 SUB SWAP1 RETURN JUMPDEST PUSH2 0x38E PUSH1 0x4 DUP1 CALLDATASIZE SUB DUP2 ADD SWAP1 PUSH2 0x389 SWAP2 SWAP1 PUSH2 0x2D64 JUMP JUMPDEST PUSH2 0x2288 JUMP JUMPDEST PUSH1 0x40 MLOAD PUSH2 0x39B SWAP2 SWAP1 PUSH2 0x3352 JUMP JUMPDEST PUSH1 0x40 MLOAD DUP1 SWAP2 SUB SWAP1 RETURN JUMPDEST PUSH2 0x3AC PUSH2 0x22A5 JUMP JUMPDEST PUSH1 0x40 MLOAD PUSH2 0x3B9 SWAP2 SWAP1 PUSH2 0x34EB JUMP JUMPDEST PUSH1 0x40 MLOAD DUP1 SWAP2 SUB SWAP1 RETURN JUMPDEST PUSH2 0x3DC PUSH1 0x4 DUP1 CALLDATASIZE SUB DUP2 ADD SWAP1 PUSH2 0x3D7 SWAP2 SWAP1 PUSH2 0x2D64 JUMP JUMPDEST PUSH2 0x22CC JUMP JUMPDEST STOP JUMPDEST PUSH2 0x3F8 PUSH1 0x4 DUP1 CALLDATASIZE SUB DUP2 ADD SWAP1 PUSH2 0x3F3 SWAP2 SWAP1 PUSH2 0x3504 JUMP JUMPDEST PUSH2 0x2324 JUMP JUMPDEST PUSH1 0x40 MLOAD PUSH2 0x405 SWAP2 SWAP1 PUSH2 0x34EB JUMP JUMPDEST PUSH1 0x40 MLOAD DUP1 SWAP2 SUB SWAP1 RETURN JUMPDEST PUSH2 0x428 PUSH1 0x4 DUP1 CALLDATASIZE SUB DUP2 ADD SWAP1 PUSH2 0x423 SWAP2 SWAP1 PUSH2 0x2D64 JUMP JUMPDEST PUSH2 0x235F JUMP JUMPDEST PUSH1 0x40 MLOAD PUSH2 0x435 SWAP2 SWAP1 PUSH2 0x3352 JUMP JUMPDEST PUSH1 0x40 MLOAD DUP1 SWAP2 SUB SWAP1 RETURN JUMPDEST PUSH2 0x446 PUSH2 0x237C JUMP JUMPDEST PUSH1 0x40 MLOAD PUSH2 0x453 SWAP2 SWAP1 PUSH2 0x352F JUMP JUMPDEST PUSH1 0x40 MLOAD DUP1 SWAP2 SUB SWAP1 RETURN JUMPDEST PUSH2 0x476 PUSH1 0x4 DUP1 CALLDATASIZE SUB DUP2 ADD SWAP1 PUSH2 0x471 SWAP2 SWAP1 PUSH2 0x2D64 JUMP JUMPDEST PUSH2 0x2407 JUMP JUMPDEST STOP JUMPDEST PUSH2 0x492 PUSH1 0x4 DUP1 CALLDATASIZE SUB DUP2 ADD SWAP1 PUSH2 0x48D SWAP2 SWAP1 PUSH2 0x2D64 JUMP JUMPDEST PUSH2 0x2489 JUMP JUMPDEST PUSH1 0x40 MLOAD PUSH2 0x4A3 SWAP6 SWAP5 SWAP4 SWAP3 SWAP2 SWAP1 PUSH2 0x354F JUMP JUMPDEST PUSH1 0x40 MLOAD DUP1 SWAP2 SUB SWAP1 RETURN JUMPDEST PUSH1 0x60 PUSH1 0x40 MLOAD DUP1 PUSH1 0x60 ADD PUSH1 0x40 MSTORE DUP1 PUSH1 0x23 DUP2 MSTORE PUSH1 0x20 ADD PUSH2 0x45A8 PUSH1 0x23 SWAP2 CODECOPY SWAP1 POP SWAP1 JUMP JUMPDEST PUSH2 0x4D4 PUSH2 0x25ED JUMP JUMPDEST PUSH0 PUSH20 0xFFFFFFFFFFFFFFFFFFFFFFFFFFFFFFFFFFFFFFFF AND DUP2 PUSH20 0xFFFFFFFFFFFFFFFFFFFFFFFFFFFFFFFFFFFFFFFF AND SUB PUSH2 0x542 JUMPI PUSH1 0x40 MLOAD PUSH32 0x8C379A000000000000000000000000000000000000000000000000000000000 DUP2 MSTORE PUSH1 0x4 ADD PUSH2 0x539 SWAP1 PUSH2 0x35F8 JUMP JUMPDEST PUSH1 0x40 MLOAD DUP1 SWAP2 SUB SWAP1 REVERT JUMPDEST PUSH1 0x3 PUSH0 DUP3 PUSH20 0xFFFFFFFFFFFFFFFFFFFFFFFFFFFFFFFFFFFFFFFF AND PUSH20 0xFFFFFFFFFFFFFFFFFFFFFFFFFFFFFFFFFFFFFFFF AND DUP2 MSTORE PUSH1 0x20 ADD SWAP1 DUP2 MSTORE PUSH1 0x20 ADD PUSH0 KECCAK256 PUSH0 SWAP1 SLOAD SWAP1 PUSH2 0x100 EXP SWAP1 DIV PUSH1 0xFF AND ISZERO PUSH2 0x5CC JUMPI PUSH1 0x40 MLOAD PUSH32 0x8C379A000000000000000000000000000000000000000000000000000000000 DUP2 MSTORE PUSH1 0x4 ADD PUSH2 0x5C3 SWAP1 PUSH2 0x3660 JUMP JUMPDEST PUSH1 0x40 MLOAD DUP1 SWAP2 SUB SWAP1 REVERT JUMPDEST PUSH1 0x1 PUSH1 0x3 PUSH0 DUP4 PUSH20 0xFFFFFFFFFFFFFFFFFFFFFFFFFFFFFFFFFFFFFFFF AND PUSH20 0xFFFFFFFFFFFFFFFFFFFFFFFFFFFFFFFFFFFFFFFF AND DUP2 MSTORE PUSH1 0x20 ADD SWAP1 DUP2 MSTORE PUSH1 0x20 ADD PUSH0 KECCAK256 PUSH0 PUSH2 0x100 EXP DUP2 SLOAD DUP2 PUSH1 0xFF MUL NOT AND SWAP1 DUP4 ISZERO ISZERO MUL OR SWAP1 SSTORE POP PUSH1 0x2 DUP2 SWAP1 DUP1 PUSH1 0x1 DUP2 SLOAD ADD DUP1 DUP3 SSTORE DUP1 SWAP2 POP POP PUSH1 0x1 SWAP1 SUB SWAP1 PUSH0 MSTORE PUSH1 0x20 PUSH0 KECCAK256 ADD PUSH0 SWAP1 SWAP2 SWAP1 SWAP2 SWAP1 SWAP2 PUSH2 0x100 EXP DUP2 SLOAD DUP2 PUSH20 0xFFFFFFFFFFFFFFFFFFFFFFFFFFFFFFFFFFFFFFFF MUL NOT AND SWAP1 DUP4 PUSH20 0xFFFFFFFFFFFFFFFFFFFFFFFFFFFFFFFFFFFFFFFF AND MUL OR SWAP1 SSTORE POP PUSH0 PUSH1 0x40 MLOAD DUP1 PUSH1 0x40 ADD PUSH1 0x40 MSTORE DUP1 PUSH1 0x7 DUP2 MSTORE PUSH1 0x20 ADD PUSH32 0x554E4B4E4F574E00000000000000000000000000000000000000000000000000 DUP2 MSTORE POP SWAP1 POP PUSH0 PUSH1 0x40 MLOAD DUP1 PUSH1 0x40 ADD PUSH1 0x40 MSTORE DUP1 PUSH1 0x7 DUP2 MSTORE PUSH1 0x20 ADD PUSH32 0x554E4B4E4F574E00000000000000000000000000000000000000000000000000 DUP2 MSTORE POP SWAP1 POP PUSH0 PUSH1 0x12 SWAP1 POP PUSH0 PUSH1 0x5 PUSH0 DUP7 PUSH20 0xFFFFFFFFFFFFFFFFFFFFFFFFFFFFFFFFFFFFFFFF AND PUSH20 0xFFFFFFFFFFFFFFFFFFFFFFFFFFFFFFFFFFFFFFFF AND DUP2 MSTORE PUSH1 0x20 ADD SWAP1 DUP2 MSTORE PUSH1 0x20 ADD PUSH0 KECCAK256 PUSH0 SWAP1 SLOAD SWAP1 PUSH2 0x100 EXP SWAP1 DIV PUSH1 0xFF AND SWAP1 POP DUP1 PUSH2 0x8BF JUMPI DUP5 PUSH20 0xFFFFFFFFFFFFFFFFFFFFFFFFFFFFFFFFFFFFFFFF AND PUSH4 0x95D89B41 PUSH1 0x40 MLOAD DUP2 PUSH4 0xFFFFFFFF AND PUSH1 0xE0 SHL DUP2 MSTORE PUSH1 0x4 ADD PUSH0 PUSH1 0x40 MLOAD DUP1 DUP4 SUB DUP2 DUP7 GAS STATICCALL SWAP3 POP POP POP DUP1 ISZERO PUSH2 0x7B5 JUMPI POP PUSH1 0x40 MLOAD RETURNDATASIZE PUSH0 DUP3 RETURNDATACOPY RETURNDATASIZE PUSH1 0x1F NOT PUSH1 0x1F DUP3 ADD AND DUP3 ADD DUP1 PUSH1 0x40 MSTORE POP DUP2 ADD SWAP1 PUSH2 0x7B2 SWAP2 SWAP1 PUSH2 0x36EC JUMP JUMPDEST PUSH1 0x1 JUMPDEST PUSH2 0x7C2 JUMPI PUSH1 0x1 SWAP1 POP PUSH2 0x7C7 JUMP JUMPDEST DUP1 SWAP5 POP POP JUMPDEST DUP5 PUSH20 0xFFFFFFFFFFFFFFFFFFFFFFFFFFFFFFFFFFFFFFFF AND PUSH4 0x6FDDE03 PUSH1 0x40 MLOAD DUP2 PUSH4 0xFFFFFFFF AND PUSH1 0xE0 SHL DUP2 MSTORE PUSH1 0x4 ADD PUSH0 PUSH1 0x40 MLOAD DUP1 DUP4 SUB DUP2 DUP7 GAS STATICCALL SWAP3 POP POP POP DUP1 ISZERO PUSH2 0x832 JUMPI POP PUSH1 0x40 MLOAD RETURNDATASIZE PUSH0 DUP3 RETURNDATACOPY RETURNDATASIZE PUSH1 0x1F NOT PUSH1 0x1F DUP3 ADD AND DUP3 ADD DUP1 PUSH1 0x40 MSTORE POP DUP2 ADD SWAP1 PUSH2 0x82F SWAP2 SWAP1 PUSH2 0x36EC JUMP JUMPDEST PUSH1 0x1 JUMPDEST PUSH2 0x83F JUMPI PUSH1 0x1 SWAP1 POP PUSH2 0x844 JUMP JUMPDEST DUP1 SWAP4 POP POP JUMPDEST DUP5 PUSH20 0xFFFFFFFFFFFFFFFFFFFFFFFFFFFFFFFFFFFFFFFF AND PUSH4 0x313CE567 PUSH1 0x40 MLOAD DUP2 PUSH4 0xFFFFFFFF AND PUSH1 0xE0 SHL DUP2 MSTORE PUSH1 0x4 ADD PUSH1 0x20 PUSH1 0x40 MLOAD DUP1 DUP4 SUB DUP2 DUP7 GAS STATICCALL SWAP3 POP POP POP DUP1 ISZERO PUSH2 0x8AC JUMPI POP PUSH1 0x40 MLOAD RETURNDATASIZE PUSH1 0x1F NOT PUSH1 0x1F DUP3 ADD AND DUP3 ADD DUP1 PUSH1 0x40 MSTORE POP DUP2 ADD SWAP1 PUSH2 0x8A9 SWAP2 SWAP1 PUSH2 0x3747 JUMP JUMPDEST PUSH1 0x1 JUMPDEST PUSH2 0x8B9 JUMPI PUSH1 0x1 SWAP1 POP PUSH2 0x8BE JUMP JUMPDEST DUP1 SWAP3 POP POP JUMPDEST JUMPDEST DUP1 PUSH2 0x8D0 JUMPI PUSH2 0x8CD DUP6 PUSH2 0x2111 JUMP JUMPDEST SWAP1 POP JUMPDEST PUSH1 0x40 MLOAD DUP1 PUSH1 0xA0 ADD PUSH1 0x40 MSTORE DUP1 DUP6 DUP2 MSTORE PUSH1 0x20 ADD DUP5 DUP2 MSTORE PUSH1 0x20 ADD DUP4 PUSH1 0xFF AND DUP2 MSTORE PUSH1 0x20 ADD PUSH1 0x1 ISZERO ISZERO DUP2 MSTORE PUSH1 0x20 ADD DUP3 ISZERO ISZERO DUP2 MSTORE POP PUSH1 0x6 PUSH0 DUP8 PUSH20 0xFFFFFFFFFFFFFFFFFFFFFFFFFFFFFFFFFFFFFFFF AND PUSH20 0xFFFFFFFFFFFFFFFFFFFFFFFFFFFFFFFFFFFFFFFF AND DUP2 MSTORE PUSH1 0x20 ADD SWAP1 DUP2 MSTORE PUSH1 0x20 ADD PUSH0 KECCAK256 PUSH0 DUP3 ADD MLOAD DUP2 PUSH0 ADD SWAP1 DUP2 PUSH2 0x94F SWAP2 SWAP1 PUSH2 0x396F JUMP JUMPDEST POP PUSH1 0x20 DUP3 ADD MLOAD DUP2 PUSH1 0x1 ADD SWAP1 DUP2 PUSH2 0x965 SWAP2 SWAP1 PUSH2 0x396F JUMP JUMPDEST POP PUSH1 0x40 DUP3 ADD MLOAD DUP2 PUSH1 0x2 ADD PUSH0 PUSH2 0x100 EXP DUP2 SLOAD DUP2 PUSH1 0xFF MUL NOT AND SWAP1 DUP4 PUSH1 0xFF AND MUL OR SWAP1 SSTORE POP PUSH1 0x60 DUP3 ADD MLOAD DUP2 PUSH1 0x2 ADD PUSH1 0x1 PUSH2 0x100 EXP DUP2 SLOAD DUP2 PUSH1 0xFF MUL NOT AND SWAP1 DUP4 ISZERO ISZERO MUL OR SWAP1 SSTORE POP PUSH1 0x80 DUP3 ADD MLOAD DUP2 PUSH1 0x2 ADD PUSH1 0x2 PUSH2 0x100 EXP DUP2 SLOAD DUP2 PUSH1 0xFF MUL NOT AND SWAP1 DUP4 ISZERO ISZERO MUL OR SWAP1 SSTORE POP SWAP1 POP POP DUP1 PUSH1 0x4 PUSH0 DUP8 PUSH20 0xFFFFFFFFFFFFFFFFFFFFFFFFFFFFFFFFFFFFFFFF AND PUSH20 0xFFFFFFFFFFFFFFFFFFFFFFFFFFFFFFFFFFFFFFFF AND DUP2 MSTORE PUSH1 0x20 ADD SWAP1 DUP2 MSTORE PUSH1 0x20 ADD PUSH0 KECCAK256 PUSH0 PUSH2 0x100 EXP DUP2 SLOAD DUP2 PUSH1 0xFF MUL NOT AND SWAP1 DUP4 ISZERO ISZERO MUL OR SWAP1 SSTORE POP DUP5 PUSH20 0xFFFFFFFFFFFFFFFFFFFFFFFFFFFFFFFFFFFFFFFF AND PUSH32 0x7FC380A378A7436B00BFBFA4745A879F9095AD1FDE33A412783721A59A2AD6B9 DUP6 DUP6 DUP5 PUSH1 0x40 MLOAD PUSH2 0xA67 SWAP4 SWAP3 SWAP2 SWAP1 PUSH2 0x3A3E JUMP JUMPDEST PUSH1 0x40 MLOAD DUP1 SWAP2 SUB SWAP1 LOG2 POP POP POP POP POP JUMP JUMPDEST PUSH1 0x60 DUP1 PUSH0 PUSH0 PUSH1 0x6 PUSH0 DUP7 PUSH20 0xFFFFFFFFFFFFFFFFFFFFFFFFFFFFFFFFFFFFFFFF AND PUSH20 0xFFFFFFFFFFFFFFFFFFFFFFFFFFFFFFFFFFFFFFFF AND DUP2 MSTORE PUSH1 0x20 ADD SWAP1 DUP2 MSTORE PUSH1 0x20 ADD PUSH0 KECCAK256 PUSH1 0x2 ADD PUSH1 0x1 SWAP1 SLOAD SWAP1 PUSH2 0x100 EXP SWAP1 DIV PUSH1 0xFF AND PUSH2 0xB08 JUMPI PUSH1 0x40 MLOAD PUSH32 0x8C379A000000000000000000000000000000000000000000000000000000000 DUP2 MSTORE PUSH1 0x4 ADD PUSH2 0xAFF SWAP1 PUSH2 0x3ACB JUMP JUMPDEST PUSH1 0x40 MLOAD DUP1 SWAP2 SUB SWAP1 REVERT JUMPDEST PUSH0 PUSH1 0x6 PUSH0 DUP8 PUSH20 0xFFFFFFFFFFFFFFFFFFFFFFFFFFFFFFFFFFFFFFFF AND PUSH20 0xFFFFFFFFFFFFFFFFFFFFFFFFFFFFFFFFFFFFFFFF AND DUP2 MSTORE PUSH1 0x20 ADD SWAP1 DUP2 MSTORE PUSH1 0x20 ADD PUSH0 KECCAK256 PUSH1 0x40 MLOAD DUP1 PUSH1 0xA0 ADD PUSH1 0x40 MSTORE SWAP1 DUP2 PUSH0 DUP3 ADD DUP1 SLOAD PUSH2 0xB60 SWAP1 PUSH2 0x379F JUMP JUMPDEST DUP1 PUSH1 0x1F ADD PUSH1 0x20 DUP1 SWAP2 DIV MUL PUSH1 0x20 ADD PUSH1 0x40 MLOAD SWAP1 DUP2 ADD PUSH1 0x40 MSTORE DUP1 SWAP3 SWAP2 SWAP1 DUP2 DUP2 MSTORE PUSH1 0x20 ADD DUP3 DUP1 SLOAD PUSH2 0xB8C SWAP1 PUSH2 0x379F JUMP JUMPDEST DUP1 ISZERO PUSH2 0xBD7 JUMPI DUP1 PUSH1 0x1F LT PUSH2 0xBAE JUMPI PUSH2 0x100 DUP1 DUP4 SLOAD DIV MUL DUP4 MSTORE SWAP2 PUSH1 0x20 ADD SWAP2 PUSH2 0xBD7 JUMP JUMPDEST DUP3 ADD SWAP2 SWAP1 PUSH0 MSTORE PUSH1 0x20 PUSH0 KECCAK256 SWAP1 JUMPDEST DUP2 SLOAD DUP2 MSTORE SWAP1 PUSH1 0x1 ADD SWAP1 PUSH1 0x20 ADD DUP1 DUP4 GT PUSH2 0xBBA JUMPI DUP3 SWAP1 SUB PUSH1 0x1F AND DUP3 ADD SWAP2 JUMPDEST POP POP POP POP POP DUP2 MSTORE PUSH1 0x20 ADD PUSH1 0x1 DUP3 ADD DUP1 SLOAD PUSH2 0xBF0 SWAP1 PUSH2 0x379F JUMP JUMPDEST DUP1 PUSH1 0x1F ADD PUSH1 0x20 DUP1 SWAP2 DIV MUL PUSH1 0x20 ADD PUSH1 0x40 MLOAD SWAP1 DUP2 ADD PUSH1 0x40 MSTORE DUP1 SWAP3 SWAP2 SWAP1 DUP2 DUP2 MSTORE PUSH1 0x20 ADD DUP3 DUP1 SLOAD PUSH2 0xC1C SWAP1 PUSH2 0x379F JUMP JUMPDEST DUP1 ISZERO PUSH2 0xC67 JUMPI DUP1 PUSH1 0x1F LT PUSH2 0xC3E JUMPI PUSH2 0x100 DUP1 DUP4 SLOAD DIV MUL DUP4 MSTORE SWAP2 PUSH1 0x20 ADD SWAP2 PUSH2 0xC67 JUMP JUMPDEST DUP3 ADD SWAP2 SWAP1 PUSH0 MSTORE PUSH1 0x20 PUSH0 KECCAK256 SWAP1 JUMPDEST DUP2 SLOAD DUP2 MSTORE SWAP1 PUSH1 0x1 ADD SWAP1 PUSH1 0x20 ADD DUP1 DUP4 GT PUSH2 0xC4A JUMPI DUP3 SWAP1 SUB PUSH1 0x1F AND DUP3 ADD SWAP2 JUMPDEST POP POP POP POP POP DUP2 MSTORE PUSH1 0x20 ADD PUSH1 0x2 DUP3 ADD PUSH0 SWAP1 SLOAD SWAP1 PUSH2 0x100 EXP SWAP1 DIV PUSH1 0xFF AND PUSH1 0xFF AND PUSH1 0xFF AND DUP2 MSTORE PUSH1 0x20 ADD PUSH1 0x2 DUP3 ADD PUSH1 0x1 SWAP1 SLOAD SWAP1 PUSH2 0x100 EXP SWAP1 DIV PUSH1 0xFF AND ISZERO ISZERO ISZERO ISZERO DUP2 MSTORE PUSH1 0x20 ADD PUSH1 0x2 DUP3 ADD PUSH1 0x2 SWAP1 SLOAD SWAP1 PUSH2 0x100 EXP SWAP1 DIV PUSH1 0xFF AND ISZERO ISZERO ISZERO ISZERO DUP2 MSTORE POP POP SWAP1 POP DUP1 PUSH0 ADD MLOAD DUP2 PUSH1 0x20 ADD MLOAD DUP3 PUSH1 0x40 ADD MLOAD DUP4 PUSH1 0x80 ADD MLOAD SWAP5 POP SWAP5 POP SWAP5 POP SWAP5 POP POP SWAP2 SWAP4 POP SWAP2 SWAP4 JUMP JUMPDEST PUSH1 0x60 DUP1 PUSH0 PUSH1 0x2 DUP1 SLOAD SWAP1 POP SWAP1 POP PUSH0 DUP2 PUSH8 0xFFFFFFFFFFFFFFFF DUP2 GT ISZERO PUSH2 0xD0E JUMPI PUSH2 0xD0D PUSH2 0x2FC9 JUMP JUMPDEST JUMPDEST PUSH1 0x40 MLOAD SWAP1 DUP1 DUP3 MSTORE DUP1 PUSH1 0x20 MUL PUSH1 0x20 ADD DUP3 ADD PUSH1 0x40 MSTORE DUP1 ISZERO PUSH2 0xD3C JUMPI DUP2 PUSH1 0x20 ADD PUSH1 0x20 DUP3 MUL DUP1 CALLDATASIZE DUP4 CALLDATACOPY DUP1 DUP3 ADD SWAP2 POP POP SWAP1 POP JUMPDEST POP SWAP1 POP PUSH0 DUP3 PUSH8 0xFFFFFFFFFFFFFFFF DUP2 GT ISZERO PUSH2 0xD5A JUMPI PUSH2 0xD59 PUSH2 0x2FC9 JUMP JUMPDEST JUMPDEST PUSH1 0x40 MLOAD SWAP1 DUP1 DUP3 MSTORE DUP1 PUSH1 0x20 MUL PUSH1 0x20 ADD DUP3 ADD PUSH1 0x40 MSTORE DUP1 ISZERO PUSH2 0xD88 JUMPI DUP2 PUSH1 0x20 ADD PUSH1 0x20 DUP3 MUL DUP1 CALLDATASIZE DUP4 CALLDATACOPY DUP1 DUP3 ADD SWAP2 POP POP SWAP1 POP JUMPDEST POP SWAP1 POP PUSH0 PUSH0 SWAP1 POP JUMPDEST DUP4 DUP2 LT ISZERO PUSH2 0xE5C JUMPI PUSH0 PUSH1 0x2 DUP3 DUP2 SLOAD DUP2 LT PUSH2 0xDAD JUMPI PUSH2 0xDAC PUSH2 0x3AE9 JUMP JUMPDEST JUMPDEST SWAP1 PUSH0 MSTORE PUSH1 0x20 PUSH0 KECCAK256 ADD PUSH0 SWAP1 SLOAD SWAP1 PUSH2 0x100 EXP SWAP1 DIV PUSH20 0xFFFFFFFFFFFFFFFFFFFFFFFFFFFFFFFFFFFFFFFF AND SWAP1 POP DUP1 DUP5 DUP4 DUP2 MLOAD DUP2 LT PUSH2 0xDEB JUMPI PUSH2 0xDEA PUSH2 0x3AE9 JUMP JUMPDEST JUMPDEST PUSH1 0x20 MUL PUSH1 0x20 ADD ADD SWAP1 PUSH20 0xFFFFFFFFFFFFFFFFFFFFFFFFFFFFFFFFFFFFFFFF AND SWAP1 DUP2 PUSH20 0xFFFFFFFFFFFFFFFFFFFFFFFFFFFFFFFFFFFFFFFF AND DUP2 MSTORE POP POP PUSH2 0xE2F DUP2 DUP10 PUSH2 0x21E9 JUMP JUMPDEST DUP4 DUP4 DUP2 MLOAD DUP2 LT PUSH2 0xE42 JUMPI PUSH2 0xE41 PUSH2 0x3AE9 JUMP JUMPDEST JUMPDEST PUSH1 0x20 MUL PUSH1 0x20 ADD ADD DUP2 DUP2 MSTORE POP POP POP DUP1 DUP1 PUSH1 0x1 ADD SWAP2 POP POP PUSH2 0xD90 JUMP JUMPDEST POP DUP2 DUP2 SWAP5 POP SWAP5 POP POP POP POP SWAP2 POP SWAP2 JUMP JUMPDEST PUSH2 0xE73 PUSH2 0x25ED JUMP JUMPDEST PUSH0 PUSH20 0xFFFFFFFFFFFFFFFFFFFFFFFFFFFFFFFFFFFFFFFF AND DUP6 PUSH20 0xFFFFFFFFFFFFFFFFFFFFFFFFFFFFFFFFFFFFFFFF AND SUB PUSH2 0xEE1 JUMPI PUSH1 0x40 MLOAD PUSH32 0x8C379A000000000000000000000000000000000000000000000000000000000 DUP2 MSTORE PUSH1 0x4 ADD PUSH2 0xED8 SWAP1 PUSH2 0x35F8 JUMP JUMPDEST PUSH1 0x40 MLOAD DUP1 SWAP2 SUB SWAP1 REVERT JUMPDEST PUSH1 0x3 PUSH0 DUP7 PUSH20 0xFFFFFFFFFFFFFFFFFFFFFFFFFFFFFFFFFFFFFFFF AND PUSH20 0xFFFFFFFFFFFFFFFFFFFFFFFFFFFFFFFFFFFFFFFF AND DUP2 MSTORE PUSH1 0x20 ADD SWAP1 DUP2 MSTORE PUSH1 0x20 ADD PUSH0 KECCAK256 PUSH0 SWAP1 SLOAD SWAP1 PUSH2 0x100 EXP SWAP1 DIV PUSH1 0xFF AND ISZERO PUSH2 0xF6B JUMPI PUSH1 0x40 MLOAD PUSH32 0x8C379A000000000000000000000000000000000000000000000000000000000 DUP2 MSTORE PUSH1 0x4 ADD PUSH2 0xF62 SWAP1 PUSH2 0x3660 JUMP JUMPDEST PUSH1 0x40 MLOAD DUP1 SWAP2 SUB SWAP1 REVERT JUMPDEST PUSH1 0x1 PUSH1 0x3 PUSH0 DUP8 PUSH20 0xFFFFFFFFFFFFFFFFFFFFFFFFFFFFFFFFFFFFFFFF AND PUSH20 0xFFFFFFFFFFFFFFFFFFFFFFFFFFFFFFFFFFFFFFFF AND DUP2 MSTORE PUSH1 0x20 ADD SWAP1 DUP2 MSTORE PUSH1 0x20 ADD PUSH0 KECCAK256 PUSH0 PUSH2 0x100 EXP DUP2 SLOAD DUP2 PUSH1 0xFF MUL NOT AND SWAP1 DUP4 ISZERO ISZERO MUL OR SWAP1 SSTORE POP PUSH1 0x2 DUP6 SWAP1 DUP1 PUSH1 0x1 DUP2 SLOAD ADD DUP1 DUP3 SSTORE DUP1 SWAP2 POP POP PUSH1 0x1 SWAP1 SUB SWAP1 PUSH0 MSTORE PUSH1 0x20 PUSH0 KECCAK256 ADD PUSH0 SWAP1 SWAP2 SWAP1 SWAP2 SWAP1 SWAP2 PUSH2 0x100 EXP DUP2 SLOAD DUP2 PUSH20 0xFFFFFFFFFFFFFFFFFFFFFFFFFFFFFFFFFFFFFFFF MUL NOT AND SWAP1 DUP4 PUSH20 0xFFFFFFFFFFFFFFFFFFFFFFFFFFFFFFFFFFFFFFFF AND MUL OR SWAP1 SSTORE POP PUSH0 DUP2 SWAP1 POP DUP2 PUSH2 0x1035 JUMPI PUSH2 0x1032 DUP7 PUSH2 0x2111 JUMP JUMPDEST SWAP1 POP JUMPDEST PUSH1 0x40 MLOAD DUP1 PUSH1 0xA0 ADD PUSH1 0x40 MSTORE DUP1 DUP7 DUP2 MSTORE PUSH1 0x20 ADD DUP6 DUP2 MSTORE PUSH1 0x20 ADD DUP5 PUSH1 0xFF AND DUP2 MSTORE PUSH1 0x20 ADD PUSH1 0x1 ISZERO ISZERO DUP2 MSTORE PUSH1 0x20 ADD DUP3 ISZERO ISZERO DUP2 MSTORE POP PUSH1 0x6 PUSH0 DUP9 PUSH20 0xFFFFFFFFFFFFFFFFFFFFFFFFFFFFFFFFFFFFFFFF AND PUSH20 0xFFFFFFFFFFFFFFFFFFFFFFFFFFFFFFFFFFFFFFFF AND DUP2 MSTORE PUSH1 0x20 ADD SWAP1 DUP2 MSTORE PUSH1 0x20 ADD PUSH0 KECCAK256 PUSH0 DUP3 ADD MLOAD DUP2 PUSH0 ADD SWAP1 DUP2 PUSH2 0x10B4 SWAP2 SWAP1 PUSH2 0x396F JUMP JUMPDEST POP PUSH1 0x20 DUP3 ADD MLOAD DUP2 PUSH1 0x1 ADD SWAP1 DUP2 PUSH2 0x10CA SWAP2 SWAP1 PUSH2 0x396F JUMP JUMPDEST POP PUSH1 0x40 DUP3 ADD MLOAD DUP2 PUSH1 0x2 ADD PUSH0 PUSH2 0x100 EXP DUP2 SLOAD DUP2 PUSH1 0xFF MUL NOT AND SWAP1 DUP4 PUSH1 0xFF AND MUL OR SWAP1 SSTORE POP PUSH1 0x60 DUP3 ADD MLOAD DUP2 PUSH1 0x2 ADD PUSH1 0x1 PUSH2 0x100 EXP DUP2 SLOAD DUP2 PUSH1 0xFF MUL NOT AND SWAP1 DUP4 ISZERO ISZERO MUL OR SWAP1 SSTORE POP PUSH1 0x80 DUP3 ADD MLOAD DUP2 PUSH1 0x2 ADD PUSH1 0x2 PUSH2 0x100 EXP DUP2 SLOAD DUP2 PUSH1 0xFF MUL NOT AND SWAP1 DUP4 ISZERO ISZERO MUL OR SWAP1 SSTORE POP SWAP1 POP POP DUP1 PUSH1 0x4 PUSH0 DUP9 PUSH20 0xFFFFFFFFFFFFFFFFFFFFFFFFFFFFFFFFFFFFFFFF AND PUSH20 0xFFFFFFFFFFFFFFFFFFFFFFFFFFFFFFFFFFFFFFFF AND DUP2 MSTORE PUSH1 0x20 ADD SWAP1 DUP2 MSTORE PUSH1 0x20 ADD PUSH0 KECCAK256 PUSH0 PUSH2 0x100 EXP DUP2 SLOAD DUP2 PUSH1 0xFF MUL NOT AND SWAP1 DUP4 ISZERO ISZERO MUL OR SWAP1 SSTORE POP DUP6 PUSH20 0xFFFFFFFFFFFFFFFFFFFFFFFFFFFFFFFFFFFFFFFF AND PUSH32 0x7FC380A378A7436B00BFBFA4745A879F9095AD1FDE33A412783721A59A2AD6B9 DUP7 DUP7 DUP5 PUSH1 0x40 MLOAD PUSH2 0x11CC SWAP4 SWAP3 SWAP2 SWAP1 PUSH2 0x3A3E JUMP JUMPDEST PUSH1 0x40 MLOAD DUP1 SWAP2 SUB SWAP1 LOG2 POP POP POP POP POP POP JUMP JUMPDEST PUSH0 PUSH2 0x11E5 PUSH2 0x266B JUMP JUMPDEST DUP5 DUP5 SWAP1 POP DUP8 DUP8 SWAP1 POP EQ DUP1 ISZERO PUSH2 0x11FF JUMPI POP DUP3 DUP3 SWAP1 POP DUP6 DUP6 SWAP1 POP EQ JUMPDEST PUSH2 0x123E JUMPI PUSH1 0x40 MLOAD PUSH32 0x8C379A000000000000000000000000000000000000000000000000000000000 DUP2 MSTORE PUSH1 0x4 ADD PUSH2 0x1235 SWAP1 PUSH2 0x3B60 JUMP JUMPDEST PUSH1 0x40 MLOAD DUP1 SWAP2 SUB SWAP1 REVERT JUMPDEST PUSH0 DUP8 DUP8 SWAP1 POP GT PUSH2 0x1283 JUMPI PUSH1 0x40 MLOAD PUSH32 0x8C379A000000000000000000000000000000000000000000000000000000000 DUP2 MSTORE PUSH1 0x4 ADD PUSH2 0x127A SWAP1 PUSH2 0x3BC8 JUMP JUMPDEST PUSH1 0x40 MLOAD DUP1 SWAP2 SUB SWAP1 REVERT JUMPDEST PUSH0 PUSH0 SWAP1 POP JUMPDEST DUP8 DUP8 SWAP1 POP DUP2 LT ISZERO PUSH2 0x161A JUMPI PUSH1 0x3 PUSH0 DUP10 DUP10 DUP5 DUP2 DUP2 LT PUSH2 0x12A9 JUMPI PUSH2 0x12A8 PUSH2 0x3AE9 JUMP JUMPDEST JUMPDEST SWAP1 POP PUSH1 0x20 MUL ADD PUSH1 0x20 DUP2 ADD SWAP1 PUSH2 0x12BE SWAP2 SWAP1 PUSH2 0x2D64 JUMP JUMPDEST PUSH20 0xFFFFFFFFFFFFFFFFFFFFFFFFFFFFFFFFFFFFFFFF AND PUSH20 0xFFFFFFFFFFFFFFFFFFFFFFFFFFFFFFFFFFFFFFFF AND DUP2 MSTORE PUSH1 0x20 ADD SWAP1 DUP2 MSTORE PUSH1 0x20 ADD PUSH0 KECCAK256 PUSH0 SWAP1 SLOAD SWAP1 PUSH2 0x100 EXP SWAP1 DIV PUSH1 0xFF AND PUSH2 0x1343 JUMPI PUSH1 0x40 MLOAD PUSH32 0x8C379A000000000000000000000000000000000000000000000000000000000 DUP2 MSTORE PUSH1 0x4 ADD PUSH2 0x133A SWAP1 PUSH2 0x3C30 JUMP JUMPDEST PUSH1 0x40 MLOAD DUP1 SWAP2 SUB SWAP1 REVERT JUMPDEST PUSH0 PUSH20 0xFFFFFFFFFFFFFFFFFFFFFFFFFFFFFFFFFFFFFFFF AND DUP7 DUP7 DUP4 DUP2 DUP2 LT PUSH2 0x136D JUMPI PUSH2 0x136C PUSH2 0x3AE9 JUMP JUMPDEST JUMPDEST SWAP1 POP PUSH1 0x20 MUL ADD PUSH1 0x20 DUP2 ADD SWAP1 PUSH2 0x1382 SWAP2 SWAP1 PUSH2 0x2D64 JUMP JUMPDEST PUSH20 0xFFFFFFFFFFFFFFFFFFFFFFFFFFFFFFFFFFFFFFFF AND SUB PUSH2 0x13D8 JUMPI PUSH1 0x40 MLOAD PUSH32 0x8C379A000000000000000000000000000000000000000000000000000000000 DUP2 MSTORE PUSH1 0x4 ADD PUSH2 0x13CF SWAP1 PUSH2 0x3C98 JUMP JUMPDEST PUSH1 0x40 MLOAD DUP1 SWAP2 SUB SWAP1 REVERT JUMPDEST PUSH0 DUP5 DUP5 DUP4 DUP2 DUP2 LT PUSH2 0x13EC JUMPI PUSH2 0x13EB PUSH2 0x3AE9 JUMP JUMPDEST JUMPDEST SWAP1 POP PUSH1 0x20 MUL ADD CALLDATALOAD GT PUSH2 0x1433 JUMPI PUSH1 0x40 MLOAD PUSH32 0x8C379A000000000000000000000000000000000000000000000000000000000 DUP2 MSTORE PUSH1 0x4 ADD PUSH2 0x142A SWAP1 PUSH2 0x3D00 JUMP JUMPDEST PUSH1 0x40 MLOAD DUP1 SWAP2 SUB SWAP1 REVERT JUMPDEST PUSH0 PUSH2 0x1466 DUP10 DUP10 DUP5 DUP2 DUP2 LT PUSH2 0x144A JUMPI PUSH2 0x1449 PUSH2 0x3AE9 JUMP JUMPDEST JUMPDEST SWAP1 POP PUSH1 0x20 MUL ADD PUSH1 0x20 DUP2 ADD SWAP1 PUSH2 0x145F SWAP2 SWAP1 PUSH2 0x2D64 JUMP JUMPDEST CALLER ADDRESS PUSH2 0x26BA JUMP JUMPDEST SWAP1 POP DUP5 DUP5 DUP4 DUP2 DUP2 LT PUSH2 0x147B JUMPI PUSH2 0x147A PUSH2 0x3AE9 JUMP JUMPDEST JUMPDEST SWAP1 POP PUSH1 0x20 MUL ADD CALLDATALOAD DUP2 LT ISZERO PUSH2 0x14C4 JUMPI PUSH1 0x40 MLOAD PUSH32 0x8C379A000000000000000000000000000000000000000000000000000000000 DUP2 MSTORE PUSH1 0x4 ADD PUSH2 0x14BB SWAP1 PUSH2 0x3D68 JUMP JUMPDEST PUSH1 0x40 MLOAD DUP1 SWAP2 SUB SWAP1 REVERT JUMPDEST PUSH0 PUSH2 0x14F6 DUP11 DUP11 DUP6 DUP2 DUP2 LT PUSH2 0x14DB JUMPI PUSH2 0x14DA PUSH2 0x3AE9 JUMP JUMPDEST JUMPDEST SWAP1 POP PUSH1 0x20 MUL ADD PUSH1 0x20 DUP2 ADD SWAP1 PUSH2 0x14F0 SWAP2 SWAP1 PUSH2 0x2D64 JUMP JUMPDEST CALLER PUSH2 0x2821 JUMP JUMPDEST SWAP1 POP DUP6 DUP6 DUP5 DUP2 DUP2 LT PUSH2 0x150B JUMPI PUSH2 0x150A PUSH2 0x3AE9 JUMP JUMPDEST JUMPDEST SWAP1 POP PUSH1 0x20 MUL ADD CALLDATALOAD DUP2 LT ISZERO PUSH2 0x1554 JUMPI PUSH1 0x40 MLOAD PUSH32 0x8C379A000000000000000000000000000000000000000000000000000000000 DUP2 MSTORE PUSH1 0x4 ADD PUSH2 0x154B SWAP1 PUSH2 0x3DD0 JUMP JUMPDEST PUSH1 0x40 MLOAD DUP1 SWAP2 SUB SWAP1 REVERT JUMPDEST PUSH0 PUSH2 0x15C8 DUP12 DUP12 DUP7 DUP2 DUP2 LT PUSH2 0x156B JUMPI PUSH2 0x156A PUSH2 0x3AE9 JUMP JUMPDEST JUMPDEST SWAP1 POP PUSH1 0x20 MUL ADD PUSH1 0x20 DUP2 ADD SWAP1 PUSH2 0x1580 SWAP2 SWAP1 PUSH2 0x2D64 JUMP JUMPDEST CALLER DUP12 DUP12 DUP9 DUP2 DUP2 LT PUSH2 0x1594 JUMPI PUSH2 0x1593 PUSH2 0x3AE9 JUMP JUMPDEST JUMPDEST SWAP1 POP PUSH1 0x20 MUL ADD PUSH1 0x20 DUP2 ADD SWAP1 PUSH2 0x15A9 SWAP2 SWAP1 PUSH2 0x2D64 JUMP JUMPDEST DUP11 DUP11 DUP10 DUP2 DUP2 LT PUSH2 0x15BC JUMPI PUSH2 0x15BB PUSH2 0x3AE9 JUMP JUMPDEST JUMPDEST SWAP1 POP PUSH1 0x20 MUL ADD CALLDATALOAD PUSH2 0x2983 JUMP JUMPDEST SWAP1 POP DUP1 PUSH2 0x160A JUMPI PUSH1 0x40 MLOAD PUSH32 0x8C379A000000000000000000000000000000000000000000000000000000000 DUP2 MSTORE PUSH1 0x4 ADD PUSH2 0x1601 SWAP1 PUSH2 0x3E38 JUMP JUMPDEST PUSH1 0x40 MLOAD DUP1 SWAP2 SUB SWAP1 REVERT JUMPDEST POP POP POP DUP1 DUP1 PUSH1 0x1 ADD SWAP2 POP POP PUSH2 0x1288 JUMP JUMPDEST POP CALLER PUSH20 0xFFFFFFFFFFFFFFFFFFFFFFFFFFFFFFFFFFFFFFFF AND PUSH32 0x2F083430E3639318F985C2267903B2C4FCF8C0CB45D237CBD54367A1274239C4 DUP7 DUP7 DUP11 DUP11 DUP9 DUP9 TIMESTAMP PUSH1 0x40 MLOAD PUSH2 0x166D SWAP8 SWAP7 SWAP6 SWAP5 SWAP4 SWAP3 SWAP2 SWAP1 PUSH2 0x3F44 JUMP JUMPDEST PUSH1 0x40 MLOAD DUP1 SWAP2 SUB SWAP1 LOG2 PUSH1 0x1 SWAP1 POP PUSH2 0x1681 PUSH2 0x2B40 JUMP JUMPDEST SWAP7 SWAP6 POP POP POP POP POP POP JUMP JUMPDEST PUSH0 PUSH2 0x1694 PUSH2 0x266B JUMP JUMPDEST DUP6 PUSH1 0x3 PUSH0 DUP3 PUSH20 0xFFFFFFFFFFFFFFFFFFFFFFFFFFFFFFFFFFFFFFFF AND PUSH20 0xFFFFFFFFFFFFFFFFFFFFFFFFFFFFFFFFFFFFFFFF AND DUP2 MSTORE PUSH1 0x20 ADD SWAP1 DUP2 MSTORE PUSH1 0x20 ADD PUSH0 KECCAK256 PUSH0 SWAP1 SLOAD SWAP1 PUSH2 0x100 EXP SWAP1 DIV PUSH1 0xFF AND PUSH2 0x171E JUMPI PUSH1 0x40 MLOAD PUSH32 0x8C379A000000000000000000000000000000000000000000000000000000000 DUP2 MSTORE PUSH1 0x4 ADD PUSH2 0x1715 SWAP1 PUSH2 0x3C30 JUMP JUMPDEST PUSH1 0x40 MLOAD DUP1 SWAP2 SUB SWAP1 REVERT JUMPDEST DUP4 DUP4 SWAP1 POP DUP7 DUP7 SWAP1 POP EQ PUSH2 0x1766 JUMPI PUSH1 0x40 MLOAD PUSH32 0x8C379A000000000000000000000000000000000000000000000000000000000 DUP2 MSTORE PUSH1 0x4 ADD PUSH2 0x175D SWAP1 PUSH2 0x3B60 JUMP JUMPDEST PUSH1 0x40 MLOAD DUP1 SWAP2 SUB SWAP1 REVERT JUMPDEST PUSH0 DUP7 DUP7 SWAP1 POP GT PUSH2 0x17AB JUMPI PUSH1 0x40 MLOAD PUSH32 0x8C379A000000000000000000000000000000000000000000000000000000000 DUP2 MSTORE PUSH1 0x4 ADD PUSH2 0x17A2 SWAP1 PUSH2 0x3FEC JUMP JUMPDEST PUSH1 0x40 MLOAD DUP1 SWAP2 SUB SWAP1 REVERT JUMPDEST PUSH0 PUSH0 SWAP1 POP PUSH0 PUSH0 SWAP1 POP JUMPDEST DUP6 DUP6 SWAP1 POP DUP2 LT ISZERO PUSH2 0x184E JUMPI PUSH0 DUP7 DUP7 DUP4 DUP2 DUP2 LT PUSH2 0x17D3 JUMPI PUSH2 0x17D2 PUSH2 0x3AE9 JUMP JUMPDEST JUMPDEST SWAP1 POP PUSH1 0x20 MUL ADD CALLDATALOAD GT PUSH2 0x181A JUMPI PUSH1 0x40 MLOAD PUSH32 0x8C379A000000000000000000000000000000000000000000000000000000000 DUP2 MSTORE PUSH1 0x4 ADD PUSH2 0x1811 SWAP1 PUSH2 0x3D00 JUMP JUMPDEST PUSH1 0x40 MLOAD DUP1 SWAP2 SUB SWAP1 REVERT JUMPDEST DUP6 DUP6 DUP3 DUP2 DUP2 LT PUSH2 0x182D JUMPI PUSH2 0x182C PUSH2 0x3AE9 JUMP JUMPDEST JUMPDEST SWAP1 POP PUSH1 0x20 MUL ADD CALLDATALOAD DUP3 PUSH2 0x183F SWAP2 SWAP1 PUSH2 0x4037 JUMP JUMPDEST SWAP2 POP DUP1 DUP1 PUSH1 0x1 ADD SWAP2 POP POP PUSH2 0x17B4 JUMP JUMPDEST POP PUSH0 PUSH2 0x185B DUP10 CALLER ADDRESS PUSH2 0x26BA JUMP JUMPDEST SWAP1 POP DUP2 DUP2 LT ISZERO PUSH2 0x18A0 JUMPI PUSH1 0x40 MLOAD PUSH32 0x8C379A000000000000000000000000000000000000000000000000000000000 DUP2 MSTORE PUSH1 0x4 ADD PUSH2 0x1897 SWAP1 PUSH2 0x40B4 JUMP JUMPDEST PUSH1 0x40 MLOAD DUP1 SWAP2 SUB SWAP1 REVERT JUMPDEST PUSH0 PUSH2 0x18AB DUP11 CALLER PUSH2 0x2821 JUMP JUMPDEST SWAP1 POP DUP3 DUP2 LT ISZERO PUSH2 0x18F0 JUMPI PUSH1 0x40 MLOAD PUSH32 0x8C379A000000000000000000000000000000000000000000000000000000000 DUP2 MSTORE PUSH1 0x4 ADD PUSH2 0x18E7 SWAP1 PUSH2 0x411C JUMP JUMPDEST PUSH1 0x40 MLOAD DUP1 SWAP2 SUB SWAP1 REVERT JUMPDEST PUSH0 PUSH0 SWAP1 POP JUMPDEST DUP10 DUP10 SWAP1 POP DUP2 LT ISZERO PUSH2 0x1A32 JUMPI PUSH0 PUSH20 0xFFFFFFFFFFFFFFFFFFFFFFFFFFFFFFFFFFFFFFFF AND DUP11 DUP11 DUP4 DUP2 DUP2 LT PUSH2 0x192A JUMPI PUSH2 0x1929 PUSH2 0x3AE9 JUMP JUMPDEST JUMPDEST SWAP1 POP PUSH1 0x20 MUL ADD PUSH1 0x20 DUP2 ADD SWAP1 PUSH2 0x193F SWAP2 SWAP1 PUSH2 0x2D64 JUMP JUMPDEST PUSH20 0xFFFFFFFFFFFFFFFFFFFFFFFFFFFFFFFFFFFFFFFF AND SUB PUSH2 0x1995 JUMPI PUSH1 0x40 MLOAD PUSH32 0x8C379A000000000000000000000000000000000000000000000000000000000 DUP2 MSTORE PUSH1 0x4 ADD PUSH2 0x198C SWAP1 PUSH2 0x3C98 JUMP JUMPDEST PUSH1 0x40 MLOAD DUP1 SWAP2 SUB SWAP1 REVERT JUMPDEST PUSH0 PUSH2 0x19E2 DUP13 CALLER DUP14 DUP14 DUP7 DUP2 DUP2 LT PUSH2 0x19AE JUMPI PUSH2 0x19AD PUSH2 0x3AE9 JUMP JUMPDEST JUMPDEST SWAP1 POP PUSH1 0x20 MUL ADD PUSH1 0x20 DUP2 ADD SWAP1 PUSH2 0x19C3 SWAP2 SWAP1 PUSH2 0x2D64 JUMP JUMPDEST DUP13 DUP13 DUP8 DUP2 DUP2 LT PUSH2 0x19D6 JUMPI PUSH2 0x19D5 PUSH2 0x3AE9 JUMP JUMPDEST JUMPDEST SWAP1 POP PUSH1 0x20 MUL ADD CALLDATALOAD PUSH2 0x2983 JUMP JUMPDEST SWAP1 POP DUP1 PUSH2 0x1A24 JUMPI PUSH1 0x40 MLOAD PUSH32 0x8C379A000000000000000000000000000000000000000000000000000000000 DUP2 MSTORE PUSH1 0x4 ADD PUSH2 0x1A1B SWAP1 PUSH2 0x4184 JUMP JUMPDEST PUSH1 0x40 MLOAD DUP1 SWAP2 SUB SWAP1 REVERT JUMPDEST POP DUP1 DUP1 PUSH1 0x1 ADD SWAP2 POP POP PUSH2 0x18F5 JUMP JUMPDEST POP PUSH1 0x1 SWAP5 POP POP POP POP POP PUSH2 0x1A43 PUSH2 0x2B40 JUMP JUMPDEST SWAP6 SWAP5 POP POP POP POP POP JUMP JUMPDEST PUSH2 0x1A54 PUSH2 0x25ED JUMP JUMPDEST PUSH2 0x1A5D PUSH0 PUSH2 0x2B49 JUMP JUMPDEST JUMP JUMPDEST PUSH1 0x3 PUSH1 0x20 MSTORE DUP1 PUSH0 MSTORE PUSH1 0x40 PUSH0 KECCAK256 PUSH0 SWAP2 POP SLOAD SWAP1 PUSH2 0x100 EXP SWAP1 DIV PUSH1 0xFF AND DUP2 JUMP JUMPDEST PUSH2 0x1A84 PUSH2 0x25ED JUMP JUMPDEST PUSH1 0x3 PUSH0 DUP3 PUSH20 0xFFFFFFFFFFFFFFFFFFFFFFFFFFFFFFFFFFFFFFFF AND PUSH20 0xFFFFFFFFFFFFFFFFFFFFFFFFFFFFFFFFFFFFFFFF AND DUP2 MSTORE PUSH1 0x20 ADD SWAP1 DUP2 MSTORE PUSH1 0x20 ADD PUSH0 KECCAK256 PUSH0 SWAP1 SLOAD SWAP1 PUSH2 0x100 EXP SWAP1 DIV PUSH1 0xFF AND PUSH2 0x1B0D JUMPI PUSH1 0x40 MLOAD PUSH32 0x8C379A000000000000000000000000000000000000000000000000000000000 DUP2 MSTORE PUSH1 0x4 ADD PUSH2 0x1B04 SWAP1 PUSH2 0x3C30 JUMP JUMPDEST PUSH1 0x40 MLOAD DUP1 SWAP2 SUB SWAP1 REVERT JUMPDEST PUSH0 PUSH1 0x3 PUSH0 DUP4 PUSH20 0xFFFFFFFFFFFFFFFFFFFFFFFFFFFFFFFFFFFFFFFF AND PUSH20 0xFFFFFFFFFFFFFFFFFFFFFFFFFFFFFFFFFFFFFFFF AND DUP2 MSTORE PUSH1 0x20 ADD SWAP1 DUP2 MSTORE PUSH1 0x20 ADD PUSH0 KECCAK256 PUSH0 PUSH2 0x100 EXP DUP2 SLOAD DUP2 PUSH1 0xFF MUL NOT AND SWAP1 DUP4 ISZERO ISZERO MUL OR SWAP1 SSTORE POP PUSH1 0x6 PUSH0 DUP3 PUSH20 0xFFFFFFFFFFFFFFFFFFFFFFFFFFFFFFFFFFFFFFFF AND PUSH20 0xFFFFFFFFFFFFFFFFFFFFFFFFFFFFFFFFFFFFFFFF AND DUP2 MSTORE PUSH1 0x20 ADD SWAP1 DUP2 MSTORE PUSH1 0x20 ADD PUSH0 KECCAK256 PUSH0 PUSH0 DUP3 ADD PUSH0 PUSH2 0x1BAD SWAP2 SWAP1 PUSH2 0x2C11 JUMP JUMPDEST PUSH1 0x1 DUP3 ADD PUSH0 PUSH2 0x1BBC SWAP2 SWAP1 PUSH2 0x2C11 JUMP JUMPDEST PUSH1 0x2 DUP3 ADD PUSH0 PUSH2 0x100 EXP DUP2 SLOAD SWAP1 PUSH1 0xFF MUL NOT AND SWAP1 SSTORE PUSH1 0x2 DUP3 ADD PUSH1 0x1 PUSH2 0x100 EXP DUP2 SLOAD SWAP1 PUSH1 0xFF MUL NOT AND SWAP1 SSTORE PUSH1 0x2 DUP3 ADD PUSH1 0x2 PUSH2 0x100 EXP DUP2 SLOAD SWAP1 PUSH1 0xFF MUL NOT AND SWAP1 SSTORE POP POP PUSH0 PUSH1 0x4 PUSH0 DUP4 PUSH20 0xFFFFFFFFFFFFFFFFFFFFFFFFFFFFFFFFFFFFFFFF AND PUSH20 0xFFFFFFFFFFFFFFFFFFFFFFFFFFFFFFFFFFFFFFFF AND DUP2 MSTORE PUSH1 0x20 ADD SWAP1 DUP2 MSTORE PUSH1 0x20 ADD PUSH0 KECCAK256 PUSH0 PUSH2 0x100 EXP DUP2 SLOAD DUP2 PUSH1 0xFF MUL NOT AND SWAP1 DUP4 ISZERO ISZERO MUL OR SWAP1 SSTORE POP PUSH0 PUSH0 SWAP1 POP JUMPDEST PUSH1 0x2 DUP1 SLOAD SWAP1 POP DUP2 LT ISZERO PUSH2 0x1DC9 JUMPI DUP2 PUSH20 0xFFFFFFFFFFFFFFFFFFFFFFFFFFFFFFFFFFFFFFFF AND PUSH1 0x2 DUP3 DUP2 SLOAD DUP2 LT PUSH2 0x1C8A JUMPI PUSH2 0x1C89 PUSH2 0x3AE9 JUMP JUMPDEST JUMPDEST SWAP1 PUSH0 MSTORE PUSH1 0x20 PUSH0 KECCAK256 ADD PUSH0 SWAP1 SLOAD SWAP1 PUSH2 0x100 EXP SWAP1 DIV PUSH20 0xFFFFFFFFFFFFFFFFFFFFFFFFFFFFFFFFFFFFFFFF AND PUSH20 0xFFFFFFFFFFFFFFFFFFFFFFFFFFFFFFFFFFFFFFFF AND SUB PUSH2 0x1DBC JUMPI PUSH1 0x2 PUSH1 0x1 PUSH1 0x2 DUP1 SLOAD SWAP1 POP PUSH2 0x1CE1 SWAP2 SWAP1 PUSH2 0x41A2 JUMP JUMPDEST DUP2 SLOAD DUP2 LT PUSH2 0x1CF2 JUMPI PUSH2 0x1CF1 PUSH2 0x3AE9 JUMP JUMPDEST JUMPDEST SWAP1 PUSH0 MSTORE PUSH1 0x20 PUSH0 KECCAK256 ADD PUSH0 SWAP1 SLOAD SWAP1 PUSH2 0x100 EXP SWAP1 DIV PUSH20 0xFFFFFFFFFFFFFFFFFFFFFFFFFFFFFFFFFFFFFFFF AND PUSH1 0x2 DUP3 DUP2 SLOAD DUP2 LT PUSH2 0x1D2E JUMPI PUSH2 0x1D2D PUSH2 0x3AE9 JUMP JUMPDEST JUMPDEST SWAP1 PUSH0 MSTORE PUSH1 0x20 PUSH0 KECCAK256 ADD PUSH0 PUSH2 0x100 EXP DUP2 SLOAD DUP2 PUSH20 0xFFFFFFFFFFFFFFFFFFFFFFFFFFFFFFFFFFFFFFFF MUL NOT AND SWAP1 DUP4 PUSH20 0xFFFFFFFFFFFFFFFFFFFFFFFFFFFFFFFFFFFFFFFF AND MUL OR SWAP1 SSTORE POP PUSH1 0x2 DUP1 SLOAD DUP1 PUSH2 0x1D85 JUMPI PUSH2 0x1D84 PUSH2 0x41D5 JUMP JUMPDEST JUMPDEST PUSH1 0x1 SWAP1 SUB DUP2 DUP2 SWAP1 PUSH0 MSTORE PUSH1 0x20 PUSH0 KECCAK256 ADD PUSH0 PUSH2 0x100 EXP DUP2 SLOAD SWAP1 PUSH20 0xFFFFFFFFFFFFFFFFFFFFFFFFFFFFFFFFFFFFFFFF MUL NOT AND SWAP1 SSTORE SWAP1 SSTORE PUSH2 0x1DC9 JUMP JUMPDEST DUP1 DUP1 PUSH1 0x1 ADD SWAP2 POP POP PUSH2 0x1C52 JUMP JUMPDEST POP DUP1 PUSH20 0xFFFFFFFFFFFFFFFFFFFFFFFFFFFFFFFFFFFFFFFF AND PUSH32 0x4C910B69FE65A61F7531B9C5042B2329CA7179C77290AA7E2EB3AFA3C8511FD3 PUSH1 0x40 MLOAD PUSH1 0x40 MLOAD DUP1 SWAP2 SUB SWAP1 LOG2 POP JUMP JUMPDEST PUSH0 DUP3 PUSH1 0x3 PUSH0 DUP3 PUSH20 0xFFFFFFFFFFFFFFFFFFFFFFFFFFFFFFFFFFFFFFFF AND PUSH20 0xFFFFFFFFFFFFFFFFFFFFFFFFFFFFFFFFFFFFFFFF AND DUP2 MSTORE PUSH1 0x20 ADD SWAP1 DUP2 MSTORE PUSH1 0x20 ADD PUSH0 KECCAK256 PUSH0 SWAP1 SLOAD SWAP1 PUSH2 0x100 EXP SWAP1 DIV PUSH1 0xFF AND PUSH2 0x1E9B JUMPI PUSH1 0x40 MLOAD PUSH32 0x8C379A000000000000000000000000000000000000000000000000000000000 DUP2 MSTORE PUSH1 0x4 ADD PUSH2 0x1E92 SWAP1 PUSH2 0x3C30 JUMP JUMPDEST PUSH1 0x40 MLOAD DUP1 SWAP2 SUB SWAP1 REVERT JUMPDEST PUSH2 0x1EA5 DUP5 DUP5 PUSH2 0x2821 JUMP JUMPDEST SWAP2 POP POP SWAP3 SWAP2 POP POP JUMP JUMPDEST PUSH0 PUSH2 0x1EB7 PUSH2 0x266B JUMP JUMPDEST DUP4 PUSH1 0x3 PUSH0 DUP3 PUSH20 0xFFFFFFFFFFFFFFFFFFFFFFFFFFFFFFFFFFFFFFFF AND PUSH20 0xFFFFFFFFFFFFFFFFFFFFFFFFFFFFFFFFFFFFFFFF AND DUP2 MSTORE PUSH1 0x20 ADD SWAP1 DUP2 MSTORE PUSH1 0x20 ADD PUSH0 KECCAK256 PUSH0 SWAP1 SLOAD SWAP1 PUSH2 0x100 EXP SWAP1 DIV PUSH1 0xFF AND PUSH2 0x1F41 JUMPI PUSH1 0x40 MLOAD PUSH32 0x8C379A000000000000000000000000000000000000000000000000000000000 DUP2 MSTORE PUSH1 0x4 ADD PUSH2 0x1F38 SWAP1 PUSH2 0x3C30 JUMP JUMPDEST PUSH1 0x40 MLOAD DUP1 SWAP2 SUB SWAP1 REVERT JUMPDEST PUSH0 PUSH2 0x1F4D DUP7 CALLER ADDRESS PUSH2 0x26BA JUMP JUMPDEST SWAP1 POP DUP4 DUP2 LT ISZERO PUSH2 0x1F92 JUMPI PUSH1 0x40 MLOAD PUSH32 0x8C379A000000000000000000000000000000000000000000000000000000000 DUP2 MSTORE PUSH1 0x4 ADD PUSH2 0x1F89 SWAP1 PUSH2 0x424C JUMP JUMPDEST PUSH1 0x40 MLOAD DUP1 SWAP2 SUB SWAP1 REVERT JUMPDEST PUSH0 PUSH2 0x1F9D DUP8 CALLER PUSH2 0x2821 JUMP JUMPDEST SWAP1 POP DUP5 DUP2 LT ISZERO PUSH2 0x1FE2 JUMPI PUSH1 0x40 MLOAD PUSH32 0x8C379A000000000000000000000000000000000000000000000000000000000 DUP2 MSTORE PUSH1 0x4 ADD PUSH2 0x1FD9 SWAP1 PUSH2 0x42B4 JUMP JUMPDEST PUSH1 0x40 MLOAD DUP1 SWAP2 SUB SWAP1 REVERT JUMPDEST PUSH0 PUSH2 0x1FEF DUP9 CALLER DUP10 DUP10 PUSH2 0x2983 JUMP JUMPDEST SWAP1 POP DUP1 PUSH2 0x2031 JUMPI PUSH1 0x40 MLOAD PUSH32 0x8C379A000000000000000000000000000000000000000000000000000000000 DUP2 MSTORE PUSH1 0x4 ADD PUSH2 0x2028 SWAP1 PUSH2 0x431C JUMP JUMPDEST PUSH1 0x40 MLOAD DUP1 SWAP2 SUB SWAP1 REVERT JUMPDEST DUP8 PUSH20 0xFFFFFFFFFFFFFFFFFFFFFFFFFFFFFFFFFFFFFFFF AND DUP8 PUSH20 0xFFFFFFFFFFFFFFFFFFFFFFFFFFFFFFFFFFFFFFFF AND CALLER PUSH20 0xFFFFFFFFFFFFFFFFFFFFFFFFFFFFFFFFFFFFFFFF AND PUSH32 0xE026FBB73500B279BF99C5005C5B3B41F4F084176A557BF5ACCB3C643CD2A8A0 DUP10 TIMESTAMP PUSH1 0x4 PUSH0 DUP16 PUSH20 0xFFFFFFFFFFFFFFFFFFFFFFFFFFFFFFFFFFFFFFFF AND PUSH20 0xFFFFFFFFFFFFFFFFFFFFFFFFFFFFFFFFFFFFFFFF AND DUP2 MSTORE PUSH1 0x20 ADD SWAP1 DUP2 MSTORE PUSH1 0x20 ADD PUSH0 KECCAK256 PUSH0 SWAP1 SLOAD SWAP1 PUSH2 0x100 EXP SWAP1 DIV PUSH1 0xFF AND PUSH1 0x40 MLOAD PUSH2 0x20F2 SWAP4 SWAP3 SWAP2 SWAP1 PUSH2 0x433A JUMP JUMPDEST PUSH1 0x40 MLOAD DUP1 SWAP2 SUB SWAP1 LOG4 PUSH1 0x1 SWAP5 POP POP POP POP POP PUSH2 0x210A PUSH2 0x2B40 JUMP JUMPDEST SWAP4 SWAP3 POP POP POP JUMP JUMPDEST PUSH0 PUSH1 0x5 PUSH0 DUP4 PUSH20 0xFFFFFFFFFFFFFFFFFFFFFFFFFFFFFFFFFFFFFFFF AND PUSH20 0xFFFFFFFFFFFFFFFFFFFFFFFFFFFFFFFFFFFFFFFF AND DUP2 MSTORE PUSH1 0x20 ADD SWAP1 DUP2 MSTORE PUSH1 0x20 ADD PUSH0 KECCAK256 PUSH0 SWAP1 SLOAD SWAP1 PUSH2 0x100 EXP SWAP1 DIV PUSH1 0xFF AND ISZERO PUSH2 0x216A JUMPI PUSH1 0x1 SWAP1 POP PUSH2 0x21E4 JUMP JUMPDEST DUP2 PUSH20 0xFFFFFFFFFFFFFFFFFFFFFFFFFFFFFFFFFFFFFFFF AND PUSH4 0x313CE567 PUSH1 0x40 MLOAD DUP2 PUSH4 0xFFFFFFFF AND PUSH1 0xE0 SHL DUP2 MSTORE PUSH1 0x4 ADD PUSH1 0x20 PUSH1 0x40 MLOAD DUP1 DUP4 SUB DUP2 DUP7 GAS STATICCALL SWAP3 POP POP POP DUP1 ISZERO PUSH2 0x21D2 JUMPI POP PUSH1 0x40 MLOAD RETURNDATASIZE PUSH1 0x1F NOT PUSH1 0x1F DUP3 ADD AND DUP3 ADD DUP1 PUSH1 0x40 MSTORE POP DUP2 ADD SWAP1 PUSH2 0x21CF SWAP2 SWAP1 PUSH2 0x3747 JUMP JUMPDEST PUSH1 0x1 JUMPDEST PUSH2 0x21DF JUMPI PUSH1 0x1 SWAP1 POP PUSH2 0x21E4 JUMP JUMPDEST PUSH0 SWAP2 POP POP JUMPDEST SWAP2 SWAP1 POP JUMP JUMPDEST PUSH0 DUP3 PUSH1 0x3 PUSH0 DUP3 PUSH20 0xFFFFFFFFFFFFFFFFFFFFFFFFFFFFFFFFFFFFFFFF AND PUSH20 0xFFFFFFFFFFFFFFFFFFFFFFFFFFFFFFFFFFFFFFFF AND DUP2 MSTORE PUSH1 0x20 ADD SWAP1 DUP2 MSTORE PUSH1 0x20 ADD PUSH0 KECCAK256 PUSH0 SWAP1 SLOAD SWAP1 PUSH2 0x100 EXP SWAP1 DIV PUSH1 0xFF AND PUSH2 0x2274 JUMPI PUSH1 0x40 MLOAD PUSH32 0x8C379A000000000000000000000000000000000000000000000000000000000 DUP2 MSTORE PUSH1 0x4 ADD PUSH2 0x226B SWAP1 PUSH2 0x3C30 JUMP JUMPDEST PUSH1 0x40 MLOAD DUP1 SWAP2 SUB SWAP1 REVERT JUMPDEST PUSH2 0x227F DUP5 DUP5 ADDRESS PUSH2 0x26BA JUMP JUMPDEST SWAP2 POP POP SWAP3 SWAP2 POP POP JUMP JUMPDEST PUSH1 0x5 PUSH1 0x20 MSTORE DUP1 PUSH0 MSTORE PUSH1 0x40 PUSH0 KECCAK256 PUSH0 SWAP2 POP SLOAD SWAP1 PUSH2 0x100 EXP SWAP1 DIV PUSH1 0xFF AND DUP2 JUMP JUMPDEST PUSH0 PUSH0 PUSH0 SWAP1 SLOAD SWAP1 PUSH2 0x100 EXP SWAP1 DIV PUSH20 0xFFFFFFFFFFFFFFFFFFFFFFFFFFFFFFFFFFFFFFFF AND SWAP1 POP SWAP1 JUMP JUMPDEST PUSH1 0x1 PUSH1 0x5 PUSH0 DUP4 PUSH20 0xFFFFFFFFFFFFFFFFFFFFFFFFFFFFFFFFFFFFFFFF AND PUSH20 0xFFFFFFFFFFFFFFFFFFFFFFFFFFFFFFFFFFFFFFFF AND DUP2 MSTORE PUSH1 0x20 ADD SWAP1 DUP2 MSTORE PUSH1 0x20 ADD PUSH0 KECCAK256 PUSH0 PUSH2 0x100 EXP DUP2 SLOAD DUP2 PUSH1 0xFF MUL NOT AND SWAP1 DUP4 ISZERO ISZERO MUL OR SWAP1 SSTORE POP POP JUMP JUMPDEST PUSH1 0x2 DUP2 DUP2 SLOAD DUP2 LT PUSH2 0x2333 JUMPI PUSH0 DUP1 REVERT JUMPDEST SWAP1 PUSH0 MSTORE PUSH1 0x20 PUSH0 KECCAK256 ADD PUSH0 SWAP2 POP SLOAD SWAP1 PUSH2 0x100 EXP SWAP1 DIV PUSH20 0xFFFFFFFFFFFFFFFFFFFFFFFFFFFFFFFFFFFFFFFF AND DUP2 JUMP JUMPDEST PUSH1 0x4 PUSH1 0x20 MSTORE DUP1 PUSH0 MSTORE PUSH1 0x40 PUSH0 KECCAK256 PUSH0 SWAP2 POP SLOAD SWAP1 PUSH2 0x100 EXP SWAP1 DIV PUSH1 0xFF AND DUP2 JUMP JUMPDEST PUSH1 0x60 PUSH1 0x2 DUP1 SLOAD DUP1 PUSH1 0x20 MUL PUSH1 0x20 ADD PUSH1 0x40 MLOAD SWAP1 DUP2 ADD PUSH1 0x40 MSTORE DUP1 SWAP3 SWAP2 SWAP1 DUP2 DUP2 MSTORE PUSH1 0x20 ADD DUP3 DUP1 SLOAD DUP1 ISZERO PUSH2 0x23FD JUMPI PUSH1 0x20 MUL DUP3 ADD SWAP2 SWAP1 PUSH0 MSTORE PUSH1 0x20 PUSH0 KECCAK256 SWAP1 JUMPDEST DUP2 PUSH0 SWAP1 SLOAD SWAP1 PUSH2 0x100 EXP SWAP1 DIV PUSH20 0xFFFFFFFFFFFFFFFFFFFFFFFFFFFFFFFFFFFFFFFF AND PUSH20 0xFFFFFFFFFFFFFFFFFFFFFFFFFFFFFFFFFFFFFFFF AND DUP2 MSTORE PUSH1 0x20 ADD SWAP1 PUSH1 0x1 ADD SWAP1 DUP1 DUP4 GT PUSH2 0x23B4 JUMPI JUMPDEST POP POP POP POP POP SWAP1 POP SWAP1 JUMP JUMPDEST PUSH2 0x240F PUSH2 0x25ED JUMP JUMPDEST PUSH0 PUSH20 0xFFFFFFFFFFFFFFFFFFFFFFFFFFFFFFFFFFFFFFFF AND DUP2 PUSH20 0xFFFFFFFFFFFFFFFFFFFFFFFFFFFFFFFFFFFFFFFF AND SUB PUSH2 0x247D JUMPI PUSH1 0x40 MLOAD PUSH32 0x8C379A000000000000000000000000000000000000000000000000000000000 DUP2 MSTORE PUSH1 0x4 ADD PUSH2 0x2474 SWAP1 PUSH2 0x43DF JUMP JUMPDEST PUSH1 0x40 MLOAD DUP1 SWAP2 SUB SWAP1 REVERT JUMPDEST PUSH2 0x2486 DUP2 PUSH2 0x2B49 JUMP JUMPDEST POP JUMP JUMPDEST PUSH1 0x6 PUSH1 0x20 MSTORE DUP1 PUSH0 MSTORE PUSH1 0x40 PUSH0 KECCAK256 PUSH0 SWAP2 POP SWAP1 POP DUP1 PUSH0 ADD DUP1 SLOAD PUSH2 0x24A8 SWAP1 PUSH2 0x379F JUMP JUMPDEST DUP1 PUSH1 0x1F ADD PUSH1 0x20 DUP1 SWAP2 DIV MUL PUSH1 0x20 ADD PUSH1 0x40 MLOAD SWAP1 DUP2 ADD PUSH1 0x40 MSTORE DUP1 SWAP3 SWAP2 SWAP1 DUP2 DUP2 MSTORE PUSH1 0x20 ADD DUP3 DUP1 SLOAD PUSH2 0x24D4 SWAP1 PUSH2 0x379F JUMP JUMPDEST DUP1 ISZERO PUSH2 0x251F JUMPI DUP1 PUSH1 0x1F LT PUSH2 0x24F6 JUMPI PUSH2 0x100 DUP1 DUP4 SLOAD DIV MUL DUP4 MSTORE SWAP2 PUSH1 0x20 ADD SWAP2 PUSH2 0x251F JUMP JUMPDEST DUP3 ADD SWAP2 SWAP1 PUSH0 MSTORE PUSH1 0x20 PUSH0 KECCAK256 SWAP1 JUMPDEST DUP2 SLOAD DUP2 MSTORE SWAP1 PUSH1 0x1 ADD SWAP1 PUSH1 0x20 ADD DUP1 DUP4 GT PUSH2 0x2502 JUMPI DUP3 SWAP1 SUB PUSH1 0x1F AND DUP3 ADD SWAP2 JUMPDEST POP POP POP POP POP SWAP1 DUP1 PUSH1 0x1 ADD DUP1 SLOAD PUSH2 0x2534 SWAP1 PUSH2 0x379F JUMP JUMPDEST DUP1 PUSH1 0x1F ADD PUSH1 0x20 DUP1 SWAP2 DIV MUL PUSH1 0x20 ADD PUSH1 0x40 MLOAD SWAP1 DUP2 ADD PUSH1 0x40 MSTORE DUP1 SWAP3 SWAP2 SWAP1 DUP2 DUP2 MSTORE PUSH1 0x20 ADD DUP3 DUP1 SLOAD PUSH2 0x2560 SWAP1 PUSH2 0x379F JUMP JUMPDEST DUP1 ISZERO PUSH2 0x25AB JUMPI DUP1 PUSH1 0x1F LT PUSH2 0x2582 JUMPI PUSH2 0x100 DUP1 DUP4 SLOAD DIV MUL DUP4 MSTORE SWAP2 PUSH1 0x20 ADD SWAP2 PUSH2 0x25AB JUMP JUMPDEST DUP3 ADD SWAP2 SWAP1 PUSH0 MSTORE PUSH1 0x20 PUSH0 KECCAK256 SWAP1 JUMPDEST DUP2 SLOAD DUP2 MSTORE SWAP1 PUSH1 0x1 ADD SWAP1 PUSH1 0x20 ADD DUP1 DUP4 GT PUSH2 0x258E JUMPI DUP3 SWAP1 SUB PUSH1 0x1F AND DUP3 ADD SWAP2 JUMPDEST POP POP POP POP POP SWAP1 DUP1 PUSH1 0x2 ADD PUSH0 SWAP1 SLOAD SWAP1 PUSH2 0x100 EXP SWAP1 DIV PUSH1 0xFF AND SWAP1 DUP1 PUSH1 0x2 ADD PUSH1 0x1 SWAP1 SLOAD SWAP1 PUSH2 0x100 EXP SWAP1 DIV PUSH1 0xFF AND SWAP1 DUP1 PUSH1 0x2 ADD PUSH1 0x2 SWAP1 SLOAD SWAP1 PUSH2 0x100 EXP SWAP1 DIV PUSH1 0xFF AND SWAP1 POP DUP6 JUMP JUMPDEST PUSH2 0x25F5 PUSH2 0x2C0A JUMP JUMPDEST PUSH20 0xFFFFFFFFFFFFFFFFFFFFFFFFFFFFFFFFFFFFFFFF AND PUSH2 0x2613 PUSH2 0x22A5 JUMP JUMPDEST PUSH20 0xFFFFFFFFFFFFFFFFFFFFFFFFFFFFFFFFFFFFFFFF AND EQ PUSH2 0x2669 JUMPI PUSH1 0x40 MLOAD PUSH32 0x8C379A000000000000000000000000000000000000000000000000000000000 DUP2 MSTORE PUSH1 0x4 ADD PUSH2 0x2660 SWAP1 PUSH2 0x4447 JUMP JUMPDEST PUSH1 0x40 MLOAD DUP1 SWAP2 SUB SWAP1 REVERT JUMPDEST JUMP JUMPDEST PUSH1 0x2 PUSH1 0x1 SLOAD SUB PUSH2 0x26B0 JUMPI PUSH1 0x40 MLOAD PUSH32 0x8C379A000000000000000000000000000000000000000000000000000000000 DUP2 MSTORE PUSH1 0x4 ADD PUSH2 0x26A7 SWAP1 PUSH2 0x44AF JUMP JUMPDEST PUSH1 0x40 MLOAD DUP1 SWAP2 SUB SWAP1 REVERT JUMPDEST PUSH1 0x2 PUSH1 0x1 DUP2 SWAP1 SSTORE POP JUMP JUMPDEST PUSH0 PUSH1 0x4 PUSH0 DUP6 PUSH20 0xFFFFFFFFFFFFFFFFFFFFFFFFFFFFFFFFFFFFFFFF AND PUSH20 0xFFFFFFFFFFFFFFFFFFFFFFFFFFFFFFFFFFFFFFFF AND DUP2 MSTORE PUSH1 0x20 ADD SWAP1 DUP2 MSTORE PUSH1 0x20 ADD PUSH0 KECCAK256 PUSH0 SWAP1 SLOAD SWAP1 PUSH2 0x100 EXP SWAP1 DIV PUSH1 0xFF AND ISZERO PUSH2 0x2794 JUMPI DUP4 PUSH20 0xFFFFFFFFFFFFFFFFFFFFFFFFFFFFFFFFFFFFFFFF AND PUSH4 0xDD62ED3E DUP5 DUP5 PUSH1 0x40 MLOAD DUP4 PUSH4 0xFFFFFFFF AND PUSH1 0xE0 SHL DUP2 MSTORE PUSH1 0x4 ADD PUSH2 0x2745 SWAP3 SWAP2 SWAP1 PUSH2 0x44CD JUMP JUMPDEST PUSH1 0x20 PUSH1 0x40 MLOAD DUP1 DUP4 SUB DUP2 DUP7 GAS STATICCALL SWAP3 POP POP POP DUP1 ISZERO PUSH2 0x277F JUMPI POP PUSH1 0x40 MLOAD RETURNDATASIZE PUSH1 0x1F NOT PUSH1 0x1F DUP3 ADD AND DUP3 ADD DUP1 PUSH1 0x40 MSTORE POP DUP2 ADD SWAP1 PUSH2 0x277C SWAP2 SWAP1 PUSH2 0x4508 JUMP JUMPDEST PUSH1 0x1 JUMPDEST PUSH2 0x278B JUMPI PUSH0 SWAP1 POP PUSH2 0x281A JUMP JUMPDEST DUP1 SWAP2 POP POP PUSH2 0x281A JUMP JUMPDEST DUP4 PUSH20 0xFFFFFFFFFFFFFFFFFFFFFFFFFFFFFFFFFFFFFFFF AND PUSH4 0xDD62ED3E DUP5 DUP5 PUSH1 0x40 MLOAD DUP4 PUSH4 0xFFFFFFFF AND PUSH1 0xE0 SHL DUP2 MSTORE PUSH1 0x4 ADD PUSH2 0x27CF SWAP3 SWAP2 SWAP1 PUSH2 0x44CD JUMP JUMPDEST PUSH1 0x20 PUSH1 0x40 MLOAD DUP1 DUP4 SUB DUP2 DUP7 GAS STATICCALL SWAP3 POP POP POP DUP1 ISZERO PUSH2 0x2809 JUMPI POP PUSH1 0x40 MLOAD RETURNDATASIZE PUSH1 0x1F NOT PUSH1 0x1F DUP3 ADD AND DUP3 ADD DUP1 PUSH1 0x40 MSTORE POP DUP2 ADD SWAP1 PUSH2 0x2806 SWAP2 SWAP1 PUSH2 0x4508 JUMP JUMPDEST PUSH1 0x1 JUMPDEST PUSH2 0x2815 JUMPI PUSH0 SWAP1 POP PUSH2 0x281A JUMP JUMPDEST DUP1 SWAP2 POP POP JUMPDEST SWAP4 SWAP3 POP POP POP JUMP JUMPDEST PUSH0 PUSH1 0x4 PUSH0 DUP5 PUSH20 0xFFFFFFFFFFFFFFFFFFFFFFFFFFFFFFFFFFFFFFFF AND PUSH20 0xFFFFFFFFFFFFFFFFFFFFFFFFFFFFFFFFFFFFFFFF AND DUP2 MSTORE PUSH1 0x20 ADD SWAP1 DUP2 MSTORE PUSH1 0x20 ADD PUSH0 KECCAK256 PUSH0 SWAP1 SLOAD SWAP1 PUSH2 0x100 EXP SWAP1 DIV PUSH1 0xFF AND ISZERO PUSH2 0x28F9 JUMPI DUP3 PUSH20 0xFFFFFFFFFFFFFFFFFFFFFFFFFFFFFFFFFFFFFFFF AND PUSH4 0x70A08231 DUP4 PUSH1 0x40 MLOAD DUP3 PUSH4 0xFFFFFFFF AND PUSH1 0xE0 SHL DUP2 MSTORE PUSH1 0x4 ADD PUSH2 0x28AA SWAP2 SWAP1 PUSH2 0x34EB JUMP JUMPDEST PUSH1 0x20 PUSH1 0x40 MLOAD DUP1 DUP4 SUB DUP2 DUP7 GAS STATICCALL SWAP3 POP POP POP DUP1 ISZERO PUSH2 0x28E4 JUMPI POP PUSH1 0x40 MLOAD RETURNDATASIZE PUSH1 0x1F NOT PUSH1 0x1F DUP3 ADD AND DUP3 ADD DUP1 PUSH1 0x40 MSTORE POP DUP2 ADD SWAP1 PUSH2 0x28E1 SWAP2 SWAP1 PUSH2 0x4508 JUMP JUMPDEST PUSH1 0x1 JUMPDEST PUSH2 0x28F0 JUMPI PUSH0 SWAP1 POP PUSH2 0x297D JUMP JUMPDEST DUP1 SWAP2 POP POP PUSH2 0x297D JUMP JUMPDEST DUP3 PUSH20 0xFFFFFFFFFFFFFFFFFFFFFFFFFFFFFFFFFFFFFFFF AND PUSH4 0x70A08231 DUP4 PUSH1 0x40 MLOAD DUP3 PUSH4 0xFFFFFFFF AND PUSH1 0xE0 SHL DUP2 MSTORE PUSH1 0x4 ADD PUSH2 0x2932 SWAP2 SWAP1 PUSH2 0x34EB JUMP JUMPDEST PUSH1 0x20 PUSH1 0x40 MLOAD DUP1 DUP4 SUB DUP2 DUP7 GAS STATICCALL SWAP3 POP POP POP DUP1 ISZERO PUSH2 0x296C JUMPI POP PUSH1 0x40 MLOAD RETURNDATASIZE PUSH1 0x1F NOT PUSH1 0x1F DUP3 ADD AND DUP3 ADD DUP1 PUSH1 0x40 MSTORE POP DUP2 ADD SWAP1 PUSH2 0x2969 SWAP2 SWAP1 PUSH2 0x4508 JUMP JUMPDEST PUSH1 0x1 JUMPDEST PUSH2 0x2978 JUMPI PUSH0 SWAP1 POP PUSH2 0x297D JUMP JUMPDEST DUP1 SWAP2 POP POP JUMPDEST SWAP3 SWAP2 POP POP JUMP JUMPDEST PUSH0 PUSH1 0x4 PUSH0 DUP7 PUSH20 0xFFFFFFFFFFFFFFFFFFFFFFFFFFFFFFFFFFFFFFFF AND PUSH20 0xFFFFFFFFFFFFFFFFFFFFFFFFFFFFFFFFFFFFFFFF AND DUP2 MSTORE PUSH1 0x20 ADD SWAP1 DUP2 MSTORE PUSH1 0x20 ADD PUSH0 KECCAK256 PUSH0 SWAP1 SLOAD SWAP1 PUSH2 0x100 EXP SWAP1 DIV PUSH1 0xFF AND ISZERO PUSH2 0x2A7E JUMPI DUP5 PUSH20 0xFFFFFFFFFFFFFFFFFFFFFFFFFFFFFFFFFFFFFFFF AND PUSH4 0x23B872DD DUP6 DUP6 DUP6 PUSH1 0x40 MLOAD DUP5 PUSH4 0xFFFFFFFF AND PUSH1 0xE0 SHL DUP2 MSTORE PUSH1 0x4 ADD PUSH2 0x2A10 SWAP4 SWAP3 SWAP2 SWAP1 PUSH2 0x4533 JUMP JUMPDEST PUSH0 PUSH1 0x40 MLOAD DUP1 DUP4 SUB DUP2 PUSH0 DUP8 DUP1 EXTCODESIZE ISZERO DUP1 ISZERO PUSH2 0x2A27 JUMPI PUSH0 PUSH0 REVERT JUMPDEST POP GAS CALL SWAP3 POP POP POP DUP1 ISZERO PUSH2 0x2A38 JUMPI POP PUSH1 0x1 JUMPDEST PUSH2 0x2A75 JUMPI RETURNDATASIZE DUP1 PUSH0 DUP2 EQ PUSH2 0x2A66 JUMPI PUSH1 0x40 MLOAD SWAP2 POP PUSH1 0x1F NOT PUSH1 0x3F RETURNDATASIZE ADD AND DUP3 ADD PUSH1 0x40 MSTORE RETURNDATASIZE DUP3 MSTORE RETURNDATASIZE PUSH0 PUSH1 0x20 DUP5 ADD RETURNDATACOPY PUSH2 0x2A6B JUMP JUMPDEST PUSH1 0x60 SWAP2 POP JUMPDEST POP PUSH0 SWAP2 POP POP PUSH2 0x2B38 JUMP JUMPDEST PUSH1 0x1 SWAP1 POP PUSH2 0x2B38 JUMP JUMPDEST DUP5 PUSH20 0xFFFFFFFFFFFFFFFFFFFFFFFFFFFFFFFFFFFFFFFF AND PUSH4 0x23B872DD DUP6 DUP6 DUP6 PUSH1 0x40 MLOAD DUP5 PUSH4 0xFFFFFFFF AND PUSH1 0xE0 SHL DUP2 MSTORE PUSH1 0x4 ADD PUSH2 0x2ABB SWAP4 SWAP3 SWAP2 SWAP1 PUSH2 0x4533 JUMP JUMPDEST PUSH1 0x20 PUSH1 0x40 MLOAD DUP1 DUP4 SUB DUP2 PUSH0 DUP8 GAS CALL SWAP3 POP POP POP DUP1 ISZERO PUSH2 0x2AF6 JUMPI POP PUSH1 0x40 MLOAD RETURNDATASIZE PUSH1 0x1F NOT PUSH1 0x1F DUP3 ADD AND DUP3 ADD DUP1 PUSH1 0x40 MSTORE POP DUP2 ADD SWAP1 PUSH2 0x2AF3 SWAP2 SWAP1 PUSH2 0x457C JUMP JUMPDEST PUSH1 0x1 JUMPDEST PUSH2 0x2B33 JUMPI RETURNDATASIZE DUP1 PUSH0 DUP2 EQ PUSH2 0x2B24 JUMPI PUSH1 0x40 MLOAD SWAP2 POP PUSH1 0x1F NOT PUSH1 0x3F RETURNDATASIZE ADD AND DUP3 ADD PUSH1 0x40 MSTORE RETURNDATASIZE DUP3 MSTORE RETURNDATASIZE PUSH0 PUSH1 0x20 DUP5 ADD RETURNDATACOPY PUSH2 0x2B29 JUMP JUMPDEST PUSH1 0x60 SWAP2 POP JUMPDEST POP PUSH0 SWAP2 POP POP PUSH2 0x2B38 JUMP JUMPDEST DUP1 SWAP2 POP POP JUMPDEST SWAP5 SWAP4 POP POP POP POP JUMP JUMPDEST PUSH1 0x1 DUP1 DUP2 SWAP1 SSTORE POP JUMP JUMPDEST PUSH0 PUSH0 PUSH0 SWAP1 SLOAD SWAP1 PUSH2 0x100 EXP SWAP1 DIV PUSH20 0xFFFFFFFFFFFFFFFFFFFFFFFFFFFFFFFFFFFFFFFF AND SWAP1 POP DUP2 PUSH0 PUSH0 PUSH2 0x100 EXP DUP2 SLOAD DUP2 PUSH20 0xFFFFFFFFFFFFFFFFFFFFFFFFFFFFFFFFFFFFFFFF MUL NOT AND SWAP1 DUP4 PUSH20 0xFFFFFFFFFFFFFFFFFFFFFFFFFFFFFFFFFFFFFFFF AND MUL OR SWAP1 SSTORE POP DUP2 PUSH20 0xFFFFFFFFFFFFFFFFFFFFFFFFFFFFFFFFFFFFFFFF AND DUP2 PUSH20 0xFFFFFFFFFFFFFFFFFFFFFFFFFFFFFFFFFFFFFFFF AND PUSH32 0x8BE0079C531659141344CD1FD0A4F28419497F9722A3DAAFE3B4186F6B6457E0 PUSH1 0x40 MLOAD PUSH1 0x40 MLOAD DUP1 SWAP2 SUB SWAP1 LOG3 POP POP JUMP JUMPDEST PUSH0 CALLER SWAP1 POP SWAP1 JUMP JUMPDEST POP DUP1 SLOAD PUSH2 0x2C1D SWAP1 PUSH2 0x379F JUMP JUMPDEST PUSH0 DUP3 SSTORE DUP1 PUSH1 0x1F LT PUSH2 0x2C2E JUMPI POP PUSH2 0x2C4B JUMP JUMPDEST PUSH1 0x1F ADD PUSH1 0x20 SWAP1 DIV SWAP1 PUSH0 MSTORE PUSH1 0x20 PUSH0 KECCAK256 SWAP1 DUP2 ADD SWAP1 PUSH2 0x2C4A SWAP2 SWAP1 PUSH2 0x2C4E JUMP JUMPDEST JUMPDEST POP JUMP JUMPDEST JUMPDEST DUP1 DUP3 GT ISZERO PUSH2 0x2C65 JUMPI PUSH0 DUP2 PUSH0 SWAP1 SSTORE POP PUSH1 0x1 ADD PUSH2 0x2C4F JUMP JUMPDEST POP SWAP1 JUMP JUMPDEST PUSH0 DUP2 MLOAD SWAP1 POP SWAP2 SWAP1 POP JUMP JUMPDEST PUSH0 DUP3 DUP3 MSTORE PUSH1 0x20 DUP3 ADD SWAP1 POP SWAP3 SWAP2 POP POP JUMP JUMPDEST DUP3 DUP2 DUP4 MCOPY PUSH0 DUP4 DUP4 ADD MSTORE POP POP POP JUMP JUMPDEST PUSH0 PUSH1 0x1F NOT PUSH1 0x1F DUP4 ADD AND SWAP1 POP SWAP2 SWAP1 POP JUMP JUMPDEST PUSH0 PUSH2 0x2CAB DUP3 PUSH2 0x2C69 JUMP JUMPDEST PUSH2 0x2CB5 DUP2 DUP6 PUSH2 0x2C73 JUMP JUMPDEST SWAP4 POP PUSH2 0x2CC5 DUP2 DUP6 PUSH1 0x20 DUP7 ADD PUSH2 0x2C83 JUMP JUMPDEST PUSH2 0x2CCE DUP2 PUSH2 0x2C91 JUMP JUMPDEST DUP5 ADD SWAP2 POP POP SWAP3 SWAP2 POP POP JUMP JUMPDEST PUSH0 PUSH1 0x20 DUP3 ADD SWAP1 POP DUP2 DUP2 SUB PUSH0 DUP4 ADD MSTORE PUSH2 0x2CF1 DUP2 DUP5 PUSH2 0x2CA1 JUMP JUMPDEST SWAP1 POP SWAP3 SWAP2 POP POP JUMP JUMPDEST PUSH0 PUSH1 0x40 MLOAD SWAP1 POP SWAP1 JUMP JUMPDEST PUSH0 PUSH0 REVERT JUMPDEST PUSH0 PUSH0 REVERT JUMPDEST PUSH0 PUSH20 0xFFFFFFFFFFFFFFFFFFFFFFFFFFFFFFFFFFFFFFFF DUP3 AND SWAP1 POP SWAP2 SWAP1 POP JUMP JUMPDEST PUSH0 PUSH2 0x2D33 DUP3 PUSH2 0x2D0A JUMP JUMPDEST SWAP1 POP SWAP2 SWAP1 POP JUMP JUMPDEST PUSH2 0x2D43 DUP2 PUSH2 0x2D29 JUMP JUMPDEST DUP2 EQ PUSH2 0x2D4D JUMPI PUSH0 PUSH0 REVERT JUMPDEST POP JUMP JUMPDEST PUSH0 DUP2 CALLDATALOAD SWAP1 POP PUSH2 0x2D5E DUP2 PUSH2 0x2D3A JUMP JUMPDEST SWAP3 SWAP2 POP POP JUMP JUMPDEST PUSH0 PUSH1 0x20 DUP3 DUP5 SUB SLT ISZERO PUSH2 0x2D79 JUMPI PUSH2 0x2D78 PUSH2 0x2D02 JUMP JUMPDEST JUMPDEST PUSH0 PUSH2 0x2D86 DUP5 DUP3 DUP6 ADD PUSH2 0x2D50 JUMP JUMPDEST SWAP2 POP POP SWAP3 SWAP2 POP POP JUMP JUMPDEST PUSH0 PUSH1 0xFF DUP3 AND SWAP1 POP SWAP2 SWAP1 POP JUMP JUMPDEST PUSH2 0x2DA4 DUP2 PUSH2 0x2D8F JUMP JUMPDEST DUP3 MSTORE POP POP JUMP JUMPDEST PUSH0 DUP2 ISZERO ISZERO SWAP1 POP SWAP2 SWAP1 POP JUMP JUMPDEST PUSH2 0x2DBE DUP2 PUSH2 0x2DAA JUMP JUMPDEST DUP3 MSTORE POP POP JUMP JUMPDEST PUSH0 PUSH1 0x80 DUP3 ADD SWAP1 POP DUP2 DUP2 SUB PUSH0 DUP4 ADD MSTORE PUSH2 0x2DDC DUP2 DUP8 PUSH2 0x2CA1 JUMP JUMPDEST SWAP1 POP DUP2 DUP2 SUB PUSH1 0x20 DUP4 ADD MSTORE PUSH2 0x2DF0 DUP2 DUP7 PUSH2 0x2CA1 JUMP JUMPDEST SWAP1 POP PUSH2 0x2DFF PUSH1 0x40 DUP4 ADD DUP6 PUSH2 0x2D9B JUMP JUMPDEST PUSH2 0x2E0C PUSH1 0x60 DUP4 ADD DUP5 PUSH2 0x2DB5 JUMP JUMPDEST SWAP6 SWAP5 POP POP POP POP POP JUMP JUMPDEST PUSH0 DUP2 MLOAD SWAP1 POP SWAP2 SWAP1 POP JUMP JUMPDEST PUSH0 DUP3 DUP3 MSTORE PUSH1 0x20 DUP3 ADD SWAP1 POP SWAP3 SWAP2 POP POP JUMP JUMPDEST PUSH0 DUP2 SWAP1 POP PUSH1 0x20 DUP3 ADD SWAP1 POP SWAP2 SWAP1 POP JUMP JUMPDEST PUSH2 0x2E47 DUP2 PUSH2 0x2D29 JUMP JUMPDEST DUP3 MSTORE POP POP JUMP JUMPDEST PUSH0 PUSH2 0x2E58 DUP4 DUP4 PUSH2 0x2E3E JUMP JUMPDEST PUSH1 0x20 DUP4 ADD SWAP1 POP SWAP3 SWAP2 POP POP JUMP JUMPDEST PUSH0 PUSH1 0x20 DUP3 ADD SWAP1 POP SWAP2 SWAP1 POP JUMP JUMPDEST PUSH0 PUSH2 0x2E7A DUP3 PUSH2 0x2E15 JUMP JUMPDEST PUSH2 0x2E84 DUP2 DUP6 PUSH2 0x2E1F JUMP JUMPDEST SWAP4 POP PUSH2 0x2E8F DUP4 PUSH2 0x2E2F JUMP JUMPDEST DUP1 PUSH0 JUMPDEST DUP4 DUP2 LT ISZERO PUSH2 0x2EBF JUMPI DUP2 MLOAD PUSH2 0x2EA6 DUP9 DUP3 PUSH2 0x2E4D JUMP JUMPDEST SWAP8 POP PUSH2 0x2EB1 DUP4 PUSH2 0x2E64 JUMP JUMPDEST SWAP3 POP POP PUSH1 0x1 DUP2 ADD SWAP1 POP PUSH2 0x2E92 JUMP JUMPDEST POP DUP6 SWAP4 POP POP POP POP SWAP3 SWAP2 POP POP JUMP JUMPDEST PUSH0 DUP2 MLOAD SWAP1 POP SWAP2 SWAP1 POP JUMP JUMPDEST PUSH0 DUP3 DUP3 MSTORE PUSH1 0x20 DUP3 ADD SWAP1 POP SWAP3 SWAP2 POP POP JUMP JUMPDEST PUSH0 DUP2 SWAP1 POP PUSH1 0x20 DUP3 ADD SWAP1 POP SWAP2 SWAP1 POP JUMP JUMPDEST PUSH0 DUP2 SWAP1 POP SWAP2 SWAP1 POP JUMP JUMPDEST PUSH2 0x2F07 DUP2 PUSH2 0x2EF5 JUMP JUMPDEST DUP3 MSTORE POP POP JUMP JUMPDEST PUSH0 PUSH2 0x2F18 DUP4 DUP4 PUSH2 0x2EFE JUMP JUMPDEST PUSH1 0x20 DUP4 ADD SWAP1 POP SWAP3 SWAP2 POP POP JUMP JUMPDEST PUSH0 PUSH1 0x20 DUP3 ADD SWAP1 POP SWAP2 SWAP1 POP JUMP JUMPDEST PUSH0 PUSH2 0x2F3A DUP3 PUSH2 0x2ECC JUMP JUMPDEST PUSH2 0x2F44 DUP2 DUP6 PUSH2 0x2ED6 JUMP JUMPDEST SWAP4 POP PUSH2 0x2F4F DUP4 PUSH2 0x2EE6 JUMP JUMPDEST DUP1 PUSH0 JUMPDEST DUP4 DUP2 LT ISZERO PUSH2 0x2F7F JUMPI DUP2 MLOAD PUSH2 0x2F66 DUP9 DUP3 PUSH2 0x2F0D JUMP JUMPDEST SWAP8 POP PUSH2 0x2F71 DUP4 PUSH2 0x2F24 JUMP JUMPDEST SWAP3 POP POP PUSH1 0x1 DUP2 ADD SWAP1 POP PUSH2 0x2F52 JUMP JUMPDEST POP DUP6 SWAP4 POP POP POP POP SWAP3 SWAP2 POP POP JUMP JUMPDEST PUSH0 PUSH1 0x40 DUP3 ADD SWAP1 POP DUP2 DUP2 SUB PUSH0 DUP4 ADD MSTORE PUSH2 0x2FA4 DUP2 DUP6 PUSH2 0x2E70 JUMP JUMPDEST SWAP1 POP DUP2 DUP2 SUB PUSH1 0x20 DUP4 ADD MSTORE PUSH2 0x2FB8 DUP2 DUP5 PUSH2 0x2F30 JUMP JUMPDEST SWAP1 POP SWAP4 SWAP3 POP POP POP JUMP JUMPDEST PUSH0 PUSH0 REVERT JUMPDEST PUSH0 PUSH0 REVERT JUMPDEST PUSH32 0x4E487B7100000000000000000000000000000000000000000000000000000000 PUSH0 MSTORE PUSH1 0x41 PUSH1 0x4 MSTORE PUSH1 0x24 PUSH0 REVERT JUMPDEST PUSH2 0x2FFF DUP3 PUSH2 0x2C91 JUMP JUMPDEST DUP2 ADD DUP2 DUP2 LT PUSH8 0xFFFFFFFFFFFFFFFF DUP3 GT OR ISZERO PUSH2 0x301E JUMPI PUSH2 0x301D PUSH2 0x2FC9 JUMP JUMPDEST JUMPDEST DUP1 PUSH1 0x40 MSTORE POP POP POP JUMP JUMPDEST PUSH0 PUSH2 0x3030 PUSH2 0x2CF9 JUMP JUMPDEST SWAP1 POP PUSH2 0x303C DUP3 DUP3 PUSH2 0x2FF6 JUMP JUMPDEST SWAP2 SWAP1 POP JUMP JUMPDEST PUSH0 PUSH8 0xFFFFFFFFFFFFFFFF DUP3 GT ISZERO PUSH2 0x305B JUMPI PUSH2 0x305A PUSH2 0x2FC9 JUMP JUMPDEST JUMPDEST PUSH2 0x3064 DUP3 PUSH2 0x2C91 JUMP JUMPDEST SWAP1 POP PUSH1 0x20 DUP2 ADD SWAP1 POP SWAP2 SWAP1 POP JUMP JUMPDEST DUP3 DUP2 DUP4 CALLDATACOPY PUSH0 DUP4 DUP4 ADD MSTORE POP POP POP JUMP JUMPDEST PUSH0 PUSH2 0x3091 PUSH2 0x308C DUP5 PUSH2 0x3041 JUMP JUMPDEST PUSH2 0x3027 JUMP JUMPDEST SWAP1 POP DUP3 DUP2 MSTORE PUSH1 0x20 DUP2 ADD DUP5 DUP5 DUP5 ADD GT ISZERO PUSH2 0x30AD JUMPI PUSH2 0x30AC PUSH2 0x2FC5 JUMP JUMPDEST JUMPDEST PUSH2 0x30B8 DUP5 DUP3 DUP6 PUSH2 0x3071 JUMP JUMPDEST POP SWAP4 SWAP3 POP POP POP JUMP JUMPDEST PUSH0 DUP3 PUSH1 0x1F DUP4 ADD SLT PUSH2 0x30D4 JUMPI PUSH2 0x30D3 PUSH2 0x2FC1 JUMP JUMPDEST JUMPDEST DUP2 CALLDATALOAD PUSH2 0x30E4 DUP5 DUP3 PUSH1 0x20 DUP7 ADD PUSH2 0x307F JUMP JUMPDEST SWAP2 POP POP SWAP3 SWAP2 POP POP JUMP JUMPDEST PUSH2 0x30F6 DUP2 PUSH2 0x2D8F JUMP JUMPDEST DUP2 EQ PUSH2 0x3100 JUMPI PUSH0 PUSH0 REVERT JUMPDEST POP JUMP JUMPDEST PUSH0 DUP2 CALLDATALOAD SWAP1 POP PUSH2 0x3111 DUP2 PUSH2 0x30ED JUMP JUMPDEST SWAP3 SWAP2 POP POP JUMP JUMPDEST PUSH2 0x3120 DUP2 PUSH2 0x2DAA JUMP JUMPDEST DUP2 EQ PUSH2 0x312A JUMPI PUSH0 PUSH0 REVERT JUMPDEST POP JUMP JUMPDEST PUSH0 DUP2 CALLDATALOAD SWAP1 POP PUSH2 0x313B DUP2 PUSH2 0x3117 JUMP JUMPDEST SWAP3 SWAP2 POP POP JUMP JUMPDEST PUSH0 PUSH0 PUSH0 PUSH0 PUSH0 PUSH1 0xA0 DUP7 DUP9 SUB SLT ISZERO PUSH2 0x315A JUMPI PUSH2 0x3159 PUSH2 0x2D02 JUMP JUMPDEST JUMPDEST PUSH0 PUSH2 0x3167 DUP9 DUP3 DUP10 ADD PUSH2 0x2D50 JUMP JUMPDEST SWAP6 POP POP PUSH1 0x20 DUP7 ADD CALLDATALOAD PUSH8 0xFFFFFFFFFFFFFFFF DUP2 GT ISZERO PUSH2 0x3188 JUMPI PUSH2 0x3187 PUSH2 0x2D06 JUMP JUMPDEST JUMPDEST PUSH2 0x3194 DUP9 DUP3 DUP10 ADD PUSH2 0x30C0 JUMP JUMPDEST SWAP5 POP POP PUSH1 0x40 DUP7 ADD CALLDATALOAD PUSH8 0xFFFFFFFFFFFFFFFF DUP2 GT ISZERO PUSH2 0x31B5 JUMPI PUSH2 0x31B4 PUSH2 0x2D06 JUMP JUMPDEST JUMPDEST PUSH2 0x31C1 DUP9 DUP3 DUP10 ADD PUSH2 0x30C0 JUMP JUMPDEST SWAP4 POP POP PUSH1 0x60 PUSH2 0x31D2 DUP9 DUP3 DUP10 ADD PUSH2 0x3103 JUMP JUMPDEST SWAP3 POP POP PUSH1 0x80 PUSH2 0x31E3 DUP9 DUP3 DUP10 ADD PUSH2 0x312D JUMP JUMPDEST SWAP2 POP POP SWAP3 SWAP6 POP SWAP3 SWAP6 SWAP1 SWAP4 POP JUMP JUMPDEST PUSH0 PUSH0 REVERT JUMPDEST PUSH0 PUSH0 REVERT JUMPDEST PUSH0 PUSH0 DUP4 PUSH1 0x1F DUP5 ADD SLT PUSH2 0x320D JUMPI PUSH2 0x320C PUSH2 0x2FC1 JUMP JUMPDEST JUMPDEST DUP3 CALLDATALOAD SWAP1 POP PUSH8 0xFFFFFFFFFFFFFFFF DUP2 GT ISZERO PUSH2 0x322A JUMPI PUSH2 0x3229 PUSH2 0x31F0 JUMP JUMPDEST JUMPDEST PUSH1 0x20 DUP4 ADD SWAP2 POP DUP4 PUSH1 0x20 DUP3 MUL DUP4 ADD GT ISZERO PUSH2 0x3246 JUMPI PUSH2 0x3245 PUSH2 0x31F4 JUMP JUMPDEST JUMPDEST SWAP3 POP SWAP3 SWAP1 POP JUMP JUMPDEST PUSH0 PUSH0 DUP4 PUSH1 0x1F DUP5 ADD SLT PUSH2 0x3262 JUMPI PUSH2 0x3261 PUSH2 0x2FC1 JUMP JUMPDEST JUMPDEST DUP3 CALLDATALOAD SWAP1 POP PUSH8 0xFFFFFFFFFFFFFFFF DUP2 GT ISZERO PUSH2 0x327F JUMPI PUSH2 0x327E PUSH2 0x31F0 JUMP JUMPDEST JUMPDEST PUSH1 0x20 DUP4 ADD SWAP2 POP DUP4 PUSH1 0x20 DUP3 MUL DUP4 ADD GT ISZERO PUSH2 0x329B JUMPI PUSH2 0x329A PUSH2 0x31F4 JUMP JUMPDEST JUMPDEST SWAP3 POP SWAP3 SWAP1 POP JUMP JUMPDEST PUSH0 PUSH0 PUSH0 PUSH0 PUSH0 PUSH0 PUSH1 0x60 DUP8 DUP10 SUB SLT ISZERO PUSH2 0x32BC JUMPI PUSH2 0x32BB PUSH2 0x2D02 JUMP JUMPDEST JUMPDEST PUSH0 DUP8 ADD CALLDATALOAD PUSH8 0xFFFFFFFFFFFFFFFF DUP2 GT ISZERO PUSH2 0x32D9 JUMPI PUSH2 0x32D8 PUSH2 0x2D06 JUMP JUMPDEST JUMPDEST PUSH2 0x32E5 DUP10 DUP3 DUP11 ADD PUSH2 0x31F8 JUMP JUMPDEST SWAP7 POP SWAP7 POP POP PUSH1 0x20 DUP8 ADD CALLDATALOAD PUSH8 0xFFFFFFFFFFFFFFFF DUP2 GT ISZERO PUSH2 0x3308 JUMPI PUSH2 0x3307 PUSH2 0x2D06 JUMP JUMPDEST JUMPDEST PUSH2 0x3314 DUP10 DUP3 DUP11 ADD PUSH2 0x31F8 JUMP JUMPDEST SWAP5 POP SWAP5 POP POP PUSH1 0x40 DUP8 ADD CALLDATALOAD PUSH8 0xFFFFFFFFFFFFFFFF DUP2 GT ISZERO PUSH2 0x3337 JUMPI PUSH2 0x3336 PUSH2 0x2D06 JUMP JUMPDEST JUMPDEST PUSH2 0x3343 DUP10 DUP3 DUP11 ADD PUSH2 0x324D JUMP JUMPDEST SWAP3 POP SWAP3 POP POP SWAP3 SWAP6 POP SWAP3 SWAP6 POP SWAP3 SWAP6 JUMP JUMPDEST PUSH0 PUSH1 0x20 DUP3 ADD SWAP1 POP PUSH2 0x3365 PUSH0 DUP4 ADD DUP5 PUSH2 0x2DB5 JUMP JUMPDEST SWAP3 SWAP2 POP POP JUMP JUMPDEST PUSH0 PUSH0 PUSH0 PUSH0 PUSH0 PUSH1 0x60 DUP7 DUP9 SUB SLT ISZERO PUSH2 0x3384 JUMPI PUSH2 0x3383 PUSH2 0x2D02 JUMP JUMPDEST JUMPDEST PUSH0 PUSH2 0x3391 DUP9 DUP3 DUP10 ADD PUSH2 0x2D50 JUMP JUMPDEST SWAP6 POP POP PUSH1 0x20 DUP7 ADD CALLDATALOAD PUSH8 0xFFFFFFFFFFFFFFFF DUP2 GT ISZERO PUSH2 0x33B2 JUMPI PUSH2 0x33B1 PUSH2 0x2D06 JUMP JUMPDEST JUMPDEST PUSH2 0x33BE DUP9 DUP3 DUP10 ADD PUSH2 0x31F8 JUMP JUMPDEST SWAP5 POP SWAP5 POP POP PUSH1 0x40 DUP7 ADD CALLDATALOAD PUSH8 0xFFFFFFFFFFFFFFFF DUP2 GT ISZERO PUSH2 0x33E1 JUMPI PUSH2 0x33E0 PUSH2 0x2D06 JUMP JUMPDEST JUMPDEST PUSH2 0x33ED DUP9 DUP3 DUP10 ADD PUSH2 0x324D JUMP JUMPDEST SWAP3 POP SWAP3 POP POP SWAP3 SWAP6 POP SWAP3 SWAP6 SWAP1 SWAP4 POP JUMP JUMPDEST PUSH0 PUSH0 PUSH1 0x40 DUP4 DUP6 SUB SLT ISZERO PUSH2 0x3412 JUMPI PUSH2 0x3411 PUSH2 0x2D02 JUMP JUMPDEST JUMPDEST PUSH0 PUSH2 0x341F DUP6 DUP3 DUP7 ADD PUSH2 0x2D50 JUMP JUMPDEST SWAP3 POP POP PUSH1 0x20 PUSH2 0x3430 DUP6 DUP3 DUP7 ADD PUSH2 0x2D50 JUMP JUMPDEST SWAP2 POP POP SWAP3 POP SWAP3 SWAP1 POP JUMP JUMPDEST PUSH2 0x3443 DUP2 PUSH2 0x2EF5 JUMP JUMPDEST DUP3 MSTORE POP POP JUMP JUMPDEST PUSH0 PUSH1 0x20 DUP3 ADD SWAP1 POP PUSH2 0x345C PUSH0 DUP4 ADD DUP5 PUSH2 0x343A JUMP JUMPDEST SWAP3 SWAP2 POP POP JUMP JUMPDEST PUSH2 0x346B DUP2 PUSH2 0x2EF5 JUMP JUMPDEST DUP2 EQ PUSH2 0x3475 JUMPI PUSH0 PUSH0 REVERT JUMPDEST POP JUMP JUMPDEST PUSH0 DUP2 CALLDATALOAD SWAP1 POP PUSH2 0x3486 DUP2 PUSH2 0x3462 JUMP JUMPDEST SWAP3 SWAP2 POP POP JUMP JUMPDEST PUSH0 PUSH0 PUSH0 PUSH1 0x60 DUP5 DUP7 SUB SLT ISZERO PUSH2 0x34A3 JUMPI PUSH2 0x34A2 PUSH2 0x2D02 JUMP JUMPDEST JUMPDEST PUSH0 PUSH2 0x34B0 DUP7 DUP3 DUP8 ADD PUSH2 0x2D50 JUMP JUMPDEST SWAP4 POP POP PUSH1 0x20 PUSH2 0x34C1 DUP7 DUP3 DUP8 ADD PUSH2 0x2D50 JUMP JUMPDEST SWAP3 POP POP PUSH1 0x40 PUSH2 0x34D2 DUP7 DUP3 DUP8 ADD PUSH2 0x3478 JUMP JUMPDEST SWAP2 POP POP SWAP3 POP SWAP3 POP SWAP3 JUMP JUMPDEST PUSH2 0x34E5 DUP2 PUSH2 0x2D29 JUMP JUMPDEST DUP3 MSTORE POP POP JUMP JUMPDEST PUSH0 PUSH1 0x20 DUP3 ADD SWAP1 POP PUSH2 0x34FE PUSH0 DUP4 ADD DUP5 PUSH2 0x34DC JUMP JUMPDEST SWAP3 SWAP2 POP POP JUMP JUMPDEST PUSH0 PUSH1 0x20 DUP3 DUP5 SUB SLT ISZERO PUSH2 0x3519 JUMPI PUSH2 0x3518 PUSH2 0x2D02 JUMP JUMPDEST JUMPDEST PUSH0 PUSH2 0x3526 DUP5 DUP3 DUP6 ADD PUSH2 0x3478 JUMP JUMPDEST SWAP2 POP POP SWAP3 SWAP2 POP POP JUMP JUMPDEST PUSH0 PUSH1 0x20 DUP3 ADD SWAP1 POP DUP2 DUP2 SUB PUSH0 DUP4 ADD MSTORE PUSH2 0x3547 DUP2 DUP5 PUSH2 0x2E70 JUMP JUMPDEST SWAP1 POP SWAP3 SWAP2 POP POP JUMP JUMPDEST PUSH0 PUSH1 0xA0 DUP3 ADD SWAP1 POP DUP2 DUP2 SUB PUSH0 DUP4 ADD MSTORE PUSH2 0x3567 DUP2 DUP9 PUSH2 0x2CA1 JUMP JUMPDEST SWAP1 POP DUP2 DUP2 SUB PUSH1 0x20 DUP4 ADD MSTORE PUSH2 0x357B DUP2 DUP8 PUSH2 0x2CA1 JUMP JUMPDEST SWAP1 POP PUSH2 0x358A PUSH1 0x40 DUP4 ADD DUP7 PUSH2 0x2D9B JUMP JUMPDEST PUSH2 0x3597 PUSH1 0x60 DUP4 ADD DUP6 PUSH2 0x2DB5 JUMP JUMPDEST PUSH2 0x35A4 PUSH1 0x80 DUP4 ADD DUP5 PUSH2 0x2DB5 JUMP JUMPDEST SWAP7 SWAP6 POP POP POP POP POP POP JUMP JUMPDEST PUSH32 0x496E76616C696420746F6B656E20616464726573730000000000000000000000 PUSH0 DUP3 ADD MSTORE POP JUMP JUMPDEST PUSH0 PUSH2 0x35E2 PUSH1 0x15 DUP4 PUSH2 0x2C73 JUMP JUMPDEST SWAP2 POP PUSH2 0x35ED DUP3 PUSH2 0x35AE JUMP JUMPDEST PUSH1 0x20 DUP3 ADD SWAP1 POP SWAP2 SWAP1 POP JUMP JUMPDEST PUSH0 PUSH1 0x20 DUP3 ADD SWAP1 POP DUP2 DUP2 SUB PUSH0 DUP4 ADD MSTORE PUSH2 0x360F DUP2 PUSH2 0x35D6 JUMP JUMPDEST SWAP1 POP SWAP2 SWAP1 POP JUMP JUMPDEST PUSH32 0x546F6B656E20616C726561647920737570706F72746564000000000000000000 PUSH0 DUP3 ADD MSTORE POP JUMP JUMPDEST PUSH0 PUSH2 0x364A PUSH1 0x17 DUP4 PUSH2 0x2C73 JUMP JUMPDEST SWAP2 POP PUSH2 0x3655 DUP3 PUSH2 0x3616 JUMP JUMPDEST PUSH1 0x20 DUP3 ADD SWAP1 POP SWAP2 SWAP1 POP JUMP JUMPDEST PUSH0 PUSH1 0x20 DUP3 ADD SWAP1 POP DUP2 DUP2 SUB PUSH0 DUP4 ADD MSTORE PUSH2 0x3677 DUP2 PUSH2 0x363E JUMP JUMPDEST SWAP1 POP SWAP2 SWAP1 POP JUMP JUMPDEST PUSH0 PUSH2 0x3690 PUSH2 0x368B DUP5 PUSH2 0x3041 JUMP JUMPDEST PUSH2 0x3027 JUMP JUMPDEST SWAP1 POP DUP3 DUP2 MSTORE PUSH1 0x20 DUP2 ADD DUP5 DUP5 DUP5 ADD GT ISZERO PUSH2 0x36AC JUMPI PUSH2 0x36AB PUSH2 0x2FC5 JUMP JUMPDEST JUMPDEST PUSH2 0x36B7 DUP5 DUP3 DUP6 PUSH2 0x2C83 JUMP JUMPDEST POP SWAP4 SWAP3 POP POP POP JUMP JUMPDEST PUSH0 DUP3 PUSH1 0x1F DUP4 ADD SLT PUSH2 0x36D3 JUMPI PUSH2 0x36D2 PUSH2 0x2FC1 JUMP JUMPDEST JUMPDEST DUP2 MLOAD PUSH2 0x36E3 DUP5 DUP3 PUSH1 0x20 DUP7 ADD PUSH2 0x367E JUMP JUMPDEST SWAP2 POP POP SWAP3 SWAP2 POP POP JUMP JUMPDEST PUSH0 PUSH1 0x20 DUP3 DUP5 SUB SLT ISZERO PUSH2 0x3701 JUMPI PUSH2 0x3700 PUSH2 0x2D02 JUMP JUMPDEST JUMPDEST PUSH0 DUP3 ADD MLOAD PUSH8 0xFFFFFFFFFFFFFFFF DUP2 GT ISZERO PUSH2 0x371E JUMPI PUSH2 0x371D PUSH2 0x2D06 JUMP JUMPDEST JUMPDEST PUSH2 0x372A DUP5 DUP3 DUP6 ADD PUSH2 0x36BF JUMP JUMPDEST SWAP2 POP POP SWAP3 SWAP2 POP POP JUMP JUMPDEST PUSH0 DUP2 MLOAD SWAP1 POP PUSH2 0x3741 DUP2 PUSH2 0x30ED JUMP JUMPDEST SWAP3 SWAP2 POP POP JUMP JUMPDEST PUSH0 PUSH1 0x20 DUP3 DUP5 SUB SLT ISZERO PUSH2 0x375C JUMPI PUSH2 0x375B PUSH2 0x2D02 JUMP JUMPDEST JUMPDEST PUSH0 PUSH2 0x3769 DUP5 DUP3 DUP6 ADD PUSH2 0x3733 JUMP JUMPDEST SWAP2 POP POP SWAP3 SWAP2 POP POP JUMP JUMPDEST PUSH32 0x4E487B7100000000000000000000000000000000000000000000000000000000 PUSH0 MSTORE PUSH1 0x22 PUSH1 0x4 MSTORE PUSH1 0x24 PUSH0 REVERT JUMPDEST PUSH0 PUSH1 0x2 DUP3 DIV SWAP1 POP PUSH1 0x1 DUP3 AND DUP1 PUSH2 0x37B6 JUMPI PUSH1 0x7F DUP3 AND SWAP2 POP JUMPDEST PUSH1 0x20 DUP3 LT DUP2 SUB PUSH2 0x37C9 JUMPI PUSH2 0x37C8 PUSH2 0x3772 JUMP JUMPDEST JUMPDEST POP SWAP2 SWAP1 POP JUMP JUMPDEST PUSH0 DUP2 SWAP1 POP DUP2 PUSH0 MSTORE PUSH1 0x20 PUSH0 KECCAK256 SWAP1 POP SWAP2 SWAP1 POP JUMP JUMPDEST PUSH0 PUSH1 0x20 PUSH1 0x1F DUP4 ADD DIV SWAP1 POP SWAP2 SWAP1 POP JUMP JUMPDEST PUSH0 DUP3 DUP3 SHL SWAP1 POP SWAP3 SWAP2 POP POP JUMP JUMPDEST PUSH0 PUSH1 0x8 DUP4 MUL PUSH2 0x382B PUSH32 0xFFFFFFFFFFFFFFFFFFFFFFFFFFFFFFFFFFFFFFFFFFFFFFFFFFFFFFFFFFFFFFFF DUP3 PUSH2 0x37F0 JUMP JUMPDEST PUSH2 0x3835 DUP7 DUP4 PUSH2 0x37F0 JUMP JUMPDEST SWAP6 POP DUP1 NOT DUP5 AND SWAP4 POP DUP1 DUP7 AND DUP5 OR SWAP3 POP POP POP SWAP4 SWAP3 POP POP POP JUMP JUMPDEST PUSH0 DUP2 SWAP1 POP SWAP2 SWAP1 POP JUMP JUMPDEST PUSH0 PUSH2 0x3870 PUSH2 0x386B PUSH2 0x3866 DUP5 PUSH2 0x2EF5 JUMP JUMPDEST PUSH2 0x384D JUMP JUMPDEST PUSH2 0x2EF5 JUMP JUMPDEST SWAP1 POP SWAP2 SWAP1 POP JUMP JUMPDEST PUSH0 DUP2 SWAP1 POP SWAP2 SWAP1 POP JUMP JUMPDEST PUSH2 0x3889 DUP4 PUSH2 0x3856 JUMP JUMPDEST PUSH2 0x389D PUSH2 0x3895 DUP3 PUSH2 0x3877 JUMP JUMPDEST DUP5 DUP5 SLOAD PUSH2 0x37FC JUMP JUMPDEST DUP3 SSTORE POP POP POP POP JUMP JUMPDEST PUSH0 PUSH0 SWAP1 POP SWAP1 JUMP JUMPDEST PUSH2 0x38B4 PUSH2 0x38A5 JUMP JUMPDEST PUSH2 0x38BF DUP2 DUP5 DUP5 PUSH2 0x3880 JUMP JUMPDEST POP POP POP JUMP JUMPDEST JUMPDEST DUP2 DUP2 LT ISZERO PUSH2 0x38E2 JUMPI PUSH2 0x38D7 PUSH0 DUP3 PUSH2 0x38AC JUMP JUMPDEST PUSH1 0x1 DUP2 ADD SWAP1 POP PUSH2 0x38C5 JUMP JUMPDEST POP POP JUMP JUMPDEST PUSH1 0x1F DUP3 GT ISZERO PUSH2 0x3927 JUMPI PUSH2 0x38F8 DUP2 PUSH2 0x37CF JUMP JUMPDEST PUSH2 0x3901 DUP5 PUSH2 0x37E1 JUMP JUMPDEST DUP2 ADD PUSH1 0x20 DUP6 LT ISZERO PUSH2 0x3910 JUMPI DUP2 SWAP1 POP JUMPDEST PUSH2 0x3924 PUSH2 0x391C DUP6 PUSH2 0x37E1 JUMP JUMPDEST DUP4 ADD DUP3 PUSH2 0x38C4 JUMP JUMPDEST POP POP JUMPDEST POP POP POP JUMP JUMPDEST PUSH0 DUP3 DUP3 SHR SWAP1 POP SWAP3 SWAP2 POP POP JUMP JUMPDEST PUSH0 PUSH2 0x3947 PUSH0 NOT DUP5 PUSH1 0x8 MUL PUSH2 0x392C JUMP JUMPDEST NOT DUP1 DUP4 AND SWAP2 POP POP SWAP3 SWAP2 POP POP JUMP JUMPDEST PUSH0 PUSH2 0x395F DUP4 DUP4 PUSH2 0x3938 JUMP JUMPDEST SWAP2 POP DUP3 PUSH1 0x2 MUL DUP3 OR SWAP1 POP SWAP3 SWAP2 POP POP JUMP JUMPDEST PUSH2 0x3978 DUP3 PUSH2 0x2C69 JUMP JUMPDEST PUSH8 0xFFFFFFFFFFFFFFFF DUP2 GT ISZERO PUSH2 0x3991 JUMPI PUSH2 0x3990 PUSH2 0x2FC9 JUMP JUMPDEST JUMPDEST PUSH2 0x399B DUP3 SLOAD PUSH2 0x379F JUMP JUMPDEST PUSH2 0x39A6 DUP3 DUP3 DUP6 PUSH2 0x38E6 JUMP JUMPDEST PUSH0 PUSH1 0x20 SWAP1 POP PUSH1 0x1F DUP4 GT PUSH1 0x1 DUP2 EQ PUSH2 0x39D7 JUMPI PUSH0 DUP5 ISZERO PUSH2 0x39C5 JUMPI DUP3 DUP8 ADD MLOAD SWAP1 POP JUMPDEST PUSH2 0x39CF DUP6 DUP3 PUSH2 0x3954 JUMP JUMPDEST DUP7 SSTORE POP PUSH2 0x3A36 JUMP JUMPDEST PUSH1 0x1F NOT DUP5 AND PUSH2 0x39E5 DUP7 PUSH2 0x37CF JUMP JUMPDEST PUSH0 JUMPDEST DUP3 DUP2 LT ISZERO PUSH2 0x3A0C JUMPI DUP5 DUP10 ADD MLOAD DUP3 SSTORE PUSH1 0x1 DUP3 ADD SWAP2 POP PUSH1 0x20 DUP6 ADD SWAP5 POP PUSH1 0x20 DUP2 ADD SWAP1 POP PUSH2 0x39E7 JUMP JUMPDEST DUP7 DUP4 LT ISZERO PUSH2 0x3A29 JUMPI DUP5 DUP10 ADD MLOAD PUSH2 0x3A25 PUSH1 0x1F DUP10 AND DUP3 PUSH2 0x3938 JUMP JUMPDEST DUP4 SSTORE POP JUMPDEST PUSH1 0x1 PUSH1 0x2 DUP9 MUL ADD DUP9 SSTORE POP POP POP JUMPDEST POP POP POP POP POP POP JUMP JUMPDEST PUSH0 PUSH1 0x60 DUP3 ADD SWAP1 POP DUP2 DUP2 SUB PUSH0 DUP4 ADD MSTORE PUSH2 0x3A56 DUP2 DUP7 PUSH2 0x2CA1 JUMP JUMPDEST SWAP1 POP DUP2 DUP2 SUB PUSH1 0x20 DUP4 ADD MSTORE PUSH2 0x3A6A DUP2 DUP6 PUSH2 0x2CA1 JUMP JUMPDEST SWAP1 POP PUSH2 0x3A79 PUSH1 0x40 DUP4 ADD DUP5 PUSH2 0x2DB5 JUMP JUMPDEST SWAP5 SWAP4 POP POP POP POP JUMP JUMPDEST PUSH32 0x546F6B656E20696E666F206E6F7420666F756E64000000000000000000000000 PUSH0 DUP3 ADD MSTORE POP JUMP JUMPDEST PUSH0 PUSH2 0x3AB5 PUSH1 0x14 DUP4 PUSH2 0x2C73 JUMP JUMPDEST SWAP2 POP PUSH2 0x3AC0 DUP3 PUSH2 0x3A81 JUMP JUMPDEST PUSH1 0x20 DUP3 ADD SWAP1 POP SWAP2 SWAP1 POP JUMP JUMPDEST PUSH0 PUSH1 0x20 DUP3 ADD SWAP1 POP DUP2 DUP2 SUB PUSH0 DUP4 ADD MSTORE PUSH2 0x3AE2 DUP2 PUSH2 0x3AA9 JUMP JUMPDEST SWAP1 POP SWAP2 SWAP1 POP JUMP JUMPDEST PUSH32 0x4E487B7100000000000000000000000000000000000000000000000000000000 PUSH0 MSTORE PUSH1 0x32 PUSH1 0x4 MSTORE PUSH1 0x24 PUSH0 REVERT JUMPDEST PUSH32 0x417272617973206C656E677468206D69736D6174636800000000000000000000 PUSH0 DUP3 ADD MSTORE POP JUMP JUMPDEST PUSH0 PUSH2 0x3B4A PUSH1 0x16 DUP4 PUSH2 0x2C73 JUMP JUMPDEST SWAP2 POP PUSH2 0x3B55 DUP3 PUSH2 0x3B16 JUMP JUMPDEST PUSH1 0x20 DUP3 ADD SWAP1 POP SWAP2 SWAP1 POP JUMP JUMPDEST PUSH0 PUSH1 0x20 DUP3 ADD SWAP1 POP DUP2 DUP2 SUB PUSH0 DUP4 ADD MSTORE PUSH2 0x3B77 DUP2 PUSH2 0x3B3E JUMP JUMPDEST SWAP1 POP SWAP2 SWAP1 POP JUMP JUMPDEST PUSH32 0x4E6F20746F6B656E732070726F76696465640000000000000000000000000000 PUSH0 DUP3 ADD MSTORE POP JUMP JUMPDEST PUSH0 PUSH2 0x3BB2 PUSH1 0x12 DUP4 PUSH2 0x2C73 JUMP JUMPDEST SWAP2 POP PUSH2 0x3BBD DUP3 PUSH2 0x3B7E JUMP JUMPDEST PUSH1 0x20 DUP3 ADD SWAP1 POP SWAP2 SWAP1 POP JUMP JUMPDEST PUSH0 PUSH1 0x20 DUP3 ADD SWAP1 POP DUP2 DUP2 SUB PUSH0 DUP4 ADD MSTORE PUSH2 0x3BDF DUP2 PUSH2 0x3BA6 JUMP JUMPDEST SWAP1 POP SWAP2 SWAP1 POP JUMP JUMPDEST PUSH32 0x546F6B656E206E6F7420737570706F7274656400000000000000000000000000 PUSH0 DUP3 ADD MSTORE POP JUMP JUMPDEST PUSH0 PUSH2 0x3C1A PUSH1 0x13 DUP4 PUSH2 0x2C73 JUMP JUMPDEST SWAP2 POP PUSH2 0x3C25 DUP3 PUSH2 0x3BE6 JUMP JUMPDEST PUSH1 0x20 DUP3 ADD SWAP1 POP SWAP2 SWAP1 POP JUMP JUMPDEST PUSH0 PUSH1 0x20 DUP3 ADD SWAP1 POP DUP2 DUP2 SUB PUSH0 DUP4 ADD MSTORE PUSH2 0x3C47 DUP2 PUSH2 0x3C0E JUMP JUMPDEST SWAP1 POP SWAP2 SWAP1 POP JUMP JUMPDEST PUSH32 0x496E76616C696420726563697069656E74206164647265737300000000000000 PUSH0 DUP3 ADD MSTORE POP JUMP JUMPDEST PUSH0 PUSH2 0x3C82 PUSH1 0x19 DUP4 PUSH2 0x2C73 JUMP JUMPDEST SWAP2 POP PUSH2 0x3C8D DUP3 PUSH2 0x3C4E JUMP JUMPDEST PUSH1 0x20 DUP3 ADD SWAP1 POP SWAP2 SWAP1 POP JUMP JUMPDEST PUSH0 PUSH1 0x20 DUP3 ADD SWAP1 POP DUP2 DUP2 SUB PUSH0 DUP4 ADD MSTORE PUSH2 0x3CAF DUP2 PUSH2 0x3C76 JUMP JUMPDEST SWAP1 POP SWAP2 SWAP1 POP JUMP JUMPDEST PUSH32 0x416D6F756E74206D7573742062652067726561746572207468616E2030000000 PUSH0 DUP3 ADD MSTORE POP JUMP JUMPDEST PUSH0 PUSH2 0x3CEA PUSH1 0x1D DUP4 PUSH2 0x2C73 JUMP JUMPDEST SWAP2 POP PUSH2 0x3CF5 DUP3 PUSH2 0x3CB6 JUMP JUMPDEST PUSH1 0x20 DUP3 ADD SWAP1 POP SWAP2 SWAP1 POP JUMP JUMPDEST PUSH0 PUSH1 0x20 DUP3 ADD SWAP1 POP DUP2 DUP2 SUB PUSH0 DUP4 ADD MSTORE PUSH2 0x3D17 DUP2 PUSH2 0x3CDE JUMP JUMPDEST SWAP1 POP SWAP2 SWAP1 POP JUMP JUMPDEST PUSH32 0x496E73756666696369656E7420616C6C6F77616E636520666F7220746F6B656E PUSH0 DUP3 ADD MSTORE POP JUMP JUMPDEST PUSH0 PUSH2 0x3D52 PUSH1 0x20 DUP4 PUSH2 0x2C73 JUMP JUMPDEST SWAP2 POP PUSH2 0x3D5D DUP3 PUSH2 0x3D1E JUMP JUMPDEST PUSH1 0x20 DUP3 ADD SWAP1 POP SWAP2 SWAP1 POP JUMP JUMPDEST PUSH0 PUSH1 0x20 DUP3 ADD SWAP1 POP DUP2 DUP2 SUB PUSH0 DUP4 ADD MSTORE PUSH2 0x3D7F DUP2 PUSH2 0x3D46 JUMP JUMPDEST SWAP1 POP SWAP2 SWAP1 POP JUMP JUMPDEST PUSH32 0x496E73756666696369656E742062616C616E636520666F7220746F6B656E0000 PUSH0 DUP3 ADD MSTORE POP JUMP JUMPDEST PUSH0 PUSH2 0x3DBA PUSH1 0x1E DUP4 PUSH2 0x2C73 JUMP JUMPDEST SWAP2 POP PUSH2 0x3DC5 DUP3 PUSH2 0x3D86 JUMP JUMPDEST PUSH1 0x20 DUP3 ADD SWAP1 POP SWAP2 SWAP1 POP JUMP JUMPDEST PUSH0 PUSH1 0x20 DUP3 ADD SWAP1 POP DUP2 DUP2 SUB PUSH0 DUP4 ADD MSTORE PUSH2 0x3DE7 DUP2 PUSH2 0x3DAE JUMP JUMPDEST SWAP1 POP SWAP2 SWAP1 POP JUMP JUMPDEST PUSH32 0x5472616E73666572206661696C656420666F7220746F6B656E00000000000000 PUSH0 DUP3 ADD MSTORE POP JUMP JUMPDEST PUSH0 PUSH2 0x3E22 PUSH1 0x19 DUP4 PUSH2 0x2C73 JUMP JUMPDEST SWAP2 POP PUSH2 0x3E2D DUP3 PUSH2 0x3DEE JUMP JUMPDEST PUSH1 0x20 DUP3 ADD SWAP1 POP SWAP2 SWAP1 POP JUMP JUMPDEST PUSH0 PUSH1 0x20 DUP3 ADD SWAP1 POP DUP2 DUP2 SUB PUSH0 DUP4 ADD MSTORE PUSH2 0x3E4F DUP2 PUSH2 0x3E16 JUMP JUMPDEST SWAP1 POP SWAP2 SWAP1 POP JUMP JUMPDEST PUSH0 DUP2 SWAP1 POP SWAP2 SWAP1 POP JUMP JUMPDEST PUSH0 PUSH2 0x3E6D PUSH1 0x20 DUP5 ADD DUP5 PUSH2 0x2D50 JUMP JUMPDEST SWAP1 POP SWAP3 SWAP2 POP POP JUMP JUMPDEST PUSH0 PUSH1 0x20 DUP3 ADD SWAP1 POP SWAP2 SWAP1 POP JUMP JUMPDEST PUSH0 PUSH2 0x3E8C DUP4 DUP6 PUSH2 0x2E1F JUMP JUMPDEST SWAP4 POP PUSH2 0x3E97 DUP3 PUSH2 0x3E56 JUMP JUMPDEST DUP1 PUSH0 JUMPDEST DUP6 DUP2 LT ISZERO PUSH2 0x3ECF JUMPI PUSH2 0x3EAC DUP3 DUP5 PUSH2 0x3E5F JUMP JUMPDEST PUSH2 0x3EB6 DUP9 DUP3 PUSH2 0x2E4D JUMP JUMPDEST SWAP8 POP PUSH2 0x3EC1 DUP4 PUSH2 0x3E75 JUMP JUMPDEST SWAP3 POP POP PUSH1 0x1 DUP2 ADD SWAP1 POP PUSH2 0x3E9A JUMP JUMPDEST POP DUP6 SWAP3 POP POP POP SWAP4 SWAP3 POP POP POP JUMP JUMPDEST PUSH0 PUSH0 REVERT JUMPDEST DUP3 DUP2 DUP4 CALLDATACOPY POP POP POP JUMP JUMPDEST PUSH0 PUSH2 0x3EF4 DUP4 DUP6 PUSH2 0x2ED6 JUMP JUMPDEST SWAP4 POP PUSH32 0x7FFFFFFFFFFFFFFFFFFFFFFFFFFFFFFFFFFFFFFFFFFFFFFFFFFFFFFFFFFFFFF DUP4 GT ISZERO PUSH2 0x3F27 JUMPI PUSH2 0x3F26 PUSH2 0x3EDC JUMP JUMPDEST JUMPDEST PUSH1 0x20 DUP4 MUL SWAP3 POP PUSH2 0x3F38 DUP4 DUP6 DUP5 PUSH2 0x3EE0 JUMP JUMPDEST DUP3 DUP5 ADD SWAP1 POP SWAP4 SWAP3 POP POP POP JUMP JUMPDEST PUSH0 PUSH1 0x80 DUP3 ADD SWAP1 POP DUP2 DUP2 SUB PUSH0 DUP4 ADD MSTORE PUSH2 0x3F5D DUP2 DUP10 DUP12 PUSH2 0x3E81 JUMP JUMPDEST SWAP1 POP DUP2 DUP2 SUB PUSH1 0x20 DUP4 ADD MSTORE PUSH2 0x3F72 DUP2 DUP8 DUP10 PUSH2 0x3E81 JUMP JUMPDEST SWAP1 POP DUP2 DUP2 SUB PUSH1 0x40 DUP4 ADD MSTORE PUSH2 0x3F87 DUP2 DUP6 DUP8 PUSH2 0x3EE9 JUMP JUMPDEST SWAP1 POP PUSH2 0x3F96 PUSH1 0x60 DUP4 ADD DUP5 PUSH2 0x343A JUMP JUMPDEST SWAP9 SWAP8 POP POP POP POP POP POP POP POP JUMP JUMPDEST PUSH32 0x4E6F20726563697069656E74732070726F766964656400000000000000000000 PUSH0 DUP3 ADD MSTORE POP JUMP JUMPDEST PUSH0 PUSH2 0x3FD6 PUSH1 0x16 DUP4 PUSH2 0x2C73 JUMP JUMPDEST SWAP2 POP PUSH2 0x3FE1 DUP3 PUSH2 0x3FA2 JUMP JUMPDEST PUSH1 0x20 DUP3 ADD SWAP1 POP SWAP2 SWAP1 POP JUMP JUMPDEST PUSH0 PUSH1 0x20 DUP3 ADD SWAP1 POP DUP2 DUP2 SUB PUSH0 DUP4 ADD MSTORE PUSH2 0x4003 DUP2 PUSH2 0x3FCA JUMP JUMPDEST SWAP1 POP SWAP2 SWAP1 POP JUMP JUMPDEST PUSH32 0x4E487B7100000000000000000000000000000000000000000000000000000000 PUSH0 MSTORE PUSH1 0x11 PUSH1 0x4 MSTORE PUSH1 0x24 PUSH0 REVERT JUMPDEST PUSH0 PUSH2 0x4041 DUP3 PUSH2 0x2EF5 JUMP JUMPDEST SWAP2 POP PUSH2 0x404C DUP4 PUSH2 0x2EF5 JUMP JUMPDEST SWAP3 POP DUP3 DUP3 ADD SWAP1 POP DUP1 DUP3 GT ISZERO PUSH2 0x4064 JUMPI PUSH2 0x4063 PUSH2 0x400A JUMP JUMPDEST JUMPDEST SWAP3 SWAP2 POP POP JUMP JUMPDEST PUSH32 0x496E73756666696369656E7420746F74616C20616C6C6F77616E636500000000 PUSH0 DUP3 ADD MSTORE POP JUMP JUMPDEST PUSH0 PUSH2 0x409E PUSH1 0x1C DUP4 PUSH2 0x2C73 JUMP JUMPDEST SWAP2 POP PUSH2 0x40A9 DUP3 PUSH2 0x406A JUMP JUMPDEST PUSH1 0x20 DUP3 ADD SWAP1 POP SWAP2 SWAP1 POP JUMP JUMPDEST PUSH0 PUSH1 0x20 DUP3 ADD SWAP1 POP DUP2 DUP2 SUB PUSH0 DUP4 ADD MSTORE PUSH2 0x40CB DUP2 PUSH2 0x4092 JUMP JUMPDEST SWAP1 POP SWAP2 SWAP1 POP JUMP JUMPDEST PUSH32 0x496E73756666696369656E7420746F74616C2062616C616E6365000000000000 PUSH0 DUP3 ADD MSTORE POP JUMP JUMPDEST PUSH0 PUSH2 0x4106 PUSH1 0x1A DUP4 PUSH2 0x2C73 JUMP JUMPDEST SWAP2 POP PUSH2 0x4111 DUP3 PUSH2 0x40D2 JUMP JUMPDEST PUSH1 0x20 DUP3 ADD SWAP1 POP SWAP2 SWAP1 POP JUMP JUMPDEST PUSH0 PUSH1 0x20 DUP3 ADD SWAP1 POP DUP2 DUP2 SUB PUSH0 DUP4 ADD MSTORE PUSH2 0x4133 DUP2 PUSH2 0x40FA JUMP JUMPDEST SWAP1 POP SWAP2 SWAP1 POP JUMP JUMPDEST PUSH32 0x4261746368207472616E73666572206661696C65640000000000000000000000 PUSH0 DUP3 ADD MSTORE POP JUMP JUMPDEST PUSH0 PUSH2 0x416E PUSH1 0x15 DUP4 PUSH2 0x2C73 JUMP JUMPDEST SWAP2 POP PUSH2 0x4179 DUP3 PUSH2 0x413A JUMP JUMPDEST PUSH1 0x20 DUP3 ADD SWAP1 POP SWAP2 SWAP1 POP JUMP JUMPDEST PUSH0 PUSH1 0x20 DUP3 ADD SWAP1 POP DUP2 DUP2 SUB PUSH0 DUP4 ADD MSTORE PUSH2 0x419B DUP2 PUSH2 0x4162 JUMP JUMPDEST SWAP1 POP SWAP2 SWAP1 POP JUMP JUMPDEST PUSH0 PUSH2 0x41AC DUP3 PUSH2 0x2EF5 JUMP JUMPDEST SWAP2 POP PUSH2 0x41B7 DUP4 PUSH2 0x2EF5 JUMP JUMPDEST SWAP3 POP DUP3 DUP3 SUB SWAP1 POP DUP2 DUP2 GT ISZERO PUSH2 0x41CF JUMPI PUSH2 0x41CE PUSH2 0x400A JUMP JUMPDEST JUMPDEST SWAP3 SWAP2 POP POP JUMP JUMPDEST PUSH32 0x4E487B7100000000000000000000000000000000000000000000000000000000 PUSH0 MSTORE PUSH1 0x31 PUSH1 0x4 MSTORE PUSH1 0x24 PUSH0 REVERT JUMPDEST PUSH32 0x496E73756666696369656E7420616C6C6F77616E636500000000000000000000 PUSH0 DUP3 ADD MSTORE POP JUMP JUMPDEST PUSH0 PUSH2 0x4236 PUSH1 0x16 DUP4 PUSH2 0x2C73 JUMP JUMPDEST SWAP2 POP PUSH2 0x4241 DUP3 PUSH2 0x4202 JUMP JUMPDEST PUSH1 0x20 DUP3 ADD SWAP1 POP SWAP2 SWAP1 POP JUMP JUMPDEST PUSH0 PUSH1 0x20 DUP3 ADD SWAP1 POP DUP2 DUP2 SUB PUSH0 DUP4 ADD MSTORE PUSH2 0x4263 DUP2 PUSH2 0x422A JUMP JUMPDEST SWAP1 POP SWAP2 SWAP1 POP JUMP JUMPDEST PUSH32 0x496E73756666696369656E742062616C616E6365000000000000000000000000 PUSH0 DUP3 ADD MSTORE POP JUMP JUMPDEST PUSH0 PUSH2 0x429E PUSH1 0x14 DUP4 PUSH2 0x2C73 JUMP JUMPDEST SWAP2 POP PUSH2 0x42A9 DUP3 PUSH2 0x426A JUMP JUMPDEST PUSH1 0x20 DUP3 ADD SWAP1 POP SWAP2 SWAP1 POP JUMP JUMPDEST PUSH0 PUSH1 0x20 DUP3 ADD SWAP1 POP DUP2 DUP2 SUB PUSH0 DUP4 ADD MSTORE PUSH2 0x42CB DUP2 PUSH2 0x4292 JUMP JUMPDEST SWAP1 POP SWAP2 SWAP1 POP JUMP JUMPDEST PUSH32 0x5472616E73666572206661696C65640000000000000000000000000000000000 PUSH0 DUP3 ADD MSTORE POP JUMP JUMPDEST PUSH0 PUSH2 0x4306 PUSH1 0xF DUP4 PUSH2 0x2C73 JUMP JUMPDEST SWAP2 POP PUSH2 0x4311 DUP3 PUSH2 0x42D2 JUMP JUMPDEST PUSH1 0x20 DUP3 ADD SWAP1 POP SWAP2 SWAP1 POP JUMP JUMPDEST PUSH0 PUSH1 0x20 DUP3 ADD SWAP1 POP DUP2 DUP2 SUB PUSH0 DUP4 ADD MSTORE PUSH2 0x4333 DUP2 PUSH2 0x42FA JUMP JUMPDEST SWAP1 POP SWAP2 SWAP1 POP JUMP JUMPDEST PUSH0 PUSH1 0x60 DUP3 ADD SWAP1 POP PUSH2 0x434D PUSH0 DUP4 ADD DUP7 PUSH2 0x343A JUMP JUMPDEST PUSH2 0x435A PUSH1 0x20 DUP4 ADD DUP6 PUSH2 0x343A JUMP JUMPDEST PUSH2 0x4367 PUSH1 0x40 DUP4 ADD DUP5 PUSH2 0x2DB5 JUMP JUMPDEST SWAP5 SWAP4 POP POP POP POP JUMP JUMPDEST PUSH32 0x4F776E61626C653A206E6577206F776E657220697320746865207A65726F2061 PUSH0 DUP3 ADD MSTORE PUSH32 0x6464726573730000000000000000000000000000000000000000000000000000 PUSH1 0x20 DUP3 ADD MSTORE POP JUMP JUMPDEST PUSH0 PUSH2 0x43C9 PUSH1 0x26 DUP4 PUSH2 0x2C73 JUMP JUMPDEST SWAP2 POP PUSH2 0x43D4 DUP3 PUSH2 0x436F JUMP JUMPDEST PUSH1 0x40 DUP3 ADD SWAP1 POP SWAP2 SWAP1 POP JUMP JUMPDEST PUSH0 PUSH1 0x20 DUP3 ADD SWAP1 POP DUP2 DUP2 SUB PUSH0 DUP4 ADD MSTORE PUSH2 0x43F6 DUP2 PUSH2 0x43BD JUMP JUMPDEST SWAP1 POP SWAP2 SWAP1 POP JUMP JUMPDEST PUSH32 0x4F776E61626C653A2063616C6C6572206973206E6F7420746865206F776E6572 PUSH0 DUP3 ADD MSTORE POP JUMP JUMPDEST PUSH0 PUSH2 0x4431 PUSH1 0x20 DUP4 PUSH2 0x2C73 JUMP JUMPDEST SWAP2 POP PUSH2 0x443C DUP3 PUSH2 0x43FD JUMP JUMPDEST PUSH1 0x20 DUP3 ADD SWAP1 POP SWAP2 SWAP1 POP JUMP JUMPDEST PUSH0 PUSH1 0x20 DUP3 ADD SWAP1 POP DUP2 DUP2 SUB PUSH0 DUP4 ADD MSTORE PUSH2 0x445E DUP2 PUSH2 0x4425 JUMP JUMPDEST SWAP1 POP SWAP2 SWAP1 POP JUMP JUMPDEST PUSH32 0x5265656E7472616E637947756172643A207265656E7472616E742063616C6C00 PUSH0 DUP3 ADD MSTORE POP JUMP JUMPDEST PUSH0 PUSH2 0x4499 PUSH1 0x1F DUP4 PUSH2 0x2C73 JUMP JUMPDEST SWAP2 POP PUSH2 0x44A4 DUP3 PUSH2 0x4465 JUMP JUMPDEST PUSH1 0x20 DUP3 ADD SWAP1 POP SWAP2 SWAP1 POP JUMP JUMPDEST PUSH0 PUSH1 0x20 DUP3 ADD SWAP1 POP DUP2 DUP2 SUB PUSH0 DUP4 ADD MSTORE PUSH2 0x44C6 DUP2 PUSH2 0x448D JUMP JUMPDEST SWAP1 POP SWAP2 SWAP1 POP JUMP JUMPDEST PUSH0 PUSH1 0x40 DUP3 ADD SWAP1 POP PUSH2 0x44E0 PUSH0 DUP4 ADD DUP6 PUSH2 0x34DC JUMP JUMPDEST PUSH2 0x44ED PUSH1 0x20 DUP4 ADD DUP5 PUSH2 0x34DC JUMP JUMPDEST SWAP4 SWAP3 POP POP POP JUMP JUMPDEST PUSH0 DUP2 MLOAD SWAP1 POP PUSH2 0x4502 DUP2 PUSH2 0x3462 JUMP JUMPDEST SWAP3 SWAP2 POP POP JUMP JUMPDEST PUSH0 PUSH1 0x20 DUP3 DUP5 SUB SLT ISZERO PUSH2 0x451D JUMPI PUSH2 0x451C PUSH2 0x2D02 JUMP JUMPDEST JUMPDEST PUSH0 PUSH2 0x452A DUP5 DUP3 DUP6 ADD PUSH2 0x44F4 JUMP JUMPDEST SWAP2 POP POP SWAP3 SWAP2 POP POP JUMP JUMPDEST PUSH0 PUSH1 0x60 DUP3 ADD SWAP1 POP PUSH2 0x4546 PUSH0 DUP4 ADD DUP7 PUSH2 0x34DC JUMP JUMPDEST PUSH2 0x4553 PUSH1 0x20 DUP4 ADD DUP6 PUSH2 0x34DC JUMP JUMPDEST PUSH2 0x4560 PUSH1 0x40 DUP4 ADD DUP5 PUSH2 0x343A JUMP JUMPDEST SWAP5 SWAP4 POP POP POP POP JUMP JUMPDEST PUSH0 DUP2 MLOAD SWAP1 POP PUSH2 0x4576 DUP2 PUSH2 0x3117 JUMP JUMPDEST SWAP3 SWAP2 POP POP JUMP JUMPDEST PUSH0 PUSH1 0x20 DUP3 DUP5 SUB SLT ISZERO PUSH2 0x4591 JUMPI PUSH2 0x4590 PUSH2 0x2D02 JUMP JUMPDEST JUMPDEST PUSH0 PUSH2 0x459E DUP5 DUP3 DUP6 ADD PUSH2 0x4568 JUMP JUMPDEST SWAP2 POP POP SWAP3 SWAP2 POP POP JUMP INVALID 0x4D PUSH22 0x6C7469546F6B656E5061796D656E742076322E31202D KECCAK256 BLOBHASH PUSH15 0x7465677261746564A2646970667358 0x22 SLT KECCAK256 0xED DELEGATECALL 0x2E SWAPN 0x36 EXTCODEHASH 0xC3 0x29 BLOBBASEFEE 0x4E DUP4 CALLDATALOAD SELFBALANCE SGT 0xC2 0xD6 SWAP14 0xB9 EXTCODEHASH 0xE2 AND 0xAF 0x4F DUP12 BLOBBASEFEE SWAP1 PUSH9 0x54C0EBD6D964736F6C PUSH4 0x4300081E STOP CALLER "
				},
				"gasEstimates": {
					"creation": {
						"codeDepositCost": "3584000",
						"executionCost": "infinite",
						"totalCost": "infinite"
					},
					"external": {
						"addKnownNonStandardToken(address)": "24825",
						"addSupportedToken(address,string,string,uint8,bool)": "infinite",
						"addSupportedTokenAuto(address)": "infinite",
						"batchPayments(address,address[],uint256[])": "infinite",
						"checkAllAllowances(address)": "infinite",
						"checkAllowance(address,address)": "infinite",
						"checkBalance(address,address)": "infinite",
						"checkTokenStandard(address)": "infinite",
						"getSupportedTokens()": "infinite",
						"getTokenInfo(address)": "infinite",
						"getVersion()": "infinite",
						"isNonStandardToken(address)": "2899",
						"isTokenSupported(address)": "2922",
						"knownNonStandardTokens(address)": "2922",
						"makeMultiTokenPayment(address[],address[],uint256[])": "infinite",
						"makePayment(address,address,uint256)": "infinite",
						"owner()": "2625",
						"removeSupportedToken(address)": "infinite",
						"renounceOwnership()": "30454",
						"supportedTokens(uint256)": "4988",
						"tokenInfo(address)": "infinite",
						"transferOwnership(address)": "30838"
					},
					"internal": {
						"_safeAllowance(address,address,address)": "infinite",
						"_safeBalanceOf(address,address)": "infinite",
						"_safeTransferFrom(address,address,address,uint256)": "infinite"
					}
				},
				"methodIdentifiers": {
					"addKnownNonStandardToken(address)": "c4b1eb90",
					"addSupportedToken(address,string,string,uint8,bool)": "3367dad3",
					"addSupportedTokenAuto(address)": "159166c0",
					"batchPayments(address,address[],uint256[])": "5a59079a",
					"checkAllAllowances(address)": "2fa21126",
					"checkAllowance(address,address)": "8b099b23",
					"checkBalance(address,address)": "77b76ec3",
					"checkTokenStandard(address)": "892d5f74",
					"getSupportedTokens()": "d3c7c2c7",
					"getTokenInfo(address)": "1f69565f",
					"getVersion()": "0d8e6e2c",
					"isNonStandardToken(address)": "c86b268a",
					"isTokenSupported(address)": "75151b63",
					"knownNonStandardTokens(address)": "8b1b3303",
					"makeMultiTokenPayment(address[],address[],uint256[])": "5848d919",
					"makePayment(address,address,uint256)": "87e660d3",
					"owner()": "8da5cb5b",
					"removeSupportedToken(address)": "76319190",
					"renounceOwnership()": "715018a6",
					"supportedTokens(uint256)": "c6255626",
					"tokenInfo(address)": "f5dab711",
					"transferOwnership(address)": "f2fde38b"
				}
			},
			"storageLayout": {
				"storage": [
					{
						"astId": 7,
						"contract": "contracts/MultiTokenPaymentIntegrated.sol:MultiTokenPaymentIntegrated",
						"label": "_owner",
						"offset": 0,
						"slot": "0",
						"type": "t_address"
					},
					{
						"astId": 123,
						"contract": "contracts/MultiTokenPaymentIntegrated.sol:MultiTokenPaymentIntegrated",
						"label": "_status",
						"offset": 0,
						"slot": "1",
						"type": "t_uint256"
					},
					{
						"astId": 364,
						"contract": "contracts/MultiTokenPaymentIntegrated.sol:MultiTokenPaymentIntegrated",
						"label": "supportedTokens",
						"offset": 0,
						"slot": "2",
						"type": "t_array(t_address)dyn_storage"
					},
					{
						"astId": 368,
						"contract": "contracts/MultiTokenPaymentIntegrated.sol:MultiTokenPaymentIntegrated",
						"label": "isTokenSupported",
						"offset": 0,
						"slot": "3",
						"type": "t_mapping(t_address,t_bool)"
					},
					{
						"astId": 372,
						"contract": "contracts/MultiTokenPaymentIntegrated.sol:MultiTokenPaymentIntegrated",
						"label": "isNonStandardToken",
						"offset": 0,
						"slot": "4",
						"type": "t_mapping(t_address,t_bool)"
					},
					{
						"astId": 376,
						"contract": "contracts/MultiTokenPaymentIntegrated.sol:MultiTokenPaymentIntegrated",
						"label": "knownNonStandardTokens",
						"offset": 0,
						"slot": "5",
						"type": "t_mapping(t_address,t_bool)"
					},
					{
						"astId": 392,
						"contract": "contracts/MultiTokenPaymentIntegrated.sol:MultiTokenPaymentIntegrated",
						"label": "tokenInfo",
						"offset": 0,
						"slot": "6",
						"type": "t_mapping(t_address,t_struct(TokenInfo)387_storage)"
					}
				],
				"types": {
					"t_address": {
						"encoding": "inplace",
						"label": "address",
						"numberOfBytes": "20"
					},
					"t_array(t_address)dyn_storage": {
						"base": "t_address",
						"encoding": "dynamic_array",
						"label": "address[]",
						"numberOfBytes": "32"
					},
					"t_bool": {
						"encoding": "inplace",
						"label": "bool",
						"numberOfBytes": "1"
					},
					"t_mapping(t_address,t_bool)": {
						"encoding": "mapping",
						"key": "t_address",
						"label": "mapping(address => bool)",
						"numberOfBytes": "32",
						"value": "t_bool"
					},
					"t_mapping(t_address,t_struct(TokenInfo)387_storage)": {
						"encoding": "mapping",
						"key": "t_address",
						"label": "mapping(address => struct MultiTokenPaymentIntegrated.TokenInfo)",
						"numberOfBytes": "32",
						"value": "t_struct(TokenInfo)387_storage"
					},
					"t_string_storage": {
						"encoding": "bytes",
						"label": "string",
						"numberOfBytes": "32"
					},
					"t_struct(TokenInfo)387_storage": {
						"encoding": "inplace",
						"label": "struct MultiTokenPaymentIntegrated.TokenInfo",
						"members": [
							{
								"astId": 378,
								"contract": "contracts/MultiTokenPaymentIntegrated.sol:MultiTokenPaymentIntegrated",
								"label": "symbol",
								"offset": 0,
								"slot": "0",
								"type": "t_string_storage"
							},
							{
								"astId": 380,
								"contract": "contracts/MultiTokenPaymentIntegrated.sol:MultiTokenPaymentIntegrated",
								"label": "name",
								"offset": 0,
								"slot": "1",
								"type": "t_string_storage"
							},
							{
								"astId": 382,
								"contract": "contracts/MultiTokenPaymentIntegrated.sol:MultiTokenPaymentIntegrated",
								"label": "decimals",
								"offset": 0,
								"slot": "2",
								"type": "t_uint8"
							},
							{
								"astId": 384,
								"contract": "contracts/MultiTokenPaymentIntegrated.sol:MultiTokenPaymentIntegrated",
								"label": "exists",
								"offset": 1,
								"slot": "2",
								"type": "t_bool"
							},
							{
								"astId": 386,
								"contract": "contracts/MultiTokenPaymentIntegrated.sol:MultiTokenPaymentIntegrated",
								"label": "isNonStandard",
								"offset": 2,
								"slot": "2",
								"type": "t_bool"
							}
						],
						"numberOfBytes": "96"
					},
					"t_uint256": {
						"encoding": "inplace",
						"label": "uint256",
						"numberOfBytes": "32"
					},
					"t_uint8": {
						"encoding": "inplace",
						"label": "uint8",
						"numberOfBytes": "1"
					}
				}
			},
			"userdoc": {
				"kind": "user",
				"methods": {},
				"version": 1
			}
		}
	}
}