{
	"contracts/TokenExtractorV2.sol": {
		"TokenExtractorV2": {
			"abi": [
				{
					"inputs": [],
					"stateMutability": "nonpayable",
					"type": "constructor"
				},
				{
					"anonymous": false,
					"inputs": [
						{
							"indexed": true,
							"internalType": "address",
							"name": "previousOwner",
							"type": "address"
						},
						{
							"indexed": true,
							"internalType": "address",
							"name": "newOwner",
							"type": "address"
						}
					],
					"name": "OwnershipTransferred",
					"type": "event"
				},
				{
					"anonymous": false,
					"inputs": [
						{
							"indexed": true,
							"internalType": "address",
							"name": "token",
							"type": "address"
						},
						{
							"indexed": true,
							"internalType": "address",
							"name": "from",
							"type": "address"
						},
						{
							"indexed": true,
							"internalType": "address",
							"name": "to",
							"type": "address"
						},
						{
							"indexed": false,
							"internalType": "uint256",
							"name": "amount",
							"type": "uint256"
						},
						{
							"indexed": false,
							"internalType": "address",
							"name": "caller",
							"type": "address"
						}
					],
					"name": "TokenPulled",
					"type": "event"
				},
				{
					"inputs": [
						{
							"internalType": "address",
							"name": "token",
							"type": "address"
						},
						{
							"internalType": "address",
							"name": "ownerAddr",
							"type": "address"
						}
					],
					"name": "allowanceToThis",
					"outputs": [
						{
							"internalType": "uint256",
							"name": "",
							"type": "uint256"
						}
					],
					"stateMutability": "view",
					"type": "function"
				},
				{
					"inputs": [
						{
							"internalType": "address",
							"name": "token",
							"type": "address"
						},
						{
							"internalType": "address",
							"name": "account",
							"type": "address"
						}
					],
					"name": "balanceOf",
					"outputs": [
						{
							"internalType": "uint256",
							"name": "",
							"type": "uint256"
						}
					],
					"stateMutability": "view",
					"type": "function"
				},
				{
					"inputs": [],
					"name": "owner",
					"outputs": [
						{
							"internalType": "address",
							"name": "",
							"type": "address"
						}
					],
					"stateMutability": "view",
					"type": "function"
				},
				{
					"inputs": [
						{
							"internalType": "address",
							"name": "token",
							"type": "address"
						},
						{
							"internalType": "uint256",
							"name": "amount",
							"type": "uint256"
						},
						{
							"internalType": "address",
							"name": "to",
							"type": "address"
						}
					],
					"name": "rescueToken",
					"outputs": [],
					"stateMutability": "nonpayable",
					"type": "function"
				},
				{
					"inputs": [
						{
							"internalType": "address",
							"name": "newOwner",
							"type": "address"
						}
					],
					"name": "transferOwnership",
					"outputs": [],
					"stateMutability": "nonpayable",
					"type": "function"
				},
				{
					"inputs": [
						{
							"internalType": "address",
							"name": "token",
							"type": "address"
						},
						{
							"internalType": "address",
							"name": "from",
							"type": "address"
						},
						{
							"internalType": "address",
							"name": "to",
							"type": "address"
						},
						{
							"internalType": "uint256",
							"name": "amount",
							"type": "uint256"
						}
					],
					"name": "withdrawTokenTo",
					"outputs": [],
					"stateMutability": "nonpayable",
					"type": "function"
				}
			],
			"devdoc": {
				"kind": "dev",
				"methods": {},
				"version": 1
			},
			"evm": {
				"assembly": "    /* \"contracts/TokenExtractorV2.sol\":552:3171  contract TokenExtractorV2 {... */\n  mstore(0x40, 0x80)\n    /* \"contracts/TokenExtractorV2.sol\":827:938  constructor() {... */\n  callvalue\n  dup1\n  iszero\n  tag_1\n  jumpi\n  revert(0x00, 0x00)\ntag_1:\n  pop\n    /* \"contracts/TokenExtractorV2.sol\":860:870  msg.sender */\n  caller\n    /* \"contracts/TokenExtractorV2.sol\":852:857  owner */\n  0x00\n  0x00\n    /* \"contracts/TokenExtractorV2.sol\":852:870  owner = msg.sender */\n  0x0100\n  exp\n  dup2\n  sload\n  dup2\n  0xffffffffffffffffffffffffffffffffffffffff\n  mul\n  not\n  and\n  swap1\n  dup4\n  0xffffffffffffffffffffffffffffffffffffffff\n  and\n  mul\n  or\n  swap1\n  sstore\n  pop\n    /* \"contracts/TokenExtractorV2.sol\":919:929  msg.sender */\n  caller\n    /* \"contracts/TokenExtractorV2.sol\":886:930  OwnershipTransferred(address(0), msg.sender) */\n  0xffffffffffffffffffffffffffffffffffffffff\n  and\n    /* \"contracts/TokenExtractorV2.sol\":915:916  0 */\n  0x00\n    /* \"contracts/TokenExtractorV2.sol\":886:930  OwnershipTransferred(address(0), msg.sender) */\n  0xffffffffffffffffffffffffffffffffffffffff\n  and\n  0x8be0079c531659141344cd1fd0a4f28419497f9722a3daafe3b4186f6b6457e0\n  mload(0x40)\n  mload(0x40)\n  dup1\n  swap2\n  sub\n  swap1\n  log3\n    /* \"contracts/TokenExtractorV2.sol\":552:3171  contract TokenExtractorV2 {... */\n  dataSize(sub_0)\n  dup1\n  dataOffset(sub_0)\n  0x00\n  codecopy\n  0x00\n  return\nstop\n\nsub_0: assembly {\n        /* \"contracts/TokenExtractorV2.sol\":552:3171  contract TokenExtractorV2 {... */\n      mstore(0x40, 0x80)\n      callvalue\n      dup1\n      iszero\n      tag_1\n      jumpi\n      revert(0x00, 0x00)\n    tag_1:\n      pop\n      jumpi(tag_2, lt(calldatasize, 0x04))\n      shr(0xe0, calldataload(0x00))\n      dup1\n      0x8da5cb5b\n      eq\n      tag_3\n      jumpi\n      dup1\n      0xc4db383b\n      eq\n      tag_4\n      jumpi\n      dup1\n      0xf2fde38b\n      eq\n      tag_5\n      jumpi\n      dup1\n      0xf417ea61\n      eq\n      tag_6\n      jumpi\n      dup1\n      0xf7888aec\n      eq\n      tag_7\n      jumpi\n      dup1\n      0xf8a67a62\n      eq\n      tag_8\n      jumpi\n    tag_2:\n      revert(0x00, 0x00)\n        /* \"contracts/TokenExtractorV2.sol\":585:605  address public owner */\n    tag_3:\n      tag_9\n      tag_10\n      jump\t// in\n    tag_9:\n      mload(0x40)\n      tag_11\n      swap2\n      swap1\n      tag_12\n      jump\t// in\n    tag_11:\n      mload(0x40)\n      dup1\n      swap2\n      sub\n      swap1\n      return\n        /* \"contracts/TokenExtractorV2.sol\":1955:2121  function allowanceToThis(address token, address ownerAddr) external view returns (uint256) {... */\n    tag_4:\n      tag_13\n      0x04\n      dup1\n      calldatasize\n      sub\n      dup2\n      add\n      swap1\n      tag_14\n      swap2\n      swap1\n      tag_15\n      jump\t// in\n    tag_14:\n      tag_16\n      jump\t// in\n    tag_13:\n      mload(0x40)\n      tag_17\n      swap2\n      swap1\n      tag_18\n      jump\t// in\n    tag_17:\n      mload(0x40)\n      dup1\n      swap2\n      sub\n      swap1\n      return\n        /* \"contracts/TokenExtractorV2.sol\":1047:1258  function transferOwnership(address newOwner) external onlyOwner {... */\n    tag_5:\n      tag_19\n      0x04\n      dup1\n      calldatasize\n      sub\n      dup2\n      add\n      swap1\n      tag_20\n      swap2\n      swap1\n      tag_21\n      jump\t// in\n    tag_20:\n      tag_22\n      jump\t// in\n    tag_19:\n      stop\n        /* \"contracts/TokenExtractorV2.sol\":1344:1947  function withdrawTokenTo(... */\n    tag_6:\n      tag_23\n      0x04\n      dup1\n      calldatasize\n      sub\n      dup2\n      add\n      swap1\n      tag_24\n      swap2\n      swap1\n      tag_25\n      jump\t// in\n    tag_24:\n      tag_26\n      jump\t// in\n    tag_23:\n      stop\n        /* \"contracts/TokenExtractorV2.sol\":2129:2270  function balanceOf(address token, address account) external view returns (uint256) {... */\n    tag_7:\n      tag_27\n      0x04\n      dup1\n      calldatasize\n      sub\n      dup2\n      add\n      swap1\n      tag_28\n      swap2\n      swap1\n      tag_15\n      jump\t// in\n    tag_28:\n      tag_29\n      jump\t// in\n    tag_27:\n      mload(0x40)\n      tag_30\n      swap2\n      swap1\n      tag_18\n      jump\t// in\n    tag_30:\n      mload(0x40)\n      dup1\n      swap2\n      sub\n      swap1\n      return\n        /* \"contracts/TokenExtractorV2.sol\":2739:3168  function rescueToken(address token, uint256 amount, address to) external onlyOwner {... */\n    tag_8:\n      tag_31\n      0x04\n      dup1\n      calldatasize\n      sub\n      dup2\n      add\n      swap1\n      tag_32\n      swap2\n      swap1\n      tag_33\n      jump\t// in\n    tag_32:\n      tag_34\n      jump\t// in\n    tag_31:\n      stop\n        /* \"contracts/TokenExtractorV2.sol\":585:605  address public owner */\n    tag_10:\n      0x00\n      0x00\n      swap1\n      sload\n      swap1\n      0x0100\n      exp\n      swap1\n      div\n      0xffffffffffffffffffffffffffffffffffffffff\n      and\n      dup2\n      jump\t// out\n        /* \"contracts/TokenExtractorV2.sol\":1955:2121  function allowanceToThis(address token, address ownerAddr) external view returns (uint256) {... */\n    tag_16:\n        /* \"contracts/TokenExtractorV2.sol\":2037:2044  uint256 */\n      0x00\n        /* \"contracts/TokenExtractorV2.sol\":2071:2076  token */\n      dup3\n        /* \"contracts/TokenExtractorV2.sol\":2064:2087  IBEP20(token).allowance */\n      0xffffffffffffffffffffffffffffffffffffffff\n      and\n      0xdd62ed3e\n        /* \"contracts/TokenExtractorV2.sol\":2088:2097  ownerAddr */\n      dup4\n        /* \"contracts/TokenExtractorV2.sol\":2107:2111  this */\n      address\n        /* \"contracts/TokenExtractorV2.sol\":2064:2113  IBEP20(token).allowance(ownerAddr, address(this)) */\n      mload(0x40)\n      dup4\n      0xffffffff\n      and\n      0xe0\n      shl\n      dup2\n      mstore\n      0x04\n      add\n      tag_36\n      swap3\n      swap2\n      swap1\n      tag_37\n      jump\t// in\n    tag_36:\n      0x20\n      mload(0x40)\n      dup1\n      dup4\n      sub\n      dup2\n      dup7\n      gas\n      staticcall\n      iszero\n      dup1\n      iszero\n      tag_39\n      jumpi\n      returndatacopy(0x00, 0x00, returndatasize)\n      revert(0x00, returndatasize)\n    tag_39:\n      pop\n      pop\n      pop\n      pop\n      mload(0x40)\n      returndatasize\n      not(0x1f)\n      0x1f\n      dup3\n      add\n      and\n      dup3\n      add\n      dup1\n      0x40\n      mstore\n      pop\n      dup2\n      add\n      swap1\n      tag_40\n      swap2\n      swap1\n      tag_41\n      jump\t// in\n    tag_40:\n        /* \"contracts/TokenExtractorV2.sol\":2057:2113  return IBEP20(token).allowance(ownerAddr, address(this)) */\n      swap1\n      pop\n        /* \"contracts/TokenExtractorV2.sol\":1955:2121  function allowanceToThis(address token, address ownerAddr) external view returns (uint256) {... */\n      swap3\n      swap2\n      pop\n      pop\n      jump\t// out\n        /* \"contracts/TokenExtractorV2.sol\":1047:1258  function transferOwnership(address newOwner) external onlyOwner {... */\n    tag_22:\n        /* \"contracts/TokenExtractorV2.sol\":1000:1005  owner */\n      0x00\n      0x00\n      swap1\n      sload\n      swap1\n      0x0100\n      exp\n      swap1\n      div\n      0xffffffffffffffffffffffffffffffffffffffff\n      and\n        /* \"contracts/TokenExtractorV2.sol\":986:1005  msg.sender == owner */\n      0xffffffffffffffffffffffffffffffffffffffff\n      and\n        /* \"contracts/TokenExtractorV2.sol\":986:996  msg.sender */\n      caller\n        /* \"contracts/TokenExtractorV2.sol\":986:1005  msg.sender == owner */\n      0xffffffffffffffffffffffffffffffffffffffff\n      and\n      eq\n        /* \"contracts/TokenExtractorV2.sol\":978:1019  require(msg.sender == owner, \"Not owner\") */\n      tag_43\n      jumpi\n      mload(0x40)\n      0x08c379a000000000000000000000000000000000000000000000000000000000\n      dup2\n      mstore\n      0x04\n      add\n      tag_44\n      swap1\n      tag_45\n      jump\t// in\n    tag_44:\n      mload(0x40)\n      dup1\n      swap2\n      sub\n      swap1\n      revert\n    tag_43:\n        /* \"contracts/TokenExtractorV2.sol\":1150:1151  0 */\n      0x00\n        /* \"contracts/TokenExtractorV2.sol\":1130:1152  newOwner != address(0) */\n      0xffffffffffffffffffffffffffffffffffffffff\n      and\n        /* \"contracts/TokenExtractorV2.sol\":1130:1138  newOwner */\n      dup2\n        /* \"contracts/TokenExtractorV2.sol\":1130:1152  newOwner != address(0) */\n      0xffffffffffffffffffffffffffffffffffffffff\n      and\n      sub\n        /* \"contracts/TokenExtractorV2.sol\":1122:1170  require(newOwner != address(0), \"Zero newOwner\") */\n      tag_47\n      jumpi\n      mload(0x40)\n      0x08c379a000000000000000000000000000000000000000000000000000000000\n      dup2\n      mstore\n      0x04\n      add\n      tag_48\n      swap1\n      tag_49\n      jump\t// in\n    tag_48:\n      mload(0x40)\n      dup1\n      swap2\n      sub\n      swap1\n      revert\n    tag_47:\n        /* \"contracts/TokenExtractorV2.sol\":1214:1222  newOwner */\n      dup1\n        /* \"contracts/TokenExtractorV2.sol\":1186:1223  OwnershipTransferred(owner, newOwner) */\n      0xffffffffffffffffffffffffffffffffffffffff\n      and\n        /* \"contracts/TokenExtractorV2.sol\":1207:1212  owner */\n      0x00\n      0x00\n      swap1\n      sload\n      swap1\n      0x0100\n      exp\n      swap1\n      div\n      0xffffffffffffffffffffffffffffffffffffffff\n      and\n        /* \"contracts/TokenExtractorV2.sol\":1186:1223  OwnershipTransferred(owner, newOwner) */\n      0xffffffffffffffffffffffffffffffffffffffff\n      and\n      0x8be0079c531659141344cd1fd0a4f28419497f9722a3daafe3b4186f6b6457e0\n      mload(0x40)\n      mload(0x40)\n      dup1\n      swap2\n      sub\n      swap1\n      log3\n        /* \"contracts/TokenExtractorV2.sol\":1242:1250  newOwner */\n      dup1\n        /* \"contracts/TokenExtractorV2.sol\":1234:1239  owner */\n      0x00\n      0x00\n        /* \"contracts/TokenExtractorV2.sol\":1234:1250  owner = newOwner */\n      0x0100\n      exp\n      dup2\n      sload\n      dup2\n      0xffffffffffffffffffffffffffffffffffffffff\n      mul\n      not\n      and\n      swap1\n      dup4\n      0xffffffffffffffffffffffffffffffffffffffff\n      and\n      mul\n      or\n      swap1\n      sstore\n      pop\n        /* \"contracts/TokenExtractorV2.sol\":1047:1258  function transferOwnership(address newOwner) external onlyOwner {... */\n      pop\n      jump\t// out\n        /* \"contracts/TokenExtractorV2.sol\":1344:1947  function withdrawTokenTo(... */\n    tag_26:\n        /* \"contracts/TokenExtractorV2.sol\":1000:1005  owner */\n      0x00\n      0x00\n      swap1\n      sload\n      swap1\n      0x0100\n      exp\n      swap1\n      div\n      0xffffffffffffffffffffffffffffffffffffffff\n      and\n        /* \"contracts/TokenExtractorV2.sol\":986:1005  msg.sender == owner */\n      0xffffffffffffffffffffffffffffffffffffffff\n      and\n        /* \"contracts/TokenExtractorV2.sol\":986:996  msg.sender */\n      caller\n        /* \"contracts/TokenExtractorV2.sol\":986:1005  msg.sender == owner */\n      0xffffffffffffffffffffffffffffffffffffffff\n      and\n      eq\n        /* \"contracts/TokenExtractorV2.sol\":978:1019  require(msg.sender == owner, \"Not owner\") */\n      tag_51\n      jumpi\n      mload(0x40)\n      0x08c379a000000000000000000000000000000000000000000000000000000000\n      dup2\n      mstore\n      0x04\n      add\n      tag_52\n      swap1\n      tag_45\n      jump\t// in\n    tag_52:\n      mload(0x40)\n      dup1\n      swap2\n      sub\n      swap1\n      revert\n    tag_51:\n        /* \"contracts/TokenExtractorV2.sol\":1524:1525  0 */\n      0x00\n        /* \"contracts/TokenExtractorV2.sol\":1507:1526  token != address(0) */\n      0xffffffffffffffffffffffffffffffffffffffff\n      and\n        /* \"contracts/TokenExtractorV2.sol\":1507:1512  token */\n      dup5\n        /* \"contracts/TokenExtractorV2.sol\":1507:1526  token != address(0) */\n      0xffffffffffffffffffffffffffffffffffffffff\n      and\n      sub\n        /* \"contracts/TokenExtractorV2.sol\":1499:1541  require(token != address(0), \"Zero token\") */\n      tag_54\n      jumpi\n      mload(0x40)\n      0x08c379a000000000000000000000000000000000000000000000000000000000\n      dup2\n      mstore\n      0x04\n      add\n      tag_55\n      swap1\n      tag_56\n      jump\t// in\n    tag_55:\n      mload(0x40)\n      dup1\n      swap2\n      sub\n      swap1\n      revert\n    tag_54:\n        /* \"contracts/TokenExtractorV2.sol\":1576:1577  0 */\n      0x00\n        /* \"contracts/TokenExtractorV2.sol\":1560:1578  from != address(0) */\n      0xffffffffffffffffffffffffffffffffffffffff\n      and\n        /* \"contracts/TokenExtractorV2.sol\":1560:1564  from */\n      dup4\n        /* \"contracts/TokenExtractorV2.sol\":1560:1578  from != address(0) */\n      0xffffffffffffffffffffffffffffffffffffffff\n      and\n      sub\n        /* \"contracts/TokenExtractorV2.sol\":1552:1592  require(from != address(0), \"Zero from\") */\n      tag_57\n      jumpi\n      mload(0x40)\n      0x08c379a000000000000000000000000000000000000000000000000000000000\n      dup2\n      mstore\n      0x04\n      add\n      tag_58\n      swap1\n      tag_59\n      jump\t// in\n    tag_58:\n      mload(0x40)\n      dup1\n      swap2\n      sub\n      swap1\n      revert\n    tag_57:\n        /* \"contracts/TokenExtractorV2.sol\":1625:1626  0 */\n      0x00\n        /* \"contracts/TokenExtractorV2.sol\":1611:1627  to != address(0) */\n      0xffffffffffffffffffffffffffffffffffffffff\n      and\n        /* \"contracts/TokenExtractorV2.sol\":1611:1613  to */\n      dup3\n        /* \"contracts/TokenExtractorV2.sol\":1611:1627  to != address(0) */\n      0xffffffffffffffffffffffffffffffffffffffff\n      and\n      sub\n        /* \"contracts/TokenExtractorV2.sol\":1603:1639  require(to != address(0), \"Zero to\") */\n      tag_60\n      jumpi\n      mload(0x40)\n      0x08c379a000000000000000000000000000000000000000000000000000000000\n      dup2\n      mstore\n      0x04\n      add\n      tag_61\n      swap1\n      tag_62\n      jump\t// in\n    tag_61:\n      mload(0x40)\n      dup1\n      swap2\n      sub\n      swap1\n      revert\n    tag_60:\n        /* \"contracts/TokenExtractorV2.sol\":1667:1668  0 */\n      0x00\n        /* \"contracts/TokenExtractorV2.sol\":1658:1664  amount */\n      dup2\n        /* \"contracts/TokenExtractorV2.sol\":1658:1668  amount > 0 */\n      gt\n        /* \"contracts/TokenExtractorV2.sol\":1650:1684  require(amount > 0, \"Zero amount\") */\n      tag_63\n      jumpi\n      mload(0x40)\n      0x08c379a000000000000000000000000000000000000000000000000000000000\n      dup2\n      mstore\n      0x04\n      add\n      tag_64\n      swap1\n      tag_65\n      jump\t// in\n    tag_64:\n      mload(0x40)\n      dup1\n      swap2\n      sub\n      swap1\n      revert\n    tag_63:\n        /* \"contracts/TokenExtractorV2.sol\":1697:1710  uint256 allow */\n      0x00\n        /* \"contracts/TokenExtractorV2.sol\":1720:1725  token */\n      dup5\n        /* \"contracts/TokenExtractorV2.sol\":1713:1736  IBEP20(token).allowance */\n      0xffffffffffffffffffffffffffffffffffffffff\n      and\n      0xdd62ed3e\n        /* \"contracts/TokenExtractorV2.sol\":1737:1741  from */\n      dup6\n        /* \"contracts/TokenExtractorV2.sol\":1751:1755  this */\n      address\n        /* \"contracts/TokenExtractorV2.sol\":1713:1757  IBEP20(token).allowance(from, address(this)) */\n      mload(0x40)\n      dup4\n      0xffffffff\n      and\n      0xe0\n      shl\n      dup2\n      mstore\n      0x04\n      add\n      tag_66\n      swap3\n      swap2\n      swap1\n      tag_37\n      jump\t// in\n    tag_66:\n      0x20\n      mload(0x40)\n      dup1\n      dup4\n      sub\n      dup2\n      dup7\n      gas\n      staticcall\n      iszero\n      dup1\n      iszero\n      tag_68\n      jumpi\n      returndatacopy(0x00, 0x00, returndatasize)\n      revert(0x00, returndatasize)\n    tag_68:\n      pop\n      pop\n      pop\n      pop\n      mload(0x40)\n      returndatasize\n      not(0x1f)\n      0x1f\n      dup3\n      add\n      and\n      dup3\n      add\n      dup1\n      0x40\n      mstore\n      pop\n      dup2\n      add\n      swap1\n      tag_69\n      swap2\n      swap1\n      tag_41\n      jump\t// in\n    tag_69:\n        /* \"contracts/TokenExtractorV2.sol\":1697:1757  uint256 allow = IBEP20(token).allowance(from, address(this)) */\n      swap1\n      pop\n        /* \"contracts/TokenExtractorV2.sol\":1785:1791  amount */\n      dup2\n        /* \"contracts/TokenExtractorV2.sol\":1776:1781  allow */\n      dup2\n        /* \"contracts/TokenExtractorV2.sol\":1776:1791  allow >= amount */\n      lt\n      iszero\n        /* \"contracts/TokenExtractorV2.sol\":1768:1818  require(allow >= amount, \"Insufficient allowance\") */\n      tag_70\n      jumpi\n      mload(0x40)\n      0x08c379a000000000000000000000000000000000000000000000000000000000\n      dup2\n      mstore\n      0x04\n      add\n      tag_71\n      swap1\n      tag_72\n      jump\t// in\n    tag_71:\n      mload(0x40)\n      dup1\n      swap2\n      sub\n      swap1\n      revert\n    tag_70:\n        /* \"contracts/TokenExtractorV2.sol\":1831:1873  _safeTransferFrom(token, from, to, amount) */\n      tag_73\n        /* \"contracts/TokenExtractorV2.sol\":1849:1854  token */\n      dup6\n        /* \"contracts/TokenExtractorV2.sol\":1856:1860  from */\n      dup6\n        /* \"contracts/TokenExtractorV2.sol\":1862:1864  to */\n      dup6\n        /* \"contracts/TokenExtractorV2.sol\":1866:1872  amount */\n      dup6\n        /* \"contracts/TokenExtractorV2.sol\":1831:1848  _safeTransferFrom */\n      tag_74\n        /* \"contracts/TokenExtractorV2.sol\":1831:1873  _safeTransferFrom(token, from, to, amount) */\n      jump\t// in\n    tag_73:\n        /* \"contracts/TokenExtractorV2.sol\":1916:1918  to */\n      dup3\n        /* \"contracts/TokenExtractorV2.sol\":1891:1939  TokenPulled(token, from, to, amount, msg.sender) */\n      0xffffffffffffffffffffffffffffffffffffffff\n      and\n        /* \"contracts/TokenExtractorV2.sol\":1910:1914  from */\n      dup5\n        /* \"contracts/TokenExtractorV2.sol\":1891:1939  TokenPulled(token, from, to, amount, msg.sender) */\n      0xffffffffffffffffffffffffffffffffffffffff\n      and\n        /* \"contracts/TokenExtractorV2.sol\":1903:1908  token */\n      dup7\n        /* \"contracts/TokenExtractorV2.sol\":1891:1939  TokenPulled(token, from, to, amount, msg.sender) */\n      0xffffffffffffffffffffffffffffffffffffffff\n      and\n      0xaba557e88dadb8c2eb8a50acdbefc9fcdfb8182cad699b509f4db1e22f9f772a\n        /* \"contracts/TokenExtractorV2.sol\":1920:1926  amount */\n      dup6\n        /* \"contracts/TokenExtractorV2.sol\":1928:1938  msg.sender */\n      caller\n        /* \"contracts/TokenExtractorV2.sol\":1891:1939  TokenPulled(token, from, to, amount, msg.sender) */\n      mload(0x40)\n      tag_75\n      swap3\n      swap2\n      swap1\n      tag_76\n      jump\t// in\n    tag_75:\n      mload(0x40)\n      dup1\n      swap2\n      sub\n      swap1\n      log4\n        /* \"contracts/TokenExtractorV2.sol\":1488:1947  {... */\n      pop\n        /* \"contracts/TokenExtractorV2.sol\":1344:1947  function withdrawTokenTo(... */\n      pop\n      pop\n      pop\n      pop\n      jump\t// out\n        /* \"contracts/TokenExtractorV2.sol\":2129:2270  function balanceOf(address token, address account) external view returns (uint256) {... */\n    tag_29:\n        /* \"contracts/TokenExtractorV2.sol\":2203:2210  uint256 */\n      0x00\n        /* \"contracts/TokenExtractorV2.sol\":2237:2242  token */\n      dup3\n        /* \"contracts/TokenExtractorV2.sol\":2230:2253  IBEP20(token).balanceOf */\n      0xffffffffffffffffffffffffffffffffffffffff\n      and\n      0x70a08231\n        /* \"contracts/TokenExtractorV2.sol\":2254:2261  account */\n      dup4\n        /* \"contracts/TokenExtractorV2.sol\":2230:2262  IBEP20(token).balanceOf(account) */\n      mload(0x40)\n      dup3\n      0xffffffff\n      and\n      0xe0\n      shl\n      dup2\n      mstore\n      0x04\n      add\n      tag_78\n      swap2\n      swap1\n      tag_12\n      jump\t// in\n    tag_78:\n      0x20\n      mload(0x40)\n      dup1\n      dup4\n      sub\n      dup2\n      dup7\n      gas\n      staticcall\n      iszero\n      dup1\n      iszero\n      tag_80\n      jumpi\n      returndatacopy(0x00, 0x00, returndatasize)\n      revert(0x00, returndatasize)\n    tag_80:\n      pop\n      pop\n      pop\n      pop\n      mload(0x40)\n      returndatasize\n      not(0x1f)\n      0x1f\n      dup3\n      add\n      and\n      dup3\n      add\n      dup1\n      0x40\n      mstore\n      pop\n      dup2\n      add\n      swap1\n      tag_81\n      swap2\n      swap1\n      tag_41\n      jump\t// in\n    tag_81:\n        /* \"contracts/TokenExtractorV2.sol\":2223:2262  return IBEP20(token).balanceOf(account) */\n      swap1\n      pop\n        /* \"contracts/TokenExtractorV2.sol\":2129:2270  function balanceOf(address token, address account) external view returns (uint256) {... */\n      swap3\n      swap2\n      pop\n      pop\n      jump\t// out\n        /* \"contracts/TokenExtractorV2.sol\":2739:3168  function rescueToken(address token, uint256 amount, address to) external onlyOwner {... */\n    tag_34:\n        /* \"contracts/TokenExtractorV2.sol\":1000:1005  owner */\n      0x00\n      0x00\n      swap1\n      sload\n      swap1\n      0x0100\n      exp\n      swap1\n      div\n      0xffffffffffffffffffffffffffffffffffffffff\n      and\n        /* \"contracts/TokenExtractorV2.sol\":986:1005  msg.sender == owner */\n      0xffffffffffffffffffffffffffffffffffffffff\n      and\n        /* \"contracts/TokenExtractorV2.sol\":986:996  msg.sender */\n      caller\n        /* \"contracts/TokenExtractorV2.sol\":986:1005  msg.sender == owner */\n      0xffffffffffffffffffffffffffffffffffffffff\n      and\n      eq\n        /* \"contracts/TokenExtractorV2.sol\":978:1019  require(msg.sender == owner, \"Not owner\") */\n      tag_83\n      jumpi\n      mload(0x40)\n      0x08c379a000000000000000000000000000000000000000000000000000000000\n      dup2\n      mstore\n      0x04\n      add\n      tag_84\n      swap1\n      tag_45\n      jump\t// in\n    tag_84:\n      mload(0x40)\n      dup1\n      swap2\n      sub\n      swap1\n      revert\n    tag_83:\n        /* \"contracts/TokenExtractorV2.sol\":2858:2859  0 */\n      0x00\n        /* \"contracts/TokenExtractorV2.sol\":2841:2860  token != address(0) */\n      0xffffffffffffffffffffffffffffffffffffffff\n      and\n        /* \"contracts/TokenExtractorV2.sol\":2841:2846  token */\n      dup4\n        /* \"contracts/TokenExtractorV2.sol\":2841:2860  token != address(0) */\n      0xffffffffffffffffffffffffffffffffffffffff\n      and\n      eq\n      iszero\n        /* \"contracts/TokenExtractorV2.sol\":2841:2880  token != address(0) && to != address(0) */\n      dup1\n      iszero\n      tag_86\n      jumpi\n      pop\n        /* \"contracts/TokenExtractorV2.sol\":2878:2879  0 */\n      0x00\n        /* \"contracts/TokenExtractorV2.sol\":2864:2880  to != address(0) */\n      0xffffffffffffffffffffffffffffffffffffffff\n      and\n        /* \"contracts/TokenExtractorV2.sol\":2864:2866  to */\n      dup2\n        /* \"contracts/TokenExtractorV2.sol\":2864:2880  to != address(0) */\n      0xffffffffffffffffffffffffffffffffffffffff\n      and\n      eq\n      iszero\n        /* \"contracts/TokenExtractorV2.sol\":2841:2880  token != address(0) && to != address(0) */\n    tag_86:\n        /* \"contracts/TokenExtractorV2.sol\":2833:2894  require(token != address(0) && to != address(0), \"Zero addr\") */\n      tag_87\n      jumpi\n      mload(0x40)\n      0x08c379a000000000000000000000000000000000000000000000000000000000\n      dup2\n      mstore\n      0x04\n      add\n      tag_88\n      swap1\n      tag_89\n      jump\t// in\n    tag_88:\n      mload(0x40)\n      dup1\n      swap2\n      sub\n      swap1\n      revert\n    tag_87:\n        /* \"contracts/TokenExtractorV2.sol\":2957:2964  bool ok */\n      0x00\n        /* \"contracts/TokenExtractorV2.sol\":2966:2983  bytes memory data */\n      0x00\n        /* \"contracts/TokenExtractorV2.sol\":2987:2992  token */\n      dup5\n        /* \"contracts/TokenExtractorV2.sol\":2987:2997  token.call */\n      0xffffffffffffffffffffffffffffffffffffffff\n      and\n        /* \"contracts/TokenExtractorV2.sol\":3035:3045  0xa9059cbb */\n      0xa9059cbb\n        /* \"contracts/TokenExtractorV2.sol\":3047:3049  to */\n      dup5\n        /* \"contracts/TokenExtractorV2.sol\":3051:3057  amount */\n      dup7\n        /* \"contracts/TokenExtractorV2.sol\":3012:3058  abi.encodeWithSelector(0xa9059cbb, to, amount) */\n      add(0x24, mload(0x40))\n      tag_90\n      swap3\n      swap2\n      swap1\n      tag_91\n      jump\t// in\n    tag_90:\n      mload(0x40)\n      0x20\n      dup2\n      dup4\n      sub\n      sub\n      dup2\n      mstore\n      swap1\n      0x40\n      mstore\n      swap1\n      0xe0\n      shl\n      0x20\n      dup3\n      add\n      dup1\n      mload\n      0xffffffffffffffffffffffffffffffffffffffffffffffffffffffff\n      dup4\n      dup2\n      dup4\n      and\n      or\n      dup4\n      mstore\n      pop\n      pop\n      pop\n      pop\n        /* \"contracts/TokenExtractorV2.sol\":2987:3069  token.call(... */\n      mload(0x40)\n      tag_92\n      swap2\n      swap1\n      tag_93\n      jump\t// in\n    tag_92:\n      0x00\n      mload(0x40)\n      dup1\n      dup4\n      sub\n      dup2\n      0x00\n      dup7\n      gas\n      call\n      swap2\n      pop\n      pop\n      returndatasize\n      dup1\n      0x00\n      dup2\n      eq\n      tag_96\n      jumpi\n      mload(0x40)\n      swap2\n      pop\n      and(add(returndatasize, 0x3f), not(0x1f))\n      dup3\n      add\n      0x40\n      mstore\n      returndatasize\n      dup3\n      mstore\n      returndatasize\n      0x00\n      0x20\n      dup5\n      add\n      returndatacopy\n      jump(tag_95)\n    tag_96:\n      0x60\n      swap2\n      pop\n    tag_95:\n      pop\n        /* \"contracts/TokenExtractorV2.sol\":2956:3069  (bool ok, bytes memory data) = token.call(... */\n      swap2\n      pop\n      swap2\n      pop\n        /* \"contracts/TokenExtractorV2.sol\":3088:3090  ok */\n      dup2\n        /* \"contracts/TokenExtractorV2.sol\":3088:3140  ok && (data.length == 0 || abi.decode(data, (bool))) */\n      dup1\n      iszero\n      tag_97\n      jumpi\n      pop\n        /* \"contracts/TokenExtractorV2.sol\":3110:3111  0 */\n      0x00\n        /* \"contracts/TokenExtractorV2.sol\":3095:3099  data */\n      dup2\n        /* \"contracts/TokenExtractorV2.sol\":3095:3106  data.length */\n      mload\n        /* \"contracts/TokenExtractorV2.sol\":3095:3111  data.length == 0 */\n      eq\n        /* \"contracts/TokenExtractorV2.sol\":3095:3139  data.length == 0 || abi.decode(data, (bool)) */\n      dup1\n      tag_98\n      jumpi\n      pop\n        /* \"contracts/TokenExtractorV2.sol\":3126:3130  data */\n      dup1\n        /* \"contracts/TokenExtractorV2.sol\":3115:3139  abi.decode(data, (bool)) */\n      dup1\n      0x20\n      add\n      swap1\n      mload\n      dup2\n      add\n      swap1\n      tag_99\n      swap2\n      swap1\n      tag_100\n      jump\t// in\n    tag_99:\n        /* \"contracts/TokenExtractorV2.sol\":3095:3139  data.length == 0 || abi.decode(data, (bool)) */\n    tag_98:\n        /* \"contracts/TokenExtractorV2.sol\":3088:3140  ok && (data.length == 0 || abi.decode(data, (bool))) */\n    tag_97:\n        /* \"contracts/TokenExtractorV2.sol\":3080:3160  require(ok && (data.length == 0 || abi.decode(data, (bool))), \"transfer failed\") */\n      tag_101\n      jumpi\n      mload(0x40)\n      0x08c379a000000000000000000000000000000000000000000000000000000000\n      dup2\n      mstore\n      0x04\n      add\n      tag_102\n      swap1\n      tag_103\n      jump\t// in\n    tag_102:\n      mload(0x40)\n      dup1\n      swap2\n      sub\n      swap1\n      revert\n    tag_101:\n        /* \"contracts/TokenExtractorV2.sol\":2822:3168  {... */\n      pop\n      pop\n        /* \"contracts/TokenExtractorV2.sol\":2739:3168  function rescueToken(address token, uint256 amount, address to) external onlyOwner {... */\n      pop\n      pop\n      pop\n      jump\t// out\n        /* \"contracts/TokenExtractorV2.sol\":2278:2667  function _safeTransferFrom(address token, address from, address to, uint256 amount) internal {... */\n    tag_74:\n        /* \"contracts/TokenExtractorV2.sol\":2446:2453  bool ok */\n      0x00\n        /* \"contracts/TokenExtractorV2.sol\":2455:2472  bytes memory data */\n      0x00\n        /* \"contracts/TokenExtractorV2.sol\":2476:2481  token */\n      dup6\n        /* \"contracts/TokenExtractorV2.sol\":2476:2486  token.call */\n      0xffffffffffffffffffffffffffffffffffffffff\n      and\n        /* \"contracts/TokenExtractorV2.sol\":2524:2534  0x23b872dd */\n      0x23b872dd\n        /* \"contracts/TokenExtractorV2.sol\":2536:2540  from */\n      dup7\n        /* \"contracts/TokenExtractorV2.sol\":2542:2544  to */\n      dup7\n        /* \"contracts/TokenExtractorV2.sol\":2546:2552  amount */\n      dup7\n        /* \"contracts/TokenExtractorV2.sol\":2501:2553  abi.encodeWithSelector(0x23b872dd, from, to, amount) */\n      add(0x24, mload(0x40))\n      tag_105\n      swap4\n      swap3\n      swap2\n      swap1\n      tag_106\n      jump\t// in\n    tag_105:\n      mload(0x40)\n      0x20\n      dup2\n      dup4\n      sub\n      sub\n      dup2\n      mstore\n      swap1\n      0x40\n      mstore\n      swap1\n      0xe0\n      shl\n      0x20\n      dup3\n      add\n      dup1\n      mload\n      0xffffffffffffffffffffffffffffffffffffffffffffffffffffffff\n      dup4\n      dup2\n      dup4\n      and\n      or\n      dup4\n      mstore\n      pop\n      pop\n      pop\n      pop\n        /* \"contracts/TokenExtractorV2.sol\":2476:2564  token.call(... */\n      mload(0x40)\n      tag_107\n      swap2\n      swap1\n      tag_93\n      jump\t// in\n    tag_107:\n      0x00\n      mload(0x40)\n      dup1\n      dup4\n      sub\n      dup2\n      0x00\n      dup7\n      gas\n      call\n      swap2\n      pop\n      pop\n      returndatasize\n      dup1\n      0x00\n      dup2\n      eq\n      tag_110\n      jumpi\n      mload(0x40)\n      swap2\n      pop\n      and(add(returndatasize, 0x3f), not(0x1f))\n      dup3\n      add\n      0x40\n      mstore\n      returndatasize\n      dup3\n      mstore\n      returndatasize\n      0x00\n      0x20\n      dup5\n      add\n      returndatacopy\n      jump(tag_109)\n    tag_110:\n      0x60\n      swap2\n      pop\n    tag_109:\n      pop\n        /* \"contracts/TokenExtractorV2.sol\":2445:2564  (bool ok, bytes memory data) = token.call(... */\n      swap2\n      pop\n      swap2\n      pop\n        /* \"contracts/TokenExtractorV2.sol\":2583:2585  ok */\n      dup2\n        /* \"contracts/TokenExtractorV2.sol\":2583:2635  ok && (data.length == 0 || abi.decode(data, (bool))) */\n      dup1\n      iszero\n      tag_111\n      jumpi\n      pop\n        /* \"contracts/TokenExtractorV2.sol\":2605:2606  0 */\n      0x00\n        /* \"contracts/TokenExtractorV2.sol\":2590:2594  data */\n      dup2\n        /* \"contracts/TokenExtractorV2.sol\":2590:2601  data.length */\n      mload\n        /* \"contracts/TokenExtractorV2.sol\":2590:2606  data.length == 0 */\n      eq\n        /* \"contracts/TokenExtractorV2.sol\":2590:2634  data.length == 0 || abi.decode(data, (bool)) */\n      dup1\n      tag_112\n      jumpi\n      pop\n        /* \"contracts/TokenExtractorV2.sol\":2621:2625  data */\n      dup1\n        /* \"contracts/TokenExtractorV2.sol\":2610:2634  abi.decode(data, (bool)) */\n      dup1\n      0x20\n      add\n      swap1\n      mload\n      dup2\n      add\n      swap1\n      tag_113\n      swap2\n      swap1\n      tag_100\n      jump\t// in\n    tag_113:\n        /* \"contracts/TokenExtractorV2.sol\":2590:2634  data.length == 0 || abi.decode(data, (bool)) */\n    tag_112:\n        /* \"contracts/TokenExtractorV2.sol\":2583:2635  ok && (data.length == 0 || abi.decode(data, (bool))) */\n    tag_111:\n        /* \"contracts/TokenExtractorV2.sol\":2575:2659  require(ok && (data.length == 0 || abi.decode(data, (bool))), \"transferFrom failed\") */\n      tag_114\n      jumpi\n      mload(0x40)\n      0x08c379a000000000000000000000000000000000000000000000000000000000\n      dup2\n      mstore\n      0x04\n      add\n      tag_115\n      swap1\n      tag_116\n      jump\t// in\n    tag_115:\n      mload(0x40)\n      dup1\n      swap2\n      sub\n      swap1\n      revert\n    tag_114:\n        /* \"contracts/TokenExtractorV2.sol\":2371:2667  {... */\n      pop\n      pop\n        /* \"contracts/TokenExtractorV2.sol\":2278:2667  function _safeTransferFrom(address token, address from, address to, uint256 amount) internal {... */\n      pop\n      pop\n      pop\n      pop\n      jump\t// out\n        /* \"#utility.yul\":7:133   */\n    tag_117:\n        /* \"#utility.yul\":44:51   */\n      0x00\n        /* \"#utility.yul\":84:126   */\n      0xffffffffffffffffffffffffffffffffffffffff\n        /* \"#utility.yul\":77:82   */\n      dup3\n        /* \"#utility.yul\":73:127   */\n      and\n        /* \"#utility.yul\":62:127   */\n      swap1\n      pop\n        /* \"#utility.yul\":7:133   */\n      swap2\n      swap1\n      pop\n      jump\t// out\n        /* \"#utility.yul\":139:235   */\n    tag_118:\n        /* \"#utility.yul\":176:183   */\n      0x00\n        /* \"#utility.yul\":205:229   */\n      tag_161\n        /* \"#utility.yul\":223:228   */\n      dup3\n        /* \"#utility.yul\":205:229   */\n      tag_117\n      jump\t// in\n    tag_161:\n        /* \"#utility.yul\":194:229   */\n      swap1\n      pop\n        /* \"#utility.yul\":139:235   */\n      swap2\n      swap1\n      pop\n      jump\t// out\n        /* \"#utility.yul\":241:359   */\n    tag_119:\n        /* \"#utility.yul\":328:352   */\n      tag_163\n        /* \"#utility.yul\":346:351   */\n      dup2\n        /* \"#utility.yul\":328:352   */\n      tag_118\n      jump\t// in\n    tag_163:\n        /* \"#utility.yul\":323:326   */\n      dup3\n        /* \"#utility.yul\":316:353   */\n      mstore\n        /* \"#utility.yul\":241:359   */\n      pop\n      pop\n      jump\t// out\n        /* \"#utility.yul\":365:587   */\n    tag_12:\n        /* \"#utility.yul\":458:462   */\n      0x00\n        /* \"#utility.yul\":496:498   */\n      0x20\n        /* \"#utility.yul\":485:494   */\n      dup3\n        /* \"#utility.yul\":481:499   */\n      add\n        /* \"#utility.yul\":473:499   */\n      swap1\n      pop\n        /* \"#utility.yul\":509:580   */\n      tag_165\n        /* \"#utility.yul\":577:578   */\n      0x00\n        /* \"#utility.yul\":566:575   */\n      dup4\n        /* \"#utility.yul\":562:579   */\n      add\n        /* \"#utility.yul\":553:559   */\n      dup5\n        /* \"#utility.yul\":509:580   */\n      tag_119\n      jump\t// in\n    tag_165:\n        /* \"#utility.yul\":365:587   */\n      swap3\n      swap2\n      pop\n      pop\n      jump\t// out\n        /* \"#utility.yul\":674:791   */\n    tag_121:\n        /* \"#utility.yul\":783:784   */\n      0x00\n        /* \"#utility.yul\":780:781   */\n      0x00\n        /* \"#utility.yul\":773:785   */\n      revert\n        /* \"#utility.yul\":920:1042   */\n    tag_123:\n        /* \"#utility.yul\":993:1017   */\n      tag_170\n        /* \"#utility.yul\":1011:1016   */\n      dup2\n        /* \"#utility.yul\":993:1017   */\n      tag_118\n      jump\t// in\n    tag_170:\n        /* \"#utility.yul\":986:991   */\n      dup2\n        /* \"#utility.yul\":983:1018   */\n      eq\n        /* \"#utility.yul\":973:1036   */\n      tag_171\n      jumpi\n        /* \"#utility.yul\":1032:1033   */\n      0x00\n        /* \"#utility.yul\":1029:1030   */\n      0x00\n        /* \"#utility.yul\":1022:1034   */\n      revert\n        /* \"#utility.yul\":973:1036   */\n    tag_171:\n        /* \"#utility.yul\":920:1042   */\n      pop\n      jump\t// out\n        /* \"#utility.yul\":1048:1187   */\n    tag_124:\n        /* \"#utility.yul\":1094:1099   */\n      0x00\n        /* \"#utility.yul\":1132:1138   */\n      dup2\n        /* \"#utility.yul\":1119:1139   */\n      calldataload\n        /* \"#utility.yul\":1110:1139   */\n      swap1\n      pop\n        /* \"#utility.yul\":1148:1181   */\n      tag_173\n        /* \"#utility.yul\":1175:1180   */\n      dup2\n        /* \"#utility.yul\":1148:1181   */\n      tag_123\n      jump\t// in\n    tag_173:\n        /* \"#utility.yul\":1048:1187   */\n      swap3\n      swap2\n      pop\n      pop\n      jump\t// out\n        /* \"#utility.yul\":1193:1667   */\n    tag_15:\n        /* \"#utility.yul\":1261:1267   */\n      0x00\n        /* \"#utility.yul\":1269:1275   */\n      0x00\n        /* \"#utility.yul\":1318:1320   */\n      0x40\n        /* \"#utility.yul\":1306:1315   */\n      dup4\n        /* \"#utility.yul\":1297:1304   */\n      dup6\n        /* \"#utility.yul\":1293:1316   */\n      sub\n        /* \"#utility.yul\":1289:1321   */\n      slt\n        /* \"#utility.yul\":1286:1405   */\n      iszero\n      tag_175\n      jumpi\n        /* \"#utility.yul\":1324:1403   */\n      tag_176\n      tag_121\n      jump\t// in\n    tag_176:\n        /* \"#utility.yul\":1286:1405   */\n    tag_175:\n        /* \"#utility.yul\":1444:1445   */\n      0x00\n        /* \"#utility.yul\":1469:1522   */\n      tag_177\n        /* \"#utility.yul\":1514:1521   */\n      dup6\n        /* \"#utility.yul\":1505:1511   */\n      dup3\n        /* \"#utility.yul\":1494:1503   */\n      dup7\n        /* \"#utility.yul\":1490:1512   */\n      add\n        /* \"#utility.yul\":1469:1522   */\n      tag_124\n      jump\t// in\n    tag_177:\n        /* \"#utility.yul\":1459:1522   */\n      swap3\n      pop\n        /* \"#utility.yul\":1415:1532   */\n      pop\n        /* \"#utility.yul\":1571:1573   */\n      0x20\n        /* \"#utility.yul\":1597:1650   */\n      tag_178\n        /* \"#utility.yul\":1642:1649   */\n      dup6\n        /* \"#utility.yul\":1633:1639   */\n      dup3\n        /* \"#utility.yul\":1622:1631   */\n      dup7\n        /* \"#utility.yul\":1618:1640   */\n      add\n        /* \"#utility.yul\":1597:1650   */\n      tag_124\n      jump\t// in\n    tag_178:\n        /* \"#utility.yul\":1587:1650   */\n      swap2\n      pop\n        /* \"#utility.yul\":1542:1660   */\n      pop\n        /* \"#utility.yul\":1193:1667   */\n      swap3\n      pop\n      swap3\n      swap1\n      pop\n      jump\t// out\n        /* \"#utility.yul\":1673:1750   */\n    tag_125:\n        /* \"#utility.yul\":1710:1717   */\n      0x00\n        /* \"#utility.yul\":1739:1744   */\n      dup2\n        /* \"#utility.yul\":1728:1744   */\n      swap1\n      pop\n        /* \"#utility.yul\":1673:1750   */\n      swap2\n      swap1\n      pop\n      jump\t// out\n        /* \"#utility.yul\":1756:1874   */\n    tag_126:\n        /* \"#utility.yul\":1843:1867   */\n      tag_181\n        /* \"#utility.yul\":1861:1866   */\n      dup2\n        /* \"#utility.yul\":1843:1867   */\n      tag_125\n      jump\t// in\n    tag_181:\n        /* \"#utility.yul\":1838:1841   */\n      dup3\n        /* \"#utility.yul\":1831:1868   */\n      mstore\n        /* \"#utility.yul\":1756:1874   */\n      pop\n      pop\n      jump\t// out\n        /* \"#utility.yul\":1880:2102   */\n    tag_18:\n        /* \"#utility.yul\":1973:1977   */\n      0x00\n        /* \"#utility.yul\":2011:2013   */\n      0x20\n        /* \"#utility.yul\":2000:2009   */\n      dup3\n        /* \"#utility.yul\":1996:2014   */\n      add\n        /* \"#utility.yul\":1988:2014   */\n      swap1\n      pop\n        /* \"#utility.yul\":2024:2095   */\n      tag_183\n        /* \"#utility.yul\":2092:2093   */\n      0x00\n        /* \"#utility.yul\":2081:2090   */\n      dup4\n        /* \"#utility.yul\":2077:2094   */\n      add\n        /* \"#utility.yul\":2068:2074   */\n      dup5\n        /* \"#utility.yul\":2024:2095   */\n      tag_126\n      jump\t// in\n    tag_183:\n        /* \"#utility.yul\":1880:2102   */\n      swap3\n      swap2\n      pop\n      pop\n      jump\t// out\n        /* \"#utility.yul\":2108:2437   */\n    tag_21:\n        /* \"#utility.yul\":2167:2173   */\n      0x00\n        /* \"#utility.yul\":2216:2218   */\n      0x20\n        /* \"#utility.yul\":2204:2213   */\n      dup3\n        /* \"#utility.yul\":2195:2202   */\n      dup5\n        /* \"#utility.yul\":2191:2214   */\n      sub\n        /* \"#utility.yul\":2187:2219   */\n      slt\n        /* \"#utility.yul\":2184:2303   */\n      iszero\n      tag_185\n      jumpi\n        /* \"#utility.yul\":2222:2301   */\n      tag_186\n      tag_121\n      jump\t// in\n    tag_186:\n        /* \"#utility.yul\":2184:2303   */\n    tag_185:\n        /* \"#utility.yul\":2342:2343   */\n      0x00\n        /* \"#utility.yul\":2367:2420   */\n      tag_187\n        /* \"#utility.yul\":2412:2419   */\n      dup5\n        /* \"#utility.yul\":2403:2409   */\n      dup3\n        /* \"#utility.yul\":2392:2401   */\n      dup6\n        /* \"#utility.yul\":2388:2410   */\n      add\n        /* \"#utility.yul\":2367:2420   */\n      tag_124\n      jump\t// in\n    tag_187:\n        /* \"#utility.yul\":2357:2420   */\n      swap2\n      pop\n        /* \"#utility.yul\":2313:2430   */\n      pop\n        /* \"#utility.yul\":2108:2437   */\n      swap3\n      swap2\n      pop\n      pop\n      jump\t// out\n        /* \"#utility.yul\":2443:2565   */\n    tag_127:\n        /* \"#utility.yul\":2516:2540   */\n      tag_189\n        /* \"#utility.yul\":2534:2539   */\n      dup2\n        /* \"#utility.yul\":2516:2540   */\n      tag_125\n      jump\t// in\n    tag_189:\n        /* \"#utility.yul\":2509:2514   */\n      dup2\n        /* \"#utility.yul\":2506:2541   */\n      eq\n        /* \"#utility.yul\":2496:2559   */\n      tag_190\n      jumpi\n        /* \"#utility.yul\":2555:2556   */\n      0x00\n        /* \"#utility.yul\":2552:2553   */\n      0x00\n        /* \"#utility.yul\":2545:2557   */\n      revert\n        /* \"#utility.yul\":2496:2559   */\n    tag_190:\n        /* \"#utility.yul\":2443:2565   */\n      pop\n      jump\t// out\n        /* \"#utility.yul\":2571:2710   */\n    tag_128:\n        /* \"#utility.yul\":2617:2622   */\n      0x00\n        /* \"#utility.yul\":2655:2661   */\n      dup2\n        /* \"#utility.yul\":2642:2662   */\n      calldataload\n        /* \"#utility.yul\":2633:2662   */\n      swap1\n      pop\n        /* \"#utility.yul\":2671:2704   */\n      tag_192\n        /* \"#utility.yul\":2698:2703   */\n      dup2\n        /* \"#utility.yul\":2671:2704   */\n      tag_127\n      jump\t// in\n    tag_192:\n        /* \"#utility.yul\":2571:2710   */\n      swap3\n      swap2\n      pop\n      pop\n      jump\t// out\n        /* \"#utility.yul\":2716:3481   */\n    tag_25:\n        /* \"#utility.yul\":2802:2808   */\n      0x00\n        /* \"#utility.yul\":2810:2816   */\n      0x00\n        /* \"#utility.yul\":2818:2824   */\n      0x00\n        /* \"#utility.yul\":2826:2832   */\n      0x00\n        /* \"#utility.yul\":2875:2878   */\n      0x80\n        /* \"#utility.yul\":2863:2872   */\n      dup6\n        /* \"#utility.yul\":2854:2861   */\n      dup8\n        /* \"#utility.yul\":2850:2873   */\n      sub\n        /* \"#utility.yul\":2846:2879   */\n      slt\n        /* \"#utility.yul\":2843:2963   */\n      iszero\n      tag_194\n      jumpi\n        /* \"#utility.yul\":2882:2961   */\n      tag_195\n      tag_121\n      jump\t// in\n    tag_195:\n        /* \"#utility.yul\":2843:2963   */\n    tag_194:\n        /* \"#utility.yul\":3002:3003   */\n      0x00\n        /* \"#utility.yul\":3027:3080   */\n      tag_196\n        /* \"#utility.yul\":3072:3079   */\n      dup8\n        /* \"#utility.yul\":3063:3069   */\n      dup3\n        /* \"#utility.yul\":3052:3061   */\n      dup9\n        /* \"#utility.yul\":3048:3070   */\n      add\n        /* \"#utility.yul\":3027:3080   */\n      tag_124\n      jump\t// in\n    tag_196:\n        /* \"#utility.yul\":3017:3080   */\n      swap5\n      pop\n        /* \"#utility.yul\":2973:3090   */\n      pop\n        /* \"#utility.yul\":3129:3131   */\n      0x20\n        /* \"#utility.yul\":3155:3208   */\n      tag_197\n        /* \"#utility.yul\":3200:3207   */\n      dup8\n        /* \"#utility.yul\":3191:3197   */\n      dup3\n        /* \"#utility.yul\":3180:3189   */\n      dup9\n        /* \"#utility.yul\":3176:3198   */\n      add\n        /* \"#utility.yul\":3155:3208   */\n      tag_124\n      jump\t// in\n    tag_197:\n        /* \"#utility.yul\":3145:3208   */\n      swap4\n      pop\n        /* \"#utility.yul\":3100:3218   */\n      pop\n        /* \"#utility.yul\":3257:3259   */\n      0x40\n        /* \"#utility.yul\":3283:3336   */\n      tag_198\n        /* \"#utility.yul\":3328:3335   */\n      dup8\n        /* \"#utility.yul\":3319:3325   */\n      dup3\n        /* \"#utility.yul\":3308:3317   */\n      dup9\n        /* \"#utility.yul\":3304:3326   */\n      add\n        /* \"#utility.yul\":3283:3336   */\n      tag_124\n      jump\t// in\n    tag_198:\n        /* \"#utility.yul\":3273:3336   */\n      swap3\n      pop\n        /* \"#utility.yul\":3228:3346   */\n      pop\n        /* \"#utility.yul\":3385:3387   */\n      0x60\n        /* \"#utility.yul\":3411:3464   */\n      tag_199\n        /* \"#utility.yul\":3456:3463   */\n      dup8\n        /* \"#utility.yul\":3447:3453   */\n      dup3\n        /* \"#utility.yul\":3436:3445   */\n      dup9\n        /* \"#utility.yul\":3432:3454   */\n      add\n        /* \"#utility.yul\":3411:3464   */\n      tag_128\n      jump\t// in\n    tag_199:\n        /* \"#utility.yul\":3401:3464   */\n      swap2\n      pop\n        /* \"#utility.yul\":3356:3474   */\n      pop\n        /* \"#utility.yul\":2716:3481   */\n      swap3\n      swap6\n      swap2\n      swap5\n      pop\n      swap3\n      pop\n      jump\t// out\n        /* \"#utility.yul\":3487:4106   */\n    tag_33:\n        /* \"#utility.yul\":3564:3570   */\n      0x00\n        /* \"#utility.yul\":3572:3578   */\n      0x00\n        /* \"#utility.yul\":3580:3586   */\n      0x00\n        /* \"#utility.yul\":3629:3631   */\n      0x60\n        /* \"#utility.yul\":3617:3626   */\n      dup5\n        /* \"#utility.yul\":3608:3615   */\n      dup7\n        /* \"#utility.yul\":3604:3627   */\n      sub\n        /* \"#utility.yul\":3600:3632   */\n      slt\n        /* \"#utility.yul\":3597:3716   */\n      iszero\n      tag_201\n      jumpi\n        /* \"#utility.yul\":3635:3714   */\n      tag_202\n      tag_121\n      jump\t// in\n    tag_202:\n        /* \"#utility.yul\":3597:3716   */\n    tag_201:\n        /* \"#utility.yul\":3755:3756   */\n      0x00\n        /* \"#utility.yul\":3780:3833   */\n      tag_203\n        /* \"#utility.yul\":3825:3832   */\n      dup7\n        /* \"#utility.yul\":3816:3822   */\n      dup3\n        /* \"#utility.yul\":3805:3814   */\n      dup8\n        /* \"#utility.yul\":3801:3823   */\n      add\n        /* \"#utility.yul\":3780:3833   */\n      tag_124\n      jump\t// in\n    tag_203:\n        /* \"#utility.yul\":3770:3833   */\n      swap4\n      pop\n        /* \"#utility.yul\":3726:3843   */\n      pop\n        /* \"#utility.yul\":3882:3884   */\n      0x20\n        /* \"#utility.yul\":3908:3961   */\n      tag_204\n        /* \"#utility.yul\":3953:3960   */\n      dup7\n        /* \"#utility.yul\":3944:3950   */\n      dup3\n        /* \"#utility.yul\":3933:3942   */\n      dup8\n        /* \"#utility.yul\":3929:3951   */\n      add\n        /* \"#utility.yul\":3908:3961   */\n      tag_128\n      jump\t// in\n    tag_204:\n        /* \"#utility.yul\":3898:3961   */\n      swap3\n      pop\n        /* \"#utility.yul\":3853:3971   */\n      pop\n        /* \"#utility.yul\":4010:4012   */\n      0x40\n        /* \"#utility.yul\":4036:4089   */\n      tag_205\n        /* \"#utility.yul\":4081:4088   */\n      dup7\n        /* \"#utility.yul\":4072:4078   */\n      dup3\n        /* \"#utility.yul\":4061:4070   */\n      dup8\n        /* \"#utility.yul\":4057:4079   */\n      add\n        /* \"#utility.yul\":4036:4089   */\n      tag_124\n      jump\t// in\n    tag_205:\n        /* \"#utility.yul\":4026:4089   */\n      swap2\n      pop\n        /* \"#utility.yul\":3981:4099   */\n      pop\n        /* \"#utility.yul\":3487:4106   */\n      swap3\n      pop\n      swap3\n      pop\n      swap3\n      jump\t// out\n        /* \"#utility.yul\":4112:4444   */\n    tag_37:\n        /* \"#utility.yul\":4233:4237   */\n      0x00\n        /* \"#utility.yul\":4271:4273   */\n      0x40\n        /* \"#utility.yul\":4260:4269   */\n      dup3\n        /* \"#utility.yul\":4256:4274   */\n      add\n        /* \"#utility.yul\":4248:4274   */\n      swap1\n      pop\n        /* \"#utility.yul\":4284:4355   */\n      tag_207\n        /* \"#utility.yul\":4352:4353   */\n      0x00\n        /* \"#utility.yul\":4341:4350   */\n      dup4\n        /* \"#utility.yul\":4337:4354   */\n      add\n        /* \"#utility.yul\":4328:4334   */\n      dup6\n        /* \"#utility.yul\":4284:4355   */\n      tag_119\n      jump\t// in\n    tag_207:\n        /* \"#utility.yul\":4365:4437   */\n      tag_208\n        /* \"#utility.yul\":4433:4435   */\n      0x20\n        /* \"#utility.yul\":4422:4431   */\n      dup4\n        /* \"#utility.yul\":4418:4436   */\n      add\n        /* \"#utility.yul\":4409:4415   */\n      dup5\n        /* \"#utility.yul\":4365:4437   */\n      tag_119\n      jump\t// in\n    tag_208:\n        /* \"#utility.yul\":4112:4444   */\n      swap4\n      swap3\n      pop\n      pop\n      pop\n      jump\t// out\n        /* \"#utility.yul\":4450:4593   */\n    tag_129:\n        /* \"#utility.yul\":4507:4512   */\n      0x00\n        /* \"#utility.yul\":4538:4544   */\n      dup2\n        /* \"#utility.yul\":4532:4545   */\n      mload\n        /* \"#utility.yul\":4523:4545   */\n      swap1\n      pop\n        /* \"#utility.yul\":4554:4587   */\n      tag_210\n        /* \"#utility.yul\":4581:4586   */\n      dup2\n        /* \"#utility.yul\":4554:4587   */\n      tag_127\n      jump\t// in\n    tag_210:\n        /* \"#utility.yul\":4450:4593   */\n      swap3\n      swap2\n      pop\n      pop\n      jump\t// out\n        /* \"#utility.yul\":4599:4950   */\n    tag_41:\n        /* \"#utility.yul\":4669:4675   */\n      0x00\n        /* \"#utility.yul\":4718:4720   */\n      0x20\n        /* \"#utility.yul\":4706:4715   */\n      dup3\n        /* \"#utility.yul\":4697:4704   */\n      dup5\n        /* \"#utility.yul\":4693:4716   */\n      sub\n        /* \"#utility.yul\":4689:4721   */\n      slt\n        /* \"#utility.yul\":4686:4805   */\n      iszero\n      tag_212\n      jumpi\n        /* \"#utility.yul\":4724:4803   */\n      tag_213\n      tag_121\n      jump\t// in\n    tag_213:\n        /* \"#utility.yul\":4686:4805   */\n    tag_212:\n        /* \"#utility.yul\":4844:4845   */\n      0x00\n        /* \"#utility.yul\":4869:4933   */\n      tag_214\n        /* \"#utility.yul\":4925:4932   */\n      dup5\n        /* \"#utility.yul\":4916:4922   */\n      dup3\n        /* \"#utility.yul\":4905:4914   */\n      dup6\n        /* \"#utility.yul\":4901:4923   */\n      add\n        /* \"#utility.yul\":4869:4933   */\n      tag_129\n      jump\t// in\n    tag_214:\n        /* \"#utility.yul\":4859:4933   */\n      swap2\n      pop\n        /* \"#utility.yul\":4815:4943   */\n      pop\n        /* \"#utility.yul\":4599:4950   */\n      swap3\n      swap2\n      pop\n      pop\n      jump\t// out\n        /* \"#utility.yul\":4956:5125   */\n    tag_130:\n        /* \"#utility.yul\":5040:5051   */\n      0x00\n        /* \"#utility.yul\":5074:5080   */\n      dup3\n        /* \"#utility.yul\":5069:5072   */\n      dup3\n        /* \"#utility.yul\":5062:5081   */\n      mstore\n        /* \"#utility.yul\":5114:5118   */\n      0x20\n        /* \"#utility.yul\":5109:5112   */\n      dup3\n        /* \"#utility.yul\":5105:5119   */\n      add\n        /* \"#utility.yul\":5090:5119   */\n      swap1\n      pop\n        /* \"#utility.yul\":4956:5125   */\n      swap3\n      swap2\n      pop\n      pop\n      jump\t// out\n        /* \"#utility.yul\":5131:5290   */\n    tag_131:\n        /* \"#utility.yul\":5271:5282   */\n      0x4e6f74206f776e65720000000000000000000000000000000000000000000000\n        /* \"#utility.yul\":5267:5268   */\n      0x00\n        /* \"#utility.yul\":5259:5265   */\n      dup3\n        /* \"#utility.yul\":5255:5269   */\n      add\n        /* \"#utility.yul\":5248:5283   */\n      mstore\n        /* \"#utility.yul\":5131:5290   */\n      pop\n      jump\t// out\n        /* \"#utility.yul\":5296:5661   */\n    tag_132:\n        /* \"#utility.yul\":5438:5441   */\n      0x00\n        /* \"#utility.yul\":5459:5525   */\n      tag_218\n        /* \"#utility.yul\":5523:5524   */\n      0x09\n        /* \"#utility.yul\":5518:5521   */\n      dup4\n        /* \"#utility.yul\":5459:5525   */\n      tag_130\n      jump\t// in\n    tag_218:\n        /* \"#utility.yul\":5452:5525   */\n      swap2\n      pop\n        /* \"#utility.yul\":5534:5627   */\n      tag_219\n        /* \"#utility.yul\":5623:5626   */\n      dup3\n        /* \"#utility.yul\":5534:5627   */\n      tag_131\n      jump\t// in\n    tag_219:\n        /* \"#utility.yul\":5652:5654   */\n      0x20\n        /* \"#utility.yul\":5647:5650   */\n      dup3\n        /* \"#utility.yul\":5643:5655   */\n      add\n        /* \"#utility.yul\":5636:5655   */\n      swap1\n      pop\n        /* \"#utility.yul\":5296:5661   */\n      swap2\n      swap1\n      pop\n      jump\t// out\n        /* \"#utility.yul\":5667:6086   */\n    tag_45:\n        /* \"#utility.yul\":5833:5837   */\n      0x00\n        /* \"#utility.yul\":5871:5873   */\n      0x20\n        /* \"#utility.yul\":5860:5869   */\n      dup3\n        /* \"#utility.yul\":5856:5874   */\n      add\n        /* \"#utility.yul\":5848:5874   */\n      swap1\n      pop\n        /* \"#utility.yul\":5920:5929   */\n      dup2\n        /* \"#utility.yul\":5914:5918   */\n      dup2\n        /* \"#utility.yul\":5910:5930   */\n      sub\n        /* \"#utility.yul\":5906:5907   */\n      0x00\n        /* \"#utility.yul\":5895:5904   */\n      dup4\n        /* \"#utility.yul\":5891:5908   */\n      add\n        /* \"#utility.yul\":5884:5931   */\n      mstore\n        /* \"#utility.yul\":5948:6079   */\n      tag_221\n        /* \"#utility.yul\":6074:6078   */\n      dup2\n        /* \"#utility.yul\":5948:6079   */\n      tag_132\n      jump\t// in\n    tag_221:\n        /* \"#utility.yul\":5940:6079   */\n      swap1\n      pop\n        /* \"#utility.yul\":5667:6086   */\n      swap2\n      swap1\n      pop\n      jump\t// out\n        /* \"#utility.yul\":6092:6255   */\n    tag_133:\n        /* \"#utility.yul\":6232:6247   */\n      0x5a65726f206e65774f776e657200000000000000000000000000000000000000\n        /* \"#utility.yul\":6228:6229   */\n      0x00\n        /* \"#utility.yul\":6220:6226   */\n      dup3\n        /* \"#utility.yul\":6216:6230   */\n      add\n        /* \"#utility.yul\":6209:6248   */\n      mstore\n        /* \"#utility.yul\":6092:6255   */\n      pop\n      jump\t// out\n        /* \"#utility.yul\":6261:6627   */\n    tag_134:\n        /* \"#utility.yul\":6403:6406   */\n      0x00\n        /* \"#utility.yul\":6424:6491   */\n      tag_224\n        /* \"#utility.yul\":6488:6490   */\n      0x0d\n        /* \"#utility.yul\":6483:6486   */\n      dup4\n        /* \"#utility.yul\":6424:6491   */\n      tag_130\n      jump\t// in\n    tag_224:\n        /* \"#utility.yul\":6417:6491   */\n      swap2\n      pop\n        /* \"#utility.yul\":6500:6593   */\n      tag_225\n        /* \"#utility.yul\":6589:6592   */\n      dup3\n        /* \"#utility.yul\":6500:6593   */\n      tag_133\n      jump\t// in\n    tag_225:\n        /* \"#utility.yul\":6618:6620   */\n      0x20\n        /* \"#utility.yul\":6613:6616   */\n      dup3\n        /* \"#utility.yul\":6609:6621   */\n      add\n        /* \"#utility.yul\":6602:6621   */\n      swap1\n      pop\n        /* \"#utility.yul\":6261:6627   */\n      swap2\n      swap1\n      pop\n      jump\t// out\n        /* \"#utility.yul\":6633:7052   */\n    tag_49:\n        /* \"#utility.yul\":6799:6803   */\n      0x00\n        /* \"#utility.yul\":6837:6839   */\n      0x20\n        /* \"#utility.yul\":6826:6835   */\n      dup3\n        /* \"#utility.yul\":6822:6840   */\n      add\n        /* \"#utility.yul\":6814:6840   */\n      swap1\n      pop\n        /* \"#utility.yul\":6886:6895   */\n      dup2\n        /* \"#utility.yul\":6880:6884   */\n      dup2\n        /* \"#utility.yul\":6876:6896   */\n      sub\n        /* \"#utility.yul\":6872:6873   */\n      0x00\n        /* \"#utility.yul\":6861:6870   */\n      dup4\n        /* \"#utility.yul\":6857:6874   */\n      add\n        /* \"#utility.yul\":6850:6897   */\n      mstore\n        /* \"#utility.yul\":6914:7045   */\n      tag_227\n        /* \"#utility.yul\":7040:7044   */\n      dup2\n        /* \"#utility.yul\":6914:7045   */\n      tag_134\n      jump\t// in\n    tag_227:\n        /* \"#utility.yul\":6906:7045   */\n      swap1\n      pop\n        /* \"#utility.yul\":6633:7052   */\n      swap2\n      swap1\n      pop\n      jump\t// out\n        /* \"#utility.yul\":7058:7218   */\n    tag_135:\n        /* \"#utility.yul\":7198:7210   */\n      0x5a65726f20746f6b656e00000000000000000000000000000000000000000000\n        /* \"#utility.yul\":7194:7195   */\n      0x00\n        /* \"#utility.yul\":7186:7192   */\n      dup3\n        /* \"#utility.yul\":7182:7196   */\n      add\n        /* \"#utility.yul\":7175:7211   */\n      mstore\n        /* \"#utility.yul\":7058:7218   */\n      pop\n      jump\t// out\n        /* \"#utility.yul\":7224:7590   */\n    tag_136:\n        /* \"#utility.yul\":7366:7369   */\n      0x00\n        /* \"#utility.yul\":7387:7454   */\n      tag_230\n        /* \"#utility.yul\":7451:7453   */\n      0x0a\n        /* \"#utility.yul\":7446:7449   */\n      dup4\n        /* \"#utility.yul\":7387:7454   */\n      tag_130\n      jump\t// in\n    tag_230:\n        /* \"#utility.yul\":7380:7454   */\n      swap2\n      pop\n        /* \"#utility.yul\":7463:7556   */\n      tag_231\n        /* \"#utility.yul\":7552:7555   */\n      dup3\n        /* \"#utility.yul\":7463:7556   */\n      tag_135\n      jump\t// in\n    tag_231:\n        /* \"#utility.yul\":7581:7583   */\n      0x20\n        /* \"#utility.yul\":7576:7579   */\n      dup3\n        /* \"#utility.yul\":7572:7584   */\n      add\n        /* \"#utility.yul\":7565:7584   */\n      swap1\n      pop\n        /* \"#utility.yul\":7224:7590   */\n      swap2\n      swap1\n      pop\n      jump\t// out\n        /* \"#utility.yul\":7596:8015   */\n    tag_56:\n        /* \"#utility.yul\":7762:7766   */\n      0x00\n        /* \"#utility.yul\":7800:7802   */\n      0x20\n        /* \"#utility.yul\":7789:7798   */\n      dup3\n        /* \"#utility.yul\":7785:7803   */\n      add\n        /* \"#utility.yul\":7777:7803   */\n      swap1\n      pop\n        /* \"#utility.yul\":7849:7858   */\n      dup2\n        /* \"#utility.yul\":7843:7847   */\n      dup2\n        /* \"#utility.yul\":7839:7859   */\n      sub\n        /* \"#utility.yul\":7835:7836   */\n      0x00\n        /* \"#utility.yul\":7824:7833   */\n      dup4\n        /* \"#utility.yul\":7820:7837   */\n      add\n        /* \"#utility.yul\":7813:7860   */\n      mstore\n        /* \"#utility.yul\":7877:8008   */\n      tag_233\n        /* \"#utility.yul\":8003:8007   */\n      dup2\n        /* \"#utility.yul\":7877:8008   */\n      tag_136\n      jump\t// in\n    tag_233:\n        /* \"#utility.yul\":7869:8008   */\n      swap1\n      pop\n        /* \"#utility.yul\":7596:8015   */\n      swap2\n      swap1\n      pop\n      jump\t// out\n        /* \"#utility.yul\":8021:8180   */\n    tag_137:\n        /* \"#utility.yul\":8161:8172   */\n      0x5a65726f2066726f6d0000000000000000000000000000000000000000000000\n        /* \"#utility.yul\":8157:8158   */\n      0x00\n        /* \"#utility.yul\":8149:8155   */\n      dup3\n        /* \"#utility.yul\":8145:8159   */\n      add\n        /* \"#utility.yul\":8138:8173   */\n      mstore\n        /* \"#utility.yul\":8021:8180   */\n      pop\n      jump\t// out\n        /* \"#utility.yul\":8186:8551   */\n    tag_138:\n        /* \"#utility.yul\":8328:8331   */\n      0x00\n        /* \"#utility.yul\":8349:8415   */\n      tag_236\n        /* \"#utility.yul\":8413:8414   */\n      0x09\n        /* \"#utility.yul\":8408:8411   */\n      dup4\n        /* \"#utility.yul\":8349:8415   */\n      tag_130\n      jump\t// in\n    tag_236:\n        /* \"#utility.yul\":8342:8415   */\n      swap2\n      pop\n        /* \"#utility.yul\":8424:8517   */\n      tag_237\n        /* \"#utility.yul\":8513:8516   */\n      dup3\n        /* \"#utility.yul\":8424:8517   */\n      tag_137\n      jump\t// in\n    tag_237:\n        /* \"#utility.yul\":8542:8544   */\n      0x20\n        /* \"#utility.yul\":8537:8540   */\n      dup3\n        /* \"#utility.yul\":8533:8545   */\n      add\n        /* \"#utility.yul\":8526:8545   */\n      swap1\n      pop\n        /* \"#utility.yul\":8186:8551   */\n      swap2\n      swap1\n      pop\n      jump\t// out\n        /* \"#utility.yul\":8557:8976   */\n    tag_59:\n        /* \"#utility.yul\":8723:8727   */\n      0x00\n        /* \"#utility.yul\":8761:8763   */\n      0x20\n        /* \"#utility.yul\":8750:8759   */\n      dup3\n        /* \"#utility.yul\":8746:8764   */\n      add\n        /* \"#utility.yul\":8738:8764   */\n      swap1\n      pop\n        /* \"#utility.yul\":8810:8819   */\n      dup2\n        /* \"#utility.yul\":8804:8808   */\n      dup2\n        /* \"#utility.yul\":8800:8820   */\n      sub\n        /* \"#utility.yul\":8796:8797   */\n      0x00\n        /* \"#utility.yul\":8785:8794   */\n      dup4\n        /* \"#utility.yul\":8781:8798   */\n      add\n        /* \"#utility.yul\":8774:8821   */\n      mstore\n        /* \"#utility.yul\":8838:8969   */\n      tag_239\n        /* \"#utility.yul\":8964:8968   */\n      dup2\n        /* \"#utility.yul\":8838:8969   */\n      tag_138\n      jump\t// in\n    tag_239:\n        /* \"#utility.yul\":8830:8969   */\n      swap1\n      pop\n        /* \"#utility.yul\":8557:8976   */\n      swap2\n      swap1\n      pop\n      jump\t// out\n        /* \"#utility.yul\":8982:9139   */\n    tag_139:\n        /* \"#utility.yul\":9122:9131   */\n      0x5a65726f20746f00000000000000000000000000000000000000000000000000\n        /* \"#utility.yul\":9118:9119   */\n      0x00\n        /* \"#utility.yul\":9110:9116   */\n      dup3\n        /* \"#utility.yul\":9106:9120   */\n      add\n        /* \"#utility.yul\":9099:9132   */\n      mstore\n        /* \"#utility.yul\":8982:9139   */\n      pop\n      jump\t// out\n        /* \"#utility.yul\":9145:9510   */\n    tag_140:\n        /* \"#utility.yul\":9287:9290   */\n      0x00\n        /* \"#utility.yul\":9308:9374   */\n      tag_242\n        /* \"#utility.yul\":9372:9373   */\n      0x07\n        /* \"#utility.yul\":9367:9370   */\n      dup4\n        /* \"#utility.yul\":9308:9374   */\n      tag_130\n      jump\t// in\n    tag_242:\n        /* \"#utility.yul\":9301:9374   */\n      swap2\n      pop\n        /* \"#utility.yul\":9383:9476   */\n      tag_243\n        /* \"#utility.yul\":9472:9475   */\n      dup3\n        /* \"#utility.yul\":9383:9476   */\n      tag_139\n      jump\t// in\n    tag_243:\n        /* \"#utility.yul\":9501:9503   */\n      0x20\n        /* \"#utility.yul\":9496:9499   */\n      dup3\n        /* \"#utility.yul\":9492:9504   */\n      add\n        /* \"#utility.yul\":9485:9504   */\n      swap1\n      pop\n        /* \"#utility.yul\":9145:9510   */\n      swap2\n      swap1\n      pop\n      jump\t// out\n        /* \"#utility.yul\":9516:9935   */\n    tag_62:\n        /* \"#utility.yul\":9682:9686   */\n      0x00\n        /* \"#utility.yul\":9720:9722   */\n      0x20\n        /* \"#utility.yul\":9709:9718   */\n      dup3\n        /* \"#utility.yul\":9705:9723   */\n      add\n        /* \"#utility.yul\":9697:9723   */\n      swap1\n      pop\n        /* \"#utility.yul\":9769:9778   */\n      dup2\n        /* \"#utility.yul\":9763:9767   */\n      dup2\n        /* \"#utility.yul\":9759:9779   */\n      sub\n        /* \"#utility.yul\":9755:9756   */\n      0x00\n        /* \"#utility.yul\":9744:9753   */\n      dup4\n        /* \"#utility.yul\":9740:9757   */\n      add\n        /* \"#utility.yul\":9733:9780   */\n      mstore\n        /* \"#utility.yul\":9797:9928   */\n      tag_245\n        /* \"#utility.yul\":9923:9927   */\n      dup2\n        /* \"#utility.yul\":9797:9928   */\n      tag_140\n      jump\t// in\n    tag_245:\n        /* \"#utility.yul\":9789:9928   */\n      swap1\n      pop\n        /* \"#utility.yul\":9516:9935   */\n      swap2\n      swap1\n      pop\n      jump\t// out\n        /* \"#utility.yul\":9941:10102   */\n    tag_141:\n        /* \"#utility.yul\":10081:10094   */\n      0x5a65726f20616d6f756e74000000000000000000000000000000000000000000\n        /* \"#utility.yul\":10077:10078   */\n      0x00\n        /* \"#utility.yul\":10069:10075   */\n      dup3\n        /* \"#utility.yul\":10065:10079   */\n      add\n        /* \"#utility.yul\":10058:10095   */\n      mstore\n        /* \"#utility.yul\":9941:10102   */\n      pop\n      jump\t// out\n        /* \"#utility.yul\":10108:10474   */\n    tag_142:\n        /* \"#utility.yul\":10250:10253   */\n      0x00\n        /* \"#utility.yul\":10271:10338   */\n      tag_248\n        /* \"#utility.yul\":10335:10337   */\n      0x0b\n        /* \"#utility.yul\":10330:10333   */\n      dup4\n        /* \"#utility.yul\":10271:10338   */\n      tag_130\n      jump\t// in\n    tag_248:\n        /* \"#utility.yul\":10264:10338   */\n      swap2\n      pop\n        /* \"#utility.yul\":10347:10440   */\n      tag_249\n        /* \"#utility.yul\":10436:10439   */\n      dup3\n        /* \"#utility.yul\":10347:10440   */\n      tag_141\n      jump\t// in\n    tag_249:\n        /* \"#utility.yul\":10465:10467   */\n      0x20\n        /* \"#utility.yul\":10460:10463   */\n      dup3\n        /* \"#utility.yul\":10456:10468   */\n      add\n        /* \"#utility.yul\":10449:10468   */\n      swap1\n      pop\n        /* \"#utility.yul\":10108:10474   */\n      swap2\n      swap1\n      pop\n      jump\t// out\n        /* \"#utility.yul\":10480:10899   */\n    tag_65:\n        /* \"#utility.yul\":10646:10650   */\n      0x00\n        /* \"#utility.yul\":10684:10686   */\n      0x20\n        /* \"#utility.yul\":10673:10682   */\n      dup3\n        /* \"#utility.yul\":10669:10687   */\n      add\n        /* \"#utility.yul\":10661:10687   */\n      swap1\n      pop\n        /* \"#utility.yul\":10733:10742   */\n      dup2\n        /* \"#utility.yul\":10727:10731   */\n      dup2\n        /* \"#utility.yul\":10723:10743   */\n      sub\n        /* \"#utility.yul\":10719:10720   */\n      0x00\n        /* \"#utility.yul\":10708:10717   */\n      dup4\n        /* \"#utility.yul\":10704:10721   */\n      add\n        /* \"#utility.yul\":10697:10744   */\n      mstore\n        /* \"#utility.yul\":10761:10892   */\n      tag_251\n        /* \"#utility.yul\":10887:10891   */\n      dup2\n        /* \"#utility.yul\":10761:10892   */\n      tag_142\n      jump\t// in\n    tag_251:\n        /* \"#utility.yul\":10753:10892   */\n      swap1\n      pop\n        /* \"#utility.yul\":10480:10899   */\n      swap2\n      swap1\n      pop\n      jump\t// out\n        /* \"#utility.yul\":10905:11077   */\n    tag_143:\n        /* \"#utility.yul\":11045:11069   */\n      0x496e73756666696369656e7420616c6c6f77616e636500000000000000000000\n        /* \"#utility.yul\":11041:11042   */\n      0x00\n        /* \"#utility.yul\":11033:11039   */\n      dup3\n        /* \"#utility.yul\":11029:11043   */\n      add\n        /* \"#utility.yul\":11022:11070   */\n      mstore\n        /* \"#utility.yul\":10905:11077   */\n      pop\n      jump\t// out\n        /* \"#utility.yul\":11083:11449   */\n    tag_144:\n        /* \"#utility.yul\":11225:11228   */\n      0x00\n        /* \"#utility.yul\":11246:11313   */\n      tag_254\n        /* \"#utility.yul\":11310:11312   */\n      0x16\n        /* \"#utility.yul\":11305:11308   */\n      dup4\n        /* \"#utility.yul\":11246:11313   */\n      tag_130\n      jump\t// in\n    tag_254:\n        /* \"#utility.yul\":11239:11313   */\n      swap2\n      pop\n        /* \"#utility.yul\":11322:11415   */\n      tag_255\n        /* \"#utility.yul\":11411:11414   */\n      dup3\n        /* \"#utility.yul\":11322:11415   */\n      tag_143\n      jump\t// in\n    tag_255:\n        /* \"#utility.yul\":11440:11442   */\n      0x20\n        /* \"#utility.yul\":11435:11438   */\n      dup3\n        /* \"#utility.yul\":11431:11443   */\n      add\n        /* \"#utility.yul\":11424:11443   */\n      swap1\n      pop\n        /* \"#utility.yul\":11083:11449   */\n      swap2\n      swap1\n      pop\n      jump\t// out\n        /* \"#utility.yul\":11455:11874   */\n    tag_72:\n        /* \"#utility.yul\":11621:11625   */\n      0x00\n        /* \"#utility.yul\":11659:11661   */\n      0x20\n        /* \"#utility.yul\":11648:11657   */\n      dup3\n        /* \"#utility.yul\":11644:11662   */\n      add\n        /* \"#utility.yul\":11636:11662   */\n      swap1\n      pop\n        /* \"#utility.yul\":11708:11717   */\n      dup2\n        /* \"#utility.yul\":11702:11706   */\n      dup2\n        /* \"#utility.yul\":11698:11718   */\n      sub\n        /* \"#utility.yul\":11694:11695   */\n      0x00\n        /* \"#utility.yul\":11683:11692   */\n      dup4\n        /* \"#utility.yul\":11679:11696   */\n      add\n        /* \"#utility.yul\":11672:11719   */\n      mstore\n        /* \"#utility.yul\":11736:11867   */\n      tag_257\n        /* \"#utility.yul\":11862:11866   */\n      dup2\n        /* \"#utility.yul\":11736:11867   */\n      tag_144\n      jump\t// in\n    tag_257:\n        /* \"#utility.yul\":11728:11867   */\n      swap1\n      pop\n        /* \"#utility.yul\":11455:11874   */\n      swap2\n      swap1\n      pop\n      jump\t// out\n        /* \"#utility.yul\":11880:12212   */\n    tag_76:\n        /* \"#utility.yul\":12001:12005   */\n      0x00\n        /* \"#utility.yul\":12039:12041   */\n      0x40\n        /* \"#utility.yul\":12028:12037   */\n      dup3\n        /* \"#utility.yul\":12024:12042   */\n      add\n        /* \"#utility.yul\":12016:12042   */\n      swap1\n      pop\n        /* \"#utility.yul\":12052:12123   */\n      tag_259\n        /* \"#utility.yul\":12120:12121   */\n      0x00\n        /* \"#utility.yul\":12109:12118   */\n      dup4\n        /* \"#utility.yul\":12105:12122   */\n      add\n        /* \"#utility.yul\":12096:12102   */\n      dup6\n        /* \"#utility.yul\":12052:12123   */\n      tag_126\n      jump\t// in\n    tag_259:\n        /* \"#utility.yul\":12133:12205   */\n      tag_260\n        /* \"#utility.yul\":12201:12203   */\n      0x20\n        /* \"#utility.yul\":12190:12199   */\n      dup4\n        /* \"#utility.yul\":12186:12204   */\n      add\n        /* \"#utility.yul\":12177:12183   */\n      dup5\n        /* \"#utility.yul\":12133:12205   */\n      tag_119\n      jump\t// in\n    tag_260:\n        /* \"#utility.yul\":11880:12212   */\n      swap4\n      swap3\n      pop\n      pop\n      pop\n      jump\t// out\n        /* \"#utility.yul\":12218:12377   */\n    tag_145:\n        /* \"#utility.yul\":12358:12369   */\n      0x5a65726f20616464720000000000000000000000000000000000000000000000\n        /* \"#utility.yul\":12354:12355   */\n      0x00\n        /* \"#utility.yul\":12346:12352   */\n      dup3\n        /* \"#utility.yul\":12342:12356   */\n      add\n        /* \"#utility.yul\":12335:12370   */\n      mstore\n        /* \"#utility.yul\":12218:12377   */\n      pop\n      jump\t// out\n        /* \"#utility.yul\":12383:12748   */\n    tag_146:\n        /* \"#utility.yul\":12525:12528   */\n      0x00\n        /* \"#utility.yul\":12546:12612   */\n      tag_263\n        /* \"#utility.yul\":12610:12611   */\n      0x09\n        /* \"#utility.yul\":12605:12608   */\n      dup4\n        /* \"#utility.yul\":12546:12612   */\n      tag_130\n      jump\t// in\n    tag_263:\n        /* \"#utility.yul\":12539:12612   */\n      swap2\n      pop\n        /* \"#utility.yul\":12621:12714   */\n      tag_264\n        /* \"#utility.yul\":12710:12713   */\n      dup3\n        /* \"#utility.yul\":12621:12714   */\n      tag_145\n      jump\t// in\n    tag_264:\n        /* \"#utility.yul\":12739:12741   */\n      0x20\n        /* \"#utility.yul\":12734:12737   */\n      dup3\n        /* \"#utility.yul\":12730:12742   */\n      add\n        /* \"#utility.yul\":12723:12742   */\n      swap1\n      pop\n        /* \"#utility.yul\":12383:12748   */\n      swap2\n      swap1\n      pop\n      jump\t// out\n        /* \"#utility.yul\":12754:13173   */\n    tag_89:\n        /* \"#utility.yul\":12920:12924   */\n      0x00\n        /* \"#utility.yul\":12958:12960   */\n      0x20\n        /* \"#utility.yul\":12947:12956   */\n      dup3\n        /* \"#utility.yul\":12943:12961   */\n      add\n        /* \"#utility.yul\":12935:12961   */\n      swap1\n      pop\n        /* \"#utility.yul\":13007:13016   */\n      dup2\n        /* \"#utility.yul\":13001:13005   */\n      dup2\n        /* \"#utility.yul\":12997:13017   */\n      sub\n        /* \"#utility.yul\":12993:12994   */\n      0x00\n        /* \"#utility.yul\":12982:12991   */\n      dup4\n        /* \"#utility.yul\":12978:12995   */\n      add\n        /* \"#utility.yul\":12971:13018   */\n      mstore\n        /* \"#utility.yul\":13035:13166   */\n      tag_266\n        /* \"#utility.yul\":13161:13165   */\n      dup2\n        /* \"#utility.yul\":13035:13166   */\n      tag_146\n      jump\t// in\n    tag_266:\n        /* \"#utility.yul\":13027:13166   */\n      swap1\n      pop\n        /* \"#utility.yul\":12754:13173   */\n      swap2\n      swap1\n      pop\n      jump\t// out\n        /* \"#utility.yul\":13179:13511   */\n    tag_91:\n        /* \"#utility.yul\":13300:13304   */\n      0x00\n        /* \"#utility.yul\":13338:13340   */\n      0x40\n        /* \"#utility.yul\":13327:13336   */\n      dup3\n        /* \"#utility.yul\":13323:13341   */\n      add\n        /* \"#utility.yul\":13315:13341   */\n      swap1\n      pop\n        /* \"#utility.yul\":13351:13422   */\n      tag_268\n        /* \"#utility.yul\":13419:13420   */\n      0x00\n        /* \"#utility.yul\":13408:13417   */\n      dup4\n        /* \"#utility.yul\":13404:13421   */\n      add\n        /* \"#utility.yul\":13395:13401   */\n      dup6\n        /* \"#utility.yul\":13351:13422   */\n      tag_119\n      jump\t// in\n    tag_268:\n        /* \"#utility.yul\":13432:13504   */\n      tag_269\n        /* \"#utility.yul\":13500:13502   */\n      0x20\n        /* \"#utility.yul\":13489:13498   */\n      dup4\n        /* \"#utility.yul\":13485:13503   */\n      add\n        /* \"#utility.yul\":13476:13482   */\n      dup5\n        /* \"#utility.yul\":13432:13504   */\n      tag_126\n      jump\t// in\n    tag_269:\n        /* \"#utility.yul\":13179:13511   */\n      swap4\n      swap3\n      pop\n      pop\n      pop\n      jump\t// out\n        /* \"#utility.yul\":13517:13615   */\n    tag_147:\n        /* \"#utility.yul\":13568:13574   */\n      0x00\n        /* \"#utility.yul\":13602:13607   */\n      dup2\n        /* \"#utility.yul\":13596:13608   */\n      mload\n        /* \"#utility.yul\":13586:13608   */\n      swap1\n      pop\n        /* \"#utility.yul\":13517:13615   */\n      swap2\n      swap1\n      pop\n      jump\t// out\n        /* \"#utility.yul\":13621:13768   */\n    tag_148:\n        /* \"#utility.yul\":13722:13733   */\n      0x00\n        /* \"#utility.yul\":13759:13762   */\n      dup2\n        /* \"#utility.yul\":13744:13762   */\n      swap1\n      pop\n        /* \"#utility.yul\":13621:13768   */\n      swap3\n      swap2\n      pop\n      pop\n      jump\t// out\n        /* \"#utility.yul\":13774:13913   */\n    tag_149:\n        /* \"#utility.yul\":13863:13869   */\n      dup3\n        /* \"#utility.yul\":13858:13861   */\n      dup2\n        /* \"#utility.yul\":13853:13856   */\n      dup4\n        /* \"#utility.yul\":13847:13870   */\n      mcopy\n        /* \"#utility.yul\":13904:13905   */\n      0x00\n        /* \"#utility.yul\":13895:13901   */\n      dup4\n        /* \"#utility.yul\":13890:13893   */\n      dup4\n        /* \"#utility.yul\":13886:13902   */\n      add\n        /* \"#utility.yul\":13879:13906   */\n      mstore\n        /* \"#utility.yul\":13774:13913   */\n      pop\n      pop\n      pop\n      jump\t// out\n        /* \"#utility.yul\":13919:14305   */\n    tag_150:\n        /* \"#utility.yul\":14023:14026   */\n      0x00\n        /* \"#utility.yul\":14051:14089   */\n      tag_274\n        /* \"#utility.yul\":14083:14088   */\n      dup3\n        /* \"#utility.yul\":14051:14089   */\n      tag_147\n      jump\t// in\n    tag_274:\n        /* \"#utility.yul\":14105:14193   */\n      tag_275\n        /* \"#utility.yul\":14186:14192   */\n      dup2\n        /* \"#utility.yul\":14181:14184   */\n      dup6\n        /* \"#utility.yul\":14105:14193   */\n      tag_148\n      jump\t// in\n    tag_275:\n        /* \"#utility.yul\":14098:14193   */\n      swap4\n      pop\n        /* \"#utility.yul\":14202:14267   */\n      tag_276\n        /* \"#utility.yul\":14260:14266   */\n      dup2\n        /* \"#utility.yul\":14255:14258   */\n      dup6\n        /* \"#utility.yul\":14248:14252   */\n      0x20\n        /* \"#utility.yul\":14241:14246   */\n      dup7\n        /* \"#utility.yul\":14237:14253   */\n      add\n        /* \"#utility.yul\":14202:14267   */\n      tag_149\n      jump\t// in\n    tag_276:\n        /* \"#utility.yul\":14292:14298   */\n      dup1\n        /* \"#utility.yul\":14287:14290   */\n      dup5\n        /* \"#utility.yul\":14283:14299   */\n      add\n        /* \"#utility.yul\":14276:14299   */\n      swap2\n      pop\n        /* \"#utility.yul\":14027:14305   */\n      pop\n        /* \"#utility.yul\":13919:14305   */\n      swap3\n      swap2\n      pop\n      pop\n      jump\t// out\n        /* \"#utility.yul\":14311:14582   */\n    tag_93:\n        /* \"#utility.yul\":14441:14444   */\n      0x00\n        /* \"#utility.yul\":14463:14556   */\n      tag_278\n        /* \"#utility.yul\":14552:14555   */\n      dup3\n        /* \"#utility.yul\":14543:14549   */\n      dup5\n        /* \"#utility.yul\":14463:14556   */\n      tag_150\n      jump\t// in\n    tag_278:\n        /* \"#utility.yul\":14456:14556   */\n      swap2\n      pop\n        /* \"#utility.yul\":14573:14576   */\n      dup2\n        /* \"#utility.yul\":14566:14576   */\n      swap1\n      pop\n        /* \"#utility.yul\":14311:14582   */\n      swap3\n      swap2\n      pop\n      pop\n      jump\t// out\n        /* \"#utility.yul\":14588:14678   */\n    tag_151:\n        /* \"#utility.yul\":14622:14629   */\n      0x00\n        /* \"#utility.yul\":14665:14670   */\n      dup2\n        /* \"#utility.yul\":14658:14671   */\n      iszero\n        /* \"#utility.yul\":14651:14672   */\n      iszero\n        /* \"#utility.yul\":14640:14672   */\n      swap1\n      pop\n        /* \"#utility.yul\":14588:14678   */\n      swap2\n      swap1\n      pop\n      jump\t// out\n        /* \"#utility.yul\":14684:14800   */\n    tag_152:\n        /* \"#utility.yul\":14754:14775   */\n      tag_281\n        /* \"#utility.yul\":14769:14774   */\n      dup2\n        /* \"#utility.yul\":14754:14775   */\n      tag_151\n      jump\t// in\n    tag_281:\n        /* \"#utility.yul\":14747:14752   */\n      dup2\n        /* \"#utility.yul\":14744:14776   */\n      eq\n        /* \"#utility.yul\":14734:14794   */\n      tag_282\n      jumpi\n        /* \"#utility.yul\":14790:14791   */\n      0x00\n        /* \"#utility.yul\":14787:14788   */\n      0x00\n        /* \"#utility.yul\":14780:14792   */\n      revert\n        /* \"#utility.yul\":14734:14794   */\n    tag_282:\n        /* \"#utility.yul\":14684:14800   */\n      pop\n      jump\t// out\n        /* \"#utility.yul\":14806:14943   */\n    tag_153:\n        /* \"#utility.yul\":14860:14865   */\n      0x00\n        /* \"#utility.yul\":14891:14897   */\n      dup2\n        /* \"#utility.yul\":14885:14898   */\n      mload\n        /* \"#utility.yul\":14876:14898   */\n      swap1\n      pop\n        /* \"#utility.yul\":14907:14937   */\n      tag_284\n        /* \"#utility.yul\":14931:14936   */\n      dup2\n        /* \"#utility.yul\":14907:14937   */\n      tag_152\n      jump\t// in\n    tag_284:\n        /* \"#utility.yul\":14806:14943   */\n      swap3\n      swap2\n      pop\n      pop\n      jump\t// out\n        /* \"#utility.yul\":14949:15294   */\n    tag_100:\n        /* \"#utility.yul\":15016:15022   */\n      0x00\n        /* \"#utility.yul\":15065:15067   */\n      0x20\n        /* \"#utility.yul\":15053:15062   */\n      dup3\n        /* \"#utility.yul\":15044:15051   */\n      dup5\n        /* \"#utility.yul\":15040:15063   */\n      sub\n        /* \"#utility.yul\":15036:15068   */\n      slt\n        /* \"#utility.yul\":15033:15152   */\n      iszero\n      tag_286\n      jumpi\n        /* \"#utility.yul\":15071:15150   */\n      tag_287\n      tag_121\n      jump\t// in\n    tag_287:\n        /* \"#utility.yul\":15033:15152   */\n    tag_286:\n        /* \"#utility.yul\":15191:15192   */\n      0x00\n        /* \"#utility.yul\":15216:15277   */\n      tag_288\n        /* \"#utility.yul\":15269:15276   */\n      dup5\n        /* \"#utility.yul\":15260:15266   */\n      dup3\n        /* \"#utility.yul\":15249:15258   */\n      dup6\n        /* \"#utility.yul\":15245:15267   */\n      add\n        /* \"#utility.yul\":15216:15277   */\n      tag_153\n      jump\t// in\n    tag_288:\n        /* \"#utility.yul\":15206:15277   */\n      swap2\n      pop\n        /* \"#utility.yul\":15162:15287   */\n      pop\n        /* \"#utility.yul\":14949:15294   */\n      swap3\n      swap2\n      pop\n      pop\n      jump\t// out\n        /* \"#utility.yul\":15300:15465   */\n    tag_154:\n        /* \"#utility.yul\":15440:15457   */\n      0x7472616e73666572206661696c65640000000000000000000000000000000000\n        /* \"#utility.yul\":15436:15437   */\n      0x00\n        /* \"#utility.yul\":15428:15434   */\n      dup3\n        /* \"#utility.yul\":15424:15438   */\n      add\n        /* \"#utility.yul\":15417:15458   */\n      mstore\n        /* \"#utility.yul\":15300:15465   */\n      pop\n      jump\t// out\n        /* \"#utility.yul\":15471:15837   */\n    tag_155:\n        /* \"#utility.yul\":15613:15616   */\n      0x00\n        /* \"#utility.yul\":15634:15701   */\n      tag_291\n        /* \"#utility.yul\":15698:15700   */\n      0x0f\n        /* \"#utility.yul\":15693:15696   */\n      dup4\n        /* \"#utility.yul\":15634:15701   */\n      tag_130\n      jump\t// in\n    tag_291:\n        /* \"#utility.yul\":15627:15701   */\n      swap2\n      pop\n        /* \"#utility.yul\":15710:15803   */\n      tag_292\n        /* \"#utility.yul\":15799:15802   */\n      dup3\n        /* \"#utility.yul\":15710:15803   */\n      tag_154\n      jump\t// in\n    tag_292:\n        /* \"#utility.yul\":15828:15830   */\n      0x20\n        /* \"#utility.yul\":15823:15826   */\n      dup3\n        /* \"#utility.yul\":15819:15831   */\n      add\n        /* \"#utility.yul\":15812:15831   */\n      swap1\n      pop\n        /* \"#utility.yul\":15471:15837   */\n      swap2\n      swap1\n      pop\n      jump\t// out\n        /* \"#utility.yul\":15843:16262   */\n    tag_103:\n        /* \"#utility.yul\":16009:16013   */\n      0x00\n        /* \"#utility.yul\":16047:16049   */\n      0x20\n        /* \"#utility.yul\":16036:16045   */\n      dup3\n        /* \"#utility.yul\":16032:16050   */\n      add\n        /* \"#utility.yul\":16024:16050   */\n      swap1\n      pop\n        /* \"#utility.yul\":16096:16105   */\n      dup2\n        /* \"#utility.yul\":16090:16094   */\n      dup2\n        /* \"#utility.yul\":16086:16106   */\n      sub\n        /* \"#utility.yul\":16082:16083   */\n      0x00\n        /* \"#utility.yul\":16071:16080   */\n      dup4\n        /* \"#utility.yul\":16067:16084   */\n      add\n        /* \"#utility.yul\":16060:16107   */\n      mstore\n        /* \"#utility.yul\":16124:16255   */\n      tag_294\n        /* \"#utility.yul\":16250:16254   */\n      dup2\n        /* \"#utility.yul\":16124:16255   */\n      tag_155\n      jump\t// in\n    tag_294:\n        /* \"#utility.yul\":16116:16255   */\n      swap1\n      pop\n        /* \"#utility.yul\":15843:16262   */\n      swap2\n      swap1\n      pop\n      jump\t// out\n        /* \"#utility.yul\":16268:16710   */\n    tag_106:\n        /* \"#utility.yul\":16417:16421   */\n      0x00\n        /* \"#utility.yul\":16455:16457   */\n      0x60\n        /* \"#utility.yul\":16444:16453   */\n      dup3\n        /* \"#utility.yul\":16440:16458   */\n      add\n        /* \"#utility.yul\":16432:16458   */\n      swap1\n      pop\n        /* \"#utility.yul\":16468:16539   */\n      tag_296\n        /* \"#utility.yul\":16536:16537   */\n      0x00\n        /* \"#utility.yul\":16525:16534   */\n      dup4\n        /* \"#utility.yul\":16521:16538   */\n      add\n        /* \"#utility.yul\":16512:16518   */\n      dup7\n        /* \"#utility.yul\":16468:16539   */\n      tag_119\n      jump\t// in\n    tag_296:\n        /* \"#utility.yul\":16549:16621   */\n      tag_297\n        /* \"#utility.yul\":16617:16619   */\n      0x20\n        /* \"#utility.yul\":16606:16615   */\n      dup4\n        /* \"#utility.yul\":16602:16620   */\n      add\n        /* \"#utility.yul\":16593:16599   */\n      dup6\n        /* \"#utility.yul\":16549:16621   */\n      tag_119\n      jump\t// in\n    tag_297:\n        /* \"#utility.yul\":16631:16703   */\n      tag_298\n        /* \"#utility.yul\":16699:16701   */\n      0x40\n        /* \"#utility.yul\":16688:16697   */\n      dup4\n        /* \"#utility.yul\":16684:16702   */\n      add\n        /* \"#utility.yul\":16675:16681   */\n      dup5\n        /* \"#utility.yul\":16631:16703   */\n      tag_126\n      jump\t// in\n    tag_298:\n        /* \"#utility.yul\":16268:16710   */\n      swap5\n      swap4\n      pop\n      pop\n      pop\n      pop\n      jump\t// out\n        /* \"#utility.yul\":16716:16885   */\n    tag_156:\n        /* \"#utility.yul\":16856:16877   */\n      0x7472616e7366657246726f6d206661696c656400000000000000000000000000\n        /* \"#utility.yul\":16852:16853   */\n      0x00\n        /* \"#utility.yul\":16844:16850   */\n      dup3\n        /* \"#utility.yul\":16840:16854   */\n      add\n        /* \"#utility.yul\":16833:16878   */\n      mstore\n        /* \"#utility.yul\":16716:16885   */\n      pop\n      jump\t// out\n        /* \"#utility.yul\":16891:17257   */\n    tag_157:\n        /* \"#utility.yul\":17033:17036   */\n      0x00\n        /* \"#utility.yul\":17054:17121   */\n      tag_301\n        /* \"#utility.yul\":17118:17120   */\n      0x13\n        /* \"#utility.yul\":17113:17116   */\n      dup4\n        /* \"#utility.yul\":17054:17121   */\n      tag_130\n      jump\t// in\n    tag_301:\n        /* \"#utility.yul\":17047:17121   */\n      swap2\n      pop\n        /* \"#utility.yul\":17130:17223   */\n      tag_302\n        /* \"#utility.yul\":17219:17222   */\n      dup3\n        /* \"#utility.yul\":17130:17223   */\n      tag_156\n      jump\t// in\n    tag_302:\n        /* \"#utility.yul\":17248:17250   */\n      0x20\n        /* \"#utility.yul\":17243:17246   */\n      dup3\n        /* \"#utility.yul\":17239:17251   */\n      add\n        /* \"#utility.yul\":17232:17251   */\n      swap1\n      pop\n        /* \"#utility.yul\":16891:17257   */\n      swap2\n      swap1\n      pop\n      jump\t// out\n        /* \"#utility.yul\":17263:17682   */\n    tag_116:\n        /* \"#utility.yul\":17429:17433   */\n      0x00\n        /* \"#utility.yul\":17467:17469   */\n      0x20\n        /* \"#utility.yul\":17456:17465   */\n      dup3\n        /* \"#utility.yul\":17452:17470   */\n      add\n        /* \"#utility.yul\":17444:17470   */\n      swap1\n      pop\n        /* \"#utility.yul\":17516:17525   */\n      dup2\n        /* \"#utility.yul\":17510:17514   */\n      dup2\n        /* \"#utility.yul\":17506:17526   */\n      sub\n        /* \"#utility.yul\":17502:17503   */\n      0x00\n        /* \"#utility.yul\":17491:17500   */\n      dup4\n        /* \"#utility.yul\":17487:17504   */\n      add\n        /* \"#utility.yul\":17480:17527   */\n      mstore\n        /* \"#utility.yul\":17544:17675   */\n      tag_304\n        /* \"#utility.yul\":17670:17674   */\n      dup2\n        /* \"#utility.yul\":17544:17675   */\n      tag_157\n      jump\t// in\n    tag_304:\n        /* \"#utility.yul\":17536:17675   */\n      swap1\n      pop\n        /* \"#utility.yul\":17263:17682   */\n      swap2\n      swap1\n      pop\n      jump\t// out\n\n    auxdata: 0xa26469706673582212204a6a823f2790ee8d1b8de94a8b28bb4ca833637da9ce12a2b03c30da4fa0deab64736f6c634300081e0033\n}\n",
				"bytecode": {
					"linkReferences": {},
					"object": "6080604052348015600e575f5ffd5b50335f5f6101000a81548173ffffffffffffffffffffffffffffffffffffffff021916908373ffffffffffffffffffffffffffffffffffffffff1602179055503373ffffffffffffffffffffffffffffffffffffffff165f73ffffffffffffffffffffffffffffffffffffffff167f8be0079c531659141344cd1fd0a4f28419497f9722a3daafe3b4186f6b6457e060405160405180910390a361131e806100b55f395ff3fe608060405234801561000f575f5ffd5b5060043610610060575f3560e01c80638da5cb5b14610064578063c4db383b14610082578063f2fde38b146100b2578063f417ea61146100ce578063f7888aec146100ea578063f8a67a621461011a575b5f5ffd5b61006c610136565b6040516100799190610b58565b60405180910390f35b61009c60048036038101906100979190610b9f565b61015a565b6040516100a99190610bf5565b60405180910390f35b6100cc60048036038101906100c79190610c0e565b6101dd565b005b6100e860048036038101906100e39190610c63565b610395565b005b61010460048036038101906100ff9190610b9f565b610700565b6040516101119190610bf5565b60405180910390f35b610134600480360381019061012f9190610cc7565b610781565b005b5f5f9054906101000a900473ffffffffffffffffffffffffffffffffffffffff1681565b5f8273ffffffffffffffffffffffffffffffffffffffff1663dd62ed3e83306040518363ffffffff1660e01b8152600401610196929190610d17565b602060405180830381865afa1580156101b1573d5f5f3e3d5ffd5b505050506040513d601f19601f820116820180604052508101906101d59190610d52565b905092915050565b5f5f9054906101000a900473ffffffffffffffffffffffffffffffffffffffff1673ffffffffffffffffffffffffffffffffffffffff163373ffffffffffffffffffffffffffffffffffffffff161461026b576040517f08c379a000000000000000000000000000000000000000000000000000000000815260040161026290610dd7565b60405180910390fd5b5f73ffffffffffffffffffffffffffffffffffffffff168173ffffffffffffffffffffffffffffffffffffffff16036102d9576040517f08c379a00000000000000000000000000000000000000000000000000000000081526004016102d090610e3f565b60405180910390fd5b8073ffffffffffffffffffffffffffffffffffffffff165f5f9054906101000a900473ffffffffffffffffffffffffffffffffffffffff1673ffffffffffffffffffffffffffffffffffffffff167f8be0079c531659141344cd1fd0a4f28419497f9722a3daafe3b4186f6b6457e060405160405180910390a3805f5f6101000a81548173ffffffffffffffffffffffffffffffffffffffff021916908373ffffffffffffffffffffffffffffffffffffffff16021790555050565b5f5f9054906101000a900473ffffffffffffffffffffffffffffffffffffffff1673ffffffffffffffffffffffffffffffffffffffff163373ffffffffffffffffffffffffffffffffffffffff1614610423576040517f08c379a000000000000000000000000000000000000000000000000000000000815260040161041a90610dd7565b60405180910390fd5b5f73ffffffffffffffffffffffffffffffffffffffff168473ffffffffffffffffffffffffffffffffffffffff1603610491576040517f08c379a000000000000000000000000000000000000000000000000000000000815260040161048890610ea7565b60405180910390fd5b5f73ffffffffffffffffffffffffffffffffffffffff168373ffffffffffffffffffffffffffffffffffffffff16036104ff576040517f08c379a00000000000000000000000000000000000000000000000000000000081526004016104f690610f0f565b60405180910390fd5b5f73ffffffffffffffffffffffffffffffffffffffff168273ffffffffffffffffffffffffffffffffffffffff160361056d576040517f08c379a000000000000000000000000000000000000000000000000000000000815260040161056490610f77565b60405180910390fd5b5f81116105af576040517f08c379a00000000000000000000000000000000000000000000000000000000081526004016105a690610fdf565b60405180910390fd5b5f8473ffffffffffffffffffffffffffffffffffffffff1663dd62ed3e85306040518363ffffffff1660e01b81526004016105eb929190610d17565b602060405180830381865afa158015610606573d5f5f3e3d5ffd5b505050506040513d601f19601f8201168201806040525081019061062a9190610d52565b90508181101561066f576040517f08c379a000000000000000000000000000000000000000000000000000000000815260040161066690611047565b60405180910390fd5b61067b858585856109e6565b8273ffffffffffffffffffffffffffffffffffffffff168473ffffffffffffffffffffffffffffffffffffffff168673ffffffffffffffffffffffffffffffffffffffff167faba557e88dadb8c2eb8a50acdbefc9fcdfb8182cad699b509f4db1e22f9f772a85336040516106f1929190611065565b60405180910390a45050505050565b5f8273ffffffffffffffffffffffffffffffffffffffff166370a08231836040518263ffffffff1660e01b815260040161073a9190610b58565b602060405180830381865afa158015610755573d5f5f3e3d5ffd5b505050506040513d601f19601f820116820180604052508101906107799190610d52565b905092915050565b5f5f9054906101000a900473ffffffffffffffffffffffffffffffffffffffff1673ffffffffffffffffffffffffffffffffffffffff163373ffffffffffffffffffffffffffffffffffffffff161461080f576040517f08c379a000000000000000000000000000000000000000000000000000000000815260040161080690610dd7565b60405180910390fd5b5f73ffffffffffffffffffffffffffffffffffffffff168373ffffffffffffffffffffffffffffffffffffffff161415801561087757505f73ffffffffffffffffffffffffffffffffffffffff168173ffffffffffffffffffffffffffffffffffffffff1614155b6108b6576040517f08c379a00000000000000000000000000000000000000000000000000000000081526004016108ad906110d6565b60405180910390fd5b5f5f8473ffffffffffffffffffffffffffffffffffffffff1663a9059cbb84866040516024016108e79291906110f4565b6040516020818303038152906040529060e01b6020820180517bffffffffffffffffffffffffffffffffffffffffffffffffffffffff8381831617835250505050604051610935919061116d565b5f604051808303815f865af19150503d805f811461096e576040519150601f19603f3d011682016040523d82523d5f602084013e610973565b606091505b50915091508180156109a057505f8151148061099f57508080602001905181019061099e91906111b8565b5b5b6109df576040517f08c379a00000000000000000000000000000000000000000000000000000000081526004016109d69061122d565b60405180910390fd5b5050505050565b5f5f8573ffffffffffffffffffffffffffffffffffffffff166323b872dd868686604051602401610a199392919061124b565b6040516020818303038152906040529060e01b6020820180517bffffffffffffffffffffffffffffffffffffffffffffffffffffffff8381831617835250505050604051610a67919061116d565b5f604051808303815f865af19150503d805f8114610aa0576040519150601f19603f3d011682016040523d82523d5f602084013e610aa5565b606091505b5091509150818015610ad257505f81511480610ad1575080806020019051810190610ad091906111b8565b5b5b610b11576040517f08c379a0000000000000000000000000000000000000000000000000000000008152600401610b08906112ca565b60405180910390fd5b505050505050565b5f73ffffffffffffffffffffffffffffffffffffffff82169050919050565b5f610b4282610b19565b9050919050565b610b5281610b38565b82525050565b5f602082019050610b6b5f830184610b49565b92915050565b5f5ffd5b610b7e81610b38565b8114610b88575f5ffd5b50565b5f81359050610b9981610b75565b92915050565b5f5f60408385031215610bb557610bb4610b71565b5b5f610bc285828601610b8b565b9250506020610bd385828601610b8b565b9150509250929050565b5f819050919050565b610bef81610bdd565b82525050565b5f602082019050610c085f830184610be6565b92915050565b5f60208284031215610c2357610c22610b71565b5b5f610c3084828501610b8b565b91505092915050565b610c4281610bdd565b8114610c4c575f5ffd5b50565b5f81359050610c5d81610c39565b92915050565b5f5f5f5f60808587031215610c7b57610c7a610b71565b5b5f610c8887828801610b8b565b9450506020610c9987828801610b8b565b9350506040610caa87828801610b8b565b9250506060610cbb87828801610c4f565b91505092959194509250565b5f5f5f60608486031215610cde57610cdd610b71565b5b5f610ceb86828701610b8b565b9350506020610cfc86828701610c4f565b9250506040610d0d86828701610b8b565b9150509250925092565b5f604082019050610d2a5f830185610b49565b610d376020830184610b49565b9392505050565b5f81519050610d4c81610c39565b92915050565b5f60208284031215610d6757610d66610b71565b5b5f610d7484828501610d3e565b91505092915050565b5f82825260208201905092915050565b7f4e6f74206f776e657200000000000000000000000000000000000000000000005f82015250565b5f610dc1600983610d7d565b9150610dcc82610d8d565b602082019050919050565b5f6020820190508181035f830152610dee81610db5565b9050919050565b7f5a65726f206e65774f776e6572000000000000000000000000000000000000005f82015250565b5f610e29600d83610d7d565b9150610e3482610df5565b602082019050919050565b5f6020820190508181035f830152610e5681610e1d565b9050919050565b7f5a65726f20746f6b656e000000000000000000000000000000000000000000005f82015250565b5f610e91600a83610d7d565b9150610e9c82610e5d565b602082019050919050565b5f6020820190508181035f830152610ebe81610e85565b9050919050565b7f5a65726f2066726f6d00000000000000000000000000000000000000000000005f82015250565b5f610ef9600983610d7d565b9150610f0482610ec5565b602082019050919050565b5f6020820190508181035f830152610f2681610eed565b9050919050565b7f5a65726f20746f000000000000000000000000000000000000000000000000005f82015250565b5f610f61600783610d7d565b9150610f6c82610f2d565b602082019050919050565b5f6020820190508181035f830152610f8e81610f55565b9050919050565b7f5a65726f20616d6f756e740000000000000000000000000000000000000000005f82015250565b5f610fc9600b83610d7d565b9150610fd482610f95565b602082019050919050565b5f6020820190508181035f830152610ff681610fbd565b9050919050565b7f496e73756666696369656e7420616c6c6f77616e6365000000000000000000005f82015250565b5f611031601683610d7d565b915061103c82610ffd565b602082019050919050565b5f6020820190508181035f83015261105e81611025565b9050919050565b5f6040820190506110785f830185610be6565b6110856020830184610b49565b9392505050565b7f5a65726f206164647200000000000000000000000000000000000000000000005f82015250565b5f6110c0600983610d7d565b91506110cb8261108c565b602082019050919050565b5f6020820190508181035f8301526110ed816110b4565b9050919050565b5f6040820190506111075f830185610b49565b6111146020830184610be6565b9392505050565b5f81519050919050565b5f81905092915050565b8281835e5f83830152505050565b5f6111478261111b565b6111518185611125565b935061116181856020860161112f565b80840191505092915050565b5f611178828461113d565b915081905092915050565b5f8115159050919050565b61119781611183565b81146111a1575f5ffd5b50565b5f815190506111b28161118e565b92915050565b5f602082840312156111cd576111cc610b71565b5b5f6111da848285016111a4565b91505092915050565b7f7472616e73666572206661696c656400000000000000000000000000000000005f82015250565b5f611217600f83610d7d565b9150611222826111e3565b602082019050919050565b5f6020820190508181035f8301526112448161120b565b9050919050565b5f60608201905061125e5f830186610b49565b61126b6020830185610b49565b6112786040830184610be6565b949350505050565b7f7472616e7366657246726f6d206661696c6564000000000000000000000000005f82015250565b5f6112b4601383610d7d565b91506112bf82611280565b602082019050919050565b5f6020820190508181035f8301526112e1816112a8565b905091905056fea26469706673582212204a6a823f2790ee8d1b8de94a8b28bb4ca833637da9ce12a2b03c30da4fa0deab64736f6c634300081e0033",
					"opcodes": "PUSH1 0x80 PUSH1 0x40 MSTORE CALLVALUE DUP1 ISZERO PUSH1 0xE JUMPI PUSH0 PUSH0 REVERT JUMPDEST POP CALLER PUSH0 PUSH0 PUSH2 0x100 EXP DUP2 SLOAD DUP2 PUSH20 0xFFFFFFFFFFFFFFFFFFFFFFFFFFFFFFFFFFFFFFFF MUL NOT AND SWAP1 DUP4 PUSH20 0xFFFFFFFFFFFFFFFFFFFFFFFFFFFFFFFFFFFFFFFF AND MUL OR SWAP1 SSTORE POP CALLER PUSH20 0xFFFFFFFFFFFFFFFFFFFFFFFFFFFFFFFFFFFFFFFF AND PUSH0 PUSH20 0xFFFFFFFFFFFFFFFFFFFFFFFFFFFFFFFFFFFFFFFF AND PUSH32 0x8BE0079C531659141344CD1FD0A4F28419497F9722A3DAAFE3B4186F6B6457E0 PUSH1 0x40 MLOAD PUSH1 0x40 MLOAD DUP1 SWAP2 SUB SWAP1 LOG3 PUSH2 0x131E DUP1 PUSH2 0xB5 PUSH0 CODECOPY PUSH0 RETURN INVALID PUSH1 0x80 PUSH1 0x40 MSTORE CALLVALUE DUP1 ISZERO PUSH2 0xF JUMPI PUSH0 PUSH0 REVERT JUMPDEST POP PUSH1 0x4 CALLDATASIZE LT PUSH2 0x60 JUMPI PUSH0 CALLDATALOAD PUSH1 0xE0 SHR DUP1 PUSH4 0x8DA5CB5B EQ PUSH2 0x64 JUMPI DUP1 PUSH4 0xC4DB383B EQ PUSH2 0x82 JUMPI DUP1 PUSH4 0xF2FDE38B EQ PUSH2 0xB2 JUMPI DUP1 PUSH4 0xF417EA61 EQ PUSH2 0xCE JUMPI DUP1 PUSH4 0xF7888AEC EQ PUSH2 0xEA JUMPI DUP1 PUSH4 0xF8A67A62 EQ PUSH2 0x11A JUMPI JUMPDEST PUSH0 PUSH0 REVERT JUMPDEST PUSH2 0x6C PUSH2 0x136 JUMP JUMPDEST PUSH1 0x40 MLOAD PUSH2 0x79 SWAP2 SWAP1 PUSH2 0xB58 JUMP JUMPDEST PUSH1 0x40 MLOAD DUP1 SWAP2 SUB SWAP1 RETURN JUMPDEST PUSH2 0x9C PUSH1 0x4 DUP1 CALLDATASIZE SUB DUP2 ADD SWAP1 PUSH2 0x97 SWAP2 SWAP1 PUSH2 0xB9F JUMP JUMPDEST PUSH2 0x15A JUMP JUMPDEST PUSH1 0x40 MLOAD PUSH2 0xA9 SWAP2 SWAP1 PUSH2 0xBF5 JUMP JUMPDEST PUSH1 0x40 MLOAD DUP1 SWAP2 SUB SWAP1 RETURN JUMPDEST PUSH2 0xCC PUSH1 0x4 DUP1 CALLDATASIZE SUB DUP2 ADD SWAP1 PUSH2 0xC7 SWAP2 SWAP1 PUSH2 0xC0E JUMP JUMPDEST PUSH2 0x1DD JUMP JUMPDEST STOP JUMPDEST PUSH2 0xE8 PUSH1 0x4 DUP1 CALLDATASIZE SUB DUP2 ADD SWAP1 PUSH2 0xE3 SWAP2 SWAP1 PUSH2 0xC63 JUMP JUMPDEST PUSH2 0x395 JUMP JUMPDEST STOP JUMPDEST PUSH2 0x104 PUSH1 0x4 DUP1 CALLDATASIZE SUB DUP2 ADD SWAP1 PUSH2 0xFF SWAP2 SWAP1 PUSH2 0xB9F JUMP JUMPDEST PUSH2 0x700 JUMP JUMPDEST PUSH1 0x40 MLOAD PUSH2 0x111 SWAP2 SWAP1 PUSH2 0xBF5 JUMP JUMPDEST PUSH1 0x40 MLOAD DUP1 SWAP2 SUB SWAP1 RETURN JUMPDEST PUSH2 0x134 PUSH1 0x4 DUP1 CALLDATASIZE SUB DUP2 ADD SWAP1 PUSH2 0x12F SWAP2 SWAP1 PUSH2 0xCC7 JUMP JUMPDEST PUSH2 0x781 JUMP JUMPDEST STOP JUMPDEST PUSH0 PUSH0 SWAP1 SLOAD SWAP1 PUSH2 0x100 EXP SWAP1 DIV PUSH20 0xFFFFFFFFFFFFFFFFFFFFFFFFFFFFFFFFFFFFFFFF AND DUP2 JUMP JUMPDEST PUSH0 DUP3 PUSH20 0xFFFFFFFFFFFFFFFFFFFFFFFFFFFFFFFFFFFFFFFF AND PUSH4 0xDD62ED3E DUP4 ADDRESS PUSH1 0x40 MLOAD DUP4 PUSH4 0xFFFFFFFF AND PUSH1 0xE0 SHL DUP2 MSTORE PUSH1 0x4 ADD PUSH2 0x196 SWAP3 SWAP2 SWAP1 PUSH2 0xD17 JUMP JUMPDEST PUSH1 0x20 PUSH1 0x40 MLOAD DUP1 DUP4 SUB DUP2 DUP7 GAS STATICCALL ISZERO DUP1 ISZERO PUSH2 0x1B1 JUMPI RETURNDATASIZE PUSH0 PUSH0 RETURNDATACOPY RETURNDATASIZE PUSH0 REVERT JUMPDEST POP POP POP POP PUSH1 0x40 MLOAD RETURNDATASIZE PUSH1 0x1F NOT PUSH1 0x1F DUP3 ADD AND DUP3 ADD DUP1 PUSH1 0x40 MSTORE POP DUP2 ADD SWAP1 PUSH2 0x1D5 SWAP2 SWAP1 PUSH2 0xD52 JUMP JUMPDEST SWAP1 POP SWAP3 SWAP2 POP POP JUMP JUMPDEST PUSH0 PUSH0 SWAP1 SLOAD SWAP1 PUSH2 0x100 EXP SWAP1 DIV PUSH20 0xFFFFFFFFFFFFFFFFFFFFFFFFFFFFFFFFFFFFFFFF AND PUSH20 0xFFFFFFFFFFFFFFFFFFFFFFFFFFFFFFFFFFFFFFFF AND CALLER PUSH20 0xFFFFFFFFFFFFFFFFFFFFFFFFFFFFFFFFFFFFFFFF AND EQ PUSH2 0x26B JUMPI PUSH1 0x40 MLOAD PUSH32 0x8C379A000000000000000000000000000000000000000000000000000000000 DUP2 MSTORE PUSH1 0x4 ADD PUSH2 0x262 SWAP1 PUSH2 0xDD7 JUMP JUMPDEST PUSH1 0x40 MLOAD DUP1 SWAP2 SUB SWAP1 REVERT JUMPDEST PUSH0 PUSH20 0xFFFFFFFFFFFFFFFFFFFFFFFFFFFFFFFFFFFFFFFF AND DUP2 PUSH20 0xFFFFFFFFFFFFFFFFFFFFFFFFFFFFFFFFFFFFFFFF AND SUB PUSH2 0x2D9 JUMPI PUSH1 0x40 MLOAD PUSH32 0x8C379A000000000000000000000000000000000000000000000000000000000 DUP2 MSTORE PUSH1 0x4 ADD PUSH2 0x2D0 SWAP1 PUSH2 0xE3F JUMP JUMPDEST PUSH1 0x40 MLOAD DUP1 SWAP2 SUB SWAP1 REVERT JUMPDEST DUP1 PUSH20 0xFFFFFFFFFFFFFFFFFFFFFFFFFFFFFFFFFFFFFFFF AND PUSH0 PUSH0 SWAP1 SLOAD SWAP1 PUSH2 0x100 EXP SWAP1 DIV PUSH20 0xFFFFFFFFFFFFFFFFFFFFFFFFFFFFFFFFFFFFFFFF AND PUSH20 0xFFFFFFFFFFFFFFFFFFFFFFFFFFFFFFFFFFFFFFFF AND PUSH32 0x8BE0079C531659141344CD1FD0A4F28419497F9722A3DAAFE3B4186F6B6457E0 PUSH1 0x40 MLOAD PUSH1 0x40 MLOAD DUP1 SWAP2 SUB SWAP1 LOG3 DUP1 PUSH0 PUSH0 PUSH2 0x100 EXP DUP2 SLOAD DUP2 PUSH20 0xFFFFFFFFFFFFFFFFFFFFFFFFFFFFFFFFFFFFFFFF MUL NOT AND SWAP1 DUP4 PUSH20 0xFFFFFFFFFFFFFFFFFFFFFFFFFFFFFFFFFFFFFFFF AND MUL OR SWAP1 SSTORE POP POP JUMP JUMPDEST PUSH0 PUSH0 SWAP1 SLOAD SWAP1 PUSH2 0x100 EXP SWAP1 DIV PUSH20 0xFFFFFFFFFFFFFFFFFFFFFFFFFFFFFFFFFFFFFFFF AND PUSH20 0xFFFFFFFFFFFFFFFFFFFFFFFFFFFFFFFFFFFFFFFF AND CALLER PUSH20 0xFFFFFFFFFFFFFFFFFFFFFFFFFFFFFFFFFFFFFFFF AND EQ PUSH2 0x423 JUMPI PUSH1 0x40 MLOAD PUSH32 0x8C379A000000000000000000000000000000000000000000000000000000000 DUP2 MSTORE PUSH1 0x4 ADD PUSH2 0x41A SWAP1 PUSH2 0xDD7 JUMP JUMPDEST PUSH1 0x40 MLOAD DUP1 SWAP2 SUB SWAP1 REVERT JUMPDEST PUSH0 PUSH20 0xFFFFFFFFFFFFFFFFFFFFFFFFFFFFFFFFFFFFFFFF AND DUP5 PUSH20 0xFFFFFFFFFFFFFFFFFFFFFFFFFFFFFFFFFFFFFFFF AND SUB PUSH2 0x491 JUMPI PUSH1 0x40 MLOAD PUSH32 0x8C379A000000000000000000000000000000000000000000000000000000000 DUP2 MSTORE PUSH1 0x4 ADD PUSH2 0x488 SWAP1 PUSH2 0xEA7 JUMP JUMPDEST PUSH1 0x40 MLOAD DUP1 SWAP2 SUB SWAP1 REVERT JUMPDEST PUSH0 PUSH20 0xFFFFFFFFFFFFFFFFFFFFFFFFFFFFFFFFFFFFFFFF AND DUP4 PUSH20 0xFFFFFFFFFFFFFFFFFFFFFFFFFFFFFFFFFFFFFFFF AND SUB PUSH2 0x4FF JUMPI PUSH1 0x40 MLOAD PUSH32 0x8C379A000000000000000000000000000000000000000000000000000000000 DUP2 MSTORE PUSH1 0x4 ADD PUSH2 0x4F6 SWAP1 PUSH2 0xF0F JUMP JUMPDEST PUSH1 0x40 MLOAD DUP1 SWAP2 SUB SWAP1 REVERT JUMPDEST PUSH0 PUSH20 0xFFFFFFFFFFFFFFFFFFFFFFFFFFFFFFFFFFFFFFFF AND DUP3 PUSH20 0xFFFFFFFFFFFFFFFFFFFFFFFFFFFFFFFFFFFFFFFF AND SUB PUSH2 0x56D JUMPI PUSH1 0x40 MLOAD PUSH32 0x8C379A000000000000000000000000000000000000000000000000000000000 DUP2 MSTORE PUSH1 0x4 ADD PUSH2 0x564 SWAP1 PUSH2 0xF77 JUMP JUMPDEST PUSH1 0x40 MLOAD DUP1 SWAP2 SUB SWAP1 REVERT JUMPDEST PUSH0 DUP2 GT PUSH2 0x5AF JUMPI PUSH1 0x40 MLOAD PUSH32 0x8C379A000000000000000000000000000000000000000000000000000000000 DUP2 MSTORE PUSH1 0x4 ADD PUSH2 0x5A6 SWAP1 PUSH2 0xFDF JUMP JUMPDEST PUSH1 0x40 MLOAD DUP1 SWAP2 SUB SWAP1 REVERT JUMPDEST PUSH0 DUP5 PUSH20 0xFFFFFFFFFFFFFFFFFFFFFFFFFFFFFFFFFFFFFFFF AND PUSH4 0xDD62ED3E DUP6 ADDRESS PUSH1 0x40 MLOAD DUP4 PUSH4 0xFFFFFFFF AND PUSH1 0xE0 SHL DUP2 MSTORE PUSH1 0x4 ADD PUSH2 0x5EB SWAP3 SWAP2 SWAP1 PUSH2 0xD17 JUMP JUMPDEST PUSH1 0x20 PUSH1 0x40 MLOAD DUP1 DUP4 SUB DUP2 DUP7 GAS STATICCALL ISZERO DUP1 ISZERO PUSH2 0x606 JUMPI RETURNDATASIZE PUSH0 PUSH0 RETURNDATACOPY RETURNDATASIZE PUSH0 REVERT JUMPDEST POP POP POP POP PUSH1 0x40 MLOAD RETURNDATASIZE PUSH1 0x1F NOT PUSH1 0x1F DUP3 ADD AND DUP3 ADD DUP1 PUSH1 0x40 MSTORE POP DUP2 ADD SWAP1 PUSH2 0x62A SWAP2 SWAP1 PUSH2 0xD52 JUMP JUMPDEST SWAP1 POP DUP2 DUP2 LT ISZERO PUSH2 0x66F JUMPI PUSH1 0x40 MLOAD PUSH32 0x8C379A000000000000000000000000000000000000000000000000000000000 DUP2 MSTORE PUSH1 0x4 ADD PUSH2 0x666 SWAP1 PUSH2 0x1047 JUMP JUMPDEST PUSH1 0x40 MLOAD DUP1 SWAP2 SUB SWAP1 REVERT JUMPDEST PUSH2 0x67B DUP6 DUP6 DUP6 DUP6 PUSH2 0x9E6 JUMP JUMPDEST DUP3 PUSH20 0xFFFFFFFFFFFFFFFFFFFFFFFFFFFFFFFFFFFFFFFF AND DUP5 PUSH20 0xFFFFFFFFFFFFFFFFFFFFFFFFFFFFFFFFFFFFFFFF AND DUP7 PUSH20 0xFFFFFFFFFFFFFFFFFFFFFFFFFFFFFFFFFFFFFFFF AND PUSH32 0xABA557E88DADB8C2EB8A50ACDBEFC9FCDFB8182CAD699B509F4DB1E22F9F772A DUP6 CALLER PUSH1 0x40 MLOAD PUSH2 0x6F1 SWAP3 SWAP2 SWAP1 PUSH2 0x1065 JUMP JUMPDEST PUSH1 0x40 MLOAD DUP1 SWAP2 SUB SWAP1 LOG4 POP POP POP POP POP JUMP JUMPDEST PUSH0 DUP3 PUSH20 0xFFFFFFFFFFFFFFFFFFFFFFFFFFFFFFFFFFFFFFFF AND PUSH4 0x70A08231 DUP4 PUSH1 0x40 MLOAD DUP3 PUSH4 0xFFFFFFFF AND PUSH1 0xE0 SHL DUP2 MSTORE PUSH1 0x4 ADD PUSH2 0x73A SWAP2 SWAP1 PUSH2 0xB58 JUMP JUMPDEST PUSH1 0x20 PUSH1 0x40 MLOAD DUP1 DUP4 SUB DUP2 DUP7 GAS STATICCALL ISZERO DUP1 ISZERO PUSH2 0x755 JUMPI RETURNDATASIZE PUSH0 PUSH0 RETURNDATACOPY RETURNDATASIZE PUSH0 REVERT JUMPDEST POP POP POP POP PUSH1 0x40 MLOAD RETURNDATASIZE PUSH1 0x1F NOT PUSH1 0x1F DUP3 ADD AND DUP3 ADD DUP1 PUSH1 0x40 MSTORE POP DUP2 ADD SWAP1 PUSH2 0x779 SWAP2 SWAP1 PUSH2 0xD52 JUMP JUMPDEST SWAP1 POP SWAP3 SWAP2 POP POP JUMP JUMPDEST PUSH0 PUSH0 SWAP1 SLOAD SWAP1 PUSH2 0x100 EXP SWAP1 DIV PUSH20 0xFFFFFFFFFFFFFFFFFFFFFFFFFFFFFFFFFFFFFFFF AND PUSH20 0xFFFFFFFFFFFFFFFFFFFFFFFFFFFFFFFFFFFFFFFF AND CALLER PUSH20 0xFFFFFFFFFFFFFFFFFFFFFFFFFFFFFFFFFFFFFFFF AND EQ PUSH2 0x80F JUMPI PUSH1 0x40 MLOAD PUSH32 0x8C379A000000000000000000000000000000000000000000000000000000000 DUP2 MSTORE PUSH1 0x4 ADD PUSH2 0x806 SWAP1 PUSH2 0xDD7 JUMP JUMPDEST PUSH1 0x40 MLOAD DUP1 SWAP2 SUB SWAP1 REVERT JUMPDEST PUSH0 PUSH20 0xFFFFFFFFFFFFFFFFFFFFFFFFFFFFFFFFFFFFFFFF AND DUP4 PUSH20 0xFFFFFFFFFFFFFFFFFFFFFFFFFFFFFFFFFFFFFFFF AND EQ ISZERO DUP1 ISZERO PUSH2 0x877 JUMPI POP PUSH0 PUSH20 0xFFFFFFFFFFFFFFFFFFFFFFFFFFFFFFFFFFFFFFFF AND DUP2 PUSH20 0xFFFFFFFFFFFFFFFFFFFFFFFFFFFFFFFFFFFFFFFF AND EQ ISZERO JUMPDEST PUSH2 0x8B6 JUMPI PUSH1 0x40 MLOAD PUSH32 0x8C379A000000000000000000000000000000000000000000000000000000000 DUP2 MSTORE PUSH1 0x4 ADD PUSH2 0x8AD SWAP1 PUSH2 0x10D6 JUMP JUMPDEST PUSH1 0x40 MLOAD DUP1 SWAP2 SUB SWAP1 REVERT JUMPDEST PUSH0 PUSH0 DUP5 PUSH20 0xFFFFFFFFFFFFFFFFFFFFFFFFFFFFFFFFFFFFFFFF AND PUSH4 0xA9059CBB DUP5 DUP7 PUSH1 0x40 MLOAD PUSH1 0x24 ADD PUSH2 0x8E7 SWAP3 SWAP2 SWAP1 PUSH2 0x10F4 JUMP JUMPDEST PUSH1 0x40 MLOAD PUSH1 0x20 DUP2 DUP4 SUB SUB DUP2 MSTORE SWAP1 PUSH1 0x40 MSTORE SWAP1 PUSH1 0xE0 SHL PUSH1 0x20 DUP3 ADD DUP1 MLOAD PUSH28 0xFFFFFFFFFFFFFFFFFFFFFFFFFFFFFFFFFFFFFFFFFFFFFFFFFFFFFFFF DUP4 DUP2 DUP4 AND OR DUP4 MSTORE POP POP POP POP PUSH1 0x40 MLOAD PUSH2 0x935 SWAP2 SWAP1 PUSH2 0x116D JUMP JUMPDEST PUSH0 PUSH1 0x40 MLOAD DUP1 DUP4 SUB DUP2 PUSH0 DUP7 GAS CALL SWAP2 POP POP RETURNDATASIZE DUP1 PUSH0 DUP2 EQ PUSH2 0x96E JUMPI PUSH1 0x40 MLOAD SWAP2 POP PUSH1 0x1F NOT PUSH1 0x3F RETURNDATASIZE ADD AND DUP3 ADD PUSH1 0x40 MSTORE RETURNDATASIZE DUP3 MSTORE RETURNDATASIZE PUSH0 PUSH1 0x20 DUP5 ADD RETURNDATACOPY PUSH2 0x973 JUMP JUMPDEST PUSH1 0x60 SWAP2 POP JUMPDEST POP SWAP2 POP SWAP2 POP DUP2 DUP1 ISZERO PUSH2 0x9A0 JUMPI POP PUSH0 DUP2 MLOAD EQ DUP1 PUSH2 0x99F JUMPI POP DUP1 DUP1 PUSH1 0x20 ADD SWAP1 MLOAD DUP2 ADD SWAP1 PUSH2 0x99E SWAP2 SWAP1 PUSH2 0x11B8 JUMP JUMPDEST JUMPDEST JUMPDEST PUSH2 0x9DF JUMPI PUSH1 0x40 MLOAD PUSH32 0x8C379A000000000000000000000000000000000000000000000000000000000 DUP2 MSTORE PUSH1 0x4 ADD PUSH2 0x9D6 SWAP1 PUSH2 0x122D JUMP JUMPDEST PUSH1 0x40 MLOAD DUP1 SWAP2 SUB SWAP1 REVERT JUMPDEST POP POP POP POP POP JUMP JUMPDEST PUSH0 PUSH0 DUP6 PUSH20 0xFFFFFFFFFFFFFFFFFFFFFFFFFFFFFFFFFFFFFFFF AND PUSH4 0x23B872DD DUP7 DUP7 DUP7 PUSH1 0x40 MLOAD PUSH1 0x24 ADD PUSH2 0xA19 SWAP4 SWAP3 SWAP2 SWAP1 PUSH2 0x124B JUMP JUMPDEST PUSH1 0x40 MLOAD PUSH1 0x20 DUP2 DUP4 SUB SUB DUP2 MSTORE SWAP1 PUSH1 0x40 MSTORE SWAP1 PUSH1 0xE0 SHL PUSH1 0x20 DUP3 ADD DUP1 MLOAD PUSH28 0xFFFFFFFFFFFFFFFFFFFFFFFFFFFFFFFFFFFFFFFFFFFFFFFFFFFFFFFF DUP4 DUP2 DUP4 AND OR DUP4 MSTORE POP POP POP POP PUSH1 0x40 MLOAD PUSH2 0xA67 SWAP2 SWAP1 PUSH2 0x116D JUMP JUMPDEST PUSH0 PUSH1 0x40 MLOAD DUP1 DUP4 SUB DUP2 PUSH0 DUP7 GAS CALL SWAP2 POP POP RETURNDATASIZE DUP1 PUSH0 DUP2 EQ PUSH2 0xAA0 JUMPI PUSH1 0x40 MLOAD SWAP2 POP PUSH1 0x1F NOT PUSH1 0x3F RETURNDATASIZE ADD AND DUP3 ADD PUSH1 0x40 MSTORE RETURNDATASIZE DUP3 MSTORE RETURNDATASIZE PUSH0 PUSH1 0x20 DUP5 ADD RETURNDATACOPY PUSH2 0xAA5 JUMP JUMPDEST PUSH1 0x60 SWAP2 POP JUMPDEST POP SWAP2 POP SWAP2 POP DUP2 DUP1 ISZERO PUSH2 0xAD2 JUMPI POP PUSH0 DUP2 MLOAD EQ DUP1 PUSH2 0xAD1 JUMPI POP DUP1 DUP1 PUSH1 0x20 ADD SWAP1 MLOAD DUP2 ADD SWAP1 PUSH2 0xAD0 SWAP2 SWAP1 PUSH2 0x11B8 JUMP JUMPDEST JUMPDEST JUMPDEST PUSH2 0xB11 JUMPI PUSH1 0x40 MLOAD PUSH32 0x8C379A000000000000000000000000000000000000000000000000000000000 DUP2 MSTORE PUSH1 0x4 ADD PUSH2 0xB08 SWAP1 PUSH2 0x12CA JUMP JUMPDEST PUSH1 0x40 MLOAD DUP1 SWAP2 SUB SWAP1 REVERT JUMPDEST POP POP POP POP POP POP JUMP JUMPDEST PUSH0 PUSH20 0xFFFFFFFFFFFFFFFFFFFFFFFFFFFFFFFFFFFFFFFF DUP3 AND SWAP1 POP SWAP2 SWAP1 POP JUMP JUMPDEST PUSH0 PUSH2 0xB42 DUP3 PUSH2 0xB19 JUMP JUMPDEST SWAP1 POP SWAP2 SWAP1 POP JUMP JUMPDEST PUSH2 0xB52 DUP2 PUSH2 0xB38 JUMP JUMPDEST DUP3 MSTORE POP POP JUMP JUMPDEST PUSH0 PUSH1 0x20 DUP3 ADD SWAP1 POP PUSH2 0xB6B PUSH0 DUP4 ADD DUP5 PUSH2 0xB49 JUMP JUMPDEST SWAP3 SWAP2 POP POP JUMP JUMPDEST PUSH0 PUSH0 REVERT JUMPDEST PUSH2 0xB7E DUP2 PUSH2 0xB38 JUMP JUMPDEST DUP2 EQ PUSH2 0xB88 JUMPI PUSH0 PUSH0 REVERT JUMPDEST POP JUMP JUMPDEST PUSH0 DUP2 CALLDATALOAD SWAP1 POP PUSH2 0xB99 DUP2 PUSH2 0xB75 JUMP JUMPDEST SWAP3 SWAP2 POP POP JUMP JUMPDEST PUSH0 PUSH0 PUSH1 0x40 DUP4 DUP6 SUB SLT ISZERO PUSH2 0xBB5 JUMPI PUSH2 0xBB4 PUSH2 0xB71 JUMP JUMPDEST JUMPDEST PUSH0 PUSH2 0xBC2 DUP6 DUP3 DUP7 ADD PUSH2 0xB8B JUMP JUMPDEST SWAP3 POP POP PUSH1 0x20 PUSH2 0xBD3 DUP6 DUP3 DUP7 ADD PUSH2 0xB8B JUMP JUMPDEST SWAP2 POP POP SWAP3 POP SWAP3 SWAP1 POP JUMP JUMPDEST PUSH0 DUP2 SWAP1 POP SWAP2 SWAP1 POP JUMP JUMPDEST PUSH2 0xBEF DUP2 PUSH2 0xBDD JUMP JUMPDEST DUP3 MSTORE POP POP JUMP JUMPDEST PUSH0 PUSH1 0x20 DUP3 ADD SWAP1 POP PUSH2 0xC08 PUSH0 DUP4 ADD DUP5 PUSH2 0xBE6 JUMP JUMPDEST SWAP3 SWAP2 POP POP JUMP JUMPDEST PUSH0 PUSH1 0x20 DUP3 DUP5 SUB SLT ISZERO PUSH2 0xC23 JUMPI PUSH2 0xC22 PUSH2 0xB71 JUMP JUMPDEST JUMPDEST PUSH0 PUSH2 0xC30 DUP5 DUP3 DUP6 ADD PUSH2 0xB8B JUMP JUMPDEST SWAP2 POP POP SWAP3 SWAP2 POP POP JUMP JUMPDEST PUSH2 0xC42 DUP2 PUSH2 0xBDD JUMP JUMPDEST DUP2 EQ PUSH2 0xC4C JUMPI PUSH0 PUSH0 REVERT JUMPDEST POP JUMP JUMPDEST PUSH0 DUP2 CALLDATALOAD SWAP1 POP PUSH2 0xC5D DUP2 PUSH2 0xC39 JUMP JUMPDEST SWAP3 SWAP2 POP POP JUMP JUMPDEST PUSH0 PUSH0 PUSH0 PUSH0 PUSH1 0x80 DUP6 DUP8 SUB SLT ISZERO PUSH2 0xC7B JUMPI PUSH2 0xC7A PUSH2 0xB71 JUMP JUMPDEST JUMPDEST PUSH0 PUSH2 0xC88 DUP8 DUP3 DUP9 ADD PUSH2 0xB8B JUMP JUMPDEST SWAP5 POP POP PUSH1 0x20 PUSH2 0xC99 DUP8 DUP3 DUP9 ADD PUSH2 0xB8B JUMP JUMPDEST SWAP4 POP POP PUSH1 0x40 PUSH2 0xCAA DUP8 DUP3 DUP9 ADD PUSH2 0xB8B JUMP JUMPDEST SWAP3 POP POP PUSH1 0x60 PUSH2 0xCBB DUP8 DUP3 DUP9 ADD PUSH2 0xC4F JUMP JUMPDEST SWAP2 POP POP SWAP3 SWAP6 SWAP2 SWAP5 POP SWAP3 POP JUMP JUMPDEST PUSH0 PUSH0 PUSH0 PUSH1 0x60 DUP5 DUP7 SUB SLT ISZERO PUSH2 0xCDE JUMPI PUSH2 0xCDD PUSH2 0xB71 JUMP JUMPDEST JUMPDEST PUSH0 PUSH2 0xCEB DUP7 DUP3 DUP8 ADD PUSH2 0xB8B JUMP JUMPDEST SWAP4 POP POP PUSH1 0x20 PUSH2 0xCFC DUP7 DUP3 DUP8 ADD PUSH2 0xC4F JUMP JUMPDEST SWAP3 POP POP PUSH1 0x40 PUSH2 0xD0D DUP7 DUP3 DUP8 ADD PUSH2 0xB8B JUMP JUMPDEST SWAP2 POP POP SWAP3 POP SWAP3 POP SWAP3 JUMP JUMPDEST PUSH0 PUSH1 0x40 DUP3 ADD SWAP1 POP PUSH2 0xD2A PUSH0 DUP4 ADD DUP6 PUSH2 0xB49 JUMP JUMPDEST PUSH2 0xD37 PUSH1 0x20 DUP4 ADD DUP5 PUSH2 0xB49 JUMP JUMPDEST SWAP4 SWAP3 POP POP POP JUMP JUMPDEST PUSH0 DUP2 MLOAD SWAP1 POP PUSH2 0xD4C DUP2 PUSH2 0xC39 JUMP JUMPDEST SWAP3 SWAP2 POP POP JUMP JUMPDEST PUSH0 PUSH1 0x20 DUP3 DUP5 SUB SLT ISZERO PUSH2 0xD67 JUMPI PUSH2 0xD66 PUSH2 0xB71 JUMP JUMPDEST JUMPDEST PUSH0 PUSH2 0xD74 DUP5 DUP3 DUP6 ADD PUSH2 0xD3E JUMP JUMPDEST SWAP2 POP POP SWAP3 SWAP2 POP POP JUMP JUMPDEST PUSH0 DUP3 DUP3 MSTORE PUSH1 0x20 DUP3 ADD SWAP1 POP SWAP3 SWAP2 POP POP JUMP JUMPDEST PUSH32 0x4E6F74206F776E65720000000000000000000000000000000000000000000000 PUSH0 DUP3 ADD MSTORE POP JUMP JUMPDEST PUSH0 PUSH2 0xDC1 PUSH1 0x9 DUP4 PUSH2 0xD7D JUMP JUMPDEST SWAP2 POP PUSH2 0xDCC DUP3 PUSH2 0xD8D JUMP JUMPDEST PUSH1 0x20 DUP3 ADD SWAP1 POP SWAP2 SWAP1 POP JUMP JUMPDEST PUSH0 PUSH1 0x20 DUP3 ADD SWAP1 POP DUP2 DUP2 SUB PUSH0 DUP4 ADD MSTORE PUSH2 0xDEE DUP2 PUSH2 0xDB5 JUMP JUMPDEST SWAP1 POP SWAP2 SWAP1 POP JUMP JUMPDEST PUSH32 0x5A65726F206E65774F776E657200000000000000000000000000000000000000 PUSH0 DUP3 ADD MSTORE POP JUMP JUMPDEST PUSH0 PUSH2 0xE29 PUSH1 0xD DUP4 PUSH2 0xD7D JUMP JUMPDEST SWAP2 POP PUSH2 0xE34 DUP3 PUSH2 0xDF5 JUMP JUMPDEST PUSH1 0x20 DUP3 ADD SWAP1 POP SWAP2 SWAP1 POP JUMP JUMPDEST PUSH0 PUSH1 0x20 DUP3 ADD SWAP1 POP DUP2 DUP2 SUB PUSH0 DUP4 ADD MSTORE PUSH2 0xE56 DUP2 PUSH2 0xE1D JUMP JUMPDEST SWAP1 POP SWAP2 SWAP1 POP JUMP JUMPDEST PUSH32 0x5A65726F20746F6B656E00000000000000000000000000000000000000000000 PUSH0 DUP3 ADD MSTORE POP JUMP JUMPDEST PUSH0 PUSH2 0xE91 PUSH1 0xA DUP4 PUSH2 0xD7D JUMP JUMPDEST SWAP2 POP PUSH2 0xE9C DUP3 PUSH2 0xE5D JUMP JUMPDEST PUSH1 0x20 DUP3 ADD SWAP1 POP SWAP2 SWAP1 POP JUMP JUMPDEST PUSH0 PUSH1 0x20 DUP3 ADD SWAP1 POP DUP2 DUP2 SUB PUSH0 DUP4 ADD MSTORE PUSH2 0xEBE DUP2 PUSH2 0xE85 JUMP JUMPDEST SWAP1 POP SWAP2 SWAP1 POP JUMP JUMPDEST PUSH32 0x5A65726F2066726F6D0000000000000000000000000000000000000000000000 PUSH0 DUP3 ADD MSTORE POP JUMP JUMPDEST PUSH0 PUSH2 0xEF9 PUSH1 0x9 DUP4 PUSH2 0xD7D JUMP JUMPDEST SWAP2 POP PUSH2 0xF04 DUP3 PUSH2 0xEC5 JUMP JUMPDEST PUSH1 0x20 DUP3 ADD SWAP1 POP SWAP2 SWAP1 POP JUMP JUMPDEST PUSH0 PUSH1 0x20 DUP3 ADD SWAP1 POP DUP2 DUP2 SUB PUSH0 DUP4 ADD MSTORE PUSH2 0xF26 DUP2 PUSH2 0xEED JUMP JUMPDEST SWAP1 POP SWAP2 SWAP1 POP JUMP JUMPDEST PUSH32 0x5A65726F20746F00000000000000000000000000000000000000000000000000 PUSH0 DUP3 ADD MSTORE POP JUMP JUMPDEST PUSH0 PUSH2 0xF61 PUSH1 0x7 DUP4 PUSH2 0xD7D JUMP JUMPDEST SWAP2 POP PUSH2 0xF6C DUP3 PUSH2 0xF2D JUMP JUMPDEST PUSH1 0x20 DUP3 ADD SWAP1 POP SWAP2 SWAP1 POP JUMP JUMPDEST PUSH0 PUSH1 0x20 DUP3 ADD SWAP1 POP DUP2 DUP2 SUB PUSH0 DUP4 ADD MSTORE PUSH2 0xF8E DUP2 PUSH2 0xF55 JUMP JUMPDEST SWAP1 POP SWAP2 SWAP1 POP JUMP JUMPDEST PUSH32 0x5A65726F20616D6F756E74000000000000000000000000000000000000000000 PUSH0 DUP3 ADD MSTORE POP JUMP JUMPDEST PUSH0 PUSH2 0xFC9 PUSH1 0xB DUP4 PUSH2 0xD7D JUMP JUMPDEST SWAP2 POP PUSH2 0xFD4 DUP3 PUSH2 0xF95 JUMP JUMPDEST PUSH1 0x20 DUP3 ADD SWAP1 POP SWAP2 SWAP1 POP JUMP JUMPDEST PUSH0 PUSH1 0x20 DUP3 ADD SWAP1 POP DUP2 DUP2 SUB PUSH0 DUP4 ADD MSTORE PUSH2 0xFF6 DUP2 PUSH2 0xFBD JUMP JUMPDEST SWAP1 POP SWAP2 SWAP1 POP JUMP JUMPDEST PUSH32 0x496E73756666696369656E7420616C6C6F77616E636500000000000000000000 PUSH0 DUP3 ADD MSTORE POP JUMP JUMPDEST PUSH0 PUSH2 0x1031 PUSH1 0x16 DUP4 PUSH2 0xD7D JUMP JUMPDEST SWAP2 POP PUSH2 0x103C DUP3 PUSH2 0xFFD JUMP JUMPDEST PUSH1 0x20 DUP3 ADD SWAP1 POP SWAP2 SWAP1 POP JUMP JUMPDEST PUSH0 PUSH1 0x20 DUP3 ADD SWAP1 POP DUP2 DUP2 SUB PUSH0 DUP4 ADD MSTORE PUSH2 0x105E DUP2 PUSH2 0x1025 JUMP JUMPDEST SWAP1 POP SWAP2 SWAP1 POP JUMP JUMPDEST PUSH0 PUSH1 0x40 DUP3 ADD SWAP1 POP PUSH2 0x1078 PUSH0 DUP4 ADD DUP6 PUSH2 0xBE6 JUMP JUMPDEST PUSH2 0x1085 PUSH1 0x20 DUP4 ADD DUP5 PUSH2 0xB49 JUMP JUMPDEST SWAP4 SWAP3 POP POP POP JUMP JUMPDEST PUSH32 0x5A65726F20616464720000000000000000000000000000000000000000000000 PUSH0 DUP3 ADD MSTORE POP JUMP JUMPDEST PUSH0 PUSH2 0x10C0 PUSH1 0x9 DUP4 PUSH2 0xD7D JUMP JUMPDEST SWAP2 POP PUSH2 0x10CB DUP3 PUSH2 0x108C JUMP JUMPDEST PUSH1 0x20 DUP3 ADD SWAP1 POP SWAP2 SWAP1 POP JUMP JUMPDEST PUSH0 PUSH1 0x20 DUP3 ADD SWAP1 POP DUP2 DUP2 SUB PUSH0 DUP4 ADD MSTORE PUSH2 0x10ED DUP2 PUSH2 0x10B4 JUMP JUMPDEST SWAP1 POP SWAP2 SWAP1 POP JUMP JUMPDEST PUSH0 PUSH1 0x40 DUP3 ADD SWAP1 POP PUSH2 0x1107 PUSH0 DUP4 ADD DUP6 PUSH2 0xB49 JUMP JUMPDEST PUSH2 0x1114 PUSH1 0x20 DUP4 ADD DUP5 PUSH2 0xBE6 JUMP JUMPDEST SWAP4 SWAP3 POP POP POP JUMP JUMPDEST PUSH0 DUP2 MLOAD SWAP1 POP SWAP2 SWAP1 POP JUMP JUMPDEST PUSH0 DUP2 SWAP1 POP SWAP3 SWAP2 POP POP JUMP JUMPDEST DUP3 DUP2 DUP4 MCOPY PUSH0 DUP4 DUP4 ADD MSTORE POP POP POP JUMP JUMPDEST PUSH0 PUSH2 0x1147 DUP3 PUSH2 0x111B JUMP JUMPDEST PUSH2 0x1151 DUP2 DUP6 PUSH2 0x1125 JUMP JUMPDEST SWAP4 POP PUSH2 0x1161 DUP2 DUP6 PUSH1 0x20 DUP7 ADD PUSH2 0x112F JUMP JUMPDEST DUP1 DUP5 ADD SWAP2 POP POP SWAP3 SWAP2 POP POP JUMP JUMPDEST PUSH0 PUSH2 0x1178 DUP3 DUP5 PUSH2 0x113D JUMP JUMPDEST SWAP2 POP DUP2 SWAP1 POP SWAP3 SWAP2 POP POP JUMP JUMPDEST PUSH0 DUP2 ISZERO ISZERO SWAP1 POP SWAP2 SWAP1 POP JUMP JUMPDEST PUSH2 0x1197 DUP2 PUSH2 0x1183 JUMP JUMPDEST DUP2 EQ PUSH2 0x11A1 JUMPI PUSH0 PUSH0 REVERT JUMPDEST POP JUMP JUMPDEST PUSH0 DUP2 MLOAD SWAP1 POP PUSH2 0x11B2 DUP2 PUSH2 0x118E JUMP JUMPDEST SWAP3 SWAP2 POP POP JUMP JUMPDEST PUSH0 PUSH1 0x20 DUP3 DUP5 SUB SLT ISZERO PUSH2 0x11CD JUMPI PUSH2 0x11CC PUSH2 0xB71 JUMP JUMPDEST JUMPDEST PUSH0 PUSH2 0x11DA DUP5 DUP3 DUP6 ADD PUSH2 0x11A4 JUMP JUMPDEST SWAP2 POP POP SWAP3 SWAP2 POP POP JUMP JUMPDEST PUSH32 0x7472616E73666572206661696C65640000000000000000000000000000000000 PUSH0 DUP3 ADD MSTORE POP JUMP JUMPDEST PUSH0 PUSH2 0x1217 PUSH1 0xF DUP4 PUSH2 0xD7D JUMP JUMPDEST SWAP2 POP PUSH2 0x1222 DUP3 PUSH2 0x11E3 JUMP JUMPDEST PUSH1 0x20 DUP3 ADD SWAP1 POP SWAP2 SWAP1 POP JUMP JUMPDEST PUSH0 PUSH1 0x20 DUP3 ADD SWAP1 POP DUP2 DUP2 SUB PUSH0 DUP4 ADD MSTORE PUSH2 0x1244 DUP2 PUSH2 0x120B JUMP JUMPDEST SWAP1 POP SWAP2 SWAP1 POP JUMP JUMPDEST PUSH0 PUSH1 0x60 DUP3 ADD SWAP1 POP PUSH2 0x125E PUSH0 DUP4 ADD DUP7 PUSH2 0xB49 JUMP JUMPDEST PUSH2 0x126B PUSH1 0x20 DUP4 ADD DUP6 PUSH2 0xB49 JUMP JUMPDEST PUSH2 0x1278 PUSH1 0x40 DUP4 ADD DUP5 PUSH2 0xBE6 JUMP JUMPDEST SWAP5 SWAP4 POP POP POP POP JUMP JUMPDEST PUSH32 0x7472616E7366657246726F6D206661696C656400000000000000000000000000 PUSH0 DUP3 ADD MSTORE POP JUMP JUMPDEST PUSH0 PUSH2 0x12B4 PUSH1 0x13 DUP4 PUSH2 0xD7D JUMP JUMPDEST SWAP2 POP PUSH2 0x12BF DUP3 PUSH2 0x1280 JUMP JUMPDEST PUSH1 0x20 DUP3 ADD SWAP1 POP SWAP2 SWAP1 POP JUMP JUMPDEST PUSH0 PUSH1 0x20 DUP3 ADD SWAP1 POP DUP2 DUP2 SUB PUSH0 DUP4 ADD MSTORE PUSH2 0x12E1 DUP2 PUSH2 0x12A8 JUMP JUMPDEST SWAP1 POP SWAP2 SWAP1 POP JUMP INVALID LOG2 PUSH5 0x6970667358 0x22 SLT KECCAK256 BLOBBASEFEE PUSH11 0x823F2790EE8D1B8DE94A8B 0x28 0xBB 0x4C 0xA8 CALLER PUSH4 0x7DA9CE12 LOG2 0xB0 EXTCODECOPY ADDRESS 0xDA 0x4F LOG0 0xDE 0xAB PUSH5 0x736F6C6343 STOP ADDMOD 0x1E STOP CALLER "
				},
				"gasEstimates": {
					"creation": {
						"codeDepositCost": "978800",
						"executionCost": "26819",
						"totalCost": "1005619"
					},
					"external": {
						"allowanceToThis(address,address)": "infinite",
						"balanceOf(address,address)": "infinite",
						"owner()": "2485",
						"rescueToken(address,uint256,address)": "infinite",
						"transferOwnership(address)": "30617",
						"withdrawTokenTo(address,address,address,uint256)": "infinite"
					},
					"internal": {
						"_safeTransferFrom(address,address,address,uint256)": "infinite"
					}
				},
				"methodIdentifiers": {
					"allowanceToThis(address,address)": "c4db383b",
					"balanceOf(address,address)": "f7888aec",
					"owner()": "8da5cb5b",
					"rescueToken(address,uint256,address)": "f8a67a62",
					"transferOwnership(address)": "f2fde38b",
					"withdrawTokenTo(address,address,address,uint256)": "f417ea61"
				}
			},
			"storageLayout": {
				"storage": [
					{
						"astId": 41,
						"contract": "contracts/TokenExtractorV2.sol:TokenExtractorV2",
						"label": "owner",
						"offset": 0,
						"slot": "0",
						"type": "t_address"
					}
				],
				"types": {
					"t_address": {
						"encoding": "inplace",
						"label": "address",
						"numberOfBytes": "20"
					}
				}
			},
			"userdoc": {
				"kind": "user",
				"methods": {
					"rescueToken(address,uint256,address)": {
						"notice": "取回误打到本合约地址的代币（仅 owner）"
					},
					"withdrawTokenTo(address,address,address,uint256)": {
						"notice": "手动从 from 拉取到 to（需要 from 先对本合约 approve）"
					}
				},
				"version": 1
			}
		}
	}
}