{
  "contractName": "MultiTokenPaymentIntegrated",
  "abi": [
    {
      "inputs": [],
      "stateMutability": "nonpayable",
      "type": "constructor"
    },
    {
      "anonymous": false,
      "inputs": [
        {
          "indexed": true,
          "internalType": "address",
          "name": "from",
          "type": "address"
        },
        {
          "indexed": false,
          "internalType": "address[]",
          "name": "recipients",
          "type": "address[]"
        },
        {
          "indexed": false,
          "internalType": "address[]",
          "name": "tokens",
          "type": "address[]"
        },
        {
          "indexed": false,
          "internalType": "uint256[]",
          "name": "amounts",
          "type": "uint256[]"
        },
        {
          "indexed": false,
          "internalType": "uint256",
          "name": "timestamp",
          "type": "uint256"
        }
      ],
      "name": "MultiTokenPaymentProcessed",
      "type": "event"
    },
    {
      "anonymous": false,
      "inputs": [
        {
          "indexed": true,
          "internalType": "address",
          "name": "previousOwner",
          "type": "address"
        },
        {
          "indexed": true,
          "internalType": "address",
          "name": "newOwner",
          "type": "address"
        }
      ],
      "name": "OwnershipTransferred",
      "type": "event"
    },
    {
      "anonymous": false,
      "inputs": [
        {
          "indexed": true,
          "internalType": "address",
          "name": "from",
          "type": "address"
        },
        {
          "indexed": true,
          "internalType": "address",
          "name": "to",
          "type": "address"
        },
        {
          "indexed": true,
          "internalType": "address",
          "name": "token",
          "type": "address"
        },
        {
          "indexed": false,
          "internalType": "uint256",
          "name": "amount",
          "type": "uint256"
        },
        {
          "indexed": false,
          "internalType": "uint256",
          "name": "timestamp",
          "type": "uint256"
        },
        {
          "indexed": false,
          "internalType": "bool",
          "name": "isNonStandardToken",
          "type": "bool"
        }
      ],
      "name": "PaymentProcessed",
      "type": "event"
    },
    {
      "anonymous": false,
      "inputs": [
        {
          "indexed": true,
          "internalType": "address",
          "name": "token",
          "type": "address"
        },
        {
          "indexed": false,
          "internalType": "string",
          "name": "symbol",
          "type": "string"
        },
        {
          "indexed": false,
          "internalType": "string",
          "name": "name",
          "type": "string"
        },
        {
          "indexed": false,
          "internalType": "bool",
          "name": "isNonStandard",
          "type": "bool"
        }
      ],
      "name": "TokenAdded",
      "type": "event"
    },
    {
      "anonymous": false,
      "inputs": [
        {
          "indexed": true,
          "internalType": "address",
          "name": "token",
          "type": "address"
        }
      ],
      "name": "TokenRemoved",
      "type": "event"
    },
    {
      "inputs": [
        {
          "internalType": "address",
          "name": "",
          "type": "address"
        }
      ],
      "name": "isNonStandardToken",
      "outputs": [
        {
          "internalType": "bool",
          "name": "",
          "type": "bool"
        }
      ],
      "stateMutability": "view",
      "type": "function"
    },
    {
      "inputs": [
        {
          "internalType": "address",
          "name": "",
          "type": "address"
        }
      ],
      "name": "isTokenSupported",
      "outputs": [
        {
          "internalType": "bool",
          "name": "",
          "type": "bool"
        }
      ],
      "stateMutability": "view",
      "type": "function"
    },
    {
      "inputs": [
        {
          "internalType": "address",
          "name": "",
          "type": "address"
        }
      ],
      "name": "knownNonStandardTokens",
      "outputs": [
        {
          "internalType": "bool",
          "name": "",
          "type": "bool"
        }
      ],
      "stateMutability": "view",
      "type": "function"
    },
    {
      "inputs": [],
      "name": "owner",
      "outputs": [
        {
          "internalType": "address",
          "name": "",
          "type": "address"
        }
      ],
      "stateMutability": "view",
      "type": "function"
    },
    {
      "inputs": [],
      "name": "renounceOwnership",
      "outputs": [],
      "stateMutability": "nonpayable",
      "type": "function"
    },
    {
      "inputs": [
        {
          "internalType": "uint256",
          "name": "",
          "type": "uint256"
        }
      ],
      "name": "supportedTokens",
      "outputs": [
        {
          "internalType": "address",
          "name": "",
          "type": "address"
        }
      ],
      "stateMutability": "view",
      "type": "function"
    },
    {
      "inputs": [
        {
          "internalType": "address",
          "name": "",
          "type": "address"
        }
      ],
      "name": "tokenInfo",
      "outputs": [
        {
          "internalType": "string",
          "name": "symbol",
          "type": "string"
        },
        {
          "internalType": "string",
          "name": "name",
          "type": "string"
        },
        {
          "internalType": "uint8",
          "name": "decimals",
          "type": "uint8"
        },
        {
          "internalType": "bool",
          "name": "exists",
          "type": "bool"
        },
        {
          "internalType": "bool",
          "name": "isNonStandard",
          "type": "bool"
        }
      ],
      "stateMutability": "view",
      "type": "function"
    },
    {
      "inputs": [
        {
          "internalType": "address",
          "name": "newOwner",
          "type": "address"
        }
      ],
      "name": "transferOwnership",
      "outputs": [],
      "stateMutability": "nonpayable",
      "type": "function"
    },
    {
      "inputs": [
        {
          "internalType": "address",
          "name": "token",
          "type": "address"
        }
      ],
      "name": "addKnownNonStandardToken",
      "outputs": [],
      "stateMutability": "nonpayable",
      "type": "function"
    },
    {
      "inputs": [
        {
          "internalType": "address",
          "name": "token",
          "type": "address"
        }
      ],
      "name": "checkTokenStandard",
      "outputs": [
        {
          "internalType": "bool",
          "name": "",
          "type": "bool"
        }
      ],
      "stateMutability": "view",
      "type": "function"
    },
    {
      "inputs": [
        {
          "internalType": "address",
          "name": "token",
          "type": "address"
        },
        {
          "internalType": "string",
          "name": "symbol",
          "type": "string"
        },
        {
          "internalType": "string",
          "name": "name",
          "type": "string"
        },
        {
          "internalType": "uint8",
          "name": "decimals",
          "type": "uint8"
        },
        {
          "internalType": "bool",
          "name": "isNonStandard",
          "type": "bool"
        }
      ],
      "name": "addSupportedToken",
      "outputs": [],
      "stateMutability": "nonpayable",
      "type": "function"
    },
    {
      "inputs": [
        {
          "internalType": "address",
          "name": "token",
          "type": "address"
        }
      ],
      "name": "addSupportedTokenAuto",
      "outputs": [],
      "stateMutability": "nonpayable",
      "type": "function"
    },
    {
      "inputs": [
        {
          "internalType": "address",
          "name": "token",
          "type": "address"
        }
      ],
      "name": "removeSupportedToken",
      "outputs": [],
      "stateMutability": "nonpayable",
      "type": "function"
    },
    {
      "inputs": [
        {
          "internalType": "address",
          "name": "token",
          "type": "address"
        },
        {
          "internalType": "address",
          "name": "to",
          "type": "address"
        },
        {
          "internalType": "uint256",
          "name": "amount",
          "type": "uint256"
        }
      ],
      "name": "makePayment",
      "outputs": [
        {
          "internalType": "bool",
          "name": "",
          "type": "bool"
        }
      ],
      "stateMutability": "nonpayable",
      "type": "function"
    },
    {
      "inputs": [
        {
          "internalType": "address",
          "name": "token",
          "type": "address"
        },
        {
          "internalType": "address[]",
          "name": "recipients",
          "type": "address[]"
        },
        {
          "internalType": "uint256[]",
          "name": "amounts",
          "type": "uint256[]"
        }
      ],
      "name": "batchPayments",
      "outputs": [
        {
          "internalType": "bool",
          "name": "",
          "type": "bool"
        }
      ],
      "stateMutability": "nonpayable",
      "type": "function"
    },
    {
      "inputs": [],
      "name": "getSupportedTokens",
      "outputs": [
        {
          "internalType": "address[]",
          "name": "",
          "type": "address[]"
        }
      ],
      "stateMutability": "view",
      "type": "function"
    },
    {
      "inputs": [
        {
          "internalType": "address",
          "name": "token",
          "type": "address"
        }
      ],
      "name": "getTokenInfo",
      "outputs": [
        {
          "internalType": "string",
          "name": "symbol",
          "type": "string"
        },
        {
          "internalType": "string",
          "name": "name",
          "type": "string"
        },
        {
          "internalType": "uint8",
          "name": "decimals",
          "type": "uint8"
        },
        {
          "internalType": "bool",
          "name": "isNonStandard",
          "type": "bool"
        }
      ],
      "stateMutability": "view",
      "type": "function"
    },
    {
      "inputs": [
        {
          "internalType": "address",
          "name": "token",
          "type": "address"
        },
        {
          "internalType": "address",
          "name": "user",
          "type": "address"
        }
      ],
      "name": "checkAllowance",
      "outputs": [
        {
          "internalType": "uint256",
          "name": "",
          "type": "uint256"
        }
      ],
      "stateMutability": "view",
      "type": "function"
    },
    {
      "inputs": [
        {
          "internalType": "address",
          "name": "token",
          "type": "address"
        },
        {
          "internalType": "address",
          "name": "user",
          "type": "address"
        }
      ],
      "name": "checkBalance",
      "outputs": [
        {
          "internalType": "uint256",
          "name": "",
          "type": "uint256"
        }
      ],
      "stateMutability": "view",
      "type": "function"
    },
    {
      "inputs": [],
      "name": "getVersion",
      "outputs": [
        {
          "internalType": "string",
          "name": "",
          "type": "string"
        }
      ],
      "stateMutability": "pure",
      "type": "function"
    },
    {
      "inputs": [
        {
          "internalType": "address",
          "name": "user",
          "type": "address"
        }
      ],
      "name": "checkAllAllowances",
      "outputs": [
        {
          "internalType": "address[]",
          "name": "",
          "type": "address[]"
        },
        {
          "internalType": "uint256[]",
          "name": "",
          "type": "uint256[]"
        }
      ],
      "stateMutability": "view",
      "type": "function"
    },
    {
      "inputs": [
        {
          "internalType": "address[]",
          "name": "tokens",
          "type": "address[]"
        },
        {
          "internalType": "address[]",
          "name": "recipients",
          "type": "address[]"
        },
        {
          "internalType": "uint256[]",
          "name": "amounts",
          "type": "uint256[]"
        }
      ],
      "name": "makeMultiTokenPayment",
      "outputs": [
        {
          "internalType": "bool",
          "name": "",
          "type": "bool"
        }
      ],
      "stateMutability": "nonpayable",
      "type": "function"
    }
  ],
  "bytecode": "0x60806040523480156200001157600080fd5b50620000266200002062000030565b62000034565b6001805562000084565b3390565b600080546001600160a01b038381166001600160a01b0319831681178455604051919092169283917f8be0079c531659141344cd1fd0a4f28419497f9722a3daafe3b4186f6b6457e09190a35050565b612b2a80620000946000396000f3fe608060405234801561001057600080fd5b50600436106101425760003560e01c806387e660d3116100b8578063c4b1eb901161007c578063c4b1eb90146102b3578063c6255626146102c6578063c86b268a146102d9578063d3c7c2c7146102ec578063f2fde38b14610301578063f5dab7111461031457610142565b806387e660d314610252578063892d5f74146102655780638b099b23146102785780638b1b33031461028b5780638da5cb5b1461029e57610142565b80635848d9191161010a5780635848d919146101d15780635a59079a146101f1578063715018a61461020457806375151b631461020c578063763191901461021f57806377b76ec31461023257610142565b80630d8e6e2c14610147578063159166c0146101655780631f69565f1461017a5780632fa211261461019d5780633367dad3146101be575b600080fd5b61014f610338565b60405161015c9190612458565b60405180910390f35b610178610173366004611f75565b610358565b005b61018d610188366004611f75565b61071a565b60405161015c94939291906124a3565b6101b06101ab366004611f75565b610901565b60405161015c9291906123f7565b6101786101cc36600461207a565b610a96565b6101e46101df366004612113565b610c9b565b60405161015c919061244d565b6101e46101ff366004611ffc565b611052565b6101786112d9565b6101e461021a366004611f75565b6112ed565b61017861022d366004611f75565b611302565b610245610240366004611f8f565b61152a565b60405161015c9190612960565b6101e4610260366004611fc1565b611576565b6101e4610273366004611f75565b6116bb565b610245610286366004611f8f565b611764565b6101e4610299366004611f75565b6117a9565b6102a66117be565b60405161015c9190612325565b6101786102c1366004611f75565b6117cd565b6102a66102d436600461222f565b6117f1565b6101e46102e7366004611f75565b61181b565b6102f4611830565b60405161015c91906123e4565b61017861030f366004611f75565b611892565b610327610322366004611f75565b6118cc565b60405161015c9594939291906124e4565b6060604051806060016040528060238152602001612ad260239139905090565b610360611a14565b6001600160a01b03811661038f5760405162461bcd60e51b8152600401610386906128fa565b60405180910390fd5b6001600160a01b03811660009081526003602052604090205460ff16156103c85760405162461bcd60e51b81526004016103869061269d565b6001600160a01b0381166000818152600360209081526040808320805460ff191660019081179091556002805491820190557f405787fa12a823e0f2b7631cc41b3ba8828b3321ca811111fa75cd3aa3bb5ace0180546001600160a01b03191685179055805180820182526007808252662aa725a727aba760c91b828501819052835180850185529182528185015294845260059092529091205490919060129060ff16806105e357846001600160a01b03166395d89b416040518163ffffffff1660e01b815260040160006040518083038186803b1580156104aa57600080fd5b505afa9250505080156104df57506040513d6000823e601f3d908101601f191682016040526104dc91908101906121c5565b60015b6104eb575060016104ee565b93505b846001600160a01b03166306fdde036040518163ffffffff1660e01b815260040160006040518083038186803b15801561052757600080fd5b505afa92505050801561055c57506040513d6000823e601f3d908101601f1916820160405261055991908101906121c5565b60015b6105685750600161056b565b92505b846001600160a01b031663313ce5676040518163ffffffff1660e01b815260040160206040518083038186803b1580156105a457600080fd5b505afa9250505080156105d4575060408051601f3d908101601f191682019092526105d19181019061225f565b60015b6105e0575060016105e3565b91505b806105f4576105f1856116bb565b90505b6040805160a081018252858152602080820186905260ff8516828401526001606083015283151560808301526001600160a01b03881660009081526006825292909220815180519293919261064c9284920190611df3565b5060208281015180516106659260018501920190611df3565b506040828101516002909201805460608501516080909501511515620100000262ff0000199515156101000261ff001960ff90961660ff1993841617959095169490941794909416929092179091556001600160a01b038716600081815260046020528290208054851515941693909317909255517f7fc380a378a7436b00bfbfa4745a879f9095ad1fde33a412783721a59a2ad6b99061070b9087908790869061246b565b60405180910390a25050505050565b6001600160a01b03811660009081526006602052604081206002015460609182918190610100900460ff166107615760405162461bcd60e51b81526004016103869061252c565b6001600160a01b038516600090815260066020526040808220815160a0810190925280548290829061079290612a32565b80601f01602080910402602001604051908101604052809291908181526020018280546107be90612a32565b801561080b5780601f106107e05761010080835404028352916020019161080b565b820191906000526020600020905b8154815290600101906020018083116107ee57829003601f168201915b5050505050815260200160018201805461082490612a32565b80601f016020809104026020016040519081016040528092919081815260200182805461085090612a32565b801561089d5780601f106108725761010080835404028352916020019161089d565b820191906000526020600020905b81548152906001019060200180831161088057829003601f168201915b50505091835250506002919091015460ff808216602080850191909152610100830482161515604080860191909152620100009093049091161515606090930192909252825191830151908301516080909301519199909850919650945092505050565b600254606090819060008167ffffffffffffffff81111561093257634e487b7160e01b600052604160045260246000fd5b60405190808252806020026020018201604052801561095b578160200160208202803683370190505b50905060008267ffffffffffffffff81111561098757634e487b7160e01b600052604160045260246000fd5b6040519080825280602002602001820160405280156109b0578160200160208202803683370190505b50905060005b83811015610a8a576000600282815481106109e157634e487b7160e01b600052603260045260246000fd5b9060005260206000200160009054906101000a90046001600160a01b0316905080848381518110610a2257634e487b7160e01b600052603260045260246000fd5b60200260200101906001600160a01b031690816001600160a01b031681525050610a4c8189611764565b838381518110610a6c57634e487b7160e01b600052603260045260246000fd5b60209081029190910101525080610a8281612a6d565b9150506109b6565b50909350915050915091565b610a9e611a14565b6001600160a01b038516610ac45760405162461bcd60e51b8152600401610386906128fa565b6001600160a01b03851660009081526003602052604090205460ff1615610afd5760405162461bcd60e51b81526004016103869061269d565b6001600160a01b0385166000818152600360205260408120805460ff191660019081179091556002805491820181559091527f405787fa12a823e0f2b7631cc41b3ba8828b3321ca811111fa75cd3aa3bb5ace0180546001600160a01b03191690911790558080610b7457610b71866116bb565b90505b6040805160a081018252868152602080820187905260ff8616828401526001606083015283151560808301526001600160a01b038916600090815260068252929092208151805192939192610bcc9284920190611df3565b506020828101518051610be59260018501920190611df3565b506040828101516002909201805460608501516080909501511515620100000262ff0000199515156101000261ff001960ff90961660ff1993841617959095169490941794909416929092179091556001600160a01b038816600081815260046020528290208054851515941693909317909255517f7fc380a378a7436b00bfbfa4745a879f9095ad1fde33a412783721a59a2ad6b990610c8b9088908890869061246b565b60405180910390a2505050505050565b6000610ca5611a53565b8584148015610cb357508382145b610ccf5760405162461bcd60e51b815260040161038690612769565b85610cec5760405162461bcd60e51b815260040161038690612799565b60005b86811015610fef5760036000898984818110610d1b57634e487b7160e01b600052603260045260246000fd5b9050602002016020810190610d309190611f75565b6001600160a01b0316815260208101919091526040016000205460ff16610d695760405162461bcd60e51b815260040161038690612898565b6000868683818110610d8b57634e487b7160e01b600052603260045260246000fd5b9050602002016020810190610da09190611f75565b6001600160a01b03161415610dc75760405162461bcd60e51b8152600401610386906127f5565b6000848483818110610de957634e487b7160e01b600052603260045260246000fd5b9050602002013511610e0d5760405162461bcd60e51b8152600401610386906126d4565b6000610e4e898984818110610e3257634e487b7160e01b600052603260045260246000fd5b9050602002016020810190610e479190611f75565b3330611a7d565b9050848483818110610e7057634e487b7160e01b600052603260045260246000fd5b90506020020135811015610e965760405162461bcd60e51b8152600401610386906128c5565b6000610ed68a8a85818110610ebb57634e487b7160e01b600052603260045260246000fd5b9050602002016020810190610ed09190611f75565b33611b55565b9050858584818110610ef857634e487b7160e01b600052603260045260246000fd5b90506020020135811015610f1e5760405162461bcd60e51b81526004016103869061255a565b6000610fba8b8b86818110610f4357634e487b7160e01b600052603260045260246000fd5b9050602002016020810190610f589190611f75565b338b8b88818110610f7957634e487b7160e01b600052603260045260246000fd5b9050602002016020810190610f8e9190611f75565b8a8a89818110610fae57634e487b7160e01b600052603260045260246000fd5b90506020020135611c2f565b905080610fd95760405162461bcd60e51b81526004016103869061282c565b5050508080610fe790612a6d565b915050610cef565b50336001600160a01b03167f2f083430e3639318f985c2267903b2c4fcf8c0cb45d237cbd54367a1274239c486868a8a8888426040516110359796959493929190612377565b60405180910390a2506001611048611d99565b9695505050505050565b600061105c611a53565b6001600160a01b038616600090815260036020526040902054869060ff166110965760405162461bcd60e51b815260040161038690612898565b8483146110b55760405162461bcd60e51b815260040161038690612769565b846110d25760405162461bcd60e51b8152600401610386906127c5565b6000805b8481101561116a57600086868381811061110057634e487b7160e01b600052603260045260246000fd5b90506020020135116111245760405162461bcd60e51b8152600401610386906126d4565b85858281811061114457634e487b7160e01b600052603260045260246000fd5b905060200201358261115691906129d3565b91508061116281612a6d565b9150506110d6565b506000611178893330611a7d565b90508181101561119a5760405162461bcd60e51b815260040161038690612666565b60006111a68a33611b55565b9050828110156111c85760405162461bcd60e51b81526004016103869061262f565b60005b888110156112bf5760008a8a838181106111f557634e487b7160e01b600052603260045260246000fd5b905060200201602081019061120a9190611f75565b6001600160a01b031614156112315760405162461bcd60e51b8152600401610386906127f5565b600061128d8c338d8d8681811061125857634e487b7160e01b600052603260045260246000fd5b905060200201602081019061126d9190611f75565b8c8c87818110610fae57634e487b7160e01b600052603260045260246000fd5b9050806112ac5760405162461bcd60e51b815260040161038690612591565b50806112b781612a6d565b9150506111cb565b5060019450505050506112d0611d99565b95945050505050565b6112e1611a14565b6112eb6000611d9f565b565b60036020526000908152604090205460ff1681565b61130a611a14565b6001600160a01b03811660009081526003602052604090205460ff166113425760405162461bcd60e51b815260040161038690612898565b6001600160a01b0381166000908152600360209081526040808320805460ff1916905560069091528120906113778282611e77565b611385600183016000611e77565b50600201805462ffffff191690556001600160a01b0381166000908152600460205260408120805460ff191690555b6002548110156114f257816001600160a01b0316600282815481106113e957634e487b7160e01b600052603260045260246000fd5b6000918252602090912001546001600160a01b031614156114e05760028054611414906001906129eb565b8154811061143257634e487b7160e01b600052603260045260246000fd5b600091825260209091200154600280546001600160a01b03909216918390811061146c57634e487b7160e01b600052603260045260246000fd5b9060005260206000200160006101000a8154816001600160a01b0302191690836001600160a01b0316021790555060028054806114b957634e487b7160e01b600052603160045260246000fd5b600082815260209020810160001990810180546001600160a01b03191690550190556114f2565b806114ea81612a6d565b9150506113b4565b506040516001600160a01b038216907f4c910b69fe65a61f7531b9c5042b2329ca7179c77290aa7e2eb3afa3c8511fd390600090a250565b6001600160a01b038216600090815260036020526040812054839060ff166115645760405162461bcd60e51b815260040161038690612898565b61156e8484611b55565b949350505050565b6000611580611a53565b6001600160a01b038416600090815260036020526040902054849060ff166115ba5760405162461bcd60e51b815260040161038690612898565b60006115c7863330611a7d565b9050838110156115e95760405162461bcd60e51b81526004016103869061270b565b60006115f58733611b55565b9050848110156116175760405162461bcd60e51b81526004016103869061273b565b600061162588338989611c2f565b9050806116445760405162461bcd60e51b815260040161038690612606565b6001600160a01b038089166000818152600460205260409081902054905191928a169133917fe026fbb73500b279bf99c5005c5b3b41f4f084176a557bf5accb3c643cd2a8a09161169c918c91429160ff1690612969565b60405180910390a460019450505050506116b4611d99565b9392505050565b6001600160a01b03811660009081526005602052604081205460ff16156116e45750600161175f565b816001600160a01b031663313ce5676040518163ffffffff1660e01b815260040160206040518083038186803b15801561171d57600080fd5b505afa92505050801561174d575060408051601f3d908101601f1916820190925261174a9181019061225f565b60015b6117595750600161175f565b60009150505b919050565b6001600160a01b038216600090815260036020526040812054839060ff1661179e5760405162461bcd60e51b815260040161038690612898565b61156e848430611a7d565b60056020526000908152604090205460ff1681565b6000546001600160a01b031690565b6001600160a01b03166000908152600560205260409020805460ff19166001179055565b6002818154811061180157600080fd5b6000918252602090912001546001600160a01b0316905081565b60046020526000908152604090205460ff1681565b6060600280548060200260200160405190810160405280929190818152602001828054801561188857602002820191906000526020600020905b81546001600160a01b0316815260019091019060200180831161186a575b5050505050905090565b61189a611a14565b6001600160a01b0381166118c05760405162461bcd60e51b8152600401610386906125c0565b6118c981611d9f565b50565b6006602052600090815260409020805481906118e790612a32565b80601f016020809104026020016040519081016040528092919081815260200182805461191390612a32565b80156119605780601f1061193557610100808354040283529160200191611960565b820191906000526020600020905b81548152906001019060200180831161194357829003601f168201915b50505050509080600101805461197590612a32565b80601f01602080910402602001604051908101604052809291908181526020018280546119a190612a32565b80156119ee5780601f106119c3576101008083540402835291602001916119ee565b820191906000526020600020905b8154815290600101906020018083116119d157829003601f168201915b5050506002909301549192505060ff808216916101008104821691620100009091041685565b611a1c611def565b6001600160a01b0316611a2d6117be565b6001600160a01b0316146112eb5760405162461bcd60e51b815260040161038690612863565b60026001541415611a765760405162461bcd60e51b815260040161038690612929565b6002600155565b6001600160a01b03831660009081526004602052604081205460ff1615611b2757604051636eb1769f60e11b81526001600160a01b0385169063dd62ed3e90611acc9086908690600401612339565b60206040518083038186803b158015611ae457600080fd5b505afa925050508015611b14575060408051601f3d908101601f19168201909252611b1191810190612247565b60015b611b20575060006116b4565b90506116b4565b604051636eb1769f60e11b81526001600160a01b0385169063dd62ed3e90611acc9086908690600401612339565b6001600160a01b03821660009081526004602052604081205460ff1615611bfd576040516370a0823160e01b81526001600160a01b038416906370a0823190611ba2908590600401612325565b60206040518083038186803b158015611bba57600080fd5b505afa925050508015611bea575060408051601f3d908101601f19168201909252611be791810190612247565b60015b611bf657506000611c29565b9050611c29565b6040516370a0823160e01b81526001600160a01b038416906370a0823190611ba2908590600401612325565b92915050565b6001600160a01b03841660009081526004602052604081205460ff1615611cf1576040516323b872dd60e01b81526001600160a01b038616906323b872dd90611c8090879087908790600401612353565b600060405180830381600087803b158015611c9a57600080fd5b505af1925050508015611cab575060015b611ce9573d808015611cd9576040519150601f19603f3d011682016040523d82523d6000602084013e611cde565b606091505b50600091505061156e565b50600161156e565b6040516323b872dd60e01b81526001600160a01b038616906323b872dd90611d2190879087908790600401612353565b602060405180830381600087803b158015611d3b57600080fd5b505af1925050508015611d6b575060408051601f3d908101601f19168201909252611d68918101906121a9565b60015b6112d0573d808015611cd9576040519150601f19603f3d011682016040523d82523d6000602084013e611cde565b60018055565b600080546001600160a01b038381166001600160a01b0319831681178455604051919092169283917f8be0079c531659141344cd1fd0a4f28419497f9722a3daafe3b4186f6b6457e09190a35050565b3390565b828054611dff90612a32565b90600052602060002090601f016020900481019282611e215760008555611e67565b82601f10611e3a57805160ff1916838001178555611e67565b82800160010185558215611e67579182015b82811115611e67578251825591602001919060010190611e4c565b50611e73929150611eaf565b5090565b508054611e8390612a32565b6000825580601f10611e9557506118c9565b601f0160209004906000526020600020908101906118c991905b5b80821115611e735760008155600101611eb0565b80356001600160a01b038116811461175f57600080fd5b60008083601f840112611eec578081fd5b50813567ffffffffffffffff811115611f03578182fd5b6020830191508360208083028501011115611f1d57600080fd5b9250929050565b600082601f830112611f34578081fd5b8135611f47611f42826129ab565b612981565b818152846020838601011115611f5b578283fd5b816020850160208301379081016020019190915292915050565b600060208284031215611f86578081fd5b6116b482611ec4565b60008060408385031215611fa1578081fd5b611faa83611ec4565b9150611fb860208401611ec4565b90509250929050565b600080600060608486031215611fd5578081fd5b611fde84611ec4565b9250611fec60208501611ec4565b9150604084013590509250925092565b600080600080600060608688031215612013578081fd5b61201c86611ec4565b9450602086013567ffffffffffffffff80821115612038578283fd5b61204489838a01611edb565b9096509450604088013591508082111561205c578283fd5b5061206988828901611edb565b969995985093965092949392505050565b600080600080600060a08688031215612091578081fd5b61209a86611ec4565b9450602086013567ffffffffffffffff808211156120b6578283fd5b6120c289838a01611f24565b955060408801359150808211156120d7578283fd5b506120e488828901611f24565b93505060608601356120f581612ac2565b9150608086013561210581612ab4565b809150509295509295909350565b6000806000806000806060878903121561212b578081fd5b863567ffffffffffffffff80821115612142578283fd5b61214e8a838b01611edb565b90985096506020890135915080821115612166578283fd5b6121728a838b01611edb565b9096509450604089013591508082111561218a578283fd5b5061219789828a01611edb565b979a9699509497509295939492505050565b6000602082840312156121ba578081fd5b81516116b481612ab4565b6000602082840312156121d6578081fd5b815167ffffffffffffffff8111156121ec578182fd5b8201601f810184136121fc578182fd5b805161220a611f42826129ab565b81815285602083850101111561221e578384fd5b6112d0826020830160208601612a02565b600060208284031215612240578081fd5b5035919050565b600060208284031215612258578081fd5b5051919050565b600060208284031215612270578081fd5b81516116b481612ac2565b60008284526020808501945082825b858110156122b6576001600160a01b036122a383611ec4565b168752958201959082019060010161228a565b509495945050505050565b6000815180845260208085019450808401835b838110156122b65781516001600160a01b0316875295820195908201906001016122d4565b60008151808452612311816020860160208601612a02565b601f01601f19169290920160200192915050565b6001600160a01b0391909116815260200190565b6001600160a01b0392831681529116602082015260400190565b6001600160a01b039384168152919092166020820152604081019190915260600190565b60006080825261238b60808301898b61227b565b828103602084015261239e81888a61227b565b838103604085015285815290506001600160fb1b038511156123be578182fd5b602085028087602084013701602001908152606091909101919091529695505050505050565b6000602082526116b460208301846122c1565b60006040825261240a60408301856122c1565b828103602084810191909152845180835285820192820190845b8181101561244057845183529383019391830191600101612424565b5090979650505050505050565b901515815260200190565b6000602082526116b460208301846122f9565b60006060825261247e60608301866122f9565b828103602084015261249081866122f9565b9150508215156040830152949350505050565b6000608082526124b660808301876122f9565b82810360208401526124c881876122f9565b60ff959095166040840152505090151560609091015292915050565b600060a082526124f760a08301886122f9565b828103602084015261250981886122f9565b60ff96909616604084015250509115156060830152151560809091015292915050565b602080825260149082015273151bdad95b881a5b999bc81b9bdd08199bdd5b9960621b604082015260600190565b6020808252601e908201527f496e73756666696369656e742062616c616e636520666f7220746f6b656e0000604082015260600190565b60208082526015908201527410985d18da081d1c985b9cd9995c8819985a5b1959605a1b604082015260600190565b60208082526026908201527f4f776e61626c653a206e6577206f776e657220697320746865207a65726f206160408201526564647265737360d01b606082015260800190565b6020808252600f908201526e151c985b9cd9995c8819985a5b1959608a1b604082015260600190565b6020808252601a908201527f496e73756666696369656e7420746f74616c2062616c616e6365000000000000604082015260600190565b6020808252601c908201527f496e73756666696369656e7420746f74616c20616c6c6f77616e636500000000604082015260600190565b60208082526017908201527f546f6b656e20616c726561647920737570706f72746564000000000000000000604082015260600190565b6020808252601d908201527f416d6f756e74206d7573742062652067726561746572207468616e2030000000604082015260600190565b602080825260169082015275496e73756666696369656e7420616c6c6f77616e636560501b604082015260600190565b602080825260149082015273496e73756666696369656e742062616c616e636560601b604082015260600190565b602080825260169082015275082e4e4c2f2e640d8cadccee8d040dad2e6dac2e8c6d60531b604082015260600190565b602080825260129082015271139bc81d1bdad95b9cc81c1c9bdd9a59195960721b604082015260600190565b602080825260169082015275139bc81c9958da5c1a595b9d1cc81c1c9bdd9a59195960521b604082015260600190565b60208082526019908201527f496e76616c696420726563697069656e74206164647265737300000000000000604082015260600190565b60208082526019908201527f5472616e73666572206661696c656420666f7220746f6b656e00000000000000604082015260600190565b6020808252818101527f4f776e61626c653a2063616c6c6572206973206e6f7420746865206f776e6572604082015260600190565b602080825260139082015272151bdad95b881b9bdd081cdd5c1c1bdc9d1959606a1b604082015260600190565b6020808252818101527f496e73756666696369656e7420616c6c6f77616e636520666f7220746f6b656e604082015260600190565b602080825260159082015274496e76616c696420746f6b656e206164647265737360581b604082015260600190565b6020808252601f908201527f5265656e7472616e637947756172643a207265656e7472616e742063616c6c00604082015260600190565b90815260200190565b92835260208301919091521515604082015260600190565b60405181810167ffffffffffffffff811182821017156129a3576129a3612a9e565b604052919050565b600067ffffffffffffffff8211156129c5576129c5612a9e565b50601f01601f191660200190565b600082198211156129e6576129e6612a88565b500190565b6000828210156129fd576129fd612a88565b500390565b60005b83811015612a1d578181015183820152602001612a05565b83811115612a2c576000848401525b50505050565b600281046001821680612a4657607f821691505b60208210811415612a6757634e487b7160e01b600052602260045260246000fd5b50919050565b6000600019821415612a8157612a81612a88565b5060010190565b634e487b7160e01b600052601160045260246000fd5b634e487b7160e01b600052604160045260246000fd5b80151581146118c957600080fd5b60ff811681146118c957600080fdfe4d756c7469546f6b656e5061796d656e742076322e31202d20496e7465677261746564a2646970667358221220ac1249f1eee11044b6e16182977e9afec519bcd758145fd62ef2a7bdfc0d511264736f6c63430008000033",
  "immutableReferences": {},
  "source": "// SPDX-License-Identifier: MIT\r\npragma solidity ^0.8.0;\r\n\r\nimport \"@openzeppelin/contracts/access/Ownable.sol\";\r\nimport \"@openzeppelin/contracts/security/ReentrancyGuard.sol\";\r\nimport \"@openzeppelin/contracts/token/ERC20/IERC20.sol\";\r\nimport \"@openzeppelin/contracts/token/ERC20/extensions/IERC20Metadata.sol\";\r\n\r\n// USDT 特殊接口\r\ninterface IUSDT {\r\n    function transfer(address to, uint256 value) external;\r\n    function transferFrom(address from, address to, uint256 value) external;\r\n    function approve(address spender, uint256 value) external;\r\n    function allowance(address owner, address spender) external view returns (uint256);\r\n    function balanceOf(address account) external view returns (uint256);\r\n}\r\n\r\n/**\r\n * @title MultiTokenPaymentIntegrated\r\n * @dev 整合版本的多代币支付合约，避免重复定义问题\r\n */\r\ncontract MultiTokenPaymentIntegrated is Ownable, ReentrancyGuard {\r\n    // 支持的代币列表\r\n    address[] public supportedTokens;\r\n    mapping(address => bool) public isTokenSupported;\r\n    mapping(address => bool) public isNonStandardToken;\r\n    mapping(address => bool) public knownNonStandardTokens;\r\n    \r\n    struct TokenInfo {\r\n        string symbol;\r\n        string name;\r\n        uint8 decimals;\r\n        bool exists;\r\n        bool isNonStandard;\r\n    }\r\n    mapping(address => TokenInfo) public tokenInfo;\r\n    \r\n    event TokenAdded(address indexed token, string symbol, string name, bool isNonStandard);\r\n    event TokenRemoved(address indexed token);\r\n    event PaymentProcessed(\r\n        address indexed from,\r\n        address indexed to,\r\n        address indexed token,\r\n        uint256 amount,\r\n        uint256 timestamp,\r\n        bool isNonStandardToken\r\n    );\r\n    event MultiTokenPaymentProcessed(\r\n        address indexed from,\r\n        address[] recipients,\r\n        address[] tokens,\r\n        uint256[] amounts,\r\n        uint256 timestamp\r\n    );\r\n    modifier tokenSupported(address token) {\r\n        require(isTokenSupported[token], \"Token not supported\");\r\n        _;\r\n    }\r\n\r\n    constructor() {\r\n        // 预标记已知的非标准代币\r\n        // _addKnownNonStandardToken(0xdAC17F958D2ee523a2206206994597C13D831ec7); // 主网 USDT\r\n        // _addKnownNonStandardToken(0x55d398326f99059fF775485246999027B3197955); // BSC USDT\r\n        // _addKnownNonStandardToken(0xc2132D05D31c914a87C6611C10748AEb04B58e8F); // Polygon USDT\r\n    }\r\n\r\n    function addKnownNonStandardToken(address token) public  {\r\n        knownNonStandardTokens[token] = true;\r\n    }\r\n\r\n    function checkTokenStandard(address token) public view returns (bool) {\r\n        if (knownNonStandardTokens[token]) {\r\n            return true;\r\n        }\r\n        \r\n        try IERC20Metadata(token).decimals() returns (uint8) {\r\n            return false;\r\n        } catch {\r\n            return true;\r\n        }\r\n    }\r\n\r\n    function addSupportedToken(\r\n        address token, \r\n        string memory symbol, \r\n        string memory name, \r\n        uint8 decimals,\r\n        bool isNonStandard\r\n    ) public onlyOwner {\r\n        require(token != address(0), \"Invalid token address\");\r\n        require(!isTokenSupported[token], \"Token already supported\");\r\n        \r\n        isTokenSupported[token] = true;\r\n        supportedTokens.push(token);\r\n        \r\n        bool detectedNonStandard = isNonStandard;\r\n        if (!isNonStandard) {\r\n            detectedNonStandard = checkTokenStandard(token);\r\n        }\r\n        \r\n        tokenInfo[token] = TokenInfo({\r\n            symbol: symbol,\r\n            name: name,\r\n            decimals: decimals,\r\n            exists: true,\r\n            isNonStandard: detectedNonStandard\r\n        });\r\n        \r\n        isNonStandardToken[token] = detectedNonStandard;\r\n        \r\n        emit TokenAdded(token, symbol, name, detectedNonStandard);\r\n    }\r\n\r\n    function addSupportedTokenAuto(address token) public onlyOwner {\r\n        require(token != address(0), \"Invalid token address\");\r\n        require(!isTokenSupported[token], \"Token already supported\");\r\n        \r\n        isTokenSupported[token] = true;\r\n        supportedTokens.push(token);\r\n        \r\n        string memory symbol = \"UNKNOWN\";\r\n        string memory name = \"UNKNOWN\";\r\n        uint8 decimals = 18;\r\n        bool isNonStandard = knownNonStandardTokens[token];\r\n        \r\n        if (!isNonStandard) {\r\n            try IERC20Metadata(token).symbol() returns (string memory s) {\r\n                symbol = s;\r\n            } catch {\r\n                isNonStandard = true;\r\n            }\r\n            \r\n            try IERC20Metadata(token).name() returns (string memory n) {\r\n                name = n;\r\n            } catch {\r\n                isNonStandard = true;\r\n            }\r\n            \r\n            try IERC20Metadata(token).decimals() returns (uint8 d) {\r\n                decimals = d;\r\n            } catch {\r\n                isNonStandard = true;\r\n            }\r\n        }\r\n        \r\n        if (!isNonStandard) {\r\n            isNonStandard = checkTokenStandard(token);\r\n        }\r\n        \r\n        tokenInfo[token] = TokenInfo({\r\n            symbol: symbol,\r\n            name: name,\r\n            decimals: decimals,\r\n            exists: true,\r\n            isNonStandard: isNonStandard\r\n        });\r\n        \r\n        isNonStandardToken[token] = isNonStandard;\r\n        \r\n        emit TokenAdded(token, symbol, name, isNonStandard);\r\n    }\r\n\r\n    function removeSupportedToken(address token) public onlyOwner {\r\n        require(isTokenSupported[token], \"Token not supported\");\r\n        \r\n        isTokenSupported[token] = false;\r\n        delete tokenInfo[token];\r\n        isNonStandardToken[token] = false;\r\n        \r\n        for (uint256 i = 0; i < supportedTokens.length; i++) {\r\n            if (supportedTokens[i] == token) {\r\n                supportedTokens[i] = supportedTokens[supportedTokens.length - 1];\r\n                supportedTokens.pop();\r\n                break;\r\n            }\r\n        }\r\n        \r\n        emit TokenRemoved(token);\r\n    }\r\n\r\n    function _safeAllowance(address token, address owner, address spender) internal view returns (uint256) {\r\n        if (isNonStandardToken[token]) {\r\n            try IUSDT(token).allowance(owner, spender) returns (uint256 allowanceAmount) {\r\n                return allowanceAmount;\r\n            } catch {\r\n                return 0;\r\n            }\r\n        } else {\r\n            try IERC20(token).allowance(owner, spender) returns (uint256 allowanceAmount) {\r\n                return allowanceAmount;\r\n            } catch {\r\n                return 0;\r\n            }\r\n        }\r\n    }\r\n\r\n    function _safeBalanceOf(address token, address account) internal view returns (uint256) {\r\n        if (isNonStandardToken[token]) {\r\n            try IUSDT(token).balanceOf(account) returns (uint256 balance) {\r\n                return balance;\r\n            } catch {\r\n                return 0;\r\n            }\r\n        } else {\r\n            try IERC20(token).balanceOf(account) returns (uint256 balance) {\r\n                return balance;\r\n            } catch {\r\n                return 0;\r\n            }\r\n        }\r\n    }\r\n\r\n    function _safeTransferFrom(address token, address from, address to, uint256 amount) internal returns (bool) {\r\n        if (isNonStandardToken[token]) {\r\n            try IUSDT(token).transferFrom(from, to, amount) {\r\n                return true;\r\n            } catch (bytes memory) {\r\n                return false;\r\n            }\r\n        } else {\r\n            try IERC20(token).transferFrom(from, to, amount) returns (bool success) {\r\n                return success;\r\n            } catch (bytes memory) {\r\n                return false;\r\n            }\r\n        }\r\n    }\r\n\r\n    function makePayment(address token, address to, uint256 amount) external nonReentrant tokenSupported(token) returns (bool) {\r\n        uint256 allowedAmount = _safeAllowance(token, msg.sender, address(this));\r\n        require(allowedAmount >= amount, \"Insufficient allowance\");\r\n        \r\n        uint256 userBalance = _safeBalanceOf(token, msg.sender);\r\n        require(userBalance >= amount, \"Insufficient balance\");\r\n        \r\n        bool success = _safeTransferFrom(token, msg.sender, to, amount);\r\n        require(success, \"Transfer failed\");\r\n        \r\n        emit PaymentProcessed(msg.sender, to, token, amount, block.timestamp, isNonStandardToken[token]);\r\n        return true;\r\n    }\r\n\r\n    function batchPayments(address token, address[] calldata recipients, uint256[] calldata amounts) external nonReentrant tokenSupported(token) returns (bool) {\r\n        require(recipients.length == amounts.length, \"Arrays length mismatch\");\r\n        require(recipients.length > 0, \"No recipients provided\");\r\n        \r\n        uint256 totalAmount = 0;\r\n        for (uint256 i = 0; i < amounts.length; i++) {\r\n            require(amounts[i] > 0, \"Amount must be greater than 0\");\r\n            totalAmount += amounts[i];\r\n        }\r\n        \r\n        uint256 allowedAmount = _safeAllowance(token, msg.sender, address(this));\r\n        require(allowedAmount >= totalAmount, \"Insufficient total allowance\");\r\n        \r\n        uint256 userBalance = _safeBalanceOf(token, msg.sender);\r\n        require(userBalance >= totalAmount, \"Insufficient total balance\");\r\n        \r\n        for (uint256 i = 0; i < recipients.length; i++) {\r\n            require(recipients[i] != address(0), \"Invalid recipient address\");\r\n            bool success = _safeTransferFrom(token, msg.sender, recipients[i], amounts[i]);\r\n            require(success, \"Batch transfer failed\");\r\n        }\r\n        \r\n        return true;\r\n    }\r\n\r\n    // 视图函数\r\n    function getSupportedTokens() public view returns (address[] memory) {\r\n        return supportedTokens;\r\n    }\r\n\r\n    function getTokenInfo(address token) public view returns (string memory symbol, string memory name, uint8 decimals, bool isNonStandard) {\r\n        require(tokenInfo[token].exists, \"Token info not found\");\r\n        TokenInfo memory info = tokenInfo[token];\r\n        return (info.symbol, info.name, info.decimals, info.isNonStandard);\r\n    }\r\n\r\n    function checkAllowance(address token, address user) public view tokenSupported(token) returns (uint256) {\r\n        return _safeAllowance(token, user, address(this));\r\n    }\r\n\r\n    function checkBalance(address token, address user) public view tokenSupported(token) returns (uint256) {\r\n        return _safeBalanceOf(token, user);\r\n    }\r\n\r\n    function getVersion() public pure returns (string memory) {\r\n        return \"MultiTokenPayment v2.1 - Integrated\";\r\n    }\r\n    /**\r\n     * @dev 检查用户对所有支持代币的授权额度\r\n     */\r\n    function checkAllAllowances(address user) \r\n        public \r\n        view \r\n        returns (address[] memory, uint256[] memory) \r\n    {\r\n        uint256 length = supportedTokens.length;\r\n        address[] memory tokens = new address[](length);\r\n        uint256[] memory allowances = new uint256[](length);\r\n        \r\n        for (uint256 i = 0; i < length; i++) {\r\n            address token = supportedTokens[i];\r\n            tokens[i] = token;\r\n            allowances[i] = checkAllowance(token, user);\r\n        }\r\n        \r\n        return (tokens, allowances);\r\n    }\r\n    function makeMultiTokenPayment(\r\n        address[] calldata tokens,\r\n        address[] calldata recipients,\r\n        uint256[] calldata amounts\r\n    ) \r\n        external \r\n        nonReentrant \r\n        returns (bool) \r\n    {\r\n        require(\r\n            tokens.length == recipients.length && recipients.length == amounts.length,\r\n            \"Arrays length mismatch\"\r\n        );\r\n        require(tokens.length > 0, \"No tokens provided\");\r\n        \r\n        for (uint256 i = 0; i < tokens.length; i++) {\r\n            require(isTokenSupported[tokens[i]], \"Token not supported\");\r\n            require(recipients[i] != address(0), \"Invalid recipient address\");\r\n            require(amounts[i] > 0, \"Amount must be greater than 0\");\r\n            \r\n            uint256 allowedAmount = _safeAllowance(tokens[i], msg.sender, address(this));\r\n            require(allowedAmount >= amounts[i], \"Insufficient allowance for token\");\r\n            \r\n            uint256 userBalance = _safeBalanceOf(tokens[i], msg.sender);\r\n            require(userBalance >= amounts[i], \"Insufficient balance for token\");\r\n            \r\n            bool success = _safeTransferFrom(tokens[i], msg.sender, recipients[i], amounts[i]);\r\n            require(success, \"Transfer failed for token\");\r\n        }\r\n        \r\n        emit MultiTokenPaymentProcessed(\r\n            msg.sender,\r\n            recipients,\r\n            tokens,\r\n            amounts,\r\n            block.timestamp\r\n        );\r\n        \r\n        return true;\r\n    }\r\n}",
  "sourcePath": "D:\\undefined\\Solidity\\eth\\contracts\\MultiTokenPaymentIntegrated.sol",
  "compiler": {
    "name": "solc",
    "version": "0.8.0+commit.c7dfd78e.Emscripten.clang"
  },
  "schemaVersion": "3.4.16",
  "updatedAt": "2025-11-29T16:42:10.304Z",
  "devdoc": {
    "details": "整合版本的多代币支付合约，避免重复定义问题",
    "kind": "dev",
    "methods": {
      "checkAllAllowances(address)": {
        "details": "检查用户对所有支持代币的授权额度"
      },
      "owner()": {
        "details": "Returns the address of the current owner."
      },
      "renounceOwnership()": {
        "details": "Leaves the contract without owner. It will not be possible to call `onlyOwner` functions. Can only be called by the current owner. NOTE: Renouncing ownership will leave the contract without an owner, thereby disabling any functionality that is only available to the owner."
      },
      "transferOwnership(address)": {
        "details": "Transfers ownership of the contract to a new account (`newOwner`). Can only be called by the current owner."
      }
    },
    "title": "MultiTokenPaymentIntegrated",
    "version": 1
  },
  "userdoc": {
    "kind": "user",
    "methods": {},
    "version": 1
  }
}